{
  "_format": "hh-sol-artifact-1",
  "contractName": "IdentityRegistry",
  "sourceName": "contracts/IdentityRegistry.sol",
  "abi": [
    {
      "inputs": [],
      "stateMutability": "nonpayable",
      "type": "constructor"
    },
    {
      "inputs": [],
      "name": "ECDSAInvalidSignature",
      "type": "error"
    },
    {
      "inputs": [
        {
          "internalType": "uint256",
          "name": "length",
          "type": "uint256"
        }
      ],
      "name": "ECDSAInvalidSignatureLength",
      "type": "error"
    },
    {
      "inputs": [
        {
          "internalType": "bytes32",
          "name": "s",
          "type": "bytes32"
        }
      ],
      "name": "ECDSAInvalidSignatureS",
      "type": "error"
    },
    {
      "inputs": [
        {
          "internalType": "address",
          "name": "sender",
          "type": "address"
        },
        {
          "internalType": "uint256",
          "name": "tokenId",
          "type": "uint256"
        },
        {
          "internalType": "address",
          "name": "owner",
          "type": "address"
        }
      ],
      "name": "ERC721IncorrectOwner",
      "type": "error"
    },
    {
      "inputs": [
        {
          "internalType": "address",
          "name": "operator",
          "type": "address"
        },
        {
          "internalType": "uint256",
          "name": "tokenId",
          "type": "uint256"
        }
      ],
      "name": "ERC721InsufficientApproval",
      "type": "error"
    },
    {
      "inputs": [
        {
          "internalType": "address",
          "name": "approver",
          "type": "address"
        }
      ],
      "name": "ERC721InvalidApprover",
      "type": "error"
    },
    {
      "inputs": [
        {
          "internalType": "address",
          "name": "operator",
          "type": "address"
        }
      ],
      "name": "ERC721InvalidOperator",
      "type": "error"
    },
    {
      "inputs": [
        {
          "internalType": "address",
          "name": "owner",
          "type": "address"
        }
      ],
      "name": "ERC721InvalidOwner",
      "type": "error"
    },
    {
      "inputs": [
        {
          "internalType": "address",
          "name": "receiver",
          "type": "address"
        }
      ],
      "name": "ERC721InvalidReceiver",
      "type": "error"
    },
    {
      "inputs": [
        {
          "internalType": "address",
          "name": "sender",
          "type": "address"
        }
      ],
      "name": "ERC721InvalidSender",
      "type": "error"
    },
    {
      "inputs": [
        {
          "internalType": "uint256",
          "name": "tokenId",
          "type": "uint256"
        }
      ],
      "name": "ERC721NonexistentToken",
      "type": "error"
    },
    {
      "inputs": [],
      "name": "InvalidShortString",
      "type": "error"
    },
    {
      "inputs": [
        {
          "internalType": "address",
          "name": "owner",
          "type": "address"
        }
      ],
      "name": "OwnableInvalidOwner",
      "type": "error"
    },
    {
      "inputs": [
        {
          "internalType": "address",
          "name": "account",
          "type": "address"
        }
      ],
      "name": "OwnableUnauthorizedAccount",
      "type": "error"
    },
    {
      "inputs": [
        {
          "internalType": "string",
          "name": "str",
          "type": "string"
        }
      ],
      "name": "StringTooLong",
      "type": "error"
    },
    {
      "anonymous": false,
      "inputs": [
        {
          "indexed": true,
          "internalType": "address",
          "name": "owner",
          "type": "address"
        },
        {
          "indexed": true,
          "internalType": "address",
          "name": "approved",
          "type": "address"
        },
        {
          "indexed": true,
          "internalType": "uint256",
          "name": "tokenId",
          "type": "uint256"
        }
      ],
      "name": "Approval",
      "type": "event"
    },
    {
      "anonymous": false,
      "inputs": [
        {
          "indexed": true,
          "internalType": "address",
          "name": "owner",
          "type": "address"
        },
        {
          "indexed": true,
          "internalType": "address",
          "name": "operator",
          "type": "address"
        },
        {
          "indexed": false,
          "internalType": "bool",
          "name": "approved",
          "type": "bool"
        }
      ],
      "name": "ApprovalForAll",
      "type": "event"
    },
    {
      "anonymous": false,
      "inputs": [
        {
          "indexed": false,
          "internalType": "uint256",
          "name": "_fromTokenId",
          "type": "uint256"
        },
        {
          "indexed": false,
          "internalType": "uint256",
          "name": "_toTokenId",
          "type": "uint256"
        }
      ],
      "name": "BatchMetadataUpdate",
      "type": "event"
    },
    {
      "anonymous": false,
      "inputs": [],
      "name": "EIP712DomainChanged",
      "type": "event"
    },
    {
      "anonymous": false,
      "inputs": [
        {
          "indexed": true,
          "internalType": "uint256",
          "name": "agentId",
          "type": "uint256"
        },
        {
          "indexed": true,
          "internalType": "string",
          "name": "indexedMetadataKey",
          "type": "string"
        },
        {
          "indexed": false,
          "internalType": "string",
          "name": "metadataKey",
          "type": "string"
        },
        {
          "indexed": false,
          "internalType": "bytes",
          "name": "metadataValue",
          "type": "bytes"
        }
      ],
      "name": "MetadataSet",
      "type": "event"
    },
    {
      "anonymous": false,
      "inputs": [
        {
          "indexed": false,
          "internalType": "uint256",
          "name": "_tokenId",
          "type": "uint256"
        }
      ],
      "name": "MetadataUpdate",
      "type": "event"
    },
    {
      "anonymous": false,
      "inputs": [
        {
          "indexed": true,
          "internalType": "address",
          "name": "previousOwner",
          "type": "address"
        },
        {
          "indexed": true,
          "internalType": "address",
          "name": "newOwner",
          "type": "address"
        }
      ],
      "name": "OwnershipTransferred",
      "type": "event"
    },
    {
      "anonymous": false,
      "inputs": [
        {
          "indexed": true,
          "internalType": "uint256",
          "name": "agentId",
          "type": "uint256"
        },
        {
          "indexed": false,
          "internalType": "string",
          "name": "agentURI",
          "type": "string"
        },
        {
          "indexed": true,
          "internalType": "address",
          "name": "owner",
          "type": "address"
        }
      ],
      "name": "Registered",
      "type": "event"
    },
    {
      "anonymous": false,
      "inputs": [
        {
          "indexed": true,
          "internalType": "address",
          "name": "from",
          "type": "address"
        },
        {
          "indexed": true,
          "internalType": "address",
          "name": "to",
          "type": "address"
        },
        {
          "indexed": true,
          "internalType": "uint256",
          "name": "tokenId",
          "type": "uint256"
        }
      ],
      "name": "Transfer",
      "type": "event"
    },
    {
      "anonymous": false,
      "inputs": [
        {
          "indexed": true,
          "internalType": "uint256",
          "name": "agentId",
          "type": "uint256"
        },
        {
          "indexed": false,
          "internalType": "string",
          "name": "newURI",
          "type": "string"
        },
        {
          "indexed": true,
          "internalType": "address",
          "name": "updatedBy",
          "type": "address"
        }
      ],
      "name": "URIUpdated",
      "type": "event"
    },
    {
      "inputs": [
        {
          "internalType": "address",
          "name": "to",
          "type": "address"
        },
        {
          "internalType": "uint256",
          "name": "tokenId",
          "type": "uint256"
        }
      ],
      "name": "approve",
      "outputs": [],
      "stateMutability": "nonpayable",
      "type": "function"
    },
    {
      "inputs": [
        {
          "internalType": "address",
          "name": "owner",
          "type": "address"
        }
      ],
      "name": "balanceOf",
      "outputs": [
        {
          "internalType": "uint256",
          "name": "",
          "type": "uint256"
        }
      ],
      "stateMutability": "view",
      "type": "function"
    },
    {
      "inputs": [],
      "name": "eip712Domain",
      "outputs": [
        {
          "internalType": "bytes1",
          "name": "fields",
          "type": "bytes1"
        },
        {
          "internalType": "string",
          "name": "name",
          "type": "string"
        },
        {
          "internalType": "string",
          "name": "version",
          "type": "string"
        },
        {
          "internalType": "uint256",
          "name": "chainId",
          "type": "uint256"
        },
        {
          "internalType": "address",
          "name": "verifyingContract",
          "type": "address"
        },
        {
          "internalType": "bytes32",
          "name": "salt",
          "type": "bytes32"
        },
        {
          "internalType": "uint256[]",
          "name": "extensions",
          "type": "uint256[]"
        }
      ],
      "stateMutability": "view",
      "type": "function"
    },
    {
      "inputs": [
        {
          "internalType": "uint256",
          "name": "agentId",
          "type": "uint256"
        }
      ],
      "name": "getAgentWallet",
      "outputs": [
        {
          "internalType": "address",
          "name": "",
          "type": "address"
        }
      ],
      "stateMutability": "view",
      "type": "function"
    },
    {
      "inputs": [
        {
          "internalType": "uint256",
          "name": "tokenId",
          "type": "uint256"
        }
      ],
      "name": "getApproved",
      "outputs": [
        {
          "internalType": "address",
          "name": "",
          "type": "address"
        }
      ],
      "stateMutability": "view",
      "type": "function"
    },
    {
      "inputs": [
        {
          "internalType": "uint256",
          "name": "agentId",
          "type": "uint256"
        },
        {
          "internalType": "string",
          "name": "metadataKey",
          "type": "string"
        }
      ],
      "name": "getMetadata",
      "outputs": [
        {
          "internalType": "bytes",
          "name": "",
          "type": "bytes"
        }
      ],
      "stateMutability": "view",
      "type": "function"
    },
    {
      "inputs": [
        {
          "internalType": "address",
          "name": "owner",
          "type": "address"
        },
        {
          "internalType": "address",
          "name": "operator",
          "type": "address"
        }
      ],
      "name": "isApprovedForAll",
      "outputs": [
        {
          "internalType": "bool",
          "name": "",
          "type": "bool"
        }
      ],
      "stateMutability": "view",
      "type": "function"
    },
    {
      "inputs": [],
      "name": "name",
      "outputs": [
        {
          "internalType": "string",
          "name": "",
          "type": "string"
        }
      ],
      "stateMutability": "view",
      "type": "function"
    },
    {
      "inputs": [],
      "name": "owner",
      "outputs": [
        {
          "internalType": "address",
          "name": "",
          "type": "address"
        }
      ],
      "stateMutability": "view",
      "type": "function"
    },
    {
      "inputs": [
        {
          "internalType": "uint256",
          "name": "tokenId",
          "type": "uint256"
        }
      ],
      "name": "ownerOf",
      "outputs": [
        {
          "internalType": "address",
          "name": "",
          "type": "address"
        }
      ],
      "stateMutability": "view",
      "type": "function"
    },
    {
      "inputs": [],
      "name": "register",
      "outputs": [
        {
          "internalType": "uint256",
          "name": "agentId",
          "type": "uint256"
        }
      ],
      "stateMutability": "nonpayable",
      "type": "function"
    },
    {
      "inputs": [
        {
          "internalType": "string",
          "name": "agentURI",
          "type": "string"
        },
        {
          "components": [
            {
              "internalType": "string",
              "name": "metadataKey",
              "type": "string"
            },
            {
              "internalType": "bytes",
              "name": "metadataValue",
              "type": "bytes"
            }
          ],
          "internalType": "struct IdentityRegistry.MetadataEntry[]",
          "name": "metadata",
          "type": "tuple[]"
        }
      ],
      "name": "register",
      "outputs": [
        {
          "internalType": "uint256",
          "name": "agentId",
          "type": "uint256"
        }
      ],
      "stateMutability": "nonpayable",
      "type": "function"
    },
    {
      "inputs": [
        {
          "internalType": "string",
          "name": "agentURI",
          "type": "string"
        }
      ],
      "name": "register",
      "outputs": [
        {
          "internalType": "uint256",
          "name": "agentId",
          "type": "uint256"
        }
      ],
      "stateMutability": "nonpayable",
      "type": "function"
    },
    {
      "inputs": [],
      "name": "renounceOwnership",
      "outputs": [],
      "stateMutability": "nonpayable",
      "type": "function"
    },
    {
      "inputs": [
        {
          "internalType": "address",
          "name": "from",
          "type": "address"
        },
        {
          "internalType": "address",
          "name": "to",
          "type": "address"
        },
        {
          "internalType": "uint256",
          "name": "tokenId",
          "type": "uint256"
        }
      ],
      "name": "safeTransferFrom",
      "outputs": [],
      "stateMutability": "nonpayable",
      "type": "function"
    },
    {
      "inputs": [
        {
          "internalType": "address",
          "name": "from",
          "type": "address"
        },
        {
          "internalType": "address",
          "name": "to",
          "type": "address"
        },
        {
          "internalType": "uint256",
          "name": "tokenId",
          "type": "uint256"
        },
        {
          "internalType": "bytes",
          "name": "data",
          "type": "bytes"
        }
      ],
      "name": "safeTransferFrom",
      "outputs": [],
      "stateMutability": "nonpayable",
      "type": "function"
    },
    {
      "inputs": [
        {
          "internalType": "uint256",
          "name": "agentId",
          "type": "uint256"
        },
        {
          "internalType": "string",
          "name": "newURI",
          "type": "string"
        }
      ],
      "name": "setAgentURI",
      "outputs": [],
      "stateMutability": "nonpayable",
      "type": "function"
    },
    {
      "inputs": [
        {
          "internalType": "uint256",
          "name": "agentId",
          "type": "uint256"
        },
        {
          "internalType": "address",
          "name": "newWallet",
          "type": "address"
        },
        {
          "internalType": "uint256",
          "name": "deadline",
          "type": "uint256"
        },
        {
          "internalType": "bytes",
          "name": "signature",
          "type": "bytes"
        }
      ],
      "name": "setAgentWallet",
      "outputs": [],
      "stateMutability": "nonpayable",
      "type": "function"
    },
    {
      "inputs": [
        {
          "internalType": "address",
          "name": "operator",
          "type": "address"
        },
        {
          "internalType": "bool",
          "name": "approved",
          "type": "bool"
        }
      ],
      "name": "setApprovalForAll",
      "outputs": [],
      "stateMutability": "nonpayable",
      "type": "function"
    },
    {
      "inputs": [
        {
          "internalType": "uint256",
          "name": "agentId",
          "type": "uint256"
        },
        {
          "internalType": "string",
          "name": "metadataKey",
          "type": "string"
        },
        {
          "internalType": "bytes",
          "name": "metadataValue",
          "type": "bytes"
        }
      ],
      "name": "setMetadata",
      "outputs": [],
      "stateMutability": "nonpayable",
      "type": "function"
    },
    {
      "inputs": [
        {
          "internalType": "bytes4",
          "name": "interfaceId",
          "type": "bytes4"
        }
      ],
      "name": "supportsInterface",
      "outputs": [
        {
          "internalType": "bool",
          "name": "",
          "type": "bool"
        }
      ],
      "stateMutability": "view",
      "type": "function"
    },
    {
      "inputs": [],
      "name": "symbol",
      "outputs": [
        {
          "internalType": "string",
          "name": "",
          "type": "string"
        }
      ],
      "stateMutability": "view",
      "type": "function"
    },
    {
      "inputs": [
        {
          "internalType": "uint256",
          "name": "tokenId",
          "type": "uint256"
        }
      ],
      "name": "tokenURI",
      "outputs": [
        {
          "internalType": "string",
          "name": "",
          "type": "string"
        }
      ],
      "stateMutability": "view",
      "type": "function"
    },
    {
      "inputs": [
        {
          "internalType": "address",
          "name": "from",
          "type": "address"
        },
        {
          "internalType": "address",
          "name": "to",
          "type": "address"
        },
        {
          "internalType": "uint256",
          "name": "tokenId",
          "type": "uint256"
        }
      ],
      "name": "transferFrom",
      "outputs": [],
      "stateMutability": "nonpayable",
      "type": "function"
    },
    {
      "inputs": [
        {
          "internalType": "address",
          "name": "newOwner",
          "type": "address"
        }
      ],
      "name": "transferOwnership",
      "outputs": [],
      "stateMutability": "nonpayable",
      "type": "function"
    },
    {
      "inputs": [
        {
          "internalType": "uint256",
          "name": "agentId",
          "type": "uint256"
        }
      ],
      "name": "unsetAgentWallet",
      "outputs": [],
      "stateMutability": "nonpayable",
      "type": "function"
    }
  ],
  "bytecode": "0x6040610160815234620004b95762000019610160620004be565b6010610160526f4964656e74697479526567697374727960801b6101805280516200004481620004be565b600181526020810191603160f81b83528051926200006284620004be565b600d84526c4167656e744964656e7469747960981b602085015281516200008981620004be565b60058152641051d1539560da1b602082015284516001600160401b038111620002b05760005495600187811c97168015620004ae575b6020881014620003a2578190601f9788811162000458575b50602090888311600114620003cf57600092620003c3575b50508160011b916000199060031b1c1916176000555b8051906001600160401b038211620002b057600154600181811c91168015620003b8575b6020821014620003a25786811162000357575b506020958211600114620002ea57948192939495600092620002de575b50508160011b916000199060031b1c1916176001555b3315620002c65760078054336001600160a01b0319821681179092556001600160a01b03167f8be0079c531659141344cd1fd0a4f28419497f9722a3daafe3b4186f6b6457e0600080a3620001c6610160620004da565b610120908152620001d784620006a1565b916101409283526101605160206101600120948560e05251902093610100948086524660a05284519060208201927f8b73c3c69bb8fe3d512ecc4cf759cc79239f7b179b0ffacaa9a75d522b39400f84528683015260608201524660808201523060a082015260a0815260c081019481861060018060401b03871117620002b0578590525190206080523060c0526001600a5561244d93846200085a8539608051846122e6015260a051846123b1015260c051846122b0015260e051846123350152518361235b01525182610b1f01525181610b480152f35b634e487b7160e01b600052604160045260246000fd5b8151631e4fbdf760e01b815260006004820152602490fd5b01519050388062000159565b601f19821695600160005260206000209160005b8881106200033e5750836001959697981062000324575b505050811b016001556200016f565b015160001960f88460031b161c1916905538808062000315565b91926020600181928685015181550194019201620002fe565b600160005260206000208780850160051c8201926020861062000398575b0160051c01905b8181106200038b57506200013c565b600081556001016200037c565b9250819262000375565b634e487b7160e01b600052602260045260246000fd5b90607f169062000129565b015190503880620000ef565b60008080527f290decd9548b62a8d60345a988386fc84ba6bc95484008f6362f93160ef3e5639350601f198516905b8181106200043f575090846001959493921062000425575b505050811b0160005562000105565b015160001960f88460031b161c1916905538808062000416565b92936020600181928786015181550195019301620003fe565b9091506000805260206000208880850160051c82019260208610620004a4575b9085949392910160051c01905b818110620004945750620000d7565b6000815584935060010162000485565b9250819262000478565b96607f1696620000bf565b600080fd5b604081019081106001600160401b03821117620002b057604052565b805160209081811015620005775750601f8251116200051657808251920151908083106200050757501790565b82600019910360031b1b161790565b90604051809263305a27a960e01b82528060048301528251908160248401526000935b8285106200055d575050604492506000838284010152601f80199101168101030190fd5b848101820151868601604401529381019385935062000539565b906001600160401b038211620002b057600854926001938481811c9116801562000696575b83821014620003a257601f81116200065c575b5081601f8411600114620005f05750928293918392600094620005e4575b50501b916000199060031b1c19161760085560ff90565b015192503880620005cd565b919083601f198116600860005284600020946000905b8883831062000641575050501062000627575b505050811b0160085560ff90565b015160001960f88460031b161c1916905538808062000619565b85870151885590960195948501948793509081019062000606565b600860005284601f84600020920160051c820191601f860160051c015b82811062000689575050620005af565b6000815501859062000679565b90607f16906200059c565b8051602090818110156200072f5750601f825111620006ce57808251920151908083106200050757501790565b90604051809263305a27a960e01b82528060048301528251908160248401526000935b82851062000715575050604492506000838284010152601f80199101168101030190fd5b8481018201518686016044015293810193859350620006f1565b906001600160401b038211620002b057600954926001938481811c911680156200084e575b83821014620003a257601f811162000814575b5081601f8411600114620007a857509282939183926000946200079c575b50501b916000199060031b1c19161760095560ff90565b01519250388062000785565b919083601f198116600960005284600020946000905b88838310620007f95750505010620007df575b505050811b0160095560ff90565b015160001960f88460031b161c19169055388080620007d1565b858701518855909601959485019487935090810190620007be565b600960005284601f84600020920160051c820191601f860160051c015b8281106200084157505062000767565b6000815501859062000831565b90607f16906200075456fe6080604052600436101561001257600080fd5b60003560e01c8062339509146114d457806301ffc9a71461144c57806306fdde03146113a9578063081812fc1461136b578063095ea7b3146112845780630af28bd3146112055780631aa3a008146111b657806323b872dd1461119f5780632d1ef5ae14610faf5780633fddcf1914610f2057806342842e0e14610ef8578063466648da14610ce55780636352211e14610cb557806370a0823114610c5c578063715018a614610bff57806384b0196e14610b065780638da5cb5b14610add5780638ea42286146105bd57806395d89b41146104f2578063a22cb4651461044d578063b88d4fde146103ec578063c87b56dd14610382578063cb4799f214610350578063e985e9c5146102fa578063f2c298be146101c75763f2fde38b1461013957600080fd5b346101c25760203660031901126101c257610152611562565b61015a6116cc565b6001600160a01b039081169081156101a957600754826001600160601b0360a01b821617600755167f8be0079c531659141344cd1fd0a4f28419497f9722a3daafe3b4186f6b6457e0600080a3005b604051631e4fbdf760e01b815260006004820152602490fd5b600080fd5b346101c257602060031981813601126101c257600435906001600160401b0382116101c257906101fc8391369060040161158e565b9092610222604051948593634752114360e11b8552604060048601526044850191611e3a565b9082820301602483015260605180825283820190848160051b840101926080926000915b8383106102ac575050505050819003816000305af19081156102a057600091610273575b50604051908152f35b90508181813d8311610299575b61028a8183611659565b810103126101c257518261026a565b503d610280565b6040513d6000823e3d90fd5b9295509295806102e960019396601f19868203018752895190836102d98351604084526040840190611522565b9201519084818403910152611522565b970193019301879593879592610246565b346101c25760403660031901126101c257610313611562565b61031b611578565b9060018060a01b03809116600052600560205260406000209116600052602052602060ff604060002054166040519015158152f35b346101c25761037e61036a610364366115bb565b916120b6565b604051918291602083526020830190611522565b0390f35b346101c25760203660031901126101c25760043561039f81611af3565b50600052600660205261037e6103c26103c9604060002060405192838092611732565b0382611659565b60006040516103d78161163e565b52604051918291602083526020830190611522565b346101c25760803660031901126101c257610405611562565b61040d611578565b606435916001600160401b0383116101c257366023840112156101c25761044161044b933690602481600401359101611695565b916044359161199f565b005b346101c25760403660031901126101c257610466611562565b602435908115158092036101c2576001600160a01b03169081156104d957336000526005602052604060002082600052602052604060002060ff1981541660ff83161790556040519081527f17307eab39ab6107e8899845ad3d59bd9653f200f220920489ca2b5937696c3160203392a3005b604051630b61174360e31b815260048101839052602490fd5b346101c25760003660031901126101c25760405160006001805490610516826116f8565b80855291818116908115610596575060011461053d575b61037e8461036a81860382611659565b600081815292507fb10e2d527612073b26eecdfd717e6a320cf44b4afac2b0732d9fcbe2b7fa0cf65b82841061057e57505050810160200161036a8261052d565b80546020858701810191909152909301928101610566565b60ff191660208087019190915292151560051b8501909201925061036a915083905061052d565b346101c25760403660031901126101c2576004356001600160401b0381116101c2576105ed90369060040161158e565b602435906001600160401b0382116101c257366023830112156101c2576001600160401b038260040135116101c257366024836004013560051b840101116101c257600a549161063c83611ce4565b600a553315610ac4576000838152600260205260409020546001600160a01b03908116151580610abc575b610a61575b8360005260026020526040600020541680151580610a2a575b336000526003602052604060002060018154019055846000526002602052846040600020926001600160601b0360a01b93338582541617905533907fddf252ad1be2c89b69c2b068fc378daa952ba7f163c4a11628f55a4df523b3ef600080a4610a11576106fd6106f7368588611695565b85611e82565b83600052600c60205260406000209033908254161790556000805160206123f8833981519152836000805160206123d883398151915261076e6040513360601b60208201526014815261074f81611623565b6a1859d95b9d15d85b1b195d60aa1b6040515260405191829182611d09565b0390a360005b816004013581106107c8575050817fca52e62c367d81bb2e328eb795f7c7ba24afb478408a26c0e201d155c449bc4a6107bd602095604051918291888352339689840191611e3a565b0390a3604051908152f35b6107ed6107e66107e083856004013560248701611d3c565b80611d74565b3691611695565b602081519101206107fc611da6565b60208151910120146109c05761082761081d82846004013560248601611d3c565b6020810190611d74565b85600052600b602052610853604060002061084d6107e086886004013560248a01611d3c565b90611dcd565b916001600160401b0382116109aa576108768261087085546116f8565b85611de6565b600090601f831160011461093b5761092b9493929160009183610930575b50508160011b916000199060031b1c19161790555b610923856000805160206123d88339815191526108d16107e085886004013560248a01611d3c565b6108e96107e0878a6004989598013560248c01611d3c565b92909161090161081d8960048d013560248e01611d3c565b9190978160405192839283378101600081520390209660405194859485611e5b565b0390a3611ce4565b610774565b013590508980610894565b8360005260206000209160005b601f1985168110610992575091839160019361092b979695601f19811610610978575b505050811b0190556108a9565b0135600019600384901b60f8161c1916905589808061096b565b90926020600181928686013581550194019101610948565b634e487b7160e01b600052604160045260246000fd5b60405162461bcd60e51b815260206004820152602360248201527f43616e6e6f7420736574207265736572766564206167656e7457616c6c6574206044820152626b657960e81b6064820152608490fd5b6040516339e3563760e11b815260006004820152602490fd5b600085815260046020526040902080546001600160a01b031916905581600052600360205260406000206000198154019055610685565b600c60205260406000206001600160601b0360a01b81541690556000805160206123f8833981519152846000805160206123d8833981519152610ab4604051600060208201526014815261074f81611623565b0390a361066c565b506001610667565b604051633250574960e11b815260006004820152602490fd5b346101c25760003660031901126101c2576007546040516001600160a01b039091168152602090f35b346101c25760003660031901126101c257610baf610b437f0000000000000000000000000000000000000000000000000000000000000000611b2e565b610b6c7f0000000000000000000000000000000000000000000000000000000000000000611c2a565b9060405190610b7a8261163e565b60008252604051938493600f60f81b8552610ba160209360e08588015260e0870190611522565b908582036040870152611522565b466060850152306080850152600060a085015283810360c085015281808451928381520193019160005b828110610be857505050500390f35b835185528695509381019392810192600101610bd9565b346101c25760003660031901126101c257610c186116cc565b600780546001600160a01b031981169091556000906001600160a01b03167f8be0079c531659141344cd1fd0a4f28419497f9722a3daafe3b4186f6b6457e08280a3005b346101c25760203660031901126101c2576001600160a01b03610c7d611562565b168015610c9c5760005260036020526020604060002054604051908152f35b6040516322718ad960e21b815260006004820152602490fd5b346101c25760203660031901126101c2576020610cd3600435611af3565b6040516001600160a01b039091168152f35b346101c25760603660031901126101c2576001600160401b036004356024358281116101c257610d1990369060040161158e565b906044358481116101c257610d3290369060040161158e565b909484600052602060028152610d5f610d5a8760018060a01b03604060002054163390611feb565b611fae565b610d6a368686611695565b818151910120610d78611da6565b82815191012014610ea65785600052600b8152610d9a60406000208686611dcd565b9183116109aa57610db583610daf84546116f8565b84611de6565b600090601f8411600114610e27575091610e1791816000805160206123d8833981519152969594600091610e1c575b508260011b906000198460031b1c19161790555b6040518484823780858101600081520390209660405194859485611e5b565b0390a3005b905088013589610de4565b90601f1984168360005282600020926000905b8a838310610e8e5750505091610e179391856000805160206123d88339815191529897969410610e74575b5050600182811b019055610df8565b890135600019600385901b60f8161c191690558880610e65565b60018596839496849301358155019501930190610e3a565b6084906040519062461bcd60e51b82526004820152602560248201527f557365207365744167656e7457616c6c657420666f722077616c6c6574207570604482015264646174657360d81b6064820152fd5b346101c25761044b610f09366115ee565b9060405192610f178461163e565b6000845261199f565b346101c25760203660031901126101c2576000805160206123f8833981519152600435806000526002602052610f68610d5a8260018060a01b03604060002054163390611feb565b80600052600c60205260406000206001600160601b0360a01b81541690556000805160206123d8833981519152610e17604051600060208201526014815261074f81611623565b346101c25760803660031901126101c257600435610fcb611578565b6001600160401b0391906044356064358481116101c257610ff090369060040161158e565b846000526020956002875260018060a01b0391611019610d5a8885604060002054163390611feb565b8442116111665760405190888201917f225139e8b7c05dd59c88f8f995824b087598346a9cf21d8192ce391b602f82f483528860408201528488169687606083015260808201526080815260a0810193818510908511176109aa57869560426110b8946110b2936110c1976040525190206110926122ad565b906040519161190160f01b83526002830152602282015220923691611695565b9061215c565b90929192612228565b160361112d576000805160206123d8833981519152916000805160206123f883398151915294610e179285600052600c82526040600020906001600160601b0360a01b825416179055604051916001600160601b03199060601b16908201526014815261074f81611623565b60405162461bcd60e51b8152600481018590526011602482015270496e76616c6964207369676e617475726560781b6044820152606490fd5b60405162461bcd60e51b815260048101899052601160248201527014da59db985d1d5c9948195e1c1a5c9959607a1b6044820152606490fd5b346101c25761044b6111b0366115ee565b916117c8565b346101c25760003660031901126101c2576040516379614c5f60e11b81526020908160048201526000602482015281816044816000305af19081156102a0576000916102735750604051908152f35b346101c2577f3a2c7fffc2cba7582c690e3b82c453ea02a308326a98a3ad7576c606336409fb610e17611237366115bb565b93919290836000526002602052611260610d5a8560018060a01b03604060002054163390611feb565b61126e6106f7368784611695565b6040519182916020835233966020840191611e3a565b346101c25760403660031901126101c25761129d611562565b6024356112a981611af3565b33151580611358575b8061132b575b611313576001600160a01b039283169282918491167f8c5be1e5ebec7d5bd14f71427d1e84f3dd0314c0f7b2291e5b200ac8c7c3b925600080a4600090815260046020526040902080546001600160a01b0319169091179055005b60405163a9fbf51f60e01b8152336004820152602490fd5b5060018060a01b038116600052600560205260406000203360005260205260ff60406000205416156112b8565b506001600160a01b0381163314156112b2565b346101c25760203660031901126101c25760043561138881611af3565b506000526004602052602060018060a01b0360406000205416604051908152f35b346101c25760003660031901126101c257604051600080546113ca816116f8565b8084529060019081811690811561059657506001146113f35761037e8461036a81860382611659565b600080805292507f290decd9548b62a8d60345a988386fc84ba6bc95484008f6362f93160ef3e5635b82841061143457505050810160200161036a8261052d565b8054602085870181019190915290930192810161141c565b346101c25760203660031901126101c25760043563ffffffff60e01b81168091036101c257602090632483248360e11b8114908115611491575b506040519015158152f35b6380ac58cd60e01b8114915081156114c3575b81156114b2575b5082611486565b6301ffc9a760e01b149050826114ab565b635b5e139f60e01b811491506114a4565b346101c25760203660031901126101c2576020600435806000526002825260018060a01b039061150c82604060002054161515612073565b600052600c825260406000205416604051908152f35b919082519283825260005b84811061154e575050826000602080949584010152601f8019910116010190565b60208183018101518483018201520161152d565b600435906001600160a01b03821682036101c257565b602435906001600160a01b03821682036101c257565b9181601f840112156101c2578235916001600160401b0383116101c257602083818601950101116101c257565b9060406003198301126101c25760043591602435906001600160401b0382116101c2576115ea9160040161158e565b9091565b60609060031901126101c2576001600160a01b039060043582811681036101c2579160243590811681036101c2579060443590565b604081019081106001600160401b038211176109aa57604052565b602081019081106001600160401b038211176109aa57604052565b90601f801991011681019081106001600160401b038211176109aa57604052565b6001600160401b0381116109aa57601f01601f191660200190565b9291926116a18261167a565b916116af6040519384611659565b8294818452818301116101c2578281602093846000960137010152565b6007546001600160a01b031633036116e057565b60405163118cdaa760e01b8152336004820152602490fd5b90600182811c92168015611728575b602083101461171257565b634e487b7160e01b600052602260045260246000fd5b91607f1691611707565b9060009291805491611743836116f8565b9182825260019384811690816000146117a55750600114611765575b50505050565b90919394506000526020928360002092846000945b83861061179157505050500101903880808061175f565b80548587018301529401938590820161177a565b9294505050602093945060ff191683830152151560051b0101903880808061175f565b6001600160a01b039182169290918315610ac4576000928284528260209560028752604096848888205416151580611997575b611925575b82875260028152848888205416968791336118ce575b9060027fddf252ad1be2c89b69c2b068fc378daa952ba7f163c4a11628f55a4df523b3ef928461189b575b858352600381528b8320805460010190558683525289812080546001600160a01b0319168517905580a4169283830361187a5750505050565b6064945051926364283d7b60e01b8452600484015260248301526044820152fd5b600087815260046020526040902080546001600160a01b0319169055848352600381528b83208054600019019055611841565b915091926118dd903389611feb565b156118ec578592918791611816565b878688611909576024915190637e27328960e01b82526004820152fd5b604491519063177e802f60e01b82523360048301526024820152fd5b600c81528787206001600160601b0360a01b81541690556000805160206123f8833981519152836000805160206123d883398151915261198f8b518b868201526014815261197281611623565b6a1859d95b9d15d85b1b195d60aa1b8d51528c5191829182611d09565b0390a3611800565b5060016117fb565b9290926119ad8385836117c8565b833b6119b95750505050565b604051630a85bd0160e11b8082523360048301526001600160a01b0392831660248301526044820194909452608060648201529493169260209290918590611a05906084830190611522565b039483816000978189895af1869181611aaf575b50611a7a575050503d600014611a71573d611a338161167a565b90611a416040519283611659565b81528093823d92013e5b82519283611a6c57604051633250574960e11b815260048101849052602490fd5b019050fd5b60609250611a4b565b919450915063ffffffff60e01b1603611a9757503880808061175f565b60249060405190633250574960e11b82526004820152fd5b9091508481813d8311611aec575b611ac78183611659565b81010312611ae857516001600160e01b031981168103611ae8579038611a19565b8680fd5b503d611abd565b6000818152600260205260409020546001600160a01b0316908115611b16575090565b60249060405190637e27328960e01b82526004820152fd5b60ff8114611b6c5760ff811690601f8211611b5a5760405191611b5083611623565b8252602082015290565b604051632cd44ac360e21b8152600490fd5b50604051600854816000611b7f836116f8565b80835292600190818116908115611c085750600114611ba9575b50611ba692500382611659565b90565b6008600090815291507ff3f7a9fe364faab93b216da50a3214154f22a0a2b415b23a84c8169e8b636ee35b848310611bed5750611ba6935050810160200138611b99565b81935090816020925483858901015201910190918492611bd4565b905060209250611ba694915060ff191682840152151560051b82010138611b99565b60ff8114611c4c5760ff811690601f8211611b5a5760405191611b5083611623565b50604051600954816000611c5f836116f8565b80835292600190818116908115611c085750600114611c855750611ba692500382611659565b6009600090815291507f6e1540171b6c0c960b71a7020d9f60077f6af931a8bbf590da0223dacf75c7af5b848310611cc95750611ba6935050810160200138611b99565b81935090816020925483858901015201910190918492611cb0565b6000198114611cf35760010190565b634e487b7160e01b600052601160045260246000fd5b906080611ba69260408152600b60408201526a1859d95b9d15d85b1b195d60aa1b60608201528160208201520190611522565b9190811015611d5e5760051b81013590603e19813603018212156101c2570190565b634e487b7160e01b600052603260045260246000fd5b903590601e19813603018212156101c257018035906001600160401b0382116101c2576020019181360383136101c257565b60405190611db382611623565b600b82526a1859d95b9d15d85b1b195d60aa1b6020830152565b6020919283604051948593843782019081520301902090565b90601f8111611df457505050565b600091825260208220906020601f850160051c83019410611e30575b601f0160051c01915b828110611e2557505050565b818155600101611e19565b9092508290611e10565b908060209392818452848401376000828201840152601f01601f1916010190565b9290611e7490611ba69593604086526040860191611e3a565b926020818503910152611e3a565b9190916000908082526020916006835260408120908551906001600160401b038211611f9a57611eb68261087085546116f8565b8490601f8311600114611f1657907ff8e1a15aba9398e019f0b49df1a4fde98ee17ae345cb5f6b5e2c27f5033e8ce7969783611f0b575b50508160011b916000199060031b1c19161790555b604051908152a1565b015190503880611eed565b9196601f198816848452868420935b818110611f8357509160019391897ff8e1a15aba9398e019f0b49df1a4fde98ee17ae345cb5f6b5e2c27f5033e8ce7999a9410611f6a575b505050811b019055611f02565b015160001960f88460031b161c19169055388080611f5d565b929387600181928786015181550195019301611f25565b634e487b7160e01b81526041600452602490fd5b15611fb557565b60405162461bcd60e51b815260206004820152600e60248201526d139bdd08185d5d1a1bdc9a5e995960921b6044820152606490fd5b6001600160a01b03918216801515939290918461200a575b5050505090565b8192939450169282841493841561204c575b508315612030575b50505038808080612003565b9091925060005260046020526040600020541614388080612024565b909350600052600560205260406000208260005260205260ff60406000205416923861201c565b1561207a57565b60405162461bcd60e51b81526020600482015260146024820152731059d95b9d08191bd95cc81b9bdd08195e1a5cdd60621b6044820152606490fd5b919091600090808252602090600282526120dd60018060a01b036040852054161515612073565b6120e8368587611695565b8281519101206120f6611da6565b838151910120146121295792604083600b6103c29794611ba69761211d9752522091611dcd565b60405192838092611732565b909350604092508152600c8352205490604051916001600160601b03199060601b169082015260148152611ba681611623565b815191906041830361218d5761218692506020820151906060604084015193015160001a90612198565b9192909190565b505060009160029190565b91907f7fffffffffffffffffffffffffffffff5d576e7357a4501ddfe92f46681b20a0841161221c57926020929160ff608095604051948552168484015260408301526060820152600092839182805260015afa156122105780516001600160a01b0381161561220757918190565b50809160019190565b604051903d90823e3d90fd5b50505060009160039190565b6004811015612297578061223a575050565b600181036122545760405163f645eedf60e01b8152600490fd5b600281036122755760405163fce698f760e01b815260048101839052602490fd5b60031461227f5750565b602490604051906335e2f38360e21b82526004820152fd5b634e487b7160e01b600052602160045260246000fd5b307f00000000000000000000000000000000000000000000000000000000000000006001600160a01b031614806123ae575b15612308577f000000000000000000000000000000000000000000000000000000000000000090565b60405160208101907f8b73c3c69bb8fe3d512ecc4cf759cc79239f7b179b0ffacaa9a75d522b39400f82527f000000000000000000000000000000000000000000000000000000000000000060408201527f000000000000000000000000000000000000000000000000000000000000000060608201524660808201523060a082015260a0815260c081018181106001600160401b038211176109aa5760405251902090565b507f000000000000000000000000000000000000000000000000000000000000000046146122df56fe2c149ed548c6d2993cd73efe187df6eccabe4538091b33adbd25fafdb8a1468b2ac6109326e720d1435c0db66f7e35eda7839f52b6f1f5520a60788e132b4e39a2646970667358221220267783714875de1fcee89795857a76d0850bc41e663c3abadbddbcdb78eca30d64736f6c63430008140033",
  "linkReferences": {},
  "deployedLinkReferences": {}
}