{
  "_format": "hh-sol-artifact-1",
  "contractName": "ReputationRegistry",
  "sourceName": "contracts/ReputationRegistry.sol",
  "abi": [
    {
      "inputs": [
        {
          "internalType": "address",
          "name": "identityRegistry_",
          "type": "address"
        }
      ],
      "stateMutability": "nonpayable",
      "type": "constructor"
    },
    {
      "anonymous": false,
      "inputs": [
        {
          "indexed": true,
          "internalType": "uint256",
          "name": "agentId",
          "type": "uint256"
        },
        {
          "indexed": true,
          "internalType": "address",
          "name": "clientAddress",
          "type": "address"
        },
        {
          "indexed": true,
          "internalType": "uint64",
          "name": "feedbackIndex",
          "type": "uint64"
        }
      ],
      "name": "FeedbackRevoked",
      "type": "event"
    },
    {
      "anonymous": false,
      "inputs": [
        {
          "indexed": true,
          "internalType": "uint256",
          "name": "agentId",
          "type": "uint256"
        },
        {
          "indexed": true,
          "internalType": "address",
          "name": "clientAddress",
          "type": "address"
        },
        {
          "indexed": false,
          "internalType": "uint64",
          "name": "feedbackIndex",
          "type": "uint64"
        },
        {
          "indexed": false,
          "internalType": "int128",
          "name": "value",
          "type": "int128"
        },
        {
          "indexed": false,
          "internalType": "uint8",
          "name": "valueDecimals",
          "type": "uint8"
        },
        {
          "indexed": true,
          "internalType": "string",
          "name": "indexedTag1",
          "type": "string"
        },
        {
          "indexed": false,
          "internalType": "string",
          "name": "tag1",
          "type": "string"
        },
        {
          "indexed": false,
          "internalType": "string",
          "name": "tag2",
          "type": "string"
        },
        {
          "indexed": false,
          "internalType": "string",
          "name": "endpoint",
          "type": "string"
        },
        {
          "indexed": false,
          "internalType": "string",
          "name": "feedbackURI",
          "type": "string"
        },
        {
          "indexed": false,
          "internalType": "bytes32",
          "name": "feedbackHash",
          "type": "bytes32"
        }
      ],
      "name": "NewFeedback",
      "type": "event"
    },
    {
      "anonymous": false,
      "inputs": [
        {
          "indexed": true,
          "internalType": "uint256",
          "name": "agentId",
          "type": "uint256"
        },
        {
          "indexed": true,
          "internalType": "address",
          "name": "clientAddress",
          "type": "address"
        },
        {
          "indexed": false,
          "internalType": "uint64",
          "name": "feedbackIndex",
          "type": "uint64"
        },
        {
          "indexed": true,
          "internalType": "address",
          "name": "responder",
          "type": "address"
        },
        {
          "indexed": false,
          "internalType": "string",
          "name": "responseURI",
          "type": "string"
        },
        {
          "indexed": false,
          "internalType": "bytes32",
          "name": "responseHash",
          "type": "bytes32"
        }
      ],
      "name": "ResponseAppended",
      "type": "event"
    },
    {
      "inputs": [],
      "name": "FEEDBACK_COOLDOWN",
      "outputs": [
        {
          "internalType": "uint256",
          "name": "",
          "type": "uint256"
        }
      ],
      "stateMutability": "view",
      "type": "function"
    },
    {
      "inputs": [],
      "name": "MAX_ITERATION",
      "outputs": [
        {
          "internalType": "uint256",
          "name": "",
          "type": "uint256"
        }
      ],
      "stateMutability": "view",
      "type": "function"
    },
    {
      "inputs": [
        {
          "internalType": "uint256",
          "name": "agentId",
          "type": "uint256"
        },
        {
          "internalType": "address",
          "name": "clientAddress",
          "type": "address"
        },
        {
          "internalType": "uint64",
          "name": "feedbackIndex",
          "type": "uint64"
        },
        {
          "internalType": "string",
          "name": "responseURI",
          "type": "string"
        },
        {
          "internalType": "bytes32",
          "name": "responseHash",
          "type": "bytes32"
        }
      ],
      "name": "appendResponse",
      "outputs": [],
      "stateMutability": "nonpayable",
      "type": "function"
    },
    {
      "inputs": [
        {
          "internalType": "uint256",
          "name": "agentId",
          "type": "uint256"
        }
      ],
      "name": "getClientCount",
      "outputs": [
        {
          "internalType": "uint256",
          "name": "",
          "type": "uint256"
        }
      ],
      "stateMutability": "view",
      "type": "function"
    },
    {
      "inputs": [
        {
          "internalType": "uint256",
          "name": "agentId",
          "type": "uint256"
        },
        {
          "internalType": "uint256",
          "name": "offset",
          "type": "uint256"
        },
        {
          "internalType": "uint256",
          "name": "limit",
          "type": "uint256"
        }
      ],
      "name": "getClients",
      "outputs": [
        {
          "internalType": "address[]",
          "name": "",
          "type": "address[]"
        }
      ],
      "stateMutability": "view",
      "type": "function"
    },
    {
      "inputs": [],
      "name": "getIdentityRegistry",
      "outputs": [
        {
          "internalType": "address",
          "name": "",
          "type": "address"
        }
      ],
      "stateMutability": "view",
      "type": "function"
    },
    {
      "inputs": [
        {
          "internalType": "uint256",
          "name": "agentId",
          "type": "uint256"
        },
        {
          "internalType": "address",
          "name": "clientAddress",
          "type": "address"
        }
      ],
      "name": "getLastIndex",
      "outputs": [
        {
          "internalType": "uint64",
          "name": "",
          "type": "uint64"
        }
      ],
      "stateMutability": "view",
      "type": "function"
    },
    {
      "inputs": [
        {
          "internalType": "uint256",
          "name": "agentId",
          "type": "uint256"
        },
        {
          "internalType": "address[]",
          "name": "clientAddresses",
          "type": "address[]"
        },
        {
          "internalType": "string",
          "name": "tag1",
          "type": "string"
        },
        {
          "internalType": "string",
          "name": "tag2",
          "type": "string"
        }
      ],
      "name": "getSummary",
      "outputs": [
        {
          "internalType": "uint64",
          "name": "count",
          "type": "uint64"
        },
        {
          "internalType": "int128",
          "name": "summaryValue",
          "type": "int128"
        },
        {
          "internalType": "uint8",
          "name": "summaryValueDecimals",
          "type": "uint8"
        }
      ],
      "stateMutability": "view",
      "type": "function"
    },
    {
      "inputs": [
        {
          "internalType": "uint256",
          "name": "agentId",
          "type": "uint256"
        },
        {
          "internalType": "int128",
          "name": "value",
          "type": "int128"
        },
        {
          "internalType": "uint8",
          "name": "valueDecimals",
          "type": "uint8"
        },
        {
          "internalType": "string",
          "name": "tag1",
          "type": "string"
        },
        {
          "internalType": "string",
          "name": "tag2",
          "type": "string"
        },
        {
          "internalType": "string",
          "name": "endpoint",
          "type": "string"
        },
        {
          "internalType": "string",
          "name": "feedbackURI",
          "type": "string"
        },
        {
          "internalType": "bytes32",
          "name": "feedbackHash",
          "type": "bytes32"
        }
      ],
      "name": "giveFeedback",
      "outputs": [],
      "stateMutability": "nonpayable",
      "type": "function"
    },
    {
      "inputs": [],
      "name": "identityRegistry",
      "outputs": [
        {
          "internalType": "contract IdentityRegistry",
          "name": "",
          "type": "address"
        }
      ],
      "stateMutability": "view",
      "type": "function"
    },
    {
      "inputs": [
        {
          "internalType": "uint256",
          "name": "agentId",
          "type": "uint256"
        },
        {
          "internalType": "address",
          "name": "clientAddress",
          "type": "address"
        },
        {
          "internalType": "uint64",
          "name": "feedbackIndex",
          "type": "uint64"
        }
      ],
      "name": "readFeedback",
      "outputs": [
        {
          "internalType": "int128",
          "name": "value",
          "type": "int128"
        },
        {
          "internalType": "uint8",
          "name": "valueDecimals",
          "type": "uint8"
        },
        {
          "internalType": "string",
          "name": "tag1",
          "type": "string"
        },
        {
          "internalType": "string",
          "name": "tag2",
          "type": "string"
        },
        {
          "internalType": "bool",
          "name": "isRevoked",
          "type": "bool"
        }
      ],
      "stateMutability": "view",
      "type": "function"
    },
    {
      "inputs": [
        {
          "internalType": "uint256",
          "name": "agentId",
          "type": "uint256"
        },
        {
          "internalType": "address",
          "name": "clientAddress",
          "type": "address"
        },
        {
          "internalType": "uint64",
          "name": "startIndex",
          "type": "uint64"
        },
        {
          "internalType": "uint64",
          "name": "limit",
          "type": "uint64"
        }
      ],
      "name": "readFeedbackPaginated",
      "outputs": [
        {
          "internalType": "uint64[]",
          "name": "feedbackIndexes",
          "type": "uint64[]"
        },
        {
          "internalType": "int128[]",
          "name": "values",
          "type": "int128[]"
        },
        {
          "internalType": "uint8[]",
          "name": "valueDecimals",
          "type": "uint8[]"
        },
        {
          "internalType": "string[]",
          "name": "tag1s",
          "type": "string[]"
        },
        {
          "internalType": "string[]",
          "name": "tag2s",
          "type": "string[]"
        },
        {
          "internalType": "bool[]",
          "name": "revokedStatuses",
          "type": "bool[]"
        }
      ],
      "stateMutability": "view",
      "type": "function"
    },
    {
      "inputs": [
        {
          "internalType": "uint256",
          "name": "agentId",
          "type": "uint256"
        },
        {
          "internalType": "uint64",
          "name": "feedbackIndex",
          "type": "uint64"
        }
      ],
      "name": "revokeFeedback",
      "outputs": [],
      "stateMutability": "nonpayable",
      "type": "function"
    }
  ],
  "bytecode": "0x60a0346100d357601f611b9838819003918201601f19168301916001600160401b038311848410176100d8578084926020946040528339810103126100d357516001600160a01b038116908190036100d357801561008e57608052604051611aa990816100ef82396080518181816101ce01528181610988015281816109f801528181610a6a01526112230152f35b60405162461bcd60e51b815260206004820152601860248201527f496e76616c6964207265676973747279206164647265737300000000000000006044820152606490fd5b600080fd5b634e487b7160e01b600052604160045260246000fdfe608080604052600436101561001357600080fd5b60003560e01c908163134e18f41461121057508063232b0810146111235780633c036a7e146108b9578063494a38d71461084b5780634ab3ca99146107535780636faf25ed1461073757806370dfa6bc146105cb57806381bbba58146102465780639477cdc614610229578063aa65d93f146101fd578063bc4d861b146101b8578063c2349ab2146101045763f2d81759146100ae57600080fd5b346100ff5760403660031901126100ff576100c7611252565b600435600052600160205260406000209060018060a01b031660005260205260206001600160401b0360406000205416604051908152f35b600080fd5b346100ff5760a03660031901126100ff57600435610120611252565b90610129611268565b906001600160401b036064358181116100ff577fb1c6be0b5b8aef6539e2fac0fd131a2faa7b49edf8e505b5eb0ad487d56051d49161016f61019c9236906004016112be565b909161018461017f888a89611515565b6114c9565b604051961686526060602087015260608601916114a8565b608435604085015233946001600160a01b0316939081900390a4005b346100ff5760003660031901126100ff576040517f00000000000000000000000000000000000000000000000000000000000000006001600160a01b03168152602090f35b346100ff5760203660031901126100ff5760043560005260026020526020604060002054604051908152f35b346100ff5760003660031901126100ff576020604051610e108152f35b346100ff5760803660031901126100ff576001600160401b03602435116100ff573660236024350112156100ff576001600160401b0360243560040135116100ff5736602480356004013560051b81350101116100ff576044356001600160401b0381116100ff576102bc9036906004016112be565b906064356001600160401b0381116100ff576102dc9036906004016112be565b906024356004013515610586576064602435600401351161054e5760009384938493849391845b6004602435013588108080610544575b1561051e5715610508576024803560058a901b010135906001600160a01b03821682036100ff576004356000526001602052604060002060018060a01b0383166000526020526001600160401b0360406000205416986001915b8a6001600160401b0384161115806104fe575b156104e45761038e90611564565b916004356000526000602052604060002060018060a01b03851660005260205260406000206001600160401b038216600052602052604060002060ff60038201541661046657881515806104af575b6104665786151580610473575b61046657549889600f0b8a600f0b820112600082129080158216911516176104505761041b908a600f0b019c6113f8565b9860ff8b1660ff8260801c1611610440575b50610437906113f8565b919a979a61036d565b60801c60ff16995061043761042d565b634e487b7160e01b600052601160045260246000fd5b50610437909b989b6113f8565b5060405161048f816104888160028601611573565b0382611362565b602081519101206104a136898b611410565b6020815191012014156103ea565b506040516104c4816104888160018601611573565b602081519101206104d6368b89611410565b6020815191012014156103dd565b995090506104f59150989598611564565b96979497610303565b5060648110610380565b634e487b7160e01b600052603260045260246000fd5b60608a60ff8a8a6001600160401b0360405194168452600f0b6020840152166040820152f35b5060648210610313565b60405162461bcd60e51b815260206004820152601060248201526f546f6f206d616e7920636c69656e747360801b6044820152606490fd5b60405162461bcd60e51b815260206004820152601d60248201527f4d757374207370656369667920636c69656e74206164647265737365730000006044820152606490fd5b346100ff5760803660031901126100ff576105e4611252565b6105ec611268565b906064356001600160401b039283821682036100ff5761060e9260043561179f565b93959492909160405196879660c088019060c08952865180925260e08901916020809801916000905b82821061071a57505050508781038689015285808351928381520192019060005b81811061070057505050868103604088015284808451928381520193019060005b8181106106e6575050508161069991876106a795940360608901526112eb565b9085820360808701526112eb565b83810360a085015281808451928381520193019160005b8281106106cd57505050500390f35b83511515855286955093810193928101926001016106be565b825160ff1685528998509386019391860191600101610679565b8251600f0b84528a99509287019291870191600101610658565b8351811685528c9b50938901939289019260019190910190610637565b346100ff5760003660031901126100ff57602060405160648152f35b346100ff5760403660031901126100ff57600435602435906001600160401b038216918281036100ff5761017f61078b913384611515565b806000526020600081526040600020336000528152604060002083600052815260ff60036040600020015416610815578160005260008152604060002033600052815260406000209083600052526003604060002001600160ff1982541617905533907f25156fd3288212246d8b008d5921fde376c71ed14ac2e072a506eb06fde6d09d600080a4005b6064906040519062461bcd60e51b82526004820152600f60248201526e105b1c9958591e481c995d9bdad959608a1b6044820152fd5b346100ff5760603660031901126100ff5761086d604435602435600435611673565b604051809160208083018184528251809152816040850193019160005b82811061089957505050500390f35b83516001600160a01b03168552869550938101939281019260010161088a565b346100ff576101003660031901126100ff5760243580600f0b81036100ff5760443560ff811681036100ff576064356001600160401b0381116100ff576109049036906004016112be565b906084356001600160401b0381116100ff576109249036906004016112be565b9060a4356001600160401b0381116100ff576109449036906004016112be565b91909260c4356001600160401b0381116100ff576109669036906004016112be565b6040516331a9108f60e11b8152600480359082015291979096916020816024817f00000000000000000000000000000000000000000000000000000000000000006001600160a01b03165afa90811561105057600091611104575b506001600160a01b0316156110c857601260ff8a161161108b576040516331a9108f60e11b815260048035908201526020816024817f00000000000000000000000000000000000000000000000000000000000000006001600160a01b03165afa9081156110505760009161105c575b506001600160a01b0316610a47338214156113a2565b60405163e985e9c560e01b815260048101919091523360248201526020816044817f00000000000000000000000000000000000000000000000000000000000000006001600160a01b03165afa801561105057600090611013575b610aad9150156113a2565b3360005260046020526040600020600435600052602052604060002054610e108101809111610450574210610fce5733600052600460205260406000206004356000526020524260406000205560016020526040600020336000526020526040600020988954996001600160401b03610b27818d166113f8565b16809b6001600160401b0319161790556040518060c08101106001600160401b0360c083011117610e215760c081016040528b600f0b8152602081019060ff83168252610b75368587611410565b60408201908152610b8736888a611410565b6060830152600060808301524260a0830152600435600052600060205260406000203360005260205260406000208d6000526020526040600020928251906fffffffffffffffffffffffffffffffff85549160ff60801b905160801b1692169070ffffffffffffffffffffffffffffffffff191617178355518051906001600160401b038211610e21578190610c206001860154611456565b601f8111610f7b575b50602090601f8311600114610f0957600092610efe575b50508160011b916000199060031b1c19161760018301555b60608101518051906001600160401b038211610e2157610c7b6002850154611456565b601f8111610eb7575b50602090601f8311600114610e425791806004949260a094600092610e37575b50508160011b916000199060031b1c19161760028501555b600384016080820151151560ff801983541691161790550151910155600435600052600360205260406000203360005260205260ff6040600020541615610daa575b6040518284823780838101600081520390209a6040519a8b52600f0b60208b015260ff1660408a0152606089016101009052610100890190610d3f926114a8565b908782036080890152610d51926114a8565b9085820360a0870152610d63926114a8565b9083820360c0850152610d75926114a8565b60e43560e083015233918060043592037f6a4a61743519c9d648a14e6493f47dbe3ff1aa29e7785c96c8326a205e58febc91a4005b60043560005260026020526040600020805468010000000000000000811015610e2157610ddc91600182018155611490565b81549060031b9033821b9160018060a01b03901b191617905560043560005260036020526040600020336000526020526040600020600160ff19825416179055610cfe565b634e487b7160e01b600052604160045260246000fd5b015190503880610ca4565b906002850160005260206000209160005b601f1985168110610e9f5750926004949260019260a09583601f19811610610e86575b505050811b016002850155610cbc565b015160001960f88460031b161c19169055388080610e76565b91926020600181928685015181550194019201610e53565b600285016000526020600020601f840160051c810160208510610ef7575b601f830160051c82018110610eeb575050610c84565b60008155600101610ed5565b5080610ed5565b015190508f80610c40565b9250600185016000526020600020906000935b601f1984168510610f60576001945083601f19811610610f47575b505050811b016001830155610c58565b015160001960f88460031b161c191690558f8080610f37565b81810151835560209485019460019093019290910190610f1c565b909150600185016000526020600020601f840160051c810160208510610fc7575b90849392915b601f830160051c82018110610fb8575050610c29565b60008155859450600101610fa2565b5080610f9c565b60405162461bcd60e51b815260206004820152601d60248201527f466565646261636b20636f6f6c646f776e206e6f7420656c61707365640000006044820152606490fd5b506020813d602011611048575b8161102d60209383611362565b810103126100ff575180151581036100ff57610aad90610aa2565b3d9150611020565b6040513d6000823e3d90fd5b61107e915060203d602011611084575b6110768183611362565b810190611383565b8b610a31565b503d61106c565b60405162461bcd60e51b8152602060048201526015602482015274496e76616c69642076616c7565446563696d616c7360581b6044820152606490fd5b60405162461bcd60e51b81526020600482015260146024820152731059d95b9d08191bd95cc81b9bdd08195e1a5cdd60621b6044820152606490fd5b61111d915060203d602011611084576110768183611362565b8b6109c1565b346100ff5760603660031901126100ff5760043561113f611252565b611147611268565b9161115661017f848484611515565b600052600060205260406000209060018060a01b03166000526020526001600160401b036040600020911660005260205260ff604060002080549061120460026111f685600385015416936111d0604051916111c0836111b98160018501611573565b0384611362565b6111b96040518096819301611573565b60405196868897600f0b885260801c16602087015260a0604087015260a086019061127e565b90848203606086015261127e565b90151560808301520390f35b346100ff5760003660031901126100ff577f00000000000000000000000000000000000000000000000000000000000000006001600160a01b03168152602090f35b602435906001600160a01b03821682036100ff57565b604435906001600160401b03821682036100ff57565b919082519283825260005b8481106112aa575050826000602080949584010152601f8019910116010190565b602081830181015184830182015201611289565b9181601f840112156100ff578235916001600160401b0383116100ff57602083818601950101116100ff57565b908082519081815260208091019281808460051b8301019501936000915b8483106113195750505050505090565b9091929394958480611337600193601f198682030187528a5161127e565b9801930193019194939290611309565b602081019081106001600160401b03821117610e2157604052565b90601f801991011681019081106001600160401b03821117610e2157604052565b908160209103126100ff57516001600160a01b03811681036100ff5790565b156113a957565b60405162461bcd60e51b815260206004820152602160248201527f43616e6e6f74206769766520666565646261636b20746f206f776e206167656e6044820152601d60fa1b6064820152608490fd5b6001600160401b038091169081146104505760010190565b9291926001600160401b038211610e215760405191611439601f8201601f191660200184611362565b8294818452818301116100ff578281602093846000960137010152565b90600182811c92168015611486575b602083101461147057565b634e487b7160e01b600052602260045260246000fd5b91607f1691611465565b80548210156105085760005260206000200190600090565b908060209392818452848401376000828201840152601f01601f1916010190565b156114d057565b60405162461bcd60e51b815260206004820152601760248201527f466565646261636b20646f6573206e6f742065786973740000000000000000006044820152606490fd5b916001600160401b03809116918215159384611533575b5050505090565b60009081526001602090815260408083206001600160a01b039094168352929052205416101590503880808061152c565b60001981146104505760010190565b906000929180549161158483611456565b9182825260019384811690816000146115e657506001146115a6575b50505050565b90919394506000526020928360002092846000945b8386106115d25750505050010190388080806115a0565b8054858701830152940193859082016115bb565b9294505050602093945060ff191683830152151560051b010190388080806115a0565b6001600160401b038111610e215760051b60200190565b9061162a82611609565b6116376040519182611362565b8281528092611648601f1991611609565b0190602036910137565b9190820391821161045057565b80518210156105085760209160051b010190565b906000918252600260205260408220928354908183101561171f5782019283831161170b5750808311611703575b506116b46116af8284611652565b611620565b92815b8381106116c5575050505090565b806116d36116fe9284611490565b905460039190911b1c6001600160a01b03166116f86116f28684611652565b8861165f565b52611564565b6116b7565b9150386116a1565b634e487b7160e01b81526011600452602490fd5b50505090506040519061173182611347565b80825236813790565b9061174482611609565b6117516040519182611362565b8281528092611762601f1991611609565b019060005b82811061177357505050565b806060602080938501015201611767565b9190916001600160401b038080941691160191821161045057565b90939192816000526001602052604060002060018060a01b0386166000526020526001600160401b03604060002054166001600160401b038516918183118015611a6b575b6119f1576001600160401b036117fd6000199288611784565b16016001600160401b03811161045057816001600160401b0392838316116119e9575b5016036001600160401b038111610450576001600160401b036001911601926001600160401b0384116104505761185f6001600160401b038516611620565b946118726001600160401b038616611620565b926118856001600160401b038716611620565b906118986001600160401b03881661173a565b926118ab6001600160401b03891661173a565b946118be6001600160401b038a16611620565b9760005b6001600160401b038b166001600160401b03821610156119dd576119d6818d6118f36001600160401b039487611784565b886000526000602052604060002060018060a01b038916600052602052846040600020911690816000526020526119326040600020928685169061165f565b5260038154918d61194a84600f0b918887169061165f565b5260ff809360801c1661195f8786168d61165f565b52604051611974816104888160018601611573565b6119808588168e61165f565b5261198d8685168d61165f565b506040516119af8e6119a6836111b98160028801611573565b8887169061165f565b526119bc8487168e61165f565b500154166119cc8285168e61165f565b90151590526113f8565b90506118c2565b50939794969850505050565b905038611820565b5050505091505060405190611a0582611347565b6000825260405191611a1683611347565b6000835260405191611a2783611347565b6000835260405191611a3883611347565b6000835260405191611a4983611347565b6000835260405191611a5a83611347565b600083526000368137959493929190565b5082156117e456fea2646970667358221220551760d61d2c0d8578dd783a226772e848361aa10f99fd0f9f6524a253d2869164736f6c63430008140033",
  "linkReferences": {},
  "deployedLinkReferences": {}
}