{
  "_format": "hh-sol-artifact-1",
  "contractName": "ReputationRegistry",
  "sourceName": "contracts/ReputationRegistry.sol",
  "abi": [
    {
      "inputs": [
        {
          "internalType": "address",
          "name": "identityRegistry_",
          "type": "address"
        }
      ],
      "stateMutability": "nonpayable",
      "type": "constructor"
    },
    {
      "anonymous": false,
      "inputs": [
        {
          "indexed": true,
          "internalType": "uint256",
          "name": "agentId",
          "type": "uint256"
        },
        {
          "indexed": true,
          "internalType": "address",
          "name": "clientAddress",
          "type": "address"
        },
        {
          "indexed": true,
          "internalType": "uint64",
          "name": "feedbackIndex",
          "type": "uint64"
        }
      ],
      "name": "FeedbackRevoked",
      "type": "event"
    },
    {
      "anonymous": false,
      "inputs": [
        {
          "indexed": true,
          "internalType": "uint256",
          "name": "agentId",
          "type": "uint256"
        },
        {
          "indexed": true,
          "internalType": "address",
          "name": "clientAddress",
          "type": "address"
        },
        {
          "indexed": false,
          "internalType": "uint64",
          "name": "feedbackIndex",
          "type": "uint64"
        },
        {
          "indexed": false,
          "internalType": "int128",
          "name": "value",
          "type": "int128"
        },
        {
          "indexed": false,
          "internalType": "uint8",
          "name": "valueDecimals",
          "type": "uint8"
        },
        {
          "indexed": true,
          "internalType": "string",
          "name": "indexedTag1",
          "type": "string"
        },
        {
          "indexed": false,
          "internalType": "string",
          "name": "tag1",
          "type": "string"
        },
        {
          "indexed": false,
          "internalType": "string",
          "name": "tag2",
          "type": "string"
        },
        {
          "indexed": false,
          "internalType": "string",
          "name": "endpoint",
          "type": "string"
        },
        {
          "indexed": false,
          "internalType": "string",
          "name": "feedbackURI",
          "type": "string"
        },
        {
          "indexed": false,
          "internalType": "bytes32",
          "name": "feedbackHash",
          "type": "bytes32"
        }
      ],
      "name": "NewFeedback",
      "type": "event"
    },
    {
      "anonymous": false,
      "inputs": [
        {
          "indexed": true,
          "internalType": "uint256",
          "name": "agentId",
          "type": "uint256"
        },
        {
          "indexed": true,
          "internalType": "address",
          "name": "clientAddress",
          "type": "address"
        },
        {
          "indexed": false,
          "internalType": "uint64",
          "name": "feedbackIndex",
          "type": "uint64"
        },
        {
          "indexed": true,
          "internalType": "address",
          "name": "responder",
          "type": "address"
        },
        {
          "indexed": false,
          "internalType": "string",
          "name": "responseURI",
          "type": "string"
        },
        {
          "indexed": false,
          "internalType": "bytes32",
          "name": "responseHash",
          "type": "bytes32"
        }
      ],
      "name": "ResponseAppended",
      "type": "event"
    },
    {
      "inputs": [
        {
          "internalType": "uint256",
          "name": "agentId",
          "type": "uint256"
        },
        {
          "internalType": "address",
          "name": "clientAddress",
          "type": "address"
        },
        {
          "internalType": "uint64",
          "name": "feedbackIndex",
          "type": "uint64"
        },
        {
          "internalType": "string",
          "name": "responseURI",
          "type": "string"
        },
        {
          "internalType": "bytes32",
          "name": "responseHash",
          "type": "bytes32"
        }
      ],
      "name": "appendResponse",
      "outputs": [],
      "stateMutability": "nonpayable",
      "type": "function"
    },
    {
      "inputs": [
        {
          "internalType": "uint256",
          "name": "agentId",
          "type": "uint256"
        }
      ],
      "name": "getClients",
      "outputs": [
        {
          "internalType": "address[]",
          "name": "",
          "type": "address[]"
        }
      ],
      "stateMutability": "view",
      "type": "function"
    },
    {
      "inputs": [],
      "name": "getIdentityRegistry",
      "outputs": [
        {
          "internalType": "address",
          "name": "",
          "type": "address"
        }
      ],
      "stateMutability": "view",
      "type": "function"
    },
    {
      "inputs": [
        {
          "internalType": "uint256",
          "name": "agentId",
          "type": "uint256"
        },
        {
          "internalType": "address",
          "name": "clientAddress",
          "type": "address"
        }
      ],
      "name": "getLastIndex",
      "outputs": [
        {
          "internalType": "uint64",
          "name": "",
          "type": "uint64"
        }
      ],
      "stateMutability": "view",
      "type": "function"
    },
    {
      "inputs": [
        {
          "internalType": "uint256",
          "name": "agentId",
          "type": "uint256"
        },
        {
          "internalType": "address[]",
          "name": "clientAddresses",
          "type": "address[]"
        },
        {
          "internalType": "string",
          "name": "tag1",
          "type": "string"
        },
        {
          "internalType": "string",
          "name": "tag2",
          "type": "string"
        }
      ],
      "name": "getSummary",
      "outputs": [
        {
          "internalType": "uint64",
          "name": "count",
          "type": "uint64"
        },
        {
          "internalType": "int128",
          "name": "summaryValue",
          "type": "int128"
        },
        {
          "internalType": "uint8",
          "name": "summaryValueDecimals",
          "type": "uint8"
        }
      ],
      "stateMutability": "view",
      "type": "function"
    },
    {
      "inputs": [
        {
          "internalType": "uint256",
          "name": "agentId",
          "type": "uint256"
        },
        {
          "internalType": "int128",
          "name": "value",
          "type": "int128"
        },
        {
          "internalType": "uint8",
          "name": "valueDecimals",
          "type": "uint8"
        },
        {
          "internalType": "string",
          "name": "tag1",
          "type": "string"
        },
        {
          "internalType": "string",
          "name": "tag2",
          "type": "string"
        },
        {
          "internalType": "string",
          "name": "endpoint",
          "type": "string"
        },
        {
          "internalType": "string",
          "name": "feedbackURI",
          "type": "string"
        },
        {
          "internalType": "bytes32",
          "name": "feedbackHash",
          "type": "bytes32"
        }
      ],
      "name": "giveFeedback",
      "outputs": [],
      "stateMutability": "nonpayable",
      "type": "function"
    },
    {
      "inputs": [],
      "name": "identityRegistry",
      "outputs": [
        {
          "internalType": "contract IdentityRegistry",
          "name": "",
          "type": "address"
        }
      ],
      "stateMutability": "view",
      "type": "function"
    },
    {
      "inputs": [
        {
          "internalType": "uint256",
          "name": "agentId",
          "type": "uint256"
        },
        {
          "internalType": "address[]",
          "name": "clientAddresses",
          "type": "address[]"
        },
        {
          "internalType": "string",
          "name": "tag1",
          "type": "string"
        },
        {
          "internalType": "string",
          "name": "tag2",
          "type": "string"
        },
        {
          "internalType": "bool",
          "name": "includeRevoked",
          "type": "bool"
        }
      ],
      "name": "readAllFeedback",
      "outputs": [
        {
          "internalType": "address[]",
          "name": "clients",
          "type": "address[]"
        },
        {
          "internalType": "uint64[]",
          "name": "feedbackIndexes",
          "type": "uint64[]"
        },
        {
          "internalType": "int128[]",
          "name": "values",
          "type": "int128[]"
        },
        {
          "internalType": "uint8[]",
          "name": "valueDecimals",
          "type": "uint8[]"
        },
        {
          "internalType": "string[]",
          "name": "tag1s",
          "type": "string[]"
        },
        {
          "internalType": "string[]",
          "name": "tag2s",
          "type": "string[]"
        },
        {
          "internalType": "bool[]",
          "name": "revokedStatuses",
          "type": "bool[]"
        }
      ],
      "stateMutability": "view",
      "type": "function"
    },
    {
      "inputs": [
        {
          "internalType": "uint256",
          "name": "agentId",
          "type": "uint256"
        },
        {
          "internalType": "address",
          "name": "clientAddress",
          "type": "address"
        },
        {
          "internalType": "uint64",
          "name": "feedbackIndex",
          "type": "uint64"
        }
      ],
      "name": "readFeedback",
      "outputs": [
        {
          "internalType": "int128",
          "name": "value",
          "type": "int128"
        },
        {
          "internalType": "uint8",
          "name": "valueDecimals",
          "type": "uint8"
        },
        {
          "internalType": "string",
          "name": "tag1",
          "type": "string"
        },
        {
          "internalType": "string",
          "name": "tag2",
          "type": "string"
        },
        {
          "internalType": "bool",
          "name": "isRevoked",
          "type": "bool"
        }
      ],
      "stateMutability": "view",
      "type": "function"
    },
    {
      "inputs": [
        {
          "internalType": "uint256",
          "name": "agentId",
          "type": "uint256"
        },
        {
          "internalType": "uint64",
          "name": "feedbackIndex",
          "type": "uint64"
        }
      ],
      "name": "revokeFeedback",
      "outputs": [],
      "stateMutability": "nonpayable",
      "type": "function"
    }
  ],
  "bytecode": "0x60a03461008857601f611c2738819003918201601f19168301916001600160401b0383118484101761008d5780849260209460405283398101031261008857516001600160a01b0381169081900361008857608052604051611b8390816100a4823960805181818161099a01528181610f0101528181610f7101528181610fe301526117070152f35b600080fd5b634e487b7160e01b600052604160045260246000fdfe61024080604052600436101561001457600080fd5b60003560e01c908163134e18f4146116f457508063232b0810146116155780633c036a7e14610e3257806342dd519c14610da85780634ab3ca9914610c7d57806381bbba58146109c9578063bc4d861b14610984578063c2349ab21461089e578063d9d84224146100e45763f2d817591461008e57600080fd5b346100df5760403660031901126100df576100a7611736565b600435600052600160205260406000209060018060a01b031660005260205260206001600160401b0360406000205416604051908152f35b600080fd5b346100df5760a03660031901126100df576024356001600160401b0381116100df5761011490369060040161180c565b906044356001600160401b0381116100df576101349036906004016117a2565b60c0526080526064356001600160401b0381116100df576101599036906004016117a2565b61012052610180526084358061016052801515036100df57600091801561082f5761018381611ad8565b916101916040519384611898565b8183526020918284019060051b8201913683116100df57905b8282106108105750505050905b6000915b8051831015610342576001600160a01b036101d68483611aef565b511660043560005260016020526040600020816000526020526001600160401b0360406000205416926001905b846001600160401b0383161161032e57600435600052600060205260406000208360005260205260406000206001600160401b0383166000526020526040600020610160511580610320575b6102dc5760c0511515806102e7575b6102dc576101205115159081610296575b5061028c5761028061028691611a33565b9161192e565b90610203565b906102869061192e565b600291506102b5906102ae6040518094819301611a42565b0382611898565b602081519101206102cd366101205161018051611946565b6020815191012014158761026f565b50906102869061192e565b506040516102fc816102ae8160018601611a42565b602081519101206103123660c051608051611946565b60208151910120141561025e565b5060ff60038201541661024f565b935050509161033c90611a33565b916101bb565b9061035b61034f82611ad8565b6040518060a052611898565b8060a05152601f1961036c82611ad8565b0136602060a051013761038e61038182611ad8565b604051806101c052611898565b806101c05152601f196103a082611ad8565b013660206101c05101376103c36103b682611ad8565b6040518061020052611898565b806102005152601f196103d582611ad8565b013660206102005101376103f86103eb82611ad8565b6040518061014052611898565b806101405152601f1961040a82611ad8565b0136602061014051013761041d81611b03565b6102205261042a81611b03565b9061044461043782611ad8565b604051806101a052611898565b806101a05152610456601f1991611ad8565b013660206101a05101376000806101e0525b82516101e051908110156106af576001600160a01b03906104899085611aef565b5116806101005260043560005260016020526040600020906000526020526001600160401b036040600020541660e0526001905b60e0516001600160401b0383161161069657600435600052600060205260406000206101005160005260205260406000206001600160401b0383166000526020526040600020610160511580610688575b6106095760c05115158061064f575b6106095761012051151580610614575b610609576106039161028091610100516105498360a051611aef565b526001600160401b038516610561836101c051611aef565b52600381549182600f0b6105788561020051611aef565b5260ff809360801c1661058e8561014051611aef565b526040516105a3816102ae8160018601611a42565b6105b08561022051611aef565b526105be8461022051611aef565b506040516105d3816102ae8160028601611a42565b6105dd858a611aef565b526105e88489611aef565b500154166105f9826101a051611aef565b9015159052611a33565b906104bd565b50906106039061192e565b50604051610629816102ae8160028601611a42565b60208151910120610641366101205161018051611946565b60208151910120141561052d565b50604051610664816102ae8160018601611a42565b6020815191012061067a3660c051608051611946565b60208151910120141561051d565b5060ff60038201541661050e565b9290506106a56101e051611a33565b6101e05291610468565b82604051809160e082526106c860e0830160a0516117cf565b828103602084015260206101c0515191828152019060206101c051019060005b8181106107ee57505050828103604084015260206102005151918281520190602061020051019060005b8181106107d257505050828103606084015260206101405151918281520190602061014051019060005b8181106107b6575050509061075f828461076d940360808601526102205161183c565b9083820360a085015261183c565b81810360c083015260206101a0515191828152019060206101a051019060005b81811061079b575050500390f35b8251151584528594506020938401939092019160010161078d565b825160ff1684528695506020938401939092019160010161073c565b8251600f0b845286955060209384019390920191600101610712565b82516001600160401b03168452869550602093840193909201916001016106e8565b81356001600160a01b03811681036100df5781529083019083016101aa565b50506004356000526020600281526040600020906040518092839183825491828152019160005283600020936000905b82821061087b5750505061087592500382611898565b906101b7565b85546001600160a01b03168452600195860195879550938101939091019061085f565b346100df5760a03660031901126100df576004356108ba611736565b6108c261174c565b916001600160401b036064358181116100df577fb1c6be0b5b8aef6539e2fac0fd131a2faa7b49edf8e505b5eb0ad487d56051d49161090861096a9236906004016117a2565b909185600052600060205260406000209660018060a01b03169687600052602052604060002097169687600052602052604060002054600f0b1580159061097b575b610953906119e7565b6040519687526060602088015260608701916119c6565b9360843560408201528033950390a4005b5086151561094a565b346100df5760003660031901126100df576040517f00000000000000000000000000000000000000000000000000000000000000006001600160a01b03168152602090f35b346100df5760803660031901126100df576024356001600160401b0381116100df576109f990369060040161180c565b6044356001600160401b0381116100df57610a189036906004016117a2565b9290916064356001600160401b0381116100df57610a3a9036906004016117a2565b94908215610c385760009560009560009560005b868110610a7b5760608960ff8a8d6001600160401b0360405194168452600f0b6020840152166040820152f35b959795600581901b820135916001600160a01b03831683036100df5760049a979a356000526001602052604060002060018060a01b0384166000526020526001600160401b03604060002054169960015b8b6001600160401b03821611610c23576004356000526000602052604060002060018060a01b03861660005260205260406000206001600160401b038216600052602052604060002060ff600382015416610bac5789151580610bee575b610bac5787151580610bb9575b610bac5754998a600f0b808083011260008312908015821691151617610b9657610b6291019d61192e565b9960ff8c1660ff8260801c1611610b86575b50610b7e9061192e565b9b989b610acc565b60801c60ff169a50610b7e610b74565b634e487b7160e01b600052601160045260246000fd5b50610b7e909c999c61192e565b50604051610bce816102ae8160028601611a42565b60208151910120610be0368a8c611946565b602081519101201415610b37565b50604051610c03816102ae8160018601611a42565b60208151910120610c15368c8a611946565b602081519101201415610b2a565b50979a99509150610c3390611a33565b610a4e565b60405162461bcd60e51b815260206004820152601d60248201527f4d757374207370656369667920636c69656e74206164647265737365730000006044820152606490fd5b346100df5760403660031901126100df57600435602435906001600160401b0382168092036100df578060005260206000815260406000203360005281526040600020836000528152604060002054600f0b15801590610d9f575b610ce1906119e7565b81600052600081526040600020336000528152604060002083600052815260ff60036040600020015416610d69578160005260008152604060002033600052815260406000209083600052526003604060002001600160ff1982541617905533907f25156fd3288212246d8b008d5921fde376c71ed14ac2e072a506eb06fde6d09d600080a4005b6064906040519062461bcd60e51b82526004820152600f60248201526e105b1c9958591e481c995d9bdad959608a1b6044820152fd5b50821515610cd8565b346100df576020806003193601126100df5760043560005260028152604060002090604051808383829554938481520190600052836000209260005b85828210610e1357505050610dfb92500383611898565b610e0f6040519282849384528301906117cf565b0390f35b85546001600160a01b0316845260019586019588955093019201610de4565b346100df576101003660031901126100df5760243580600f0b81036100df5760443560ff811681036100df576064356001600160401b0381116100df57610e7d9036906004016117a2565b906084356001600160401b0381116100df57610e9d9036906004016117a2565b9060a4356001600160401b0381116100df57610ebd9036906004016117a2565b91909260c4356001600160401b0381116100df57610edf9036906004016117a2565b6040516331a9108f60e11b8152600480359082015291979096916020816024817f00000000000000000000000000000000000000000000000000000000000000006001600160a01b03165afa908115611542576000916115f6575b506001600160a01b0316156115ba57601260ff8a161161157d576040516331a9108f60e11b815260048035908201526020816024817f00000000000000000000000000000000000000000000000000000000000000006001600160a01b03165afa9081156115425760009161154e575b506001600160a01b0316610fc0338214156118d8565b60405163e985e9c560e01b815260048101919091523360248201526020816044817f00000000000000000000000000000000000000000000000000000000000000006001600160a01b03165afa801561154257600090611505575b6110269150156118d8565b60043560005260016020526040600020336000526020526040600020988954996001600160401b03611059818d1661192e565b16809b6001600160401b0319161790556040518060a08101106001600160401b0360a08301111761135e5760a081016040528b600f0b81526020810160ff831681526110a6368587611946565b604083019081526110b836888a611946565b606084015260006080840152600435600052600060205260406000203360005260205260406000208d6000526020526040600020918351906fffffffffffffffffffffffffffffffff84549160ff60801b905160801b1692169070ffffffffffffffffffffffffffffffffff191617178255518051906001600160401b03821161135e57819061114b600185015461198c565b601f81116114b2575b50602090601f83116001146114455760009261143a575b50508160011b916000199060031b1c19161760018201555b60608201518051906001600160401b03821161135e576111a6600284015461198c565b601f81116113f3575b50602090601f831160011461137f57918060809492600394600092611374575b50508160011b9160001990851b1c19161760028201555b01910151151560ff80198354169116179055600435600052600360205260406000203360005260205260ff60406000205416156112ca575b6040518284823780838101600081520390209a6040519a8b52600f0b60208b015260ff1660408a015260608901610100905261010089019061125f926119c6565b908782036080890152611271926119c6565b9085820360a0870152611283926119c6565b9083820360c0850152611295926119c6565b60e43560e083015233918060043592037f6a4a61743519c9d648a14e6493f47dbe3ff1aa29e7785c96c8326a205e58febc91a4005b600435600052600260205260406000208054906801000000000000000082101561135e576001820180825582101561134857600052602060002001336bffffffffffffffffffffffff60a01b82541617905560043560005260036020526040600020336000526020526040600020600160ff1982541617905561121e565b634e487b7160e01b600052603260045260246000fd5b634e487b7160e01b600052604160045260246000fd5b0151905038806111cf565b906002840160005260206000209160005b601f19851681106113db5750926080949260019260039583601f198116106113c3575b505050811b0160028201556111e6565b015160001983871b60f8161c191690553880806113b3565b91926020600181928685015181550194019201611390565b600284016000526020600020601f840160051c810160208510611433575b601f830160051c820181106114275750506111af565b60008155600101611411565b5080611411565b015190508f8061116b565b600185016000908152602081209350601f198516905b81811061149a5750908460019594939210611481575b505050811b016001820155611183565b015160001960f88460031b161c191690558f8080611471565b9293602060018192878601518155019501930161145b565b909150600184016000526020600020601f840160051c8101602085106114fe575b90849392915b601f830160051c820181106114ef575050611154565b600081558594506001016114d9565b50806114d3565b506020813d60201161153a575b8161151f60209383611898565b810103126100df575180151581036100df576110269061101b565b3d9150611512565b6040513d6000823e3d90fd5b611570915060203d602011611576575b6115688183611898565b8101906118b9565b8b610faa565b503d61155e565b60405162461bcd60e51b8152602060048201526015602482015274496e76616c69642076616c7565446563696d616c7360581b6044820152606490fd5b60405162461bcd60e51b81526020600482015260146024820152731059d95b9d08191bd95cc81b9bdd08195e1a5cdd60621b6044820152606490fd5b61160f915060203d602011611576576115688183611898565b8b610f3a565b346100df5760603660031901126100df5761162e611736565b61163661174c565b90600435600052600060205260406000209060018060a01b03166000526020526001600160401b036040600020911660005260205260ff60406000208054906116e860026116da85600385015416936116b4604051916116a48361169d8160018501611a42565b0384611898565b61169d6040518096819301611a42565b60405196868897600f0b885260801c16602087015260a0604087015260a0860190611762565b908482036060860152611762565b90151560808301520390f35b346100df5760003660031901126100df577f00000000000000000000000000000000000000000000000000000000000000006001600160a01b03168152602090f35b602435906001600160a01b03821682036100df57565b604435906001600160401b03821682036100df57565b919082519283825260005b84811061178e575050826000602080949584010152601f8019910116010190565b60208183018101518483018201520161176d565b9181601f840112156100df578235916001600160401b0383116100df57602083818601950101116100df57565b90815180825260208080930193019160005b8281106117ef575050505090565b83516001600160a01b0316855293810193928101926001016117e1565b9181601f840112156100df578235916001600160401b0383116100df576020808501948460051b0101116100df57565b908082519081815260208091019281808460051b8301019501936000915b84831061186a5750505050505090565b9091929394958480611888600193601f198682030187528a51611762565b980193019301919493929061185a565b90601f801991011681019081106001600160401b0382111761135e57604052565b908160209103126100df57516001600160a01b03811681036100df5790565b156118df57565b60405162461bcd60e51b815260206004820152602160248201527f43616e6e6f74206769766520666565646261636b20746f206f776e206167656e6044820152601d60fa1b6064820152608490fd5b6001600160401b03809116908114610b965760010190565b9291926001600160401b03821161135e576040519161196f601f8201601f191660200184611898565b8294818452818301116100df578281602093846000960137010152565b90600182811c921680156119bc575b60208310146119a657565b634e487b7160e01b600052602260045260246000fd5b91607f169161199b565b908060209392818452848401376000828201840152601f01601f1916010190565b156119ee57565b60405162461bcd60e51b815260206004820152601760248201527f466565646261636b20646f6573206e6f742065786973740000000000000000006044820152606490fd5b6000198114610b965760010190565b9060009291805491611a538361198c565b918282526001938481169081600014611ab55750600114611a75575b50505050565b90919394506000526020928360002092846000945b838610611aa1575050505001019038808080611a6f565b805485870183015294019385908201611a8a565b9294505050602093945060ff191683830152151560051b01019038808080611a6f565b6001600160401b03811161135e5760051b60200190565b80518210156113485760209160051b010190565b90611b0d82611ad8565b611b1a6040519182611898565b8281528092611b2b601f1991611ad8565b019060005b828110611b3c57505050565b806060602080938501015201611b3056fea26469706673582212204dbd5e17f46fb66fe670e3dc96df26043613eecce12f9b91e6e9cff9931dfe6464736f6c63430008140033",
  "linkReferences": {},
  "deployedLinkReferences": {}
}