{"contracts/ValidationRegistry.sol":{"ValidationRegistry":{"abi":[{"inputs":[{"internalType":"address","name":"identityRegistry_","type":"address"}],"stateMutability":"nonpayable","type":"constructor"},{"anonymous":false,"inputs":[{"indexed":true,"internalType":"address","name":"validatorAddress","type":"address"},{"indexed":true,"internalType":"uint256","name":"agentId","type":"uint256"},{"indexed":false,"internalType":"string","name":"requestURI","type":"string"},{"indexed":true,"internalType":"bytes32","name":"requestHash","type":"bytes32"}],"name":"ValidationRequest","type":"event"},{"anonymous":false,"inputs":[{"indexed":true,"internalType":"address","name":"validatorAddress","type":"address"},{"indexed":true,"internalType":"uint256","name":"agentId","type":"uint256"},{"indexed":true,"internalType":"bytes32","name":"requestHash","type":"bytes32"},{"indexed":false,"internalType":"uint8","name":"response","type":"uint8"},{"indexed":false,"internalType":"string","name":"responseURI","type":"string"},{"indexed":false,"internalType":"bytes32","name":"responseHash","type":"bytes32"},{"indexed":false,"internalType":"string","name":"tag","type":"string"}],"name":"ValidationResponse","type":"event"},{"inputs":[{"internalType":"uint256","name":"agentId","type":"uint256"}],"name":"getAgentValidations","outputs":[{"internalType":"bytes32[]","name":"","type":"bytes32[]"}],"stateMutability":"view","type":"function"},{"inputs":[],"name":"getIdentityRegistry","outputs":[{"internalType":"address","name":"","type":"address"}],"stateMutability":"view","type":"function"},{"inputs":[{"internalType":"uint256","name":"agentId","type":"uint256"},{"internalType":"address","name":"clientAddress","type":"address"},{"internalType":"uint64","name":"feedbackIndex","type":"uint64"},{"internalType":"address[]","name":"responders","type":"address[]"}],"name":"getResponseCount","outputs":[{"internalType":"uint64","name":"count","type":"uint64"}],"stateMutability":"view","type":"function"},{"inputs":[{"internalType":"uint256","name":"agentId","type":"uint256"},{"internalType":"address[]","name":"validatorAddresses","type":"address[]"},{"internalType":"string","name":"tag","type":"string"}],"name":"getSummary","outputs":[{"internalType":"uint64","name":"count","type":"uint64"},{"internalType":"uint8","name":"averageResponse","type":"uint8"}],"stateMutability":"view","type":"function"},{"inputs":[{"internalType":"bytes32","name":"requestHash","type":"bytes32"}],"name":"getValidationStatus","outputs":[{"internalType":"address","name":"validatorAddress","type":"address"},{"internalType":"uint256","name":"agentId","type":"uint256"},{"internalType":"uint8","name":"response","type":"uint8"},{"internalType":"bytes32","name":"responseHash","type":"bytes32"},{"internalType":"string","name":"tag","type":"string"},{"internalType":"uint256","name":"lastUpdate","type":"uint256"}],"stateMutability":"view","type":"function"},{"inputs":[{"internalType":"address","name":"validatorAddress","type":"address"}],"name":"getValidatorRequests","outputs":[{"internalType":"bytes32[]","name":"","type":"bytes32[]"}],"stateMutability":"view","type":"function"},{"inputs":[],"name":"identityRegistry","outputs":[{"internalType":"contract IdentityRegistry","name":"","type":"address"}],"stateMutability":"view","type":"function"},{"inputs":[{"internalType":"address","name":"validatorAddress","type":"address"},{"internalType":"uint256","name":"agentId","type":"uint256"},{"internalType":"string","name":"requestURI","type":"string"},{"internalType":"bytes32","name":"requestHash","type":"bytes32"}],"name":"validationRequest","outputs":[],"stateMutability":"nonpayable","type":"function"},{"inputs":[{"internalType":"bytes32","name":"requestHash","type":"bytes32"},{"internalType":"uint8","name":"response","type":"uint8"},{"internalType":"string","name":"responseURI","type":"string"},{"internalType":"bytes32","name":"responseHash","type":"bytes32"},{"internalType":"string","name":"tag","type":"string"}],"name":"validationResponse","outputs":[],"stateMutability":"nonpayable","type":"function"}],"evm":{"bytecode":{"linkReferences":{},"object":"60a03461007a57601f61113e38819003918201601f19168301916001600160401b0383118484101761007f5780849260209460405283398101031261007a57516001600160a01b0381169081900361007a576080526040516110a890816100968239608051818181610172015281816101f40152610b590152f35b600080fd5b634e487b7160e01b600052604160045260246000fdfe608080604052600436101561001357600080fd5b60e090600035821c908163134e18f414610b46575080631b7cabd614610ad75780633d659a96146108535780634bf3158c146107db5780636e04cacd146106aa5780638d5d0c2d14610631578063aaf400c4146101a1578063bc4d861b1461015c5763ff2febfc1461008457600080fd5b346101575760209081600319360112610157576004803560009081528084526040902080546001600160a01b031691906100bf831515610d6e565b60018101549460ff6002830154166003830154906100f36005850154946100ec6040518098819301610db3565b0386610c36565b6040519788968752838701526040860152606085015260c060808501528251928360c086015260005b84811061014157505060008484018601525060a0830152601f01601f19168101030190f35b818101830151888201880152879550820161011c565b600080fd5b34610157576000366003190112610157576040517f00000000000000000000000000000000000000000000000000000000000000006001600160a01b03168152602090f35b34610157576080366003190112610157576101ba610be5565b6044356001600160401b038111610157576101d9903690600401610bb8565b6040516331a9108f60e11b81526024803560048301529293927f00000000000000000000000000000000000000000000000000000000000000006001600160a01b03169190602090829081855afa9081156105e3576000916105ef575b5060018060a01b03169033821491821561056c575b505015610527576001600160a01b038216156104e257606435156104a65760405160c081018181106001600160401b038211176104905760405260018060a01b0383168152602435602082015260006040820152600060608201526040518060208101106001600160401b036020830111176104905760208101604052600081526080820190815260a08201428152606435600052600060205260406000209160018060a01b038451166bffffffffffffffffffffffff60a01b8454161783556060602085015194600195868601556002850160ff60408301511660ff19825416179055015160038401556004830190518051906001600160401b038211610490576103618261035b8554610c57565b85610c91565b602090601f8311600114610427576005949392916000918361041c575b5050600019600383901b1c191690861b1790555b519101556024356000526020526103af6064356040600020610d13565b60018060a01b03821660005260026020526103d06064356040600020610d13565b7f530436c3634a98e1e626b0898be2f1e9980cc1bd2a78c07a0aba52d0a48a50596040516020815280610417606435966024359660018060a01b0316956020840191610d4d565b0390a4005b015190508a8061037e565b9392918691601f198216908460005260206000209160005b818110610478575096836005981061045f575b505050811b019055610392565b015160001960f88460031b161c191690558a8080610452565b8289015184558a95909301926020928301920161043f565b634e487b7160e01b600052604160045260246000fd5b60405162461bcd60e51b8152602060048201526014602482015273092dcecc2d8d2c840e4cae2eacae6e840d0c2e6d60631b6044820152606490fd5b60405162461bcd60e51b815260206004820152601960248201527f496e76616c69642076616c696461746f722061646472657373000000000000006044820152606490fd5b60405162461bcd60e51b815260206004820152601d60248201527f4e6f7420617574686f72697a656420666f722074686973206167656e740000006044820152606490fd5b602091925060446040518094819363e985e9c560e01b835260048301523360248301525afa9081156105e3576000916105a8575b50848061024b565b90506020813d6020116105db575b816105c360209383610c36565b810103126101575751801515810361015757846105a0565b3d91506105b6565b6040513d6000823e3d90fd5b90506020813d602011610629575b8161060a60209383610c36565b8101031261015757516001600160a01b03811681036101575785610236565b3d91506105fd565b3461015757602080600319360112610157576004356000526001808252604060002091604051918282855491828152019460005282600020926000905b8282106106955761069186610685818a0382610c36565b60405191829182610bfb565b0390f35b8454875295860195938301939083019061066e565b34610157576080366003190112610157576001600160a01b0360243581811603610157576001600160401b03906044358281160361015757606435828111610157576106fa903690600401610b88565b6004939193356000526001926020948486526040600020916000956000938054945b85811061072f5789898960405191168152f35b6107398183610ce5565b90549060031b1c60005260008a52604060002087610781575b6002015460ff1661076c575b61076790610e49565b61071c565b9761077961076791610e92565b98905061075e565b60008086835416905b878b8083106107a6575b50505050610752575061076790610e49565b6107b4836107b9928d610e6e565b610e7e565b1682146107ce576107c990610e49565b61078a565b505050838c80878b610794565b3461015757602080600319360112610157576001600160a01b036107fd610be5565b1660005260028152604060002090604051908181845491828152019360005281600020916000905b82821061083c576106918561068581890382610c36565b835486529485019460019384019390910190610825565b346101575760a03660031901126101575760243560ff8116809103610157576001600160401b039060443582811161015757610893903690600401610bb8565b91909260643591608435828111610157576108b2903690600401610bb8565b60049491943596876000526020946000865260406000209060018060a01b038254166108df811515610d6e565b3303610a925760648611610a5457600282018660ff198254161790558460038301558311610490576004810161091f846109198354610c57565b83610c91565b6000601f85116001146109b957926001859361099993610417977fafddf629e874ccc3963b6a888c477bd464a6c8525024fc88759ea3b2326349ae9b9a99976000916109ae575b50600019600388901b1c191686841b1790555b426005820155015499608060405198899889528801526080870191610d4d565b91604085015283820360608501523396610d4d565b90508c01358f610966565b8160005288886000209160005b601f1988168110610a3a575093610999937fafddf629e874ccc3963b6a888c477bd464a6c8525024fc88759ea3b2326349ae9a9998969360019389976104179a601f19811610610a20575b5050508286811b019055610979565b0135600019600389901b60f8161c191690558e8c81610a11565b91600182948c938493013581550193019101908a916109c6565b60405162461bcd60e51b81526004810188905260166024820152750526573706f6e7365206d75737420626520302d3130360541b6044820152606490fd5b60405162461bcd60e51b815260048101889052601a60248201527f4f6e6c792076616c696461746f722063616e20726573706f6e640000000000006044820152606490fd5b34610157576060366003190112610157576001600160401b0360243581811161015757610b08903690600401610b88565b91906044358281116101575760409360ff92610b2b610b36933690600401610bb8565b929091600435610eaa565b9092845193168352166020820152f35b34610157576000366003190112610157577f00000000000000000000000000000000000000000000000000000000000000006001600160a01b03168152602090f35b9181601f84011215610157578235916001600160401b038311610157576020808501948460051b01011161015757565b9181601f84011215610157578235916001600160401b038311610157576020838186019501011161015757565b600435906001600160a01b038216820361015757565b6020908160408183019282815285518094520193019160005b828110610c22575050505090565b835185529381019392810192600101610c14565b90601f801991011681019081106001600160401b0382111761049057604052565b90600182811c92168015610c87575b6020831014610c7157565b634e487b7160e01b600052602260045260246000fd5b91607f1691610c66565b90601f8111610c9f57505050565b600091825260208220906020601f850160051c83019410610cdb575b601f0160051c01915b828110610cd057505050565b818155600101610cc4565b9092508290610cbb565b8054821015610cfd5760005260206000200190600090565b634e487b7160e01b600052603260045260246000fd5b80546801000000000000000081101561049057610d3591600182018155610ce5565b819291549060031b91821b91600019901b1916179055565b908060209392818452848401376000828201840152601f01601f1916010190565b15610d7557565b60405162461bcd60e51b815260206004820152601660248201527514995c5d595cdd08191bd95cc81b9bdd08195e1a5cdd60521b6044820152606490fd5b9060009291805491610dc483610c57565b918282526001938481169081600014610e265750600114610de6575b50505050565b90919394506000526020928360002092846000945b838610610e12575050505001019038808080610de0565b805485870183015294019385908201610dfb565b9294505050602093945060ff191683830152151560051b01019038808080610de0565b6000198114610e585760010190565b634e487b7160e01b600052601160045260246000fd5b9190811015610cfd5760051b0190565b356001600160a01b03811681036101575790565b6001600160401b03809116908114610e585760010190565b600090815260016020818152604080842080549499988a988998899891935b888a10610efc57505050505050505050506001600160401b038116918215610ef45750920460ff1690565b935050508190565b909192939495969798999c610f118b83610ce5565b90549060031b1c8c528b8852868c2083611009575b85151580610f85575b610f7957600260ff910154168101809111610f6557610f51610f57919e610e92565b9a610e49565b989796959493929190610ec9565b634e487b7160e01b8c52601160045260248cfd5b509c99610f5790610e49565b508751600490610fa281610f9b81858701610db3565b0382610c36565b8a8151910120906001600160401b038811610ff657508851610fcd601f8901601f19168c0182610c36565b8781528a81019036898b0111610ff2578f898b84378c8a830101525190201415610f2f565b8f80fd5b634e487b7160e01b8f526041905260248efd5b80549b9d9c9b8c906001600160a01b0390811690825b87811061103e575b5050509d9b9c9d610f2657509c99610f5790610e49565b8161104d6107b4838b8d610e6e565b1683146110625761105d90610e49565b61101f565b508c92503891508190508061102756fea2646970667358221220d0a000d6a120a7838eb32125ecfb2ebd4eb9d1b48e2fa743bc4096ddfb47e8ef64736f6c63430008140033","opcodes":"PUSH1 0xA0 CALLVALUE PUSH2 0x7A JUMPI PUSH1 0x1F PUSH2 0x113E CODESIZE DUP2 SWAP1 SUB SWAP2 DUP3 ADD PUSH1 0x1F NOT AND DUP4 ADD SWAP2 PUSH1 0x1 PUSH1 0x1 PUSH1 0x40 SHL SUB DUP4 GT DUP5 DUP5 LT OR PUSH2 0x7F JUMPI DUP1 DUP5 SWAP3 PUSH1 0x20 SWAP5 PUSH1 0x40 MSTORE DUP4 CODECOPY DUP2 ADD SUB SLT PUSH2 0x7A JUMPI MLOAD PUSH1 0x1 PUSH1 0x1 PUSH1 0xA0 SHL SUB DUP2 AND SWAP1 DUP2 SWAP1 SUB PUSH2 0x7A JUMPI PUSH1 0x80 MSTORE PUSH1 0x40 MLOAD PUSH2 0x10A8 SWAP1 DUP2 PUSH2 0x96 DUP3 CODECOPY PUSH1 0x80 MLOAD DUP2 DUP2 DUP2 PUSH2 0x172 ADD MSTORE DUP2 DUP2 PUSH2 0x1F4 ADD MSTORE PUSH2 0xB59 ADD MSTORE RETURN JUMPDEST PUSH1 0x0 DUP1 REVERT JUMPDEST PUSH4 0x4E487B71 PUSH1 0xE0 SHL PUSH1 0x0 MSTORE PUSH1 0x41 PUSH1 0x4 MSTORE PUSH1 0x24 PUSH1 0x0 REVERT INVALID PUSH1 0x80 DUP1 PUSH1 0x40 MSTORE PUSH1 0x4 CALLDATASIZE LT ISZERO PUSH2 0x13 JUMPI PUSH1 0x0 DUP1 REVERT JUMPDEST PUSH1 0xE0 SWAP1 PUSH1 0x0 CALLDATALOAD DUP3 SHR SWAP1 DUP2 PUSH4 0x134E18F4 EQ PUSH2 0xB46 JUMPI POP DUP1 PUSH4 0x1B7CABD6 EQ PUSH2 0xAD7 JUMPI DUP1 PUSH4 0x3D659A96 EQ PUSH2 0x853 JUMPI DUP1 PUSH4 0x4BF3158C EQ PUSH2 0x7DB JUMPI DUP1 PUSH4 0x6E04CACD EQ PUSH2 0x6AA JUMPI DUP1 PUSH4 0x8D5D0C2D EQ PUSH2 0x631 JUMPI DUP1 PUSH4 0xAAF400C4 EQ PUSH2 0x1A1 JUMPI DUP1 PUSH4 0xBC4D861B EQ PUSH2 0x15C JUMPI PUSH4 0xFF2FEBFC EQ PUSH2 0x84 JUMPI PUSH1 0x0 DUP1 REVERT JUMPDEST CALLVALUE PUSH2 0x157 JUMPI PUSH1 0x20 SWAP1 DUP2 PUSH1 0x3 NOT CALLDATASIZE ADD SLT PUSH2 0x157 JUMPI PUSH1 0x4 DUP1 CALLDATALOAD PUSH1 0x0 SWAP1 DUP2 MSTORE DUP1 DUP5 MSTORE PUSH1 0x40 SWAP1 KECCAK256 DUP1 SLOAD PUSH1 0x1 PUSH1 0x1 PUSH1 0xA0 SHL SUB AND SWAP2 SWAP1 PUSH2 0xBF DUP4 ISZERO ISZERO PUSH2 0xD6E JUMP JUMPDEST PUSH1 0x1 DUP2 ADD SLOAD SWAP5 PUSH1 0xFF PUSH1 0x2 DUP4 ADD SLOAD AND PUSH1 0x3 DUP4 ADD SLOAD SWAP1 PUSH2 0xF3 PUSH1 0x5 DUP6 ADD SLOAD SWAP5 PUSH2 0xEC PUSH1 0x40 MLOAD DUP1 SWAP9 DUP2 SWAP4 ADD PUSH2 0xDB3 JUMP JUMPDEST SUB DUP7 PUSH2 0xC36 JUMP JUMPDEST PUSH1 0x40 MLOAD SWAP8 DUP9 SWAP7 DUP8 MSTORE DUP4 DUP8 ADD MSTORE PUSH1 0x40 DUP7 ADD MSTORE PUSH1 0x60 DUP6 ADD MSTORE PUSH1 0xC0 PUSH1 0x80 DUP6 ADD MSTORE DUP3 MLOAD SWAP3 DUP4 PUSH1 0xC0 DUP7 ADD MSTORE PUSH1 0x0 JUMPDEST DUP5 DUP2 LT PUSH2 0x141 JUMPI POP POP PUSH1 0x0 DUP5 DUP5 ADD DUP7 ADD MSTORE POP PUSH1 0xA0 DUP4 ADD MSTORE PUSH1 0x1F ADD PUSH1 0x1F NOT AND DUP2 ADD SUB ADD SWAP1 RETURN JUMPDEST DUP2 DUP2 ADD DUP4 ADD MLOAD DUP9 DUP3 ADD DUP9 ADD MSTORE DUP8 SWAP6 POP DUP3 ADD PUSH2 0x11C JUMP JUMPDEST PUSH1 0x0 DUP1 REVERT JUMPDEST CALLVALUE PUSH2 0x157 JUMPI PUSH1 0x0 CALLDATASIZE PUSH1 0x3 NOT ADD SLT PUSH2 0x157 JUMPI PUSH1 0x40 MLOAD PUSH32 0x0 PUSH1 0x1 PUSH1 0x1 PUSH1 0xA0 SHL SUB AND DUP2 MSTORE PUSH1 0x20 SWAP1 RETURN JUMPDEST CALLVALUE PUSH2 0x157 JUMPI PUSH1 0x80 CALLDATASIZE PUSH1 0x3 NOT ADD SLT PUSH2 0x157 JUMPI PUSH2 0x1BA PUSH2 0xBE5 JUMP JUMPDEST PUSH1 0x44 CALLDATALOAD PUSH1 0x1 PUSH1 0x1 PUSH1 0x40 SHL SUB DUP2 GT PUSH2 0x157 JUMPI PUSH2 0x1D9 SWAP1 CALLDATASIZE SWAP1 PUSH1 0x4 ADD PUSH2 0xBB8 JUMP JUMPDEST PUSH1 0x40 MLOAD PUSH4 0x31A9108F PUSH1 0xE1 SHL DUP2 MSTORE PUSH1 0x24 DUP1 CALLDATALOAD PUSH1 0x4 DUP4 ADD MSTORE SWAP3 SWAP4 SWAP3 PUSH32 0x0 PUSH1 0x1 PUSH1 0x1 PUSH1 0xA0 SHL SUB AND SWAP2 SWAP1 PUSH1 0x20 SWAP1 DUP3 SWAP1 DUP2 DUP6 GAS STATICCALL SWAP1 DUP2 ISZERO PUSH2 0x5E3 JUMPI PUSH1 0x0 SWAP2 PUSH2 0x5EF JUMPI JUMPDEST POP PUSH1 0x1 DUP1 PUSH1 0xA0 SHL SUB AND SWAP1 CALLER DUP3 EQ SWAP2 DUP3 ISZERO PUSH2 0x56C JUMPI JUMPDEST POP POP ISZERO PUSH2 0x527 JUMPI PUSH1 0x1 PUSH1 0x1 PUSH1 0xA0 SHL SUB DUP3 AND ISZERO PUSH2 0x4E2 JUMPI PUSH1 0x64 CALLDATALOAD ISZERO PUSH2 0x4A6 JUMPI PUSH1 0x40 MLOAD PUSH1 0xC0 DUP2 ADD DUP2 DUP2 LT PUSH1 0x1 PUSH1 0x1 PUSH1 0x40 SHL SUB DUP3 GT OR PUSH2 0x490 JUMPI PUSH1 0x40 MSTORE PUSH1 0x1 DUP1 PUSH1 0xA0 SHL SUB DUP4 AND DUP2 MSTORE PUSH1 0x24 CALLDATALOAD PUSH1 0x20 DUP3 ADD MSTORE PUSH1 0x0 PUSH1 0x40 DUP3 ADD MSTORE PUSH1 0x0 PUSH1 0x60 DUP3 ADD MSTORE PUSH1 0x40 MLOAD DUP1 PUSH1 0x20 DUP2 ADD LT PUSH1 0x1 PUSH1 0x1 PUSH1 0x40 SHL SUB PUSH1 0x20 DUP4 ADD GT OR PUSH2 0x490 JUMPI PUSH1 0x20 DUP2 ADD PUSH1 0x40 MSTORE PUSH1 0x0 DUP2 MSTORE PUSH1 0x80 DUP3 ADD SWAP1 DUP2 MSTORE PUSH1 0xA0 DUP3 ADD TIMESTAMP DUP2 MSTORE PUSH1 0x64 CALLDATALOAD PUSH1 0x0 MSTORE PUSH1 0x0 PUSH1 0x20 MSTORE PUSH1 0x40 PUSH1 0x0 KECCAK256 SWAP2 PUSH1 0x1 DUP1 PUSH1 0xA0 SHL SUB DUP5 MLOAD AND PUSH12 0xFFFFFFFFFFFFFFFFFFFFFFFF PUSH1 0xA0 SHL DUP5 SLOAD AND OR DUP4 SSTORE PUSH1 0x60 PUSH1 0x20 DUP6 ADD MLOAD SWAP5 PUSH1 0x1 SWAP6 DUP7 DUP7 ADD SSTORE PUSH1 0x2 DUP6 ADD PUSH1 0xFF PUSH1 0x40 DUP4 ADD MLOAD AND PUSH1 0xFF NOT DUP3 SLOAD AND OR SWAP1 SSTORE ADD MLOAD PUSH1 0x3 DUP5 ADD SSTORE PUSH1 0x4 DUP4 ADD SWAP1 MLOAD DUP1 MLOAD SWAP1 PUSH1 0x1 PUSH1 0x1 PUSH1 0x40 SHL SUB DUP3 GT PUSH2 0x490 JUMPI PUSH2 0x361 DUP3 PUSH2 0x35B DUP6 SLOAD PUSH2 0xC57 JUMP JUMPDEST DUP6 PUSH2 0xC91 JUMP JUMPDEST PUSH1 0x20 SWAP1 PUSH1 0x1F DUP4 GT PUSH1 0x1 EQ PUSH2 0x427 JUMPI PUSH1 0x5 SWAP5 SWAP4 SWAP3 SWAP2 PUSH1 0x0 SWAP2 DUP4 PUSH2 0x41C JUMPI JUMPDEST POP POP PUSH1 0x0 NOT PUSH1 0x3 DUP4 SWAP1 SHL SHR NOT AND SWAP1 DUP7 SHL OR SWAP1 SSTORE JUMPDEST MLOAD SWAP2 ADD SSTORE PUSH1 0x24 CALLDATALOAD PUSH1 0x0 MSTORE PUSH1 0x20 MSTORE PUSH2 0x3AF PUSH1 0x64 CALLDATALOAD PUSH1 0x40 PUSH1 0x0 KECCAK256 PUSH2 0xD13 JUMP JUMPDEST PUSH1 0x1 DUP1 PUSH1 0xA0 SHL SUB DUP3 AND PUSH1 0x0 MSTORE PUSH1 0x2 PUSH1 0x20 MSTORE PUSH2 0x3D0 PUSH1 0x64 CALLDATALOAD PUSH1 0x40 PUSH1 0x0 KECCAK256 PUSH2 0xD13 JUMP JUMPDEST PUSH32 0x530436C3634A98E1E626B0898BE2F1E9980CC1BD2A78C07A0ABA52D0A48A5059 PUSH1 0x40 MLOAD PUSH1 0x20 DUP2 MSTORE DUP1 PUSH2 0x417 PUSH1 0x64 CALLDATALOAD SWAP7 PUSH1 0x24 CALLDATALOAD SWAP7 PUSH1 0x1 DUP1 PUSH1 0xA0 SHL SUB AND SWAP6 PUSH1 0x20 DUP5 ADD SWAP2 PUSH2 0xD4D JUMP JUMPDEST SUB SWAP1 LOG4 STOP JUMPDEST ADD MLOAD SWAP1 POP DUP11 DUP1 PUSH2 0x37E JUMP JUMPDEST SWAP4 SWAP3 SWAP2 DUP7 SWAP2 PUSH1 0x1F NOT DUP3 AND SWAP1 DUP5 PUSH1 0x0 MSTORE PUSH1 0x20 PUSH1 0x0 KECCAK256 SWAP2 PUSH1 0x0 JUMPDEST DUP2 DUP2 LT PUSH2 0x478 JUMPI POP SWAP7 DUP4 PUSH1 0x5 SWAP9 LT PUSH2 0x45F JUMPI JUMPDEST POP POP POP DUP2 SHL ADD SWAP1 SSTORE PUSH2 0x392 JUMP JUMPDEST ADD MLOAD PUSH1 0x0 NOT PUSH1 0xF8 DUP5 PUSH1 0x3 SHL AND SHR NOT AND SWAP1 SSTORE DUP11 DUP1 DUP1 PUSH2 0x452 JUMP JUMPDEST DUP3 DUP10 ADD MLOAD DUP5 SSTORE DUP11 SWAP6 SWAP1 SWAP4 ADD SWAP3 PUSH1 0x20 SWAP3 DUP4 ADD SWAP3 ADD PUSH2 0x43F JUMP JUMPDEST PUSH4 0x4E487B71 PUSH1 0xE0 SHL PUSH1 0x0 MSTORE PUSH1 0x41 PUSH1 0x4 MSTORE PUSH1 0x24 PUSH1 0x0 REVERT JUMPDEST PUSH1 0x40 MLOAD PUSH3 0x461BCD PUSH1 0xE5 SHL DUP2 MSTORE PUSH1 0x20 PUSH1 0x4 DUP3 ADD MSTORE PUSH1 0x14 PUSH1 0x24 DUP3 ADD MSTORE PUSH20 0x92DCECC2D8D2C840E4CAE2EACAE6E840D0C2E6D PUSH1 0x63 SHL PUSH1 0x44 DUP3 ADD MSTORE PUSH1 0x64 SWAP1 REVERT JUMPDEST PUSH1 0x40 MLOAD PUSH3 0x461BCD PUSH1 0xE5 SHL DUP2 MSTORE PUSH1 0x20 PUSH1 0x4 DUP3 ADD MSTORE PUSH1 0x19 PUSH1 0x24 DUP3 ADD MSTORE PUSH32 0x496E76616C69642076616C696461746F72206164647265737300000000000000 PUSH1 0x44 DUP3 ADD MSTORE PUSH1 0x64 SWAP1 REVERT JUMPDEST PUSH1 0x40 MLOAD PUSH3 0x461BCD PUSH1 0xE5 SHL DUP2 MSTORE PUSH1 0x20 PUSH1 0x4 DUP3 ADD MSTORE PUSH1 0x1D PUSH1 0x24 DUP3 ADD MSTORE PUSH32 0x4E6F7420617574686F72697A656420666F722074686973206167656E74000000 PUSH1 0x44 DUP3 ADD MSTORE PUSH1 0x64 SWAP1 REVERT JUMPDEST PUSH1 0x20 SWAP2 SWAP3 POP PUSH1 0x44 PUSH1 0x40 MLOAD DUP1 SWAP5 DUP2 SWAP4 PUSH4 0xE985E9C5 PUSH1 0xE0 SHL DUP4 MSTORE PUSH1 0x4 DUP4 ADD MSTORE CALLER PUSH1 0x24 DUP4 ADD MSTORE GAS STATICCALL SWAP1 DUP2 ISZERO PUSH2 0x5E3 JUMPI PUSH1 0x0 SWAP2 PUSH2 0x5A8 JUMPI JUMPDEST POP DUP5 DUP1 PUSH2 0x24B JUMP JUMPDEST SWAP1 POP PUSH1 0x20 DUP2 RETURNDATASIZE PUSH1 0x20 GT PUSH2 0x5DB JUMPI JUMPDEST DUP2 PUSH2 0x5C3 PUSH1 0x20 SWAP4 DUP4 PUSH2 0xC36 JUMP JUMPDEST DUP2 ADD SUB SLT PUSH2 0x157 JUMPI MLOAD DUP1 ISZERO ISZERO DUP2 SUB PUSH2 0x157 JUMPI DUP5 PUSH2 0x5A0 JUMP JUMPDEST RETURNDATASIZE SWAP2 POP PUSH2 0x5B6 JUMP JUMPDEST PUSH1 0x40 MLOAD RETURNDATASIZE PUSH1 0x0 DUP3 RETURNDATACOPY RETURNDATASIZE SWAP1 REVERT JUMPDEST SWAP1 POP PUSH1 0x20 DUP2 RETURNDATASIZE PUSH1 0x20 GT PUSH2 0x629 JUMPI JUMPDEST DUP2 PUSH2 0x60A PUSH1 0x20 SWAP4 DUP4 PUSH2 0xC36 JUMP JUMPDEST DUP2 ADD SUB SLT PUSH2 0x157 JUMPI MLOAD PUSH1 0x1 PUSH1 0x1 PUSH1 0xA0 SHL SUB DUP2 AND DUP2 SUB PUSH2 0x157 JUMPI DUP6 PUSH2 0x236 JUMP JUMPDEST RETURNDATASIZE SWAP2 POP PUSH2 0x5FD JUMP JUMPDEST CALLVALUE PUSH2 0x157 JUMPI PUSH1 0x20 DUP1 PUSH1 0x3 NOT CALLDATASIZE ADD SLT PUSH2 0x157 JUMPI PUSH1 0x4 CALLDATALOAD PUSH1 0x0 MSTORE PUSH1 0x1 DUP1 DUP3 MSTORE PUSH1 0x40 PUSH1 0x0 KECCAK256 SWAP2 PUSH1 0x40 MLOAD SWAP2 DUP3 DUP3 DUP6 SLOAD SWAP2 DUP3 DUP2 MSTORE ADD SWAP5 PUSH1 0x0 MSTORE DUP3 PUSH1 0x0 KECCAK256 SWAP3 PUSH1 0x0 SWAP1 JUMPDEST DUP3 DUP3 LT PUSH2 0x695 JUMPI PUSH2 0x691 DUP7 PUSH2 0x685 DUP2 DUP11 SUB DUP3 PUSH2 0xC36 JUMP JUMPDEST PUSH1 0x40 MLOAD SWAP2 DUP3 SWAP2 DUP3 PUSH2 0xBFB JUMP JUMPDEST SUB SWAP1 RETURN JUMPDEST DUP5 SLOAD DUP8 MSTORE SWAP6 DUP7 ADD SWAP6 SWAP4 DUP4 ADD SWAP4 SWAP1 DUP4 ADD SWAP1 PUSH2 0x66E JUMP JUMPDEST CALLVALUE PUSH2 0x157 JUMPI PUSH1 0x80 CALLDATASIZE PUSH1 0x3 NOT ADD SLT PUSH2 0x157 JUMPI PUSH1 0x1 PUSH1 0x1 PUSH1 0xA0 SHL SUB PUSH1 0x24 CALLDATALOAD DUP2 DUP2 AND SUB PUSH2 0x157 JUMPI PUSH1 0x1 PUSH1 0x1 PUSH1 0x40 SHL SUB SWAP1 PUSH1 0x44 CALLDATALOAD DUP3 DUP2 AND SUB PUSH2 0x157 JUMPI PUSH1 0x64 CALLDATALOAD DUP3 DUP2 GT PUSH2 0x157 JUMPI PUSH2 0x6FA SWAP1 CALLDATASIZE SWAP1 PUSH1 0x4 ADD PUSH2 0xB88 JUMP JUMPDEST PUSH1 0x4 SWAP4 SWAP2 SWAP4 CALLDATALOAD PUSH1 0x0 MSTORE PUSH1 0x1 SWAP3 PUSH1 0x20 SWAP5 DUP5 DUP7 MSTORE PUSH1 0x40 PUSH1 0x0 KECCAK256 SWAP2 PUSH1 0x0 SWAP6 PUSH1 0x0 SWAP4 DUP1 SLOAD SWAP5 JUMPDEST DUP6 DUP2 LT PUSH2 0x72F JUMPI DUP10 DUP10 DUP10 PUSH1 0x40 MLOAD SWAP2 AND DUP2 MSTORE RETURN JUMPDEST PUSH2 0x739 DUP2 DUP4 PUSH2 0xCE5 JUMP JUMPDEST SWAP1 SLOAD SWAP1 PUSH1 0x3 SHL SHR PUSH1 0x0 MSTORE PUSH1 0x0 DUP11 MSTORE PUSH1 0x40 PUSH1 0x0 KECCAK256 DUP8 PUSH2 0x781 JUMPI JUMPDEST PUSH1 0x2 ADD SLOAD PUSH1 0xFF AND PUSH2 0x76C JUMPI JUMPDEST PUSH2 0x767 SWAP1 PUSH2 0xE49 JUMP JUMPDEST PUSH2 0x71C JUMP JUMPDEST SWAP8 PUSH2 0x779 PUSH2 0x767 SWAP2 PUSH2 0xE92 JUMP JUMPDEST SWAP9 SWAP1 POP PUSH2 0x75E JUMP JUMPDEST PUSH1 0x0 DUP1 DUP7 DUP4 SLOAD AND SWAP1 JUMPDEST DUP8 DUP12 DUP1 DUP4 LT PUSH2 0x7A6 JUMPI JUMPDEST POP POP POP POP PUSH2 0x752 JUMPI POP PUSH2 0x767 SWAP1 PUSH2 0xE49 JUMP JUMPDEST PUSH2 0x7B4 DUP4 PUSH2 0x7B9 SWAP3 DUP14 PUSH2 0xE6E JUMP JUMPDEST PUSH2 0xE7E JUMP JUMPDEST AND DUP3 EQ PUSH2 0x7CE JUMPI PUSH2 0x7C9 SWAP1 PUSH2 0xE49 JUMP JUMPDEST PUSH2 0x78A JUMP JUMPDEST POP POP POP DUP4 DUP13 DUP1 DUP8 DUP12 PUSH2 0x794 JUMP JUMPDEST CALLVALUE PUSH2 0x157 JUMPI PUSH1 0x20 DUP1 PUSH1 0x3 NOT CALLDATASIZE ADD SLT PUSH2 0x157 JUMPI PUSH1 0x1 PUSH1 0x1 PUSH1 0xA0 SHL SUB PUSH2 0x7FD PUSH2 0xBE5 JUMP JUMPDEST AND PUSH1 0x0 MSTORE PUSH1 0x2 DUP2 MSTORE PUSH1 0x40 PUSH1 0x0 KECCAK256 SWAP1 PUSH1 0x40 MLOAD SWAP1 DUP2 DUP2 DUP5 SLOAD SWAP2 DUP3 DUP2 MSTORE ADD SWAP4 PUSH1 0x0 MSTORE DUP2 PUSH1 0x0 KECCAK256 SWAP2 PUSH1 0x0 SWAP1 JUMPDEST DUP3 DUP3 LT PUSH2 0x83C JUMPI PUSH2 0x691 DUP6 PUSH2 0x685 DUP2 DUP10 SUB DUP3 PUSH2 0xC36 JUMP JUMPDEST DUP4 SLOAD DUP7 MSTORE SWAP5 DUP6 ADD SWAP5 PUSH1 0x1 SWAP4 DUP5 ADD SWAP4 SWAP1 SWAP2 ADD SWAP1 PUSH2 0x825 JUMP JUMPDEST CALLVALUE PUSH2 0x157 JUMPI PUSH1 0xA0 CALLDATASIZE PUSH1 0x3 NOT ADD SLT PUSH2 0x157 JUMPI PUSH1 0x24 CALLDATALOAD PUSH1 0xFF DUP2 AND DUP1 SWAP2 SUB PUSH2 0x157 JUMPI PUSH1 0x1 PUSH1 0x1 PUSH1 0x40 SHL SUB SWAP1 PUSH1 0x44 CALLDATALOAD DUP3 DUP2 GT PUSH2 0x157 JUMPI PUSH2 0x893 SWAP1 CALLDATASIZE SWAP1 PUSH1 0x4 ADD PUSH2 0xBB8 JUMP JUMPDEST SWAP2 SWAP1 SWAP3 PUSH1 0x64 CALLDATALOAD SWAP2 PUSH1 0x84 CALLDATALOAD DUP3 DUP2 GT PUSH2 0x157 JUMPI PUSH2 0x8B2 SWAP1 CALLDATASIZE SWAP1 PUSH1 0x4 ADD PUSH2 0xBB8 JUMP JUMPDEST PUSH1 0x4 SWAP5 SWAP2 SWAP5 CALLDATALOAD SWAP7 DUP8 PUSH1 0x0 MSTORE PUSH1 0x20 SWAP5 PUSH1 0x0 DUP7 MSTORE PUSH1 0x40 PUSH1 0x0 KECCAK256 SWAP1 PUSH1 0x1 DUP1 PUSH1 0xA0 SHL SUB DUP3 SLOAD AND PUSH2 0x8DF DUP2 ISZERO ISZERO PUSH2 0xD6E JUMP JUMPDEST CALLER SUB PUSH2 0xA92 JUMPI PUSH1 0x64 DUP7 GT PUSH2 0xA54 JUMPI PUSH1 0x2 DUP3 ADD DUP7 PUSH1 0xFF NOT DUP3 SLOAD AND OR SWAP1 SSTORE DUP5 PUSH1 0x3 DUP4 ADD SSTORE DUP4 GT PUSH2 0x490 JUMPI PUSH1 0x4 DUP2 ADD PUSH2 0x91F DUP5 PUSH2 0x919 DUP4 SLOAD PUSH2 0xC57 JUMP JUMPDEST DUP4 PUSH2 0xC91 JUMP JUMPDEST PUSH1 0x0 PUSH1 0x1F DUP6 GT PUSH1 0x1 EQ PUSH2 0x9B9 JUMPI SWAP3 PUSH1 0x1 DUP6 SWAP4 PUSH2 0x999 SWAP4 PUSH2 0x417 SWAP8 PUSH32 0xAFDDF629E874CCC3963B6A888C477BD464A6C8525024FC88759EA3B2326349AE SWAP12 SWAP11 SWAP10 SWAP8 PUSH1 0x0 SWAP2 PUSH2 0x9AE JUMPI JUMPDEST POP PUSH1 0x0 NOT PUSH1 0x3 DUP9 SWAP1 SHL SHR NOT AND DUP7 DUP5 SHL OR SWAP1 SSTORE JUMPDEST TIMESTAMP PUSH1 0x5 DUP3 ADD SSTORE ADD SLOAD SWAP10 PUSH1 0x80 PUSH1 0x40 MLOAD SWAP9 DUP10 SWAP9 DUP10 MSTORE DUP9 ADD MSTORE PUSH1 0x80 DUP8 ADD SWAP2 PUSH2 0xD4D JUMP JUMPDEST SWAP2 PUSH1 0x40 DUP6 ADD MSTORE DUP4 DUP3 SUB PUSH1 0x60 DUP6 ADD MSTORE CALLER SWAP7 PUSH2 0xD4D JUMP JUMPDEST SWAP1 POP DUP13 ADD CALLDATALOAD DUP16 PUSH2 0x966 JUMP JUMPDEST DUP2 PUSH1 0x0 MSTORE DUP9 DUP9 PUSH1 0x0 KECCAK256 SWAP2 PUSH1 0x0 JUMPDEST PUSH1 0x1F NOT DUP9 AND DUP2 LT PUSH2 0xA3A JUMPI POP SWAP4 PUSH2 0x999 SWAP4 PUSH32 0xAFDDF629E874CCC3963B6A888C477BD464A6C8525024FC88759EA3B2326349AE SWAP11 SWAP10 SWAP9 SWAP7 SWAP4 PUSH1 0x1 SWAP4 DUP10 SWAP8 PUSH2 0x417 SWAP11 PUSH1 0x1F NOT DUP2 AND LT PUSH2 0xA20 JUMPI JUMPDEST POP POP POP DUP3 DUP7 DUP2 SHL ADD SWAP1 SSTORE PUSH2 0x979 JUMP JUMPDEST ADD CALLDATALOAD PUSH1 0x0 NOT PUSH1 0x3 DUP10 SWAP1 SHL PUSH1 0xF8 AND SHR NOT AND SWAP1 SSTORE DUP15 DUP13 DUP2 PUSH2 0xA11 JUMP JUMPDEST SWAP2 PUSH1 0x1 DUP3 SWAP5 DUP13 SWAP4 DUP5 SWAP4 ADD CALLDATALOAD DUP2 SSTORE ADD SWAP4 ADD SWAP2 ADD SWAP1 DUP11 SWAP2 PUSH2 0x9C6 JUMP JUMPDEST PUSH1 0x40 MLOAD PUSH3 0x461BCD PUSH1 0xE5 SHL DUP2 MSTORE PUSH1 0x4 DUP2 ADD DUP9 SWAP1 MSTORE PUSH1 0x16 PUSH1 0x24 DUP3 ADD MSTORE PUSH22 0x526573706F6E7365206D75737420626520302D31303 PUSH1 0x54 SHL PUSH1 0x44 DUP3 ADD MSTORE PUSH1 0x64 SWAP1 REVERT JUMPDEST PUSH1 0x40 MLOAD PUSH3 0x461BCD PUSH1 0xE5 SHL DUP2 MSTORE PUSH1 0x4 DUP2 ADD DUP9 SWAP1 MSTORE PUSH1 0x1A PUSH1 0x24 DUP3 ADD MSTORE PUSH32 0x4F6E6C792076616C696461746F722063616E20726573706F6E64000000000000 PUSH1 0x44 DUP3 ADD MSTORE PUSH1 0x64 SWAP1 REVERT JUMPDEST CALLVALUE PUSH2 0x157 JUMPI PUSH1 0x60 CALLDATASIZE PUSH1 0x3 NOT ADD SLT PUSH2 0x157 JUMPI PUSH1 0x1 PUSH1 0x1 PUSH1 0x40 SHL SUB PUSH1 0x24 CALLDATALOAD DUP2 DUP2 GT PUSH2 0x157 JUMPI PUSH2 0xB08 SWAP1 CALLDATASIZE SWAP1 PUSH1 0x4 ADD PUSH2 0xB88 JUMP JUMPDEST SWAP2 SWAP1 PUSH1 0x44 CALLDATALOAD DUP3 DUP2 GT PUSH2 0x157 JUMPI PUSH1 0x40 SWAP4 PUSH1 0xFF SWAP3 PUSH2 0xB2B PUSH2 0xB36 SWAP4 CALLDATASIZE SWAP1 PUSH1 0x4 ADD PUSH2 0xBB8 JUMP JUMPDEST SWAP3 SWAP1 SWAP2 PUSH1 0x4 CALLDATALOAD PUSH2 0xEAA JUMP JUMPDEST SWAP1 SWAP3 DUP5 MLOAD SWAP4 AND DUP4 MSTORE AND PUSH1 0x20 DUP3 ADD MSTORE RETURN JUMPDEST CALLVALUE PUSH2 0x157 JUMPI PUSH1 0x0 CALLDATASIZE PUSH1 0x3 NOT ADD SLT PUSH2 0x157 JUMPI PUSH32 0x0 PUSH1 0x1 PUSH1 0x1 PUSH1 0xA0 SHL SUB AND DUP2 MSTORE PUSH1 0x20 SWAP1 RETURN JUMPDEST SWAP2 DUP2 PUSH1 0x1F DUP5 ADD SLT ISZERO PUSH2 0x157 JUMPI DUP3 CALLDATALOAD SWAP2 PUSH1 0x1 PUSH1 0x1 PUSH1 0x40 SHL SUB DUP4 GT PUSH2 0x157 JUMPI PUSH1 0x20 DUP1 DUP6 ADD SWAP5 DUP5 PUSH1 0x5 SHL ADD ADD GT PUSH2 0x157 JUMPI JUMP JUMPDEST SWAP2 DUP2 PUSH1 0x1F DUP5 ADD SLT ISZERO PUSH2 0x157 JUMPI DUP3 CALLDATALOAD SWAP2 PUSH1 0x1 PUSH1 0x1 PUSH1 0x40 SHL SUB DUP4 GT PUSH2 0x157 JUMPI PUSH1 0x20 DUP4 DUP2 DUP7 ADD SWAP6 ADD ADD GT PUSH2 0x157 JUMPI JUMP JUMPDEST PUSH1 0x4 CALLDATALOAD SWAP1 PUSH1 0x1 PUSH1 0x1 PUSH1 0xA0 SHL SUB DUP3 AND DUP3 SUB PUSH2 0x157 JUMPI JUMP JUMPDEST PUSH1 0x20 SWAP1 DUP2 PUSH1 0x40 DUP2 DUP4 ADD SWAP3 DUP3 DUP2 MSTORE DUP6 MLOAD DUP1 SWAP5 MSTORE ADD SWAP4 ADD SWAP2 PUSH1 0x0 JUMPDEST DUP3 DUP2 LT PUSH2 0xC22 JUMPI POP POP POP POP SWAP1 JUMP JUMPDEST DUP4 MLOAD DUP6 MSTORE SWAP4 DUP2 ADD SWAP4 SWAP3 DUP2 ADD SWAP3 PUSH1 0x1 ADD PUSH2 0xC14 JUMP JUMPDEST SWAP1 PUSH1 0x1F DUP1 NOT SWAP2 ADD AND DUP2 ADD SWAP1 DUP2 LT PUSH1 0x1 PUSH1 0x1 PUSH1 0x40 SHL SUB DUP3 GT OR PUSH2 0x490 JUMPI PUSH1 0x40 MSTORE JUMP JUMPDEST SWAP1 PUSH1 0x1 DUP3 DUP2 SHR SWAP3 AND DUP1 ISZERO PUSH2 0xC87 JUMPI JUMPDEST PUSH1 0x20 DUP4 LT EQ PUSH2 0xC71 JUMPI JUMP JUMPDEST PUSH4 0x4E487B71 PUSH1 0xE0 SHL PUSH1 0x0 MSTORE PUSH1 0x22 PUSH1 0x4 MSTORE PUSH1 0x24 PUSH1 0x0 REVERT JUMPDEST SWAP2 PUSH1 0x7F AND SWAP2 PUSH2 0xC66 JUMP JUMPDEST SWAP1 PUSH1 0x1F DUP2 GT PUSH2 0xC9F JUMPI POP POP POP JUMP JUMPDEST PUSH1 0x0 SWAP2 DUP3 MSTORE PUSH1 0x20 DUP3 KECCAK256 SWAP1 PUSH1 0x20 PUSH1 0x1F DUP6 ADD PUSH1 0x5 SHR DUP4 ADD SWAP5 LT PUSH2 0xCDB JUMPI JUMPDEST PUSH1 0x1F ADD PUSH1 0x5 SHR ADD SWAP2 JUMPDEST DUP3 DUP2 LT PUSH2 0xCD0 JUMPI POP POP POP JUMP JUMPDEST DUP2 DUP2 SSTORE PUSH1 0x1 ADD PUSH2 0xCC4 JUMP JUMPDEST SWAP1 SWAP3 POP DUP3 SWAP1 PUSH2 0xCBB JUMP JUMPDEST DUP1 SLOAD DUP3 LT ISZERO PUSH2 0xCFD JUMPI PUSH1 0x0 MSTORE PUSH1 0x20 PUSH1 0x0 KECCAK256 ADD SWAP1 PUSH1 0x0 SWAP1 JUMP JUMPDEST PUSH4 0x4E487B71 PUSH1 0xE0 SHL PUSH1 0x0 MSTORE PUSH1 0x32 PUSH1 0x4 MSTORE PUSH1 0x24 PUSH1 0x0 REVERT JUMPDEST DUP1 SLOAD PUSH9 0x10000000000000000 DUP2 LT ISZERO PUSH2 0x490 JUMPI PUSH2 0xD35 SWAP2 PUSH1 0x1 DUP3 ADD DUP2 SSTORE PUSH2 0xCE5 JUMP JUMPDEST DUP2 SWAP3 SWAP2 SLOAD SWAP1 PUSH1 0x3 SHL SWAP2 DUP3 SHL SWAP2 PUSH1 0x0 NOT SWAP1 SHL NOT AND OR SWAP1 SSTORE JUMP JUMPDEST SWAP1 DUP1 PUSH1 0x20 SWAP4 SWAP3 DUP2 DUP5 MSTORE DUP5 DUP5 ADD CALLDATACOPY PUSH1 0x0 DUP3 DUP3 ADD DUP5 ADD MSTORE PUSH1 0x1F ADD PUSH1 0x1F NOT AND ADD ADD SWAP1 JUMP JUMPDEST ISZERO PUSH2 0xD75 JUMPI JUMP JUMPDEST PUSH1 0x40 MLOAD PUSH3 0x461BCD PUSH1 0xE5 SHL DUP2 MSTORE PUSH1 0x20 PUSH1 0x4 DUP3 ADD MSTORE PUSH1 0x16 PUSH1 0x24 DUP3 ADD MSTORE PUSH22 0x14995C5D595CDD08191BD95CC81B9BDD08195E1A5CDD PUSH1 0x52 SHL PUSH1 0x44 DUP3 ADD MSTORE PUSH1 0x64 SWAP1 REVERT JUMPDEST SWAP1 PUSH1 0x0 SWAP3 SWAP2 DUP1 SLOAD SWAP2 PUSH2 0xDC4 DUP4 PUSH2 0xC57 JUMP JUMPDEST SWAP2 DUP3 DUP3 MSTORE PUSH1 0x1 SWAP4 DUP5 DUP2 AND SWAP1 DUP2 PUSH1 0x0 EQ PUSH2 0xE26 JUMPI POP PUSH1 0x1 EQ PUSH2 0xDE6 JUMPI JUMPDEST POP POP POP POP JUMP JUMPDEST SWAP1 SWAP2 SWAP4 SWAP5 POP PUSH1 0x0 MSTORE PUSH1 0x20 SWAP3 DUP4 PUSH1 0x0 KECCAK256 SWAP3 DUP5 PUSH1 0x0 SWAP5 JUMPDEST DUP4 DUP7 LT PUSH2 0xE12 JUMPI POP POP POP POP ADD ADD SWAP1 CODESIZE DUP1 DUP1 DUP1 PUSH2 0xDE0 JUMP JUMPDEST DUP1 SLOAD DUP6 DUP8 ADD DUP4 ADD MSTORE SWAP5 ADD SWAP4 DUP6 SWAP1 DUP3 ADD PUSH2 0xDFB JUMP JUMPDEST SWAP3 SWAP5 POP POP POP PUSH1 0x20 SWAP4 SWAP5 POP PUSH1 0xFF NOT AND DUP4 DUP4 ADD MSTORE ISZERO ISZERO PUSH1 0x5 SHL ADD ADD SWAP1 CODESIZE DUP1 DUP1 DUP1 PUSH2 0xDE0 JUMP JUMPDEST PUSH1 0x0 NOT DUP2 EQ PUSH2 0xE58 JUMPI PUSH1 0x1 ADD SWAP1 JUMP JUMPDEST PUSH4 0x4E487B71 PUSH1 0xE0 SHL PUSH1 0x0 MSTORE PUSH1 0x11 PUSH1 0x4 MSTORE PUSH1 0x24 PUSH1 0x0 REVERT JUMPDEST SWAP2 SWAP1 DUP2 LT ISZERO PUSH2 0xCFD JUMPI PUSH1 0x5 SHL ADD SWAP1 JUMP JUMPDEST CALLDATALOAD PUSH1 0x1 PUSH1 0x1 PUSH1 0xA0 SHL SUB DUP2 AND DUP2 SUB PUSH2 0x157 JUMPI SWAP1 JUMP JUMPDEST PUSH1 0x1 PUSH1 0x1 PUSH1 0x40 SHL SUB DUP1 SWAP2 AND SWAP1 DUP2 EQ PUSH2 0xE58 JUMPI PUSH1 0x1 ADD SWAP1 JUMP JUMPDEST PUSH1 0x0 SWAP1 DUP2 MSTORE PUSH1 0x1 PUSH1 0x20 DUP2 DUP2 MSTORE PUSH1 0x40 DUP1 DUP5 KECCAK256 DUP1 SLOAD SWAP5 SWAP10 SWAP9 DUP11 SWAP9 DUP10 SWAP9 DUP10 SWAP9 SWAP2 SWAP4 JUMPDEST DUP9 DUP11 LT PUSH2 0xEFC JUMPI POP POP POP POP POP POP POP POP POP POP PUSH1 0x1 PUSH1 0x1 PUSH1 0x40 SHL SUB DUP2 AND SWAP2 DUP3 ISZERO PUSH2 0xEF4 JUMPI POP SWAP3 DIV PUSH1 0xFF AND SWAP1 JUMP JUMPDEST SWAP4 POP POP POP DUP2 SWAP1 JUMP JUMPDEST SWAP1 SWAP2 SWAP3 SWAP4 SWAP5 SWAP6 SWAP7 SWAP8 SWAP9 SWAP10 SWAP13 PUSH2 0xF11 DUP12 DUP4 PUSH2 0xCE5 JUMP JUMPDEST SWAP1 SLOAD SWAP1 PUSH1 0x3 SHL SHR DUP13 MSTORE DUP12 DUP9 MSTORE DUP7 DUP13 KECCAK256 DUP4 PUSH2 0x1009 JUMPI JUMPDEST DUP6 ISZERO ISZERO DUP1 PUSH2 0xF85 JUMPI JUMPDEST PUSH2 0xF79 JUMPI PUSH1 0x2 PUSH1 0xFF SWAP2 ADD SLOAD AND DUP2 ADD DUP1 SWAP2 GT PUSH2 0xF65 JUMPI PUSH2 0xF51 PUSH2 0xF57 SWAP2 SWAP15 PUSH2 0xE92 JUMP JUMPDEST SWAP11 PUSH2 0xE49 JUMP JUMPDEST SWAP9 SWAP8 SWAP7 SWAP6 SWAP5 SWAP4 SWAP3 SWAP2 SWAP1 PUSH2 0xEC9 JUMP JUMPDEST PUSH4 0x4E487B71 PUSH1 0xE0 SHL DUP13 MSTORE PUSH1 0x11 PUSH1 0x4 MSTORE PUSH1 0x24 DUP13 REVERT JUMPDEST POP SWAP13 SWAP10 PUSH2 0xF57 SWAP1 PUSH2 0xE49 JUMP JUMPDEST POP DUP8 MLOAD PUSH1 0x4 SWAP1 PUSH2 0xFA2 DUP2 PUSH2 0xF9B DUP2 DUP6 DUP8 ADD PUSH2 0xDB3 JUMP JUMPDEST SUB DUP3 PUSH2 0xC36 JUMP JUMPDEST DUP11 DUP2 MLOAD SWAP2 ADD KECCAK256 SWAP1 PUSH1 0x1 PUSH1 0x1 PUSH1 0x40 SHL SUB DUP9 GT PUSH2 0xFF6 JUMPI POP DUP9 MLOAD PUSH2 0xFCD PUSH1 0x1F DUP10 ADD PUSH1 0x1F NOT AND DUP13 ADD DUP3 PUSH2 0xC36 JUMP JUMPDEST DUP8 DUP2 MSTORE DUP11 DUP2 ADD SWAP1 CALLDATASIZE DUP10 DUP12 ADD GT PUSH2 0xFF2 JUMPI DUP16 DUP10 DUP12 DUP5 CALLDATACOPY DUP13 DUP11 DUP4 ADD ADD MSTORE MLOAD SWAP1 KECCAK256 EQ ISZERO PUSH2 0xF2F JUMP JUMPDEST DUP16 DUP1 REVERT JUMPDEST PUSH4 0x4E487B71 PUSH1 0xE0 SHL DUP16 MSTORE PUSH1 0x41 SWAP1 MSTORE PUSH1 0x24 DUP15 REVERT JUMPDEST DUP1 SLOAD SWAP12 SWAP14 SWAP13 SWAP12 DUP13 SWAP1 PUSH1 0x1 PUSH1 0x1 PUSH1 0xA0 SHL SUB SWAP1 DUP2 AND SWAP1 DUP3 JUMPDEST DUP8 DUP2 LT PUSH2 0x103E JUMPI JUMPDEST POP POP POP SWAP14 SWAP12 SWAP13 SWAP14 PUSH2 0xF26 JUMPI POP SWAP13 SWAP10 PUSH2 0xF57 SWAP1 PUSH2 0xE49 JUMP JUMPDEST DUP2 PUSH2 0x104D PUSH2 0x7B4 DUP4 DUP12 DUP14 PUSH2 0xE6E JUMP JUMPDEST AND DUP4 EQ PUSH2 0x1062 JUMPI PUSH2 0x105D SWAP1 PUSH2 0xE49 JUMP JUMPDEST PUSH2 0x101F JUMP JUMPDEST POP DUP13 SWAP3 POP CODESIZE SWAP2 POP DUP2 SWAP1 POP DUP1 PUSH2 0x1027 JUMP INVALID LOG2 PUSH5 0x6970667358 0x22 SLT KECCAK256 0xD0 LOG0 STOP 0xD6 LOG1 KECCAK256 0xA7 DUP4 DUP15 0xB3 0x21 0x25 0xEC 0xFB 0x2E 0xBD 0x4E 0xB9 0xD1 0xB4 DUP15 0x2F 0xA7 NUMBER 0xBC BLOCKHASH SWAP7 0xDD 0xFB SELFBALANCE 0xE8 0xEF PUSH5 0x736F6C6343 STOP ADDMOD EQ STOP CALLER "},"methodIdentifiers":{"getAgentValidations(uint256)":"8d5d0c2d","getIdentityRegistry()":"bc4d861b","getResponseCount(uint256,address,uint64,address[])":"6e04cacd","getSummary(uint256,address[],string)":"1b7cabd6","getValidationStatus(bytes32)":"ff2febfc","getValidatorRequests(address)":"4bf3158c","identityRegistry()":"134e18f4","validationRequest(address,uint256,string,bytes32)":"aaf400c4","validationResponse(bytes32,uint8,string,bytes32,string)":"3d659a96"}}}}}