{"contracts/ReputationRegistry.sol":{"ReputationRegistry":{"abi":[{"inputs":[{"internalType":"address","name":"identityRegistry_","type":"address"}],"stateMutability":"nonpayable","type":"constructor"},{"anonymous":false,"inputs":[{"indexed":true,"internalType":"uint256","name":"agentId","type":"uint256"},{"indexed":true,"internalType":"address","name":"clientAddress","type":"address"},{"indexed":true,"internalType":"uint64","name":"feedbackIndex","type":"uint64"}],"name":"FeedbackRevoked","type":"event"},{"anonymous":false,"inputs":[{"indexed":true,"internalType":"uint256","name":"agentId","type":"uint256"},{"indexed":true,"internalType":"address","name":"clientAddress","type":"address"},{"indexed":false,"internalType":"uint64","name":"feedbackIndex","type":"uint64"},{"indexed":false,"internalType":"int128","name":"value","type":"int128"},{"indexed":false,"internalType":"uint8","name":"valueDecimals","type":"uint8"},{"indexed":true,"internalType":"string","name":"indexedTag1","type":"string"},{"indexed":false,"internalType":"string","name":"tag1","type":"string"},{"indexed":false,"internalType":"string","name":"tag2","type":"string"},{"indexed":false,"internalType":"string","name":"endpoint","type":"string"},{"indexed":false,"internalType":"string","name":"feedbackURI","type":"string"},{"indexed":false,"internalType":"bytes32","name":"feedbackHash","type":"bytes32"}],"name":"NewFeedback","type":"event"},{"anonymous":false,"inputs":[{"indexed":true,"internalType":"uint256","name":"agentId","type":"uint256"},{"indexed":true,"internalType":"address","name":"clientAddress","type":"address"},{"indexed":false,"internalType":"uint64","name":"feedbackIndex","type":"uint64"},{"indexed":true,"internalType":"address","name":"responder","type":"address"},{"indexed":false,"internalType":"string","name":"responseURI","type":"string"},{"indexed":false,"internalType":"bytes32","name":"responseHash","type":"bytes32"}],"name":"ResponseAppended","type":"event"},{"inputs":[{"internalType":"uint256","name":"agentId","type":"uint256"},{"internalType":"address","name":"clientAddress","type":"address"},{"internalType":"uint64","name":"feedbackIndex","type":"uint64"},{"internalType":"string","name":"responseURI","type":"string"},{"internalType":"bytes32","name":"responseHash","type":"bytes32"}],"name":"appendResponse","outputs":[],"stateMutability":"nonpayable","type":"function"},{"inputs":[{"internalType":"uint256","name":"agentId","type":"uint256"}],"name":"getClients","outputs":[{"internalType":"address[]","name":"","type":"address[]"}],"stateMutability":"view","type":"function"},{"inputs":[],"name":"getIdentityRegistry","outputs":[{"internalType":"address","name":"","type":"address"}],"stateMutability":"view","type":"function"},{"inputs":[{"internalType":"uint256","name":"agentId","type":"uint256"},{"internalType":"address","name":"clientAddress","type":"address"}],"name":"getLastIndex","outputs":[{"internalType":"uint64","name":"","type":"uint64"}],"stateMutability":"view","type":"function"},{"inputs":[{"internalType":"uint256","name":"agentId","type":"uint256"},{"internalType":"address[]","name":"clientAddresses","type":"address[]"},{"internalType":"string","name":"tag1","type":"string"},{"internalType":"string","name":"tag2","type":"string"}],"name":"getSummary","outputs":[{"internalType":"uint64","name":"count","type":"uint64"},{"internalType":"int128","name":"summaryValue","type":"int128"},{"internalType":"uint8","name":"summaryValueDecimals","type":"uint8"}],"stateMutability":"view","type":"function"},{"inputs":[{"internalType":"uint256","name":"agentId","type":"uint256"},{"internalType":"int128","name":"value","type":"int128"},{"internalType":"uint8","name":"valueDecimals","type":"uint8"},{"internalType":"string","name":"tag1","type":"string"},{"internalType":"string","name":"tag2","type":"string"},{"internalType":"string","name":"endpoint","type":"string"},{"internalType":"string","name":"feedbackURI","type":"string"},{"internalType":"bytes32","name":"feedbackHash","type":"bytes32"}],"name":"giveFeedback","outputs":[],"stateMutability":"nonpayable","type":"function"},{"inputs":[],"name":"identityRegistry","outputs":[{"internalType":"contract IdentityRegistry","name":"","type":"address"}],"stateMutability":"view","type":"function"},{"inputs":[{"internalType":"uint256","name":"agentId","type":"uint256"},{"internalType":"address[]","name":"clientAddresses","type":"address[]"},{"internalType":"string","name":"tag1","type":"string"},{"internalType":"string","name":"tag2","type":"string"},{"internalType":"bool","name":"includeRevoked","type":"bool"}],"name":"readAllFeedback","outputs":[{"internalType":"address[]","name":"clients","type":"address[]"},{"internalType":"uint64[]","name":"feedbackIndexes","type":"uint64[]"},{"internalType":"int128[]","name":"values","type":"int128[]"},{"internalType":"uint8[]","name":"valueDecimals","type":"uint8[]"},{"internalType":"string[]","name":"tag1s","type":"string[]"},{"internalType":"string[]","name":"tag2s","type":"string[]"},{"internalType":"bool[]","name":"revokedStatuses","type":"bool[]"}],"stateMutability":"view","type":"function"},{"inputs":[{"internalType":"uint256","name":"agentId","type":"uint256"},{"internalType":"address","name":"clientAddress","type":"address"},{"internalType":"uint64","name":"feedbackIndex","type":"uint64"}],"name":"readFeedback","outputs":[{"internalType":"int128","name":"value","type":"int128"},{"internalType":"uint8","name":"valueDecimals","type":"uint8"},{"internalType":"string","name":"tag1","type":"string"},{"internalType":"string","name":"tag2","type":"string"},{"internalType":"bool","name":"isRevoked","type":"bool"}],"stateMutability":"view","type":"function"},{"inputs":[{"internalType":"uint256","name":"agentId","type":"uint256"},{"internalType":"uint64","name":"feedbackIndex","type":"uint64"}],"name":"revokeFeedback","outputs":[],"stateMutability":"nonpayable","type":"function"}],"evm":{"bytecode":{"linkReferences":{},"object":"60a03461008857601f611c2738819003918201601f19168301916001600160401b0383118484101761008d5780849260209460405283398101031261008857516001600160a01b0381169081900361008857608052604051611b8390816100a4823960805181818161099a01528181610f0101528181610f7101528181610fe301526117070152f35b600080fd5b634e487b7160e01b600052604160045260246000fdfe61024080604052600436101561001457600080fd5b60003560e01c908163134e18f4146116f457508063232b0810146116155780633c036a7e14610e3257806342dd519c14610da85780634ab3ca9914610c7d57806381bbba58146109c9578063bc4d861b14610984578063c2349ab21461089e578063d9d84224146100e45763f2d817591461008e57600080fd5b346100df5760403660031901126100df576100a7611736565b600435600052600160205260406000209060018060a01b031660005260205260206001600160401b0360406000205416604051908152f35b600080fd5b346100df5760a03660031901126100df576024356001600160401b0381116100df5761011490369060040161180c565b906044356001600160401b0381116100df576101349036906004016117a2565b60c0526080526064356001600160401b0381116100df576101599036906004016117a2565b61012052610180526084358061016052801515036100df57600091801561082f5761018381611ad8565b916101916040519384611898565b8183526020918284019060051b8201913683116100df57905b8282106108105750505050905b6000915b8051831015610342576001600160a01b036101d68483611aef565b511660043560005260016020526040600020816000526020526001600160401b0360406000205416926001905b846001600160401b0383161161032e57600435600052600060205260406000208360005260205260406000206001600160401b0383166000526020526040600020610160511580610320575b6102dc5760c0511515806102e7575b6102dc576101205115159081610296575b5061028c5761028061028691611a33565b9161192e565b90610203565b906102869061192e565b600291506102b5906102ae6040518094819301611a42565b0382611898565b602081519101206102cd366101205161018051611946565b6020815191012014158761026f565b50906102869061192e565b506040516102fc816102ae8160018601611a42565b602081519101206103123660c051608051611946565b60208151910120141561025e565b5060ff60038201541661024f565b935050509161033c90611a33565b916101bb565b9061035b61034f82611ad8565b6040518060a052611898565b8060a05152601f1961036c82611ad8565b0136602060a051013761038e61038182611ad8565b604051806101c052611898565b806101c05152601f196103a082611ad8565b013660206101c05101376103c36103b682611ad8565b6040518061020052611898565b806102005152601f196103d582611ad8565b013660206102005101376103f86103eb82611ad8565b6040518061014052611898565b806101405152601f1961040a82611ad8565b0136602061014051013761041d81611b03565b6102205261042a81611b03565b9061044461043782611ad8565b604051806101a052611898565b806101a05152610456601f1991611ad8565b013660206101a05101376000806101e0525b82516101e051908110156106af576001600160a01b03906104899085611aef565b5116806101005260043560005260016020526040600020906000526020526001600160401b036040600020541660e0526001905b60e0516001600160401b0383161161069657600435600052600060205260406000206101005160005260205260406000206001600160401b0383166000526020526040600020610160511580610688575b6106095760c05115158061064f575b6106095761012051151580610614575b610609576106039161028091610100516105498360a051611aef565b526001600160401b038516610561836101c051611aef565b52600381549182600f0b6105788561020051611aef565b5260ff809360801c1661058e8561014051611aef565b526040516105a3816102ae8160018601611a42565b6105b08561022051611aef565b526105be8461022051611aef565b506040516105d3816102ae8160028601611a42565b6105dd858a611aef565b526105e88489611aef565b500154166105f9826101a051611aef565b9015159052611a33565b906104bd565b50906106039061192e565b50604051610629816102ae8160028601611a42565b60208151910120610641366101205161018051611946565b60208151910120141561052d565b50604051610664816102ae8160018601611a42565b6020815191012061067a3660c051608051611946565b60208151910120141561051d565b5060ff60038201541661050e565b9290506106a56101e051611a33565b6101e05291610468565b82604051809160e082526106c860e0830160a0516117cf565b828103602084015260206101c0515191828152019060206101c051019060005b8181106107ee57505050828103604084015260206102005151918281520190602061020051019060005b8181106107d257505050828103606084015260206101405151918281520190602061014051019060005b8181106107b6575050509061075f828461076d940360808601526102205161183c565b9083820360a085015261183c565b81810360c083015260206101a0515191828152019060206101a051019060005b81811061079b575050500390f35b8251151584528594506020938401939092019160010161078d565b825160ff1684528695506020938401939092019160010161073c565b8251600f0b845286955060209384019390920191600101610712565b82516001600160401b03168452869550602093840193909201916001016106e8565b81356001600160a01b03811681036100df5781529083019083016101aa565b50506004356000526020600281526040600020906040518092839183825491828152019160005283600020936000905b82821061087b5750505061087592500382611898565b906101b7565b85546001600160a01b03168452600195860195879550938101939091019061085f565b346100df5760a03660031901126100df576004356108ba611736565b6108c261174c565b916001600160401b036064358181116100df577fb1c6be0b5b8aef6539e2fac0fd131a2faa7b49edf8e505b5eb0ad487d56051d49161090861096a9236906004016117a2565b909185600052600060205260406000209660018060a01b03169687600052602052604060002097169687600052602052604060002054600f0b1580159061097b575b610953906119e7565b6040519687526060602088015260608701916119c6565b9360843560408201528033950390a4005b5086151561094a565b346100df5760003660031901126100df576040517f00000000000000000000000000000000000000000000000000000000000000006001600160a01b03168152602090f35b346100df5760803660031901126100df576024356001600160401b0381116100df576109f990369060040161180c565b6044356001600160401b0381116100df57610a189036906004016117a2565b9290916064356001600160401b0381116100df57610a3a9036906004016117a2565b94908215610c385760009560009560009560005b868110610a7b5760608960ff8a8d6001600160401b0360405194168452600f0b6020840152166040820152f35b959795600581901b820135916001600160a01b03831683036100df5760049a979a356000526001602052604060002060018060a01b0384166000526020526001600160401b03604060002054169960015b8b6001600160401b03821611610c23576004356000526000602052604060002060018060a01b03861660005260205260406000206001600160401b038216600052602052604060002060ff600382015416610bac5789151580610bee575b610bac5787151580610bb9575b610bac5754998a600f0b808083011260008312908015821691151617610b9657610b6291019d61192e565b9960ff8c1660ff8260801c1611610b86575b50610b7e9061192e565b9b989b610acc565b60801c60ff169a50610b7e610b74565b634e487b7160e01b600052601160045260246000fd5b50610b7e909c999c61192e565b50604051610bce816102ae8160028601611a42565b60208151910120610be0368a8c611946565b602081519101201415610b37565b50604051610c03816102ae8160018601611a42565b60208151910120610c15368c8a611946565b602081519101201415610b2a565b50979a99509150610c3390611a33565b610a4e565b60405162461bcd60e51b815260206004820152601d60248201527f4d757374207370656369667920636c69656e74206164647265737365730000006044820152606490fd5b346100df5760403660031901126100df57600435602435906001600160401b0382168092036100df578060005260206000815260406000203360005281526040600020836000528152604060002054600f0b15801590610d9f575b610ce1906119e7565b81600052600081526040600020336000528152604060002083600052815260ff60036040600020015416610d69578160005260008152604060002033600052815260406000209083600052526003604060002001600160ff1982541617905533907f25156fd3288212246d8b008d5921fde376c71ed14ac2e072a506eb06fde6d09d600080a4005b6064906040519062461bcd60e51b82526004820152600f60248201526e105b1c9958591e481c995d9bdad959608a1b6044820152fd5b50821515610cd8565b346100df576020806003193601126100df5760043560005260028152604060002090604051808383829554938481520190600052836000209260005b85828210610e1357505050610dfb92500383611898565b610e0f6040519282849384528301906117cf565b0390f35b85546001600160a01b0316845260019586019588955093019201610de4565b346100df576101003660031901126100df5760243580600f0b81036100df5760443560ff811681036100df576064356001600160401b0381116100df57610e7d9036906004016117a2565b906084356001600160401b0381116100df57610e9d9036906004016117a2565b9060a4356001600160401b0381116100df57610ebd9036906004016117a2565b91909260c4356001600160401b0381116100df57610edf9036906004016117a2565b6040516331a9108f60e11b8152600480359082015291979096916020816024817f00000000000000000000000000000000000000000000000000000000000000006001600160a01b03165afa908115611542576000916115f6575b506001600160a01b0316156115ba57601260ff8a161161157d576040516331a9108f60e11b815260048035908201526020816024817f00000000000000000000000000000000000000000000000000000000000000006001600160a01b03165afa9081156115425760009161154e575b506001600160a01b0316610fc0338214156118d8565b60405163e985e9c560e01b815260048101919091523360248201526020816044817f00000000000000000000000000000000000000000000000000000000000000006001600160a01b03165afa801561154257600090611505575b6110269150156118d8565b60043560005260016020526040600020336000526020526040600020988954996001600160401b03611059818d1661192e565b16809b6001600160401b0319161790556040518060a08101106001600160401b0360a08301111761135e5760a081016040528b600f0b81526020810160ff831681526110a6368587611946565b604083019081526110b836888a611946565b606084015260006080840152600435600052600060205260406000203360005260205260406000208d6000526020526040600020918351906fffffffffffffffffffffffffffffffff84549160ff60801b905160801b1692169070ffffffffffffffffffffffffffffffffff191617178255518051906001600160401b03821161135e57819061114b600185015461198c565b601f81116114b2575b50602090601f83116001146114455760009261143a575b50508160011b916000199060031b1c19161760018201555b60608201518051906001600160401b03821161135e576111a6600284015461198c565b601f81116113f3575b50602090601f831160011461137f57918060809492600394600092611374575b50508160011b9160001990851b1c19161760028201555b01910151151560ff80198354169116179055600435600052600360205260406000203360005260205260ff60406000205416156112ca575b6040518284823780838101600081520390209a6040519a8b52600f0b60208b015260ff1660408a015260608901610100905261010089019061125f926119c6565b908782036080890152611271926119c6565b9085820360a0870152611283926119c6565b9083820360c0850152611295926119c6565b60e43560e083015233918060043592037f6a4a61743519c9d648a14e6493f47dbe3ff1aa29e7785c96c8326a205e58febc91a4005b600435600052600260205260406000208054906801000000000000000082101561135e576001820180825582101561134857600052602060002001336bffffffffffffffffffffffff60a01b82541617905560043560005260036020526040600020336000526020526040600020600160ff1982541617905561121e565b634e487b7160e01b600052603260045260246000fd5b634e487b7160e01b600052604160045260246000fd5b0151905038806111cf565b906002840160005260206000209160005b601f19851681106113db5750926080949260019260039583601f198116106113c3575b505050811b0160028201556111e6565b015160001983871b60f8161c191690553880806113b3565b91926020600181928685015181550194019201611390565b600284016000526020600020601f840160051c810160208510611433575b601f830160051c820181106114275750506111af565b60008155600101611411565b5080611411565b015190508f8061116b565b600185016000908152602081209350601f198516905b81811061149a5750908460019594939210611481575b505050811b016001820155611183565b015160001960f88460031b161c191690558f8080611471565b9293602060018192878601518155019501930161145b565b909150600184016000526020600020601f840160051c8101602085106114fe575b90849392915b601f830160051c820181106114ef575050611154565b600081558594506001016114d9565b50806114d3565b506020813d60201161153a575b8161151f60209383611898565b810103126100df575180151581036100df576110269061101b565b3d9150611512565b6040513d6000823e3d90fd5b611570915060203d602011611576575b6115688183611898565b8101906118b9565b8b610faa565b503d61155e565b60405162461bcd60e51b8152602060048201526015602482015274496e76616c69642076616c7565446563696d616c7360581b6044820152606490fd5b60405162461bcd60e51b81526020600482015260146024820152731059d95b9d08191bd95cc81b9bdd08195e1a5cdd60621b6044820152606490fd5b61160f915060203d602011611576576115688183611898565b8b610f3a565b346100df5760603660031901126100df5761162e611736565b61163661174c565b90600435600052600060205260406000209060018060a01b03166000526020526001600160401b036040600020911660005260205260ff60406000208054906116e860026116da85600385015416936116b4604051916116a48361169d8160018501611a42565b0384611898565b61169d6040518096819301611a42565b60405196868897600f0b885260801c16602087015260a0604087015260a0860190611762565b908482036060860152611762565b90151560808301520390f35b346100df5760003660031901126100df577f00000000000000000000000000000000000000000000000000000000000000006001600160a01b03168152602090f35b602435906001600160a01b03821682036100df57565b604435906001600160401b03821682036100df57565b919082519283825260005b84811061178e575050826000602080949584010152601f8019910116010190565b60208183018101518483018201520161176d565b9181601f840112156100df578235916001600160401b0383116100df57602083818601950101116100df57565b90815180825260208080930193019160005b8281106117ef575050505090565b83516001600160a01b0316855293810193928101926001016117e1565b9181601f840112156100df578235916001600160401b0383116100df576020808501948460051b0101116100df57565b908082519081815260208091019281808460051b8301019501936000915b84831061186a5750505050505090565b9091929394958480611888600193601f198682030187528a51611762565b980193019301919493929061185a565b90601f801991011681019081106001600160401b0382111761135e57604052565b908160209103126100df57516001600160a01b03811681036100df5790565b156118df57565b60405162461bcd60e51b815260206004820152602160248201527f43616e6e6f74206769766520666565646261636b20746f206f776e206167656e6044820152601d60fa1b6064820152608490fd5b6001600160401b03809116908114610b965760010190565b9291926001600160401b03821161135e576040519161196f601f8201601f191660200184611898565b8294818452818301116100df578281602093846000960137010152565b90600182811c921680156119bc575b60208310146119a657565b634e487b7160e01b600052602260045260246000fd5b91607f169161199b565b908060209392818452848401376000828201840152601f01601f1916010190565b156119ee57565b60405162461bcd60e51b815260206004820152601760248201527f466565646261636b20646f6573206e6f742065786973740000000000000000006044820152606490fd5b6000198114610b965760010190565b9060009291805491611a538361198c565b918282526001938481169081600014611ab55750600114611a75575b50505050565b90919394506000526020928360002092846000945b838610611aa1575050505001019038808080611a6f565b805485870183015294019385908201611a8a565b9294505050602093945060ff191683830152151560051b01019038808080611a6f565b6001600160401b03811161135e5760051b60200190565b80518210156113485760209160051b010190565b90611b0d82611ad8565b611b1a6040519182611898565b8281528092611b2b601f1991611ad8565b019060005b828110611b3c57505050565b806060602080938501015201611b3056fea26469706673582212204dbd5e17f46fb66fe670e3dc96df26043613eecce12f9b91e6e9cff9931dfe6464736f6c63430008140033","opcodes":"PUSH1 0xA0 CALLVALUE PUSH2 0x88 JUMPI PUSH1 0x1F PUSH2 0x1C27 CODESIZE DUP2 SWAP1 SUB SWAP2 DUP3 ADD PUSH1 0x1F NOT AND DUP4 ADD SWAP2 PUSH1 0x1 PUSH1 0x1 PUSH1 0x40 SHL SUB DUP4 GT DUP5 DUP5 LT OR PUSH2 0x8D JUMPI DUP1 DUP5 SWAP3 PUSH1 0x20 SWAP5 PUSH1 0x40 MSTORE DUP4 CODECOPY DUP2 ADD SUB SLT PUSH2 0x88 JUMPI MLOAD PUSH1 0x1 PUSH1 0x1 PUSH1 0xA0 SHL SUB DUP2 AND SWAP1 DUP2 SWAP1 SUB PUSH2 0x88 JUMPI PUSH1 0x80 MSTORE PUSH1 0x40 MLOAD PUSH2 0x1B83 SWAP1 DUP2 PUSH2 0xA4 DUP3 CODECOPY PUSH1 0x80 MLOAD DUP2 DUP2 DUP2 PUSH2 0x99A ADD MSTORE DUP2 DUP2 PUSH2 0xF01 ADD MSTORE DUP2 DUP2 PUSH2 0xF71 ADD MSTORE DUP2 DUP2 PUSH2 0xFE3 ADD MSTORE PUSH2 0x1707 ADD MSTORE RETURN JUMPDEST PUSH1 0x0 DUP1 REVERT JUMPDEST PUSH4 0x4E487B71 PUSH1 0xE0 SHL PUSH1 0x0 MSTORE PUSH1 0x41 PUSH1 0x4 MSTORE PUSH1 0x24 PUSH1 0x0 REVERT INVALID PUSH2 0x240 DUP1 PUSH1 0x40 MSTORE PUSH1 0x4 CALLDATASIZE LT ISZERO PUSH2 0x14 JUMPI PUSH1 0x0 DUP1 REVERT JUMPDEST PUSH1 0x0 CALLDATALOAD PUSH1 0xE0 SHR SWAP1 DUP2 PUSH4 0x134E18F4 EQ PUSH2 0x16F4 JUMPI POP DUP1 PUSH4 0x232B0810 EQ PUSH2 0x1615 JUMPI DUP1 PUSH4 0x3C036A7E EQ PUSH2 0xE32 JUMPI DUP1 PUSH4 0x42DD519C EQ PUSH2 0xDA8 JUMPI DUP1 PUSH4 0x4AB3CA99 EQ PUSH2 0xC7D JUMPI DUP1 PUSH4 0x81BBBA58 EQ PUSH2 0x9C9 JUMPI DUP1 PUSH4 0xBC4D861B EQ PUSH2 0x984 JUMPI DUP1 PUSH4 0xC2349AB2 EQ PUSH2 0x89E JUMPI DUP1 PUSH4 0xD9D84224 EQ PUSH2 0xE4 JUMPI PUSH4 0xF2D81759 EQ PUSH2 0x8E JUMPI PUSH1 0x0 DUP1 REVERT JUMPDEST CALLVALUE PUSH2 0xDF JUMPI PUSH1 0x40 CALLDATASIZE PUSH1 0x3 NOT ADD SLT PUSH2 0xDF JUMPI PUSH2 0xA7 PUSH2 0x1736 JUMP JUMPDEST PUSH1 0x4 CALLDATALOAD PUSH1 0x0 MSTORE PUSH1 0x1 PUSH1 0x20 MSTORE PUSH1 0x40 PUSH1 0x0 KECCAK256 SWAP1 PUSH1 0x1 DUP1 PUSH1 0xA0 SHL SUB AND PUSH1 0x0 MSTORE PUSH1 0x20 MSTORE PUSH1 0x20 PUSH1 0x1 PUSH1 0x1 PUSH1 0x40 SHL SUB PUSH1 0x40 PUSH1 0x0 KECCAK256 SLOAD AND PUSH1 0x40 MLOAD SWAP1 DUP2 MSTORE RETURN JUMPDEST PUSH1 0x0 DUP1 REVERT JUMPDEST CALLVALUE PUSH2 0xDF JUMPI PUSH1 0xA0 CALLDATASIZE PUSH1 0x3 NOT ADD SLT PUSH2 0xDF JUMPI PUSH1 0x24 CALLDATALOAD PUSH1 0x1 PUSH1 0x1 PUSH1 0x40 SHL SUB DUP2 GT PUSH2 0xDF JUMPI PUSH2 0x114 SWAP1 CALLDATASIZE SWAP1 PUSH1 0x4 ADD PUSH2 0x180C JUMP JUMPDEST SWAP1 PUSH1 0x44 CALLDATALOAD PUSH1 0x1 PUSH1 0x1 PUSH1 0x40 SHL SUB DUP2 GT PUSH2 0xDF JUMPI PUSH2 0x134 SWAP1 CALLDATASIZE SWAP1 PUSH1 0x4 ADD PUSH2 0x17A2 JUMP JUMPDEST PUSH1 0xC0 MSTORE PUSH1 0x80 MSTORE PUSH1 0x64 CALLDATALOAD PUSH1 0x1 PUSH1 0x1 PUSH1 0x40 SHL SUB DUP2 GT PUSH2 0xDF JUMPI PUSH2 0x159 SWAP1 CALLDATASIZE SWAP1 PUSH1 0x4 ADD PUSH2 0x17A2 JUMP JUMPDEST PUSH2 0x120 MSTORE PUSH2 0x180 MSTORE PUSH1 0x84 CALLDATALOAD DUP1 PUSH2 0x160 MSTORE DUP1 ISZERO ISZERO SUB PUSH2 0xDF JUMPI PUSH1 0x0 SWAP2 DUP1 ISZERO PUSH2 0x82F JUMPI PUSH2 0x183 DUP2 PUSH2 0x1AD8 JUMP JUMPDEST SWAP2 PUSH2 0x191 PUSH1 0x40 MLOAD SWAP4 DUP5 PUSH2 0x1898 JUMP JUMPDEST DUP2 DUP4 MSTORE PUSH1 0x20 SWAP2 DUP3 DUP5 ADD SWAP1 PUSH1 0x5 SHL DUP3 ADD SWAP2 CALLDATASIZE DUP4 GT PUSH2 0xDF JUMPI SWAP1 JUMPDEST DUP3 DUP3 LT PUSH2 0x810 JUMPI POP POP POP POP SWAP1 JUMPDEST PUSH1 0x0 SWAP2 JUMPDEST DUP1 MLOAD DUP4 LT ISZERO PUSH2 0x342 JUMPI PUSH1 0x1 PUSH1 0x1 PUSH1 0xA0 SHL SUB PUSH2 0x1D6 DUP5 DUP4 PUSH2 0x1AEF JUMP JUMPDEST MLOAD AND PUSH1 0x4 CALLDATALOAD PUSH1 0x0 MSTORE PUSH1 0x1 PUSH1 0x20 MSTORE PUSH1 0x40 PUSH1 0x0 KECCAK256 DUP2 PUSH1 0x0 MSTORE PUSH1 0x20 MSTORE PUSH1 0x1 PUSH1 0x1 PUSH1 0x40 SHL SUB PUSH1 0x40 PUSH1 0x0 KECCAK256 SLOAD AND SWAP3 PUSH1 0x1 SWAP1 JUMPDEST DUP5 PUSH1 0x1 PUSH1 0x1 PUSH1 0x40 SHL SUB DUP4 AND GT PUSH2 0x32E JUMPI PUSH1 0x4 CALLDATALOAD PUSH1 0x0 MSTORE PUSH1 0x0 PUSH1 0x20 MSTORE PUSH1 0x40 PUSH1 0x0 KECCAK256 DUP4 PUSH1 0x0 MSTORE PUSH1 0x20 MSTORE PUSH1 0x40 PUSH1 0x0 KECCAK256 PUSH1 0x1 PUSH1 0x1 PUSH1 0x40 SHL SUB DUP4 AND PUSH1 0x0 MSTORE PUSH1 0x20 MSTORE PUSH1 0x40 PUSH1 0x0 KECCAK256 PUSH2 0x160 MLOAD ISZERO DUP1 PUSH2 0x320 JUMPI JUMPDEST PUSH2 0x2DC JUMPI PUSH1 0xC0 MLOAD ISZERO ISZERO DUP1 PUSH2 0x2E7 JUMPI JUMPDEST PUSH2 0x2DC JUMPI PUSH2 0x120 MLOAD ISZERO ISZERO SWAP1 DUP2 PUSH2 0x296 JUMPI JUMPDEST POP PUSH2 0x28C JUMPI PUSH2 0x280 PUSH2 0x286 SWAP2 PUSH2 0x1A33 JUMP JUMPDEST SWAP2 PUSH2 0x192E JUMP JUMPDEST SWAP1 PUSH2 0x203 JUMP JUMPDEST SWAP1 PUSH2 0x286 SWAP1 PUSH2 0x192E JUMP JUMPDEST PUSH1 0x2 SWAP2 POP PUSH2 0x2B5 SWAP1 PUSH2 0x2AE PUSH1 0x40 MLOAD DUP1 SWAP5 DUP2 SWAP4 ADD PUSH2 0x1A42 JUMP JUMPDEST SUB DUP3 PUSH2 0x1898 JUMP JUMPDEST PUSH1 0x20 DUP2 MLOAD SWAP2 ADD KECCAK256 PUSH2 0x2CD CALLDATASIZE PUSH2 0x120 MLOAD PUSH2 0x180 MLOAD PUSH2 0x1946 JUMP JUMPDEST PUSH1 0x20 DUP2 MLOAD SWAP2 ADD KECCAK256 EQ ISZERO DUP8 PUSH2 0x26F JUMP JUMPDEST POP SWAP1 PUSH2 0x286 SWAP1 PUSH2 0x192E JUMP JUMPDEST POP PUSH1 0x40 MLOAD PUSH2 0x2FC DUP2 PUSH2 0x2AE DUP2 PUSH1 0x1 DUP7 ADD PUSH2 0x1A42 JUMP JUMPDEST PUSH1 0x20 DUP2 MLOAD SWAP2 ADD KECCAK256 PUSH2 0x312 CALLDATASIZE PUSH1 0xC0 MLOAD PUSH1 0x80 MLOAD PUSH2 0x1946 JUMP JUMPDEST PUSH1 0x20 DUP2 MLOAD SWAP2 ADD KECCAK256 EQ ISZERO PUSH2 0x25E JUMP JUMPDEST POP PUSH1 0xFF PUSH1 0x3 DUP3 ADD SLOAD AND PUSH2 0x24F JUMP JUMPDEST SWAP4 POP POP POP SWAP2 PUSH2 0x33C SWAP1 PUSH2 0x1A33 JUMP JUMPDEST SWAP2 PUSH2 0x1BB JUMP JUMPDEST SWAP1 PUSH2 0x35B PUSH2 0x34F DUP3 PUSH2 0x1AD8 JUMP JUMPDEST PUSH1 0x40 MLOAD DUP1 PUSH1 0xA0 MSTORE PUSH2 0x1898 JUMP JUMPDEST DUP1 PUSH1 0xA0 MLOAD MSTORE PUSH1 0x1F NOT PUSH2 0x36C DUP3 PUSH2 0x1AD8 JUMP JUMPDEST ADD CALLDATASIZE PUSH1 0x20 PUSH1 0xA0 MLOAD ADD CALLDATACOPY PUSH2 0x38E PUSH2 0x381 DUP3 PUSH2 0x1AD8 JUMP JUMPDEST PUSH1 0x40 MLOAD DUP1 PUSH2 0x1C0 MSTORE PUSH2 0x1898 JUMP JUMPDEST DUP1 PUSH2 0x1C0 MLOAD MSTORE PUSH1 0x1F NOT PUSH2 0x3A0 DUP3 PUSH2 0x1AD8 JUMP JUMPDEST ADD CALLDATASIZE PUSH1 0x20 PUSH2 0x1C0 MLOAD ADD CALLDATACOPY PUSH2 0x3C3 PUSH2 0x3B6 DUP3 PUSH2 0x1AD8 JUMP JUMPDEST PUSH1 0x40 MLOAD DUP1 PUSH2 0x200 MSTORE PUSH2 0x1898 JUMP JUMPDEST DUP1 PUSH2 0x200 MLOAD MSTORE PUSH1 0x1F NOT PUSH2 0x3D5 DUP3 PUSH2 0x1AD8 JUMP JUMPDEST ADD CALLDATASIZE PUSH1 0x20 PUSH2 0x200 MLOAD ADD CALLDATACOPY PUSH2 0x3F8 PUSH2 0x3EB DUP3 PUSH2 0x1AD8 JUMP JUMPDEST PUSH1 0x40 MLOAD DUP1 PUSH2 0x140 MSTORE PUSH2 0x1898 JUMP JUMPDEST DUP1 PUSH2 0x140 MLOAD MSTORE PUSH1 0x1F NOT PUSH2 0x40A DUP3 PUSH2 0x1AD8 JUMP JUMPDEST ADD CALLDATASIZE PUSH1 0x20 PUSH2 0x140 MLOAD ADD CALLDATACOPY PUSH2 0x41D DUP2 PUSH2 0x1B03 JUMP JUMPDEST PUSH2 0x220 MSTORE PUSH2 0x42A DUP2 PUSH2 0x1B03 JUMP JUMPDEST SWAP1 PUSH2 0x444 PUSH2 0x437 DUP3 PUSH2 0x1AD8 JUMP JUMPDEST PUSH1 0x40 MLOAD DUP1 PUSH2 0x1A0 MSTORE PUSH2 0x1898 JUMP JUMPDEST DUP1 PUSH2 0x1A0 MLOAD MSTORE PUSH2 0x456 PUSH1 0x1F NOT SWAP2 PUSH2 0x1AD8 JUMP JUMPDEST ADD CALLDATASIZE PUSH1 0x20 PUSH2 0x1A0 MLOAD ADD CALLDATACOPY PUSH1 0x0 DUP1 PUSH2 0x1E0 MSTORE JUMPDEST DUP3 MLOAD PUSH2 0x1E0 MLOAD SWAP1 DUP2 LT ISZERO PUSH2 0x6AF JUMPI PUSH1 0x1 PUSH1 0x1 PUSH1 0xA0 SHL SUB SWAP1 PUSH2 0x489 SWAP1 DUP6 PUSH2 0x1AEF JUMP JUMPDEST MLOAD AND DUP1 PUSH2 0x100 MSTORE PUSH1 0x4 CALLDATALOAD PUSH1 0x0 MSTORE PUSH1 0x1 PUSH1 0x20 MSTORE PUSH1 0x40 PUSH1 0x0 KECCAK256 SWAP1 PUSH1 0x0 MSTORE PUSH1 0x20 MSTORE PUSH1 0x1 PUSH1 0x1 PUSH1 0x40 SHL SUB PUSH1 0x40 PUSH1 0x0 KECCAK256 SLOAD AND PUSH1 0xE0 MSTORE PUSH1 0x1 SWAP1 JUMPDEST PUSH1 0xE0 MLOAD PUSH1 0x1 PUSH1 0x1 PUSH1 0x40 SHL SUB DUP4 AND GT PUSH2 0x696 JUMPI PUSH1 0x4 CALLDATALOAD PUSH1 0x0 MSTORE PUSH1 0x0 PUSH1 0x20 MSTORE PUSH1 0x40 PUSH1 0x0 KECCAK256 PUSH2 0x100 MLOAD PUSH1 0x0 MSTORE PUSH1 0x20 MSTORE PUSH1 0x40 PUSH1 0x0 KECCAK256 PUSH1 0x1 PUSH1 0x1 PUSH1 0x40 SHL SUB DUP4 AND PUSH1 0x0 MSTORE PUSH1 0x20 MSTORE PUSH1 0x40 PUSH1 0x0 KECCAK256 PUSH2 0x160 MLOAD ISZERO DUP1 PUSH2 0x688 JUMPI JUMPDEST PUSH2 0x609 JUMPI PUSH1 0xC0 MLOAD ISZERO ISZERO DUP1 PUSH2 0x64F JUMPI JUMPDEST PUSH2 0x609 JUMPI PUSH2 0x120 MLOAD ISZERO ISZERO DUP1 PUSH2 0x614 JUMPI JUMPDEST PUSH2 0x609 JUMPI PUSH2 0x603 SWAP2 PUSH2 0x280 SWAP2 PUSH2 0x100 MLOAD PUSH2 0x549 DUP4 PUSH1 0xA0 MLOAD PUSH2 0x1AEF JUMP JUMPDEST MSTORE PUSH1 0x1 PUSH1 0x1 PUSH1 0x40 SHL SUB DUP6 AND PUSH2 0x561 DUP4 PUSH2 0x1C0 MLOAD PUSH2 0x1AEF JUMP JUMPDEST MSTORE PUSH1 0x3 DUP2 SLOAD SWAP2 DUP3 PUSH1 0xF SIGNEXTEND PUSH2 0x578 DUP6 PUSH2 0x200 MLOAD PUSH2 0x1AEF JUMP JUMPDEST MSTORE PUSH1 0xFF DUP1 SWAP4 PUSH1 0x80 SHR AND PUSH2 0x58E DUP6 PUSH2 0x140 MLOAD PUSH2 0x1AEF JUMP JUMPDEST MSTORE PUSH1 0x40 MLOAD PUSH2 0x5A3 DUP2 PUSH2 0x2AE DUP2 PUSH1 0x1 DUP7 ADD PUSH2 0x1A42 JUMP JUMPDEST PUSH2 0x5B0 DUP6 PUSH2 0x220 MLOAD PUSH2 0x1AEF JUMP JUMPDEST MSTORE PUSH2 0x5BE DUP5 PUSH2 0x220 MLOAD PUSH2 0x1AEF JUMP JUMPDEST POP PUSH1 0x40 MLOAD PUSH2 0x5D3 DUP2 PUSH2 0x2AE DUP2 PUSH1 0x2 DUP7 ADD PUSH2 0x1A42 JUMP JUMPDEST PUSH2 0x5DD DUP6 DUP11 PUSH2 0x1AEF JUMP JUMPDEST MSTORE PUSH2 0x5E8 DUP5 DUP10 PUSH2 0x1AEF JUMP JUMPDEST POP ADD SLOAD AND PUSH2 0x5F9 DUP3 PUSH2 0x1A0 MLOAD PUSH2 0x1AEF JUMP JUMPDEST SWAP1 ISZERO ISZERO SWAP1 MSTORE PUSH2 0x1A33 JUMP JUMPDEST SWAP1 PUSH2 0x4BD JUMP JUMPDEST POP SWAP1 PUSH2 0x603 SWAP1 PUSH2 0x192E JUMP JUMPDEST POP PUSH1 0x40 MLOAD PUSH2 0x629 DUP2 PUSH2 0x2AE DUP2 PUSH1 0x2 DUP7 ADD PUSH2 0x1A42 JUMP JUMPDEST PUSH1 0x20 DUP2 MLOAD SWAP2 ADD KECCAK256 PUSH2 0x641 CALLDATASIZE PUSH2 0x120 MLOAD PUSH2 0x180 MLOAD PUSH2 0x1946 JUMP JUMPDEST PUSH1 0x20 DUP2 MLOAD SWAP2 ADD KECCAK256 EQ ISZERO PUSH2 0x52D JUMP JUMPDEST POP PUSH1 0x40 MLOAD PUSH2 0x664 DUP2 PUSH2 0x2AE DUP2 PUSH1 0x1 DUP7 ADD PUSH2 0x1A42 JUMP JUMPDEST PUSH1 0x20 DUP2 MLOAD SWAP2 ADD KECCAK256 PUSH2 0x67A CALLDATASIZE PUSH1 0xC0 MLOAD PUSH1 0x80 MLOAD PUSH2 0x1946 JUMP JUMPDEST PUSH1 0x20 DUP2 MLOAD SWAP2 ADD KECCAK256 EQ ISZERO PUSH2 0x51D JUMP JUMPDEST POP PUSH1 0xFF PUSH1 0x3 DUP3 ADD SLOAD AND PUSH2 0x50E JUMP JUMPDEST SWAP3 SWAP1 POP PUSH2 0x6A5 PUSH2 0x1E0 MLOAD PUSH2 0x1A33 JUMP JUMPDEST PUSH2 0x1E0 MSTORE SWAP2 PUSH2 0x468 JUMP JUMPDEST DUP3 PUSH1 0x40 MLOAD DUP1 SWAP2 PUSH1 0xE0 DUP3 MSTORE PUSH2 0x6C8 PUSH1 0xE0 DUP4 ADD PUSH1 0xA0 MLOAD PUSH2 0x17CF JUMP JUMPDEST DUP3 DUP2 SUB PUSH1 0x20 DUP5 ADD MSTORE PUSH1 0x20 PUSH2 0x1C0 MLOAD MLOAD SWAP2 DUP3 DUP2 MSTORE ADD SWAP1 PUSH1 0x20 PUSH2 0x1C0 MLOAD ADD SWAP1 PUSH1 0x0 JUMPDEST DUP2 DUP2 LT PUSH2 0x7EE JUMPI POP POP POP DUP3 DUP2 SUB PUSH1 0x40 DUP5 ADD MSTORE PUSH1 0x20 PUSH2 0x200 MLOAD MLOAD SWAP2 DUP3 DUP2 MSTORE ADD SWAP1 PUSH1 0x20 PUSH2 0x200 MLOAD ADD SWAP1 PUSH1 0x0 JUMPDEST DUP2 DUP2 LT PUSH2 0x7D2 JUMPI POP POP POP DUP3 DUP2 SUB PUSH1 0x60 DUP5 ADD MSTORE PUSH1 0x20 PUSH2 0x140 MLOAD MLOAD SWAP2 DUP3 DUP2 MSTORE ADD SWAP1 PUSH1 0x20 PUSH2 0x140 MLOAD ADD SWAP1 PUSH1 0x0 JUMPDEST DUP2 DUP2 LT PUSH2 0x7B6 JUMPI POP POP POP SWAP1 PUSH2 0x75F DUP3 DUP5 PUSH2 0x76D SWAP5 SUB PUSH1 0x80 DUP7 ADD MSTORE PUSH2 0x220 MLOAD PUSH2 0x183C JUMP JUMPDEST SWAP1 DUP4 DUP3 SUB PUSH1 0xA0 DUP6 ADD MSTORE PUSH2 0x183C JUMP JUMPDEST DUP2 DUP2 SUB PUSH1 0xC0 DUP4 ADD MSTORE PUSH1 0x20 PUSH2 0x1A0 MLOAD MLOAD SWAP2 DUP3 DUP2 MSTORE ADD SWAP1 PUSH1 0x20 PUSH2 0x1A0 MLOAD ADD SWAP1 PUSH1 0x0 JUMPDEST DUP2 DUP2 LT PUSH2 0x79B JUMPI POP POP POP SUB SWAP1 RETURN JUMPDEST DUP3 MLOAD ISZERO ISZERO DUP5 MSTORE DUP6 SWAP5 POP PUSH1 0x20 SWAP4 DUP5 ADD SWAP4 SWAP1 SWAP3 ADD SWAP2 PUSH1 0x1 ADD PUSH2 0x78D JUMP JUMPDEST DUP3 MLOAD PUSH1 0xFF AND DUP5 MSTORE DUP7 SWAP6 POP PUSH1 0x20 SWAP4 DUP5 ADD SWAP4 SWAP1 SWAP3 ADD SWAP2 PUSH1 0x1 ADD PUSH2 0x73C JUMP JUMPDEST DUP3 MLOAD PUSH1 0xF SIGNEXTEND DUP5 MSTORE DUP7 SWAP6 POP PUSH1 0x20 SWAP4 DUP5 ADD SWAP4 SWAP1 SWAP3 ADD SWAP2 PUSH1 0x1 ADD PUSH2 0x712 JUMP JUMPDEST DUP3 MLOAD PUSH1 0x1 PUSH1 0x1 PUSH1 0x40 SHL SUB AND DUP5 MSTORE DUP7 SWAP6 POP PUSH1 0x20 SWAP4 DUP5 ADD SWAP4 SWAP1 SWAP3 ADD SWAP2 PUSH1 0x1 ADD PUSH2 0x6E8 JUMP JUMPDEST DUP2 CALLDATALOAD PUSH1 0x1 PUSH1 0x1 PUSH1 0xA0 SHL SUB DUP2 AND DUP2 SUB PUSH2 0xDF JUMPI DUP2 MSTORE SWAP1 DUP4 ADD SWAP1 DUP4 ADD PUSH2 0x1AA JUMP JUMPDEST POP POP PUSH1 0x4 CALLDATALOAD PUSH1 0x0 MSTORE PUSH1 0x20 PUSH1 0x2 DUP2 MSTORE PUSH1 0x40 PUSH1 0x0 KECCAK256 SWAP1 PUSH1 0x40 MLOAD DUP1 SWAP3 DUP4 SWAP2 DUP4 DUP3 SLOAD SWAP2 DUP3 DUP2 MSTORE ADD SWAP2 PUSH1 0x0 MSTORE DUP4 PUSH1 0x0 KECCAK256 SWAP4 PUSH1 0x0 SWAP1 JUMPDEST DUP3 DUP3 LT PUSH2 0x87B JUMPI POP POP POP PUSH2 0x875 SWAP3 POP SUB DUP3 PUSH2 0x1898 JUMP JUMPDEST SWAP1 PUSH2 0x1B7 JUMP JUMPDEST DUP6 SLOAD PUSH1 0x1 PUSH1 0x1 PUSH1 0xA0 SHL SUB AND DUP5 MSTORE PUSH1 0x1 SWAP6 DUP7 ADD SWAP6 DUP8 SWAP6 POP SWAP4 DUP2 ADD SWAP4 SWAP1 SWAP2 ADD SWAP1 PUSH2 0x85F JUMP JUMPDEST CALLVALUE PUSH2 0xDF JUMPI PUSH1 0xA0 CALLDATASIZE PUSH1 0x3 NOT ADD SLT PUSH2 0xDF JUMPI PUSH1 0x4 CALLDATALOAD PUSH2 0x8BA PUSH2 0x1736 JUMP JUMPDEST PUSH2 0x8C2 PUSH2 0x174C JUMP JUMPDEST SWAP2 PUSH1 0x1 PUSH1 0x1 PUSH1 0x40 SHL SUB PUSH1 0x64 CALLDATALOAD DUP2 DUP2 GT PUSH2 0xDF JUMPI PUSH32 0xB1C6BE0B5B8AEF6539E2FAC0FD131A2FAA7B49EDF8E505B5EB0AD487D56051D4 SWAP2 PUSH2 0x908 PUSH2 0x96A SWAP3 CALLDATASIZE SWAP1 PUSH1 0x4 ADD PUSH2 0x17A2 JUMP JUMPDEST SWAP1 SWAP2 DUP6 PUSH1 0x0 MSTORE PUSH1 0x0 PUSH1 0x20 MSTORE PUSH1 0x40 PUSH1 0x0 KECCAK256 SWAP7 PUSH1 0x1 DUP1 PUSH1 0xA0 SHL SUB AND SWAP7 DUP8 PUSH1 0x0 MSTORE PUSH1 0x20 MSTORE PUSH1 0x40 PUSH1 0x0 KECCAK256 SWAP8 AND SWAP7 DUP8 PUSH1 0x0 MSTORE PUSH1 0x20 MSTORE PUSH1 0x40 PUSH1 0x0 KECCAK256 SLOAD PUSH1 0xF SIGNEXTEND ISZERO DUP1 ISZERO SWAP1 PUSH2 0x97B JUMPI JUMPDEST PUSH2 0x953 SWAP1 PUSH2 0x19E7 JUMP JUMPDEST PUSH1 0x40 MLOAD SWAP7 DUP8 MSTORE PUSH1 0x60 PUSH1 0x20 DUP9 ADD MSTORE PUSH1 0x60 DUP8 ADD SWAP2 PUSH2 0x19C6 JUMP JUMPDEST SWAP4 PUSH1 0x84 CALLDATALOAD PUSH1 0x40 DUP3 ADD MSTORE DUP1 CALLER SWAP6 SUB SWAP1 LOG4 STOP JUMPDEST POP DUP7 ISZERO ISZERO PUSH2 0x94A JUMP JUMPDEST CALLVALUE PUSH2 0xDF JUMPI PUSH1 0x0 CALLDATASIZE PUSH1 0x3 NOT ADD SLT PUSH2 0xDF JUMPI PUSH1 0x40 MLOAD PUSH32 0x0 PUSH1 0x1 PUSH1 0x1 PUSH1 0xA0 SHL SUB AND DUP2 MSTORE PUSH1 0x20 SWAP1 RETURN JUMPDEST CALLVALUE PUSH2 0xDF JUMPI PUSH1 0x80 CALLDATASIZE PUSH1 0x3 NOT ADD SLT PUSH2 0xDF JUMPI PUSH1 0x24 CALLDATALOAD PUSH1 0x1 PUSH1 0x1 PUSH1 0x40 SHL SUB DUP2 GT PUSH2 0xDF JUMPI PUSH2 0x9F9 SWAP1 CALLDATASIZE SWAP1 PUSH1 0x4 ADD PUSH2 0x180C JUMP JUMPDEST PUSH1 0x44 CALLDATALOAD PUSH1 0x1 PUSH1 0x1 PUSH1 0x40 SHL SUB DUP2 GT PUSH2 0xDF JUMPI PUSH2 0xA18 SWAP1 CALLDATASIZE SWAP1 PUSH1 0x4 ADD PUSH2 0x17A2 JUMP JUMPDEST SWAP3 SWAP1 SWAP2 PUSH1 0x64 CALLDATALOAD PUSH1 0x1 PUSH1 0x1 PUSH1 0x40 SHL SUB DUP2 GT PUSH2 0xDF JUMPI PUSH2 0xA3A SWAP1 CALLDATASIZE SWAP1 PUSH1 0x4 ADD PUSH2 0x17A2 JUMP JUMPDEST SWAP5 SWAP1 DUP3 ISZERO PUSH2 0xC38 JUMPI PUSH1 0x0 SWAP6 PUSH1 0x0 SWAP6 PUSH1 0x0 SWAP6 PUSH1 0x0 JUMPDEST DUP7 DUP2 LT PUSH2 0xA7B JUMPI PUSH1 0x60 DUP10 PUSH1 0xFF DUP11 DUP14 PUSH1 0x1 PUSH1 0x1 PUSH1 0x40 SHL SUB PUSH1 0x40 MLOAD SWAP5 AND DUP5 MSTORE PUSH1 0xF SIGNEXTEND PUSH1 0x20 DUP5 ADD MSTORE AND PUSH1 0x40 DUP3 ADD MSTORE RETURN JUMPDEST SWAP6 SWAP8 SWAP6 PUSH1 0x5 DUP2 SWAP1 SHL DUP3 ADD CALLDATALOAD SWAP2 PUSH1 0x1 PUSH1 0x1 PUSH1 0xA0 SHL SUB DUP4 AND DUP4 SUB PUSH2 0xDF JUMPI PUSH1 0x4 SWAP11 SWAP8 SWAP11 CALLDATALOAD PUSH1 0x0 MSTORE PUSH1 0x1 PUSH1 0x20 MSTORE PUSH1 0x40 PUSH1 0x0 KECCAK256 PUSH1 0x1 DUP1 PUSH1 0xA0 SHL SUB DUP5 AND PUSH1 0x0 MSTORE PUSH1 0x20 MSTORE PUSH1 0x1 PUSH1 0x1 PUSH1 0x40 SHL SUB PUSH1 0x40 PUSH1 0x0 KECCAK256 SLOAD AND SWAP10 PUSH1 0x1 JUMPDEST DUP12 PUSH1 0x1 PUSH1 0x1 PUSH1 0x40 SHL SUB DUP3 AND GT PUSH2 0xC23 JUMPI PUSH1 0x4 CALLDATALOAD PUSH1 0x0 MSTORE PUSH1 0x0 PUSH1 0x20 MSTORE PUSH1 0x40 PUSH1 0x0 KECCAK256 PUSH1 0x1 DUP1 PUSH1 0xA0 SHL SUB DUP7 AND PUSH1 0x0 MSTORE PUSH1 0x20 MSTORE PUSH1 0x40 PUSH1 0x0 KECCAK256 PUSH1 0x1 PUSH1 0x1 PUSH1 0x40 SHL SUB DUP3 AND PUSH1 0x0 MSTORE PUSH1 0x20 MSTORE PUSH1 0x40 PUSH1 0x0 KECCAK256 PUSH1 0xFF PUSH1 0x3 DUP3 ADD SLOAD AND PUSH2 0xBAC JUMPI DUP10 ISZERO ISZERO DUP1 PUSH2 0xBEE JUMPI JUMPDEST PUSH2 0xBAC JUMPI DUP8 ISZERO ISZERO DUP1 PUSH2 0xBB9 JUMPI JUMPDEST PUSH2 0xBAC JUMPI SLOAD SWAP10 DUP11 PUSH1 0xF SIGNEXTEND DUP1 DUP1 DUP4 ADD SLT PUSH1 0x0 DUP4 SLT SWAP1 DUP1 ISZERO DUP3 AND SWAP2 ISZERO AND OR PUSH2 0xB96 JUMPI PUSH2 0xB62 SWAP2 ADD SWAP14 PUSH2 0x192E JUMP JUMPDEST SWAP10 PUSH1 0xFF DUP13 AND PUSH1 0xFF DUP3 PUSH1 0x80 SHR AND GT PUSH2 0xB86 JUMPI JUMPDEST POP PUSH2 0xB7E SWAP1 PUSH2 0x192E JUMP JUMPDEST SWAP12 SWAP9 SWAP12 PUSH2 0xACC JUMP JUMPDEST PUSH1 0x80 SHR PUSH1 0xFF AND SWAP11 POP PUSH2 0xB7E PUSH2 0xB74 JUMP JUMPDEST PUSH4 0x4E487B71 PUSH1 0xE0 SHL PUSH1 0x0 MSTORE PUSH1 0x11 PUSH1 0x4 MSTORE PUSH1 0x24 PUSH1 0x0 REVERT JUMPDEST POP PUSH2 0xB7E SWAP1 SWAP13 SWAP10 SWAP13 PUSH2 0x192E JUMP JUMPDEST POP PUSH1 0x40 MLOAD PUSH2 0xBCE DUP2 PUSH2 0x2AE DUP2 PUSH1 0x2 DUP7 ADD PUSH2 0x1A42 JUMP JUMPDEST PUSH1 0x20 DUP2 MLOAD SWAP2 ADD KECCAK256 PUSH2 0xBE0 CALLDATASIZE DUP11 DUP13 PUSH2 0x1946 JUMP JUMPDEST PUSH1 0x20 DUP2 MLOAD SWAP2 ADD KECCAK256 EQ ISZERO PUSH2 0xB37 JUMP JUMPDEST POP PUSH1 0x40 MLOAD PUSH2 0xC03 DUP2 PUSH2 0x2AE DUP2 PUSH1 0x1 DUP7 ADD PUSH2 0x1A42 JUMP JUMPDEST PUSH1 0x20 DUP2 MLOAD SWAP2 ADD KECCAK256 PUSH2 0xC15 CALLDATASIZE DUP13 DUP11 PUSH2 0x1946 JUMP JUMPDEST PUSH1 0x20 DUP2 MLOAD SWAP2 ADD KECCAK256 EQ ISZERO PUSH2 0xB2A JUMP JUMPDEST POP SWAP8 SWAP11 SWAP10 POP SWAP2 POP PUSH2 0xC33 SWAP1 PUSH2 0x1A33 JUMP JUMPDEST PUSH2 0xA4E JUMP JUMPDEST PUSH1 0x40 MLOAD PUSH3 0x461BCD PUSH1 0xE5 SHL DUP2 MSTORE PUSH1 0x20 PUSH1 0x4 DUP3 ADD MSTORE PUSH1 0x1D PUSH1 0x24 DUP3 ADD MSTORE PUSH32 0x4D757374207370656369667920636C69656E7420616464726573736573000000 PUSH1 0x44 DUP3 ADD MSTORE PUSH1 0x64 SWAP1 REVERT JUMPDEST CALLVALUE PUSH2 0xDF JUMPI PUSH1 0x40 CALLDATASIZE PUSH1 0x3 NOT ADD SLT PUSH2 0xDF JUMPI PUSH1 0x4 CALLDATALOAD PUSH1 0x24 CALLDATALOAD SWAP1 PUSH1 0x1 PUSH1 0x1 PUSH1 0x40 SHL SUB DUP3 AND DUP1 SWAP3 SUB PUSH2 0xDF JUMPI DUP1 PUSH1 0x0 MSTORE PUSH1 0x20 PUSH1 0x0 DUP2 MSTORE PUSH1 0x40 PUSH1 0x0 KECCAK256 CALLER PUSH1 0x0 MSTORE DUP2 MSTORE PUSH1 0x40 PUSH1 0x0 KECCAK256 DUP4 PUSH1 0x0 MSTORE DUP2 MSTORE PUSH1 0x40 PUSH1 0x0 KECCAK256 SLOAD PUSH1 0xF SIGNEXTEND ISZERO DUP1 ISZERO SWAP1 PUSH2 0xD9F JUMPI JUMPDEST PUSH2 0xCE1 SWAP1 PUSH2 0x19E7 JUMP JUMPDEST DUP2 PUSH1 0x0 MSTORE PUSH1 0x0 DUP2 MSTORE PUSH1 0x40 PUSH1 0x0 KECCAK256 CALLER PUSH1 0x0 MSTORE DUP2 MSTORE PUSH1 0x40 PUSH1 0x0 KECCAK256 DUP4 PUSH1 0x0 MSTORE DUP2 MSTORE PUSH1 0xFF PUSH1 0x3 PUSH1 0x40 PUSH1 0x0 KECCAK256 ADD SLOAD AND PUSH2 0xD69 JUMPI DUP2 PUSH1 0x0 MSTORE PUSH1 0x0 DUP2 MSTORE PUSH1 0x40 PUSH1 0x0 KECCAK256 CALLER PUSH1 0x0 MSTORE DUP2 MSTORE PUSH1 0x40 PUSH1 0x0 KECCAK256 SWAP1 DUP4 PUSH1 0x0 MSTORE MSTORE PUSH1 0x3 PUSH1 0x40 PUSH1 0x0 KECCAK256 ADD PUSH1 0x1 PUSH1 0xFF NOT DUP3 SLOAD AND OR SWAP1 SSTORE CALLER SWAP1 PUSH32 0x25156FD3288212246D8B008D5921FDE376C71ED14AC2E072A506EB06FDE6D09D PUSH1 0x0 DUP1 LOG4 STOP JUMPDEST PUSH1 0x64 SWAP1 PUSH1 0x40 MLOAD SWAP1 PUSH3 0x461BCD PUSH1 0xE5 SHL DUP3 MSTORE PUSH1 0x4 DUP3 ADD MSTORE PUSH1 0xF PUSH1 0x24 DUP3 ADD MSTORE PUSH15 0x105B1C9958591E481C995D9BDAD959 PUSH1 0x8A SHL PUSH1 0x44 DUP3 ADD MSTORE REVERT JUMPDEST POP DUP3 ISZERO ISZERO PUSH2 0xCD8 JUMP JUMPDEST CALLVALUE PUSH2 0xDF JUMPI PUSH1 0x20 DUP1 PUSH1 0x3 NOT CALLDATASIZE ADD SLT PUSH2 0xDF JUMPI PUSH1 0x4 CALLDATALOAD PUSH1 0x0 MSTORE PUSH1 0x2 DUP2 MSTORE PUSH1 0x40 PUSH1 0x0 KECCAK256 SWAP1 PUSH1 0x40 MLOAD DUP1 DUP4 DUP4 DUP3 SWAP6 SLOAD SWAP4 DUP5 DUP2 MSTORE ADD SWAP1 PUSH1 0x0 MSTORE DUP4 PUSH1 0x0 KECCAK256 SWAP3 PUSH1 0x0 JUMPDEST DUP6 DUP3 DUP3 LT PUSH2 0xE13 JUMPI POP POP POP PUSH2 0xDFB SWAP3 POP SUB DUP4 PUSH2 0x1898 JUMP JUMPDEST PUSH2 0xE0F PUSH1 0x40 MLOAD SWAP3 DUP3 DUP5 SWAP4 DUP5 MSTORE DUP4 ADD SWAP1 PUSH2 0x17CF JUMP JUMPDEST SUB SWAP1 RETURN JUMPDEST DUP6 SLOAD PUSH1 0x1 PUSH1 0x1 PUSH1 0xA0 SHL SUB AND DUP5 MSTORE PUSH1 0x1 SWAP6 DUP7 ADD SWAP6 DUP9 SWAP6 POP SWAP4 ADD SWAP3 ADD PUSH2 0xDE4 JUMP JUMPDEST CALLVALUE PUSH2 0xDF JUMPI PUSH2 0x100 CALLDATASIZE PUSH1 0x3 NOT ADD SLT PUSH2 0xDF JUMPI PUSH1 0x24 CALLDATALOAD DUP1 PUSH1 0xF SIGNEXTEND DUP2 SUB PUSH2 0xDF JUMPI PUSH1 0x44 CALLDATALOAD PUSH1 0xFF DUP2 AND DUP2 SUB PUSH2 0xDF JUMPI PUSH1 0x64 CALLDATALOAD PUSH1 0x1 PUSH1 0x1 PUSH1 0x40 SHL SUB DUP2 GT PUSH2 0xDF JUMPI PUSH2 0xE7D SWAP1 CALLDATASIZE SWAP1 PUSH1 0x4 ADD PUSH2 0x17A2 JUMP JUMPDEST SWAP1 PUSH1 0x84 CALLDATALOAD PUSH1 0x1 PUSH1 0x1 PUSH1 0x40 SHL SUB DUP2 GT PUSH2 0xDF JUMPI PUSH2 0xE9D SWAP1 CALLDATASIZE SWAP1 PUSH1 0x4 ADD PUSH2 0x17A2 JUMP JUMPDEST SWAP1 PUSH1 0xA4 CALLDATALOAD PUSH1 0x1 PUSH1 0x1 PUSH1 0x40 SHL SUB DUP2 GT PUSH2 0xDF JUMPI PUSH2 0xEBD SWAP1 CALLDATASIZE SWAP1 PUSH1 0x4 ADD PUSH2 0x17A2 JUMP JUMPDEST SWAP2 SWAP1 SWAP3 PUSH1 0xC4 CALLDATALOAD PUSH1 0x1 PUSH1 0x1 PUSH1 0x40 SHL SUB DUP2 GT PUSH2 0xDF JUMPI PUSH2 0xEDF SWAP1 CALLDATASIZE SWAP1 PUSH1 0x4 ADD PUSH2 0x17A2 JUMP JUMPDEST PUSH1 0x40 MLOAD PUSH4 0x31A9108F PUSH1 0xE1 SHL DUP2 MSTORE PUSH1 0x4 DUP1 CALLDATALOAD SWAP1 DUP3 ADD MSTORE SWAP2 SWAP8 SWAP1 SWAP7 SWAP2 PUSH1 0x20 DUP2 PUSH1 0x24 DUP2 PUSH32 0x0 PUSH1 0x1 PUSH1 0x1 PUSH1 0xA0 SHL SUB AND GAS STATICCALL SWAP1 DUP2 ISZERO PUSH2 0x1542 JUMPI PUSH1 0x0 SWAP2 PUSH2 0x15F6 JUMPI JUMPDEST POP PUSH1 0x1 PUSH1 0x1 PUSH1 0xA0 SHL SUB AND ISZERO PUSH2 0x15BA JUMPI PUSH1 0x12 PUSH1 0xFF DUP11 AND GT PUSH2 0x157D JUMPI PUSH1 0x40 MLOAD PUSH4 0x31A9108F PUSH1 0xE1 SHL DUP2 MSTORE PUSH1 0x4 DUP1 CALLDATALOAD SWAP1 DUP3 ADD MSTORE PUSH1 0x20 DUP2 PUSH1 0x24 DUP2 PUSH32 0x0 PUSH1 0x1 PUSH1 0x1 PUSH1 0xA0 SHL SUB AND GAS STATICCALL SWAP1 DUP2 ISZERO PUSH2 0x1542 JUMPI PUSH1 0x0 SWAP2 PUSH2 0x154E JUMPI JUMPDEST POP PUSH1 0x1 PUSH1 0x1 PUSH1 0xA0 SHL SUB AND PUSH2 0xFC0 CALLER DUP3 EQ ISZERO PUSH2 0x18D8 JUMP JUMPDEST PUSH1 0x40 MLOAD PUSH4 0xE985E9C5 PUSH1 0xE0 SHL DUP2 MSTORE PUSH1 0x4 DUP2 ADD SWAP2 SWAP1 SWAP2 MSTORE CALLER PUSH1 0x24 DUP3 ADD MSTORE PUSH1 0x20 DUP2 PUSH1 0x44 DUP2 PUSH32 0x0 PUSH1 0x1 PUSH1 0x1 PUSH1 0xA0 SHL SUB AND GAS STATICCALL DUP1 ISZERO PUSH2 0x1542 JUMPI PUSH1 0x0 SWAP1 PUSH2 0x1505 JUMPI JUMPDEST PUSH2 0x1026 SWAP2 POP ISZERO PUSH2 0x18D8 JUMP JUMPDEST PUSH1 0x4 CALLDATALOAD PUSH1 0x0 MSTORE PUSH1 0x1 PUSH1 0x20 MSTORE PUSH1 0x40 PUSH1 0x0 KECCAK256 CALLER PUSH1 0x0 MSTORE PUSH1 0x20 MSTORE PUSH1 0x40 PUSH1 0x0 KECCAK256 SWAP9 DUP10 SLOAD SWAP10 PUSH1 0x1 PUSH1 0x1 PUSH1 0x40 SHL SUB PUSH2 0x1059 DUP2 DUP14 AND PUSH2 0x192E JUMP JUMPDEST AND DUP1 SWAP12 PUSH1 0x1 PUSH1 0x1 PUSH1 0x40 SHL SUB NOT AND OR SWAP1 SSTORE PUSH1 0x40 MLOAD DUP1 PUSH1 0xA0 DUP2 ADD LT PUSH1 0x1 PUSH1 0x1 PUSH1 0x40 SHL SUB PUSH1 0xA0 DUP4 ADD GT OR PUSH2 0x135E JUMPI PUSH1 0xA0 DUP2 ADD PUSH1 0x40 MSTORE DUP12 PUSH1 0xF SIGNEXTEND DUP2 MSTORE PUSH1 0x20 DUP2 ADD PUSH1 0xFF DUP4 AND DUP2 MSTORE PUSH2 0x10A6 CALLDATASIZE DUP6 DUP8 PUSH2 0x1946 JUMP JUMPDEST PUSH1 0x40 DUP4 ADD SWAP1 DUP2 MSTORE PUSH2 0x10B8 CALLDATASIZE DUP9 DUP11 PUSH2 0x1946 JUMP JUMPDEST PUSH1 0x60 DUP5 ADD MSTORE PUSH1 0x0 PUSH1 0x80 DUP5 ADD MSTORE PUSH1 0x4 CALLDATALOAD PUSH1 0x0 MSTORE PUSH1 0x0 PUSH1 0x20 MSTORE PUSH1 0x40 PUSH1 0x0 KECCAK256 CALLER PUSH1 0x0 MSTORE PUSH1 0x20 MSTORE PUSH1 0x40 PUSH1 0x0 KECCAK256 DUP14 PUSH1 0x0 MSTORE PUSH1 0x20 MSTORE PUSH1 0x40 PUSH1 0x0 KECCAK256 SWAP2 DUP4 MLOAD SWAP1 PUSH16 0xFFFFFFFFFFFFFFFFFFFFFFFFFFFFFFFF DUP5 SLOAD SWAP2 PUSH1 0xFF PUSH1 0x80 SHL SWAP1 MLOAD PUSH1 0x80 SHL AND SWAP3 AND SWAP1 PUSH17 0xFFFFFFFFFFFFFFFFFFFFFFFFFFFFFFFFFF NOT AND OR OR DUP3 SSTORE MLOAD DUP1 MLOAD SWAP1 PUSH1 0x1 PUSH1 0x1 PUSH1 0x40 SHL SUB DUP3 GT PUSH2 0x135E JUMPI DUP2 SWAP1 PUSH2 0x114B PUSH1 0x1 DUP6 ADD SLOAD PUSH2 0x198C JUMP JUMPDEST PUSH1 0x1F DUP2 GT PUSH2 0x14B2 JUMPI JUMPDEST POP PUSH1 0x20 SWAP1 PUSH1 0x1F DUP4 GT PUSH1 0x1 EQ PUSH2 0x1445 JUMPI PUSH1 0x0 SWAP3 PUSH2 0x143A JUMPI JUMPDEST POP POP DUP2 PUSH1 0x1 SHL SWAP2 PUSH1 0x0 NOT SWAP1 PUSH1 0x3 SHL SHR NOT AND OR PUSH1 0x1 DUP3 ADD SSTORE JUMPDEST PUSH1 0x60 DUP3 ADD MLOAD DUP1 MLOAD SWAP1 PUSH1 0x1 PUSH1 0x1 PUSH1 0x40 SHL SUB DUP3 GT PUSH2 0x135E JUMPI PUSH2 0x11A6 PUSH1 0x2 DUP5 ADD SLOAD PUSH2 0x198C JUMP JUMPDEST PUSH1 0x1F DUP2 GT PUSH2 0x13F3 JUMPI JUMPDEST POP PUSH1 0x20 SWAP1 PUSH1 0x1F DUP4 GT PUSH1 0x1 EQ PUSH2 0x137F JUMPI SWAP2 DUP1 PUSH1 0x80 SWAP5 SWAP3 PUSH1 0x3 SWAP5 PUSH1 0x0 SWAP3 PUSH2 0x1374 JUMPI JUMPDEST POP POP DUP2 PUSH1 0x1 SHL SWAP2 PUSH1 0x0 NOT SWAP1 DUP6 SHL SHR NOT AND OR PUSH1 0x2 DUP3 ADD SSTORE JUMPDEST ADD SWAP2 ADD MLOAD ISZERO ISZERO PUSH1 0xFF DUP1 NOT DUP4 SLOAD AND SWAP2 AND OR SWAP1 SSTORE PUSH1 0x4 CALLDATALOAD PUSH1 0x0 MSTORE PUSH1 0x3 PUSH1 0x20 MSTORE PUSH1 0x40 PUSH1 0x0 KECCAK256 CALLER PUSH1 0x0 MSTORE PUSH1 0x20 MSTORE PUSH1 0xFF PUSH1 0x40 PUSH1 0x0 KECCAK256 SLOAD AND ISZERO PUSH2 0x12CA JUMPI JUMPDEST PUSH1 0x40 MLOAD DUP3 DUP5 DUP3 CALLDATACOPY DUP1 DUP4 DUP2 ADD PUSH1 0x0 DUP2 MSTORE SUB SWAP1 KECCAK256 SWAP11 PUSH1 0x40 MLOAD SWAP11 DUP12 MSTORE PUSH1 0xF SIGNEXTEND PUSH1 0x20 DUP12 ADD MSTORE PUSH1 0xFF AND PUSH1 0x40 DUP11 ADD MSTORE PUSH1 0x60 DUP10 ADD PUSH2 0x100 SWAP1 MSTORE PUSH2 0x100 DUP10 ADD SWAP1 PUSH2 0x125F SWAP3 PUSH2 0x19C6 JUMP JUMPDEST SWAP1 DUP8 DUP3 SUB PUSH1 0x80 DUP10 ADD MSTORE PUSH2 0x1271 SWAP3 PUSH2 0x19C6 JUMP JUMPDEST SWAP1 DUP6 DUP3 SUB PUSH1 0xA0 DUP8 ADD MSTORE PUSH2 0x1283 SWAP3 PUSH2 0x19C6 JUMP JUMPDEST SWAP1 DUP4 DUP3 SUB PUSH1 0xC0 DUP6 ADD MSTORE PUSH2 0x1295 SWAP3 PUSH2 0x19C6 JUMP JUMPDEST PUSH1 0xE4 CALLDATALOAD PUSH1 0xE0 DUP4 ADD MSTORE CALLER SWAP2 DUP1 PUSH1 0x4 CALLDATALOAD SWAP3 SUB PUSH32 0x6A4A61743519C9D648A14E6493F47DBE3FF1AA29E7785C96C8326A205E58FEBC SWAP2 LOG4 STOP JUMPDEST PUSH1 0x4 CALLDATALOAD PUSH1 0x0 MSTORE PUSH1 0x2 PUSH1 0x20 MSTORE PUSH1 0x40 PUSH1 0x0 KECCAK256 DUP1 SLOAD SWAP1 PUSH9 0x10000000000000000 DUP3 LT ISZERO PUSH2 0x135E JUMPI PUSH1 0x1 DUP3 ADD DUP1 DUP3 SSTORE DUP3 LT ISZERO PUSH2 0x1348 JUMPI PUSH1 0x0 MSTORE PUSH1 0x20 PUSH1 0x0 KECCAK256 ADD CALLER PUSH12 0xFFFFFFFFFFFFFFFFFFFFFFFF PUSH1 0xA0 SHL DUP3 SLOAD AND OR SWAP1 SSTORE PUSH1 0x4 CALLDATALOAD PUSH1 0x0 MSTORE PUSH1 0x3 PUSH1 0x20 MSTORE PUSH1 0x40 PUSH1 0x0 KECCAK256 CALLER PUSH1 0x0 MSTORE PUSH1 0x20 MSTORE PUSH1 0x40 PUSH1 0x0 KECCAK256 PUSH1 0x1 PUSH1 0xFF NOT DUP3 SLOAD AND OR SWAP1 SSTORE PUSH2 0x121E JUMP JUMPDEST PUSH4 0x4E487B71 PUSH1 0xE0 SHL PUSH1 0x0 MSTORE PUSH1 0x32 PUSH1 0x4 MSTORE PUSH1 0x24 PUSH1 0x0 REVERT JUMPDEST PUSH4 0x4E487B71 PUSH1 0xE0 SHL PUSH1 0x0 MSTORE PUSH1 0x41 PUSH1 0x4 MSTORE PUSH1 0x24 PUSH1 0x0 REVERT JUMPDEST ADD MLOAD SWAP1 POP CODESIZE DUP1 PUSH2 0x11CF JUMP JUMPDEST SWAP1 PUSH1 0x2 DUP5 ADD PUSH1 0x0 MSTORE PUSH1 0x20 PUSH1 0x0 KECCAK256 SWAP2 PUSH1 0x0 JUMPDEST PUSH1 0x1F NOT DUP6 AND DUP2 LT PUSH2 0x13DB JUMPI POP SWAP3 PUSH1 0x80 SWAP5 SWAP3 PUSH1 0x1 SWAP3 PUSH1 0x3 SWAP6 DUP4 PUSH1 0x1F NOT DUP2 AND LT PUSH2 0x13C3 JUMPI JUMPDEST POP POP POP DUP2 SHL ADD PUSH1 0x2 DUP3 ADD SSTORE PUSH2 0x11E6 JUMP JUMPDEST ADD MLOAD PUSH1 0x0 NOT DUP4 DUP8 SHL PUSH1 0xF8 AND SHR NOT AND SWAP1 SSTORE CODESIZE DUP1 DUP1 PUSH2 0x13B3 JUMP JUMPDEST SWAP2 SWAP3 PUSH1 0x20 PUSH1 0x1 DUP2 SWAP3 DUP7 DUP6 ADD MLOAD DUP2 SSTORE ADD SWAP5 ADD SWAP3 ADD PUSH2 0x1390 JUMP JUMPDEST PUSH1 0x2 DUP5 ADD PUSH1 0x0 MSTORE PUSH1 0x20 PUSH1 0x0 KECCAK256 PUSH1 0x1F DUP5 ADD PUSH1 0x5 SHR DUP2 ADD PUSH1 0x20 DUP6 LT PUSH2 0x1433 JUMPI JUMPDEST PUSH1 0x1F DUP4 ADD PUSH1 0x5 SHR DUP3 ADD DUP2 LT PUSH2 0x1427 JUMPI POP POP PUSH2 0x11AF JUMP JUMPDEST PUSH1 0x0 DUP2 SSTORE PUSH1 0x1 ADD PUSH2 0x1411 JUMP JUMPDEST POP DUP1 PUSH2 0x1411 JUMP JUMPDEST ADD MLOAD SWAP1 POP DUP16 DUP1 PUSH2 0x116B JUMP JUMPDEST PUSH1 0x1 DUP6 ADD PUSH1 0x0 SWAP1 DUP2 MSTORE PUSH1 0x20 DUP2 KECCAK256 SWAP4 POP PUSH1 0x1F NOT DUP6 AND SWAP1 JUMPDEST DUP2 DUP2 LT PUSH2 0x149A JUMPI POP SWAP1 DUP5 PUSH1 0x1 SWAP6 SWAP5 SWAP4 SWAP3 LT PUSH2 0x1481 JUMPI JUMPDEST POP POP POP DUP2 SHL ADD PUSH1 0x1 DUP3 ADD SSTORE PUSH2 0x1183 JUMP JUMPDEST ADD MLOAD PUSH1 0x0 NOT PUSH1 0xF8 DUP5 PUSH1 0x3 SHL AND SHR NOT AND SWAP1 SSTORE DUP16 DUP1 DUP1 PUSH2 0x1471 JUMP JUMPDEST SWAP3 SWAP4 PUSH1 0x20 PUSH1 0x1 DUP2 SWAP3 DUP8 DUP7 ADD MLOAD DUP2 SSTORE ADD SWAP6 ADD SWAP4 ADD PUSH2 0x145B JUMP JUMPDEST SWAP1 SWAP2 POP PUSH1 0x1 DUP5 ADD PUSH1 0x0 MSTORE PUSH1 0x20 PUSH1 0x0 KECCAK256 PUSH1 0x1F DUP5 ADD PUSH1 0x5 SHR DUP2 ADD PUSH1 0x20 DUP6 LT PUSH2 0x14FE JUMPI JUMPDEST SWAP1 DUP5 SWAP4 SWAP3 SWAP2 JUMPDEST PUSH1 0x1F DUP4 ADD PUSH1 0x5 SHR DUP3 ADD DUP2 LT PUSH2 0x14EF JUMPI POP POP PUSH2 0x1154 JUMP JUMPDEST PUSH1 0x0 DUP2 SSTORE DUP6 SWAP5 POP PUSH1 0x1 ADD PUSH2 0x14D9 JUMP JUMPDEST POP DUP1 PUSH2 0x14D3 JUMP JUMPDEST POP PUSH1 0x20 DUP2 RETURNDATASIZE PUSH1 0x20 GT PUSH2 0x153A JUMPI JUMPDEST DUP2 PUSH2 0x151F PUSH1 0x20 SWAP4 DUP4 PUSH2 0x1898 JUMP JUMPDEST DUP2 ADD SUB SLT PUSH2 0xDF JUMPI MLOAD DUP1 ISZERO ISZERO DUP2 SUB PUSH2 0xDF JUMPI PUSH2 0x1026 SWAP1 PUSH2 0x101B JUMP JUMPDEST RETURNDATASIZE SWAP2 POP PUSH2 0x1512 JUMP JUMPDEST PUSH1 0x40 MLOAD RETURNDATASIZE PUSH1 0x0 DUP3 RETURNDATACOPY RETURNDATASIZE SWAP1 REVERT JUMPDEST PUSH2 0x1570 SWAP2 POP PUSH1 0x20 RETURNDATASIZE PUSH1 0x20 GT PUSH2 0x1576 JUMPI JUMPDEST PUSH2 0x1568 DUP2 DUP4 PUSH2 0x1898 JUMP JUMPDEST DUP2 ADD SWAP1 PUSH2 0x18B9 JUMP JUMPDEST DUP12 PUSH2 0xFAA JUMP JUMPDEST POP RETURNDATASIZE PUSH2 0x155E JUMP JUMPDEST PUSH1 0x40 MLOAD PUSH3 0x461BCD PUSH1 0xE5 SHL DUP2 MSTORE PUSH1 0x20 PUSH1 0x4 DUP3 ADD MSTORE PUSH1 0x15 PUSH1 0x24 DUP3 ADD MSTORE PUSH21 0x496E76616C69642076616C7565446563696D616C73 PUSH1 0x58 SHL PUSH1 0x44 DUP3 ADD MSTORE PUSH1 0x64 SWAP1 REVERT JUMPDEST PUSH1 0x40 MLOAD PUSH3 0x461BCD PUSH1 0xE5 SHL DUP2 MSTORE PUSH1 0x20 PUSH1 0x4 DUP3 ADD MSTORE PUSH1 0x14 PUSH1 0x24 DUP3 ADD MSTORE PUSH20 0x1059D95B9D08191BD95CC81B9BDD08195E1A5CDD PUSH1 0x62 SHL PUSH1 0x44 DUP3 ADD MSTORE PUSH1 0x64 SWAP1 REVERT JUMPDEST PUSH2 0x160F SWAP2 POP PUSH1 0x20 RETURNDATASIZE PUSH1 0x20 GT PUSH2 0x1576 JUMPI PUSH2 0x1568 DUP2 DUP4 PUSH2 0x1898 JUMP JUMPDEST DUP12 PUSH2 0xF3A JUMP JUMPDEST CALLVALUE PUSH2 0xDF JUMPI PUSH1 0x60 CALLDATASIZE PUSH1 0x3 NOT ADD SLT PUSH2 0xDF JUMPI PUSH2 0x162E PUSH2 0x1736 JUMP JUMPDEST PUSH2 0x1636 PUSH2 0x174C JUMP JUMPDEST SWAP1 PUSH1 0x4 CALLDATALOAD PUSH1 0x0 MSTORE PUSH1 0x0 PUSH1 0x20 MSTORE PUSH1 0x40 PUSH1 0x0 KECCAK256 SWAP1 PUSH1 0x1 DUP1 PUSH1 0xA0 SHL SUB AND PUSH1 0x0 MSTORE PUSH1 0x20 MSTORE PUSH1 0x1 PUSH1 0x1 PUSH1 0x40 SHL SUB PUSH1 0x40 PUSH1 0x0 KECCAK256 SWAP2 AND PUSH1 0x0 MSTORE PUSH1 0x20 MSTORE PUSH1 0xFF PUSH1 0x40 PUSH1 0x0 KECCAK256 DUP1 SLOAD SWAP1 PUSH2 0x16E8 PUSH1 0x2 PUSH2 0x16DA DUP6 PUSH1 0x3 DUP6 ADD SLOAD AND SWAP4 PUSH2 0x16B4 PUSH1 0x40 MLOAD SWAP2 PUSH2 0x16A4 DUP4 PUSH2 0x169D DUP2 PUSH1 0x1 DUP6 ADD PUSH2 0x1A42 JUMP JUMPDEST SUB DUP5 PUSH2 0x1898 JUMP JUMPDEST PUSH2 0x169D PUSH1 0x40 MLOAD DUP1 SWAP7 DUP2 SWAP4 ADD PUSH2 0x1A42 JUMP JUMPDEST PUSH1 0x40 MLOAD SWAP7 DUP7 DUP9 SWAP8 PUSH1 0xF SIGNEXTEND DUP9 MSTORE PUSH1 0x80 SHR AND PUSH1 0x20 DUP8 ADD MSTORE PUSH1 0xA0 PUSH1 0x40 DUP8 ADD MSTORE PUSH1 0xA0 DUP7 ADD SWAP1 PUSH2 0x1762 JUMP JUMPDEST SWAP1 DUP5 DUP3 SUB PUSH1 0x60 DUP7 ADD MSTORE PUSH2 0x1762 JUMP JUMPDEST SWAP1 ISZERO ISZERO PUSH1 0x80 DUP4 ADD MSTORE SUB SWAP1 RETURN JUMPDEST CALLVALUE PUSH2 0xDF JUMPI PUSH1 0x0 CALLDATASIZE PUSH1 0x3 NOT ADD SLT PUSH2 0xDF JUMPI PUSH32 0x0 PUSH1 0x1 PUSH1 0x1 PUSH1 0xA0 SHL SUB AND DUP2 MSTORE PUSH1 0x20 SWAP1 RETURN JUMPDEST PUSH1 0x24 CALLDATALOAD SWAP1 PUSH1 0x1 PUSH1 0x1 PUSH1 0xA0 SHL SUB DUP3 AND DUP3 SUB PUSH2 0xDF JUMPI JUMP JUMPDEST PUSH1 0x44 CALLDATALOAD SWAP1 PUSH1 0x1 PUSH1 0x1 PUSH1 0x40 SHL SUB DUP3 AND DUP3 SUB PUSH2 0xDF JUMPI JUMP JUMPDEST SWAP2 SWAP1 DUP3 MLOAD SWAP3 DUP4 DUP3 MSTORE PUSH1 0x0 JUMPDEST DUP5 DUP2 LT PUSH2 0x178E JUMPI POP POP DUP3 PUSH1 0x0 PUSH1 0x20 DUP1 SWAP5 SWAP6 DUP5 ADD ADD MSTORE PUSH1 0x1F DUP1 NOT SWAP2 ADD AND ADD ADD SWAP1 JUMP JUMPDEST PUSH1 0x20 DUP2 DUP4 ADD DUP2 ADD MLOAD DUP5 DUP4 ADD DUP3 ADD MSTORE ADD PUSH2 0x176D JUMP JUMPDEST SWAP2 DUP2 PUSH1 0x1F DUP5 ADD SLT ISZERO PUSH2 0xDF JUMPI DUP3 CALLDATALOAD SWAP2 PUSH1 0x1 PUSH1 0x1 PUSH1 0x40 SHL SUB DUP4 GT PUSH2 0xDF JUMPI PUSH1 0x20 DUP4 DUP2 DUP7 ADD SWAP6 ADD ADD GT PUSH2 0xDF JUMPI JUMP JUMPDEST SWAP1 DUP2 MLOAD DUP1 DUP3 MSTORE PUSH1 0x20 DUP1 DUP1 SWAP4 ADD SWAP4 ADD SWAP2 PUSH1 0x0 JUMPDEST DUP3 DUP2 LT PUSH2 0x17EF JUMPI POP POP POP POP SWAP1 JUMP JUMPDEST DUP4 MLOAD PUSH1 0x1 PUSH1 0x1 PUSH1 0xA0 SHL SUB AND DUP6 MSTORE SWAP4 DUP2 ADD SWAP4 SWAP3 DUP2 ADD SWAP3 PUSH1 0x1 ADD PUSH2 0x17E1 JUMP JUMPDEST SWAP2 DUP2 PUSH1 0x1F DUP5 ADD SLT ISZERO PUSH2 0xDF JUMPI DUP3 CALLDATALOAD SWAP2 PUSH1 0x1 PUSH1 0x1 PUSH1 0x40 SHL SUB DUP4 GT PUSH2 0xDF JUMPI PUSH1 0x20 DUP1 DUP6 ADD SWAP5 DUP5 PUSH1 0x5 SHL ADD ADD GT PUSH2 0xDF JUMPI JUMP JUMPDEST SWAP1 DUP1 DUP3 MLOAD SWAP1 DUP2 DUP2 MSTORE PUSH1 0x20 DUP1 SWAP2 ADD SWAP3 DUP2 DUP1 DUP5 PUSH1 0x5 SHL DUP4 ADD ADD SWAP6 ADD SWAP4 PUSH1 0x0 SWAP2 JUMPDEST DUP5 DUP4 LT PUSH2 0x186A JUMPI POP POP POP POP POP POP SWAP1 JUMP JUMPDEST SWAP1 SWAP2 SWAP3 SWAP4 SWAP5 SWAP6 DUP5 DUP1 PUSH2 0x1888 PUSH1 0x1 SWAP4 PUSH1 0x1F NOT DUP7 DUP3 SUB ADD DUP8 MSTORE DUP11 MLOAD PUSH2 0x1762 JUMP JUMPDEST SWAP9 ADD SWAP4 ADD SWAP4 ADD SWAP2 SWAP5 SWAP4 SWAP3 SWAP1 PUSH2 0x185A JUMP JUMPDEST SWAP1 PUSH1 0x1F DUP1 NOT SWAP2 ADD AND DUP2 ADD SWAP1 DUP2 LT PUSH1 0x1 PUSH1 0x1 PUSH1 0x40 SHL SUB DUP3 GT OR PUSH2 0x135E JUMPI PUSH1 0x40 MSTORE JUMP JUMPDEST SWAP1 DUP2 PUSH1 0x20 SWAP2 SUB SLT PUSH2 0xDF JUMPI MLOAD PUSH1 0x1 PUSH1 0x1 PUSH1 0xA0 SHL SUB DUP2 AND DUP2 SUB PUSH2 0xDF JUMPI SWAP1 JUMP JUMPDEST ISZERO PUSH2 0x18DF JUMPI JUMP JUMPDEST PUSH1 0x40 MLOAD PUSH3 0x461BCD PUSH1 0xE5 SHL DUP2 MSTORE PUSH1 0x20 PUSH1 0x4 DUP3 ADD MSTORE PUSH1 0x21 PUSH1 0x24 DUP3 ADD MSTORE PUSH32 0x43616E6E6F74206769766520666565646261636B20746F206F776E206167656E PUSH1 0x44 DUP3 ADD MSTORE PUSH1 0x1D PUSH1 0xFA SHL PUSH1 0x64 DUP3 ADD MSTORE PUSH1 0x84 SWAP1 REVERT JUMPDEST PUSH1 0x1 PUSH1 0x1 PUSH1 0x40 SHL SUB DUP1 SWAP2 AND SWAP1 DUP2 EQ PUSH2 0xB96 JUMPI PUSH1 0x1 ADD SWAP1 JUMP JUMPDEST SWAP3 SWAP2 SWAP3 PUSH1 0x1 PUSH1 0x1 PUSH1 0x40 SHL SUB DUP3 GT PUSH2 0x135E JUMPI PUSH1 0x40 MLOAD SWAP2 PUSH2 0x196F PUSH1 0x1F DUP3 ADD PUSH1 0x1F NOT AND PUSH1 0x20 ADD DUP5 PUSH2 0x1898 JUMP JUMPDEST DUP3 SWAP5 DUP2 DUP5 MSTORE DUP2 DUP4 ADD GT PUSH2 0xDF JUMPI DUP3 DUP2 PUSH1 0x20 SWAP4 DUP5 PUSH1 0x0 SWAP7 ADD CALLDATACOPY ADD ADD MSTORE JUMP JUMPDEST SWAP1 PUSH1 0x1 DUP3 DUP2 SHR SWAP3 AND DUP1 ISZERO PUSH2 0x19BC JUMPI JUMPDEST PUSH1 0x20 DUP4 LT EQ PUSH2 0x19A6 JUMPI JUMP JUMPDEST PUSH4 0x4E487B71 PUSH1 0xE0 SHL PUSH1 0x0 MSTORE PUSH1 0x22 PUSH1 0x4 MSTORE PUSH1 0x24 PUSH1 0x0 REVERT JUMPDEST SWAP2 PUSH1 0x7F AND SWAP2 PUSH2 0x199B JUMP JUMPDEST SWAP1 DUP1 PUSH1 0x20 SWAP4 SWAP3 DUP2 DUP5 MSTORE DUP5 DUP5 ADD CALLDATACOPY PUSH1 0x0 DUP3 DUP3 ADD DUP5 ADD MSTORE PUSH1 0x1F ADD PUSH1 0x1F NOT AND ADD ADD SWAP1 JUMP JUMPDEST ISZERO PUSH2 0x19EE JUMPI JUMP JUMPDEST PUSH1 0x40 MLOAD PUSH3 0x461BCD PUSH1 0xE5 SHL DUP2 MSTORE PUSH1 0x20 PUSH1 0x4 DUP3 ADD MSTORE PUSH1 0x17 PUSH1 0x24 DUP3 ADD MSTORE PUSH32 0x466565646261636B20646F6573206E6F74206578697374000000000000000000 PUSH1 0x44 DUP3 ADD MSTORE PUSH1 0x64 SWAP1 REVERT JUMPDEST PUSH1 0x0 NOT DUP2 EQ PUSH2 0xB96 JUMPI PUSH1 0x1 ADD SWAP1 JUMP JUMPDEST SWAP1 PUSH1 0x0 SWAP3 SWAP2 DUP1 SLOAD SWAP2 PUSH2 0x1A53 DUP4 PUSH2 0x198C JUMP JUMPDEST SWAP2 DUP3 DUP3 MSTORE PUSH1 0x1 SWAP4 DUP5 DUP2 AND SWAP1 DUP2 PUSH1 0x0 EQ PUSH2 0x1AB5 JUMPI POP PUSH1 0x1 EQ PUSH2 0x1A75 JUMPI JUMPDEST POP POP POP POP JUMP JUMPDEST SWAP1 SWAP2 SWAP4 SWAP5 POP PUSH1 0x0 MSTORE PUSH1 0x20 SWAP3 DUP4 PUSH1 0x0 KECCAK256 SWAP3 DUP5 PUSH1 0x0 SWAP5 JUMPDEST DUP4 DUP7 LT PUSH2 0x1AA1 JUMPI POP POP POP POP ADD ADD SWAP1 CODESIZE DUP1 DUP1 DUP1 PUSH2 0x1A6F JUMP JUMPDEST DUP1 SLOAD DUP6 DUP8 ADD DUP4 ADD MSTORE SWAP5 ADD SWAP4 DUP6 SWAP1 DUP3 ADD PUSH2 0x1A8A JUMP JUMPDEST SWAP3 SWAP5 POP POP POP PUSH1 0x20 SWAP4 SWAP5 POP PUSH1 0xFF NOT AND DUP4 DUP4 ADD MSTORE ISZERO ISZERO PUSH1 0x5 SHL ADD ADD SWAP1 CODESIZE DUP1 DUP1 DUP1 PUSH2 0x1A6F JUMP JUMPDEST PUSH1 0x1 PUSH1 0x1 PUSH1 0x40 SHL SUB DUP2 GT PUSH2 0x135E JUMPI PUSH1 0x5 SHL PUSH1 0x20 ADD SWAP1 JUMP JUMPDEST DUP1 MLOAD DUP3 LT ISZERO PUSH2 0x1348 JUMPI PUSH1 0x20 SWAP2 PUSH1 0x5 SHL ADD ADD SWAP1 JUMP JUMPDEST SWAP1 PUSH2 0x1B0D DUP3 PUSH2 0x1AD8 JUMP JUMPDEST PUSH2 0x1B1A PUSH1 0x40 MLOAD SWAP2 DUP3 PUSH2 0x1898 JUMP JUMPDEST DUP3 DUP2 MSTORE DUP1 SWAP3 PUSH2 0x1B2B PUSH1 0x1F NOT SWAP2 PUSH2 0x1AD8 JUMP JUMPDEST ADD SWAP1 PUSH1 0x0 JUMPDEST DUP3 DUP2 LT PUSH2 0x1B3C JUMPI POP POP POP JUMP JUMPDEST DUP1 PUSH1 0x60 PUSH1 0x20 DUP1 SWAP4 DUP6 ADD ADD MSTORE ADD PUSH2 0x1B30 JUMP INVALID LOG2 PUSH5 0x6970667358 0x22 SLT KECCAK256 0x4D 0xBD 0x5E OR DELEGATECALL PUSH16 0xB66FE670E3DC96DF26043613EECCE12F SWAP12 SWAP2 0xE6 0xE9 0xCF 0xF9 SWAP4 SAR INVALID PUSH5 0x64736F6C63 NUMBER STOP ADDMOD EQ STOP CALLER "},"methodIdentifiers":{"appendResponse(uint256,address,uint64,string,bytes32)":"c2349ab2","getClients(uint256)":"42dd519c","getIdentityRegistry()":"bc4d861b","getLastIndex(uint256,address)":"f2d81759","getSummary(uint256,address[],string,string)":"81bbba58","giveFeedback(uint256,int128,uint8,string,string,string,string,bytes32)":"3c036a7e","identityRegistry()":"134e18f4","readAllFeedback(uint256,address[],string,string,bool)":"d9d84224","readFeedback(uint256,address,uint64)":"232b0810","revokeFeedback(uint256,uint64)":"4ab3ca99"}}}}}