{"contracts/IdentityRegistry.sol":{"IdentityRegistry":{"abi":[{"inputs":[],"stateMutability":"nonpayable","type":"constructor"},{"inputs":[],"name":"ECDSAInvalidSignature","type":"error"},{"inputs":[{"internalType":"uint256","name":"length","type":"uint256"}],"name":"ECDSAInvalidSignatureLength","type":"error"},{"inputs":[{"internalType":"bytes32","name":"s","type":"bytes32"}],"name":"ECDSAInvalidSignatureS","type":"error"},{"inputs":[{"internalType":"address","name":"sender","type":"address"},{"internalType":"uint256","name":"tokenId","type":"uint256"},{"internalType":"address","name":"owner","type":"address"}],"name":"ERC721IncorrectOwner","type":"error"},{"inputs":[{"internalType":"address","name":"operator","type":"address"},{"internalType":"uint256","name":"tokenId","type":"uint256"}],"name":"ERC721InsufficientApproval","type":"error"},{"inputs":[{"internalType":"address","name":"approver","type":"address"}],"name":"ERC721InvalidApprover","type":"error"},{"inputs":[{"internalType":"address","name":"operator","type":"address"}],"name":"ERC721InvalidOperator","type":"error"},{"inputs":[{"internalType":"address","name":"owner","type":"address"}],"name":"ERC721InvalidOwner","type":"error"},{"inputs":[{"internalType":"address","name":"receiver","type":"address"}],"name":"ERC721InvalidReceiver","type":"error"},{"inputs":[{"internalType":"address","name":"sender","type":"address"}],"name":"ERC721InvalidSender","type":"error"},{"inputs":[{"internalType":"uint256","name":"tokenId","type":"uint256"}],"name":"ERC721NonexistentToken","type":"error"},{"inputs":[],"name":"InvalidShortString","type":"error"},{"inputs":[{"internalType":"address","name":"owner","type":"address"}],"name":"OwnableInvalidOwner","type":"error"},{"inputs":[{"internalType":"address","name":"account","type":"address"}],"name":"OwnableUnauthorizedAccount","type":"error"},{"inputs":[],"name":"ReentrancyGuardReentrantCall","type":"error"},{"inputs":[{"internalType":"string","name":"str","type":"string"}],"name":"StringTooLong","type":"error"},{"anonymous":false,"inputs":[{"indexed":true,"internalType":"address","name":"owner","type":"address"},{"indexed":true,"internalType":"address","name":"approved","type":"address"},{"indexed":true,"internalType":"uint256","name":"tokenId","type":"uint256"}],"name":"Approval","type":"event"},{"anonymous":false,"inputs":[{"indexed":true,"internalType":"address","name":"owner","type":"address"},{"indexed":true,"internalType":"address","name":"operator","type":"address"},{"indexed":false,"internalType":"bool","name":"approved","type":"bool"}],"name":"ApprovalForAll","type":"event"},{"anonymous":false,"inputs":[{"indexed":false,"internalType":"uint256","name":"_fromTokenId","type":"uint256"},{"indexed":false,"internalType":"uint256","name":"_toTokenId","type":"uint256"}],"name":"BatchMetadataUpdate","type":"event"},{"anonymous":false,"inputs":[],"name":"EIP712DomainChanged","type":"event"},{"anonymous":false,"inputs":[{"indexed":true,"internalType":"uint256","name":"agentId","type":"uint256"},{"indexed":true,"internalType":"string","name":"indexedMetadataKey","type":"string"},{"indexed":false,"internalType":"string","name":"metadataKey","type":"string"},{"indexed":false,"internalType":"bytes","name":"metadataValue","type":"bytes"}],"name":"MetadataSet","type":"event"},{"anonymous":false,"inputs":[{"indexed":false,"internalType":"uint256","name":"_tokenId","type":"uint256"}],"name":"MetadataUpdate","type":"event"},{"anonymous":false,"inputs":[{"indexed":true,"internalType":"address","name":"previousOwner","type":"address"},{"indexed":true,"internalType":"address","name":"newOwner","type":"address"}],"name":"OwnershipTransferred","type":"event"},{"anonymous":false,"inputs":[{"indexed":true,"internalType":"uint256","name":"agentId","type":"uint256"},{"indexed":false,"internalType":"string","name":"agentURI","type":"string"},{"indexed":true,"internalType":"address","name":"owner","type":"address"}],"name":"Registered","type":"event"},{"anonymous":false,"inputs":[{"indexed":true,"internalType":"address","name":"from","type":"address"},{"indexed":true,"internalType":"address","name":"to","type":"address"},{"indexed":true,"internalType":"uint256","name":"tokenId","type":"uint256"}],"name":"Transfer","type":"event"},{"anonymous":false,"inputs":[{"indexed":true,"internalType":"uint256","name":"agentId","type":"uint256"},{"indexed":false,"internalType":"string","name":"newURI","type":"string"},{"indexed":true,"internalType":"address","name":"updatedBy","type":"address"}],"name":"URIUpdated","type":"event"},{"inputs":[{"internalType":"string","name":"key","type":"string"}],"name":"addReservedKey","outputs":[],"stateMutability":"nonpayable","type":"function"},{"inputs":[{"internalType":"address","name":"to","type":"address"},{"internalType":"uint256","name":"tokenId","type":"uint256"}],"name":"approve","outputs":[],"stateMutability":"nonpayable","type":"function"},{"inputs":[{"internalType":"address","name":"owner","type":"address"}],"name":"balanceOf","outputs":[{"internalType":"uint256","name":"","type":"uint256"}],"stateMutability":"view","type":"function"},{"inputs":[],"name":"eip712Domain","outputs":[{"internalType":"bytes1","name":"fields","type":"bytes1"},{"internalType":"string","name":"name","type":"string"},{"internalType":"string","name":"version","type":"string"},{"internalType":"uint256","name":"chainId","type":"uint256"},{"internalType":"address","name":"verifyingContract","type":"address"},{"internalType":"bytes32","name":"salt","type":"bytes32"},{"internalType":"uint256[]","name":"extensions","type":"uint256[]"}],"stateMutability":"view","type":"function"},{"inputs":[{"internalType":"uint256","name":"agentId","type":"uint256"}],"name":"getAgentWallet","outputs":[{"internalType":"address","name":"","type":"address"}],"stateMutability":"view","type":"function"},{"inputs":[{"internalType":"uint256","name":"tokenId","type":"uint256"}],"name":"getApproved","outputs":[{"internalType":"address","name":"","type":"address"}],"stateMutability":"view","type":"function"},{"inputs":[{"internalType":"uint256","name":"agentId","type":"uint256"},{"internalType":"string","name":"metadataKey","type":"string"}],"name":"getMetadata","outputs":[{"internalType":"bytes","name":"","type":"bytes"}],"stateMutability":"view","type":"function"},{"inputs":[{"internalType":"address","name":"owner","type":"address"},{"internalType":"address","name":"operator","type":"address"}],"name":"isApprovedForAll","outputs":[{"internalType":"bool","name":"","type":"bool"}],"stateMutability":"view","type":"function"},{"inputs":[{"internalType":"string","name":"key","type":"string"}],"name":"isReservedKey","outputs":[{"internalType":"bool","name":"","type":"bool"}],"stateMutability":"view","type":"function"},{"inputs":[],"name":"name","outputs":[{"internalType":"string","name":"","type":"string"}],"stateMutability":"view","type":"function"},{"inputs":[],"name":"owner","outputs":[{"internalType":"address","name":"","type":"address"}],"stateMutability":"view","type":"function"},{"inputs":[{"internalType":"uint256","name":"tokenId","type":"uint256"}],"name":"ownerOf","outputs":[{"internalType":"address","name":"","type":"address"}],"stateMutability":"view","type":"function"},{"inputs":[],"name":"register","outputs":[{"internalType":"uint256","name":"agentId","type":"uint256"}],"stateMutability":"nonpayable","type":"function"},{"inputs":[{"internalType":"string","name":"agentURI","type":"string"},{"components":[{"internalType":"string","name":"metadataKey","type":"string"},{"internalType":"bytes","name":"metadataValue","type":"bytes"}],"internalType":"struct IdentityRegistry.MetadataEntry[]","name":"metadata","type":"tuple[]"}],"name":"register","outputs":[{"internalType":"uint256","name":"agentId","type":"uint256"}],"stateMutability":"nonpayable","type":"function"},{"inputs":[{"internalType":"string","name":"agentURI","type":"string"}],"name":"register","outputs":[{"internalType":"uint256","name":"agentId","type":"uint256"}],"stateMutability":"nonpayable","type":"function"},{"inputs":[],"name":"renounceOwnership","outputs":[],"stateMutability":"nonpayable","type":"function"},{"inputs":[{"internalType":"address","name":"from","type":"address"},{"internalType":"address","name":"to","type":"address"},{"internalType":"uint256","name":"tokenId","type":"uint256"}],"name":"safeTransferFrom","outputs":[],"stateMutability":"nonpayable","type":"function"},{"inputs":[{"internalType":"address","name":"from","type":"address"},{"internalType":"address","name":"to","type":"address"},{"internalType":"uint256","name":"tokenId","type":"uint256"},{"internalType":"bytes","name":"data","type":"bytes"}],"name":"safeTransferFrom","outputs":[],"stateMutability":"nonpayable","type":"function"},{"inputs":[{"internalType":"uint256","name":"agentId","type":"uint256"},{"internalType":"string","name":"newURI","type":"string"}],"name":"setAgentURI","outputs":[],"stateMutability":"nonpayable","type":"function"},{"inputs":[{"internalType":"uint256","name":"agentId","type":"uint256"},{"internalType":"address","name":"newWallet","type":"address"},{"internalType":"uint256","name":"deadline","type":"uint256"},{"internalType":"bytes","name":"signature","type":"bytes"}],"name":"setAgentWallet","outputs":[],"stateMutability":"nonpayable","type":"function"},{"inputs":[{"internalType":"address","name":"operator","type":"address"},{"internalType":"bool","name":"approved","type":"bool"}],"name":"setApprovalForAll","outputs":[],"stateMutability":"nonpayable","type":"function"},{"inputs":[{"internalType":"uint256","name":"agentId","type":"uint256"},{"internalType":"string","name":"metadataKey","type":"string"},{"internalType":"bytes","name":"metadataValue","type":"bytes"}],"name":"setMetadata","outputs":[],"stateMutability":"nonpayable","type":"function"},{"inputs":[{"internalType":"bytes4","name":"interfaceId","type":"bytes4"}],"name":"supportsInterface","outputs":[{"internalType":"bool","name":"","type":"bool"}],"stateMutability":"view","type":"function"},{"inputs":[],"name":"symbol","outputs":[{"internalType":"string","name":"","type":"string"}],"stateMutability":"view","type":"function"},{"inputs":[{"internalType":"uint256","name":"tokenId","type":"uint256"}],"name":"tokenURI","outputs":[{"internalType":"string","name":"","type":"string"}],"stateMutability":"view","type":"function"},{"inputs":[{"internalType":"address","name":"from","type":"address"},{"internalType":"address","name":"to","type":"address"},{"internalType":"uint256","name":"tokenId","type":"uint256"}],"name":"transferFrom","outputs":[],"stateMutability":"nonpayable","type":"function"},{"inputs":[{"internalType":"address","name":"newOwner","type":"address"}],"name":"transferOwnership","outputs":[],"stateMutability":"nonpayable","type":"function"},{"inputs":[{"internalType":"uint256","name":"agentId","type":"uint256"}],"name":"unsetAgentWallet","outputs":[],"stateMutability":"nonpayable","type":"function"}],"evm":{"bytecode":{"linkReferences":{},"object":"610160604052346200057a57620000186101606200057f565b6010610160526f4964656e74697479526567697374727960801b6101805260405162000044816200057f565b600181526020810190603160f81b82526040519162000063836200057f565b600d83526c4167656e744964656e7469747960981b6020840152604051926200008c846200057f565b60058452641051d1539560da1b602085015280516001600160401b038111620003535760005491600183811c931680156200056f575b602084101462000463578190601f9384811162000519575b50602090848311600114620004905760009262000484575b50508160011b916000199060031b1c1916176000555b8351906001600160401b0382116200035357600154600181811c9116801562000479575b6020821014620004635781811162000418575b5060209082116001146200038e578192939460009262000382575b50508160011b916000199060031b1c1916176001555b3315620003695760078054336001600160a01b0319821681179092556001600160a01b03167f8be0079c531659141344cd1fd0a4f28419497f9722a3daafe3b4186f6b6457e0600080a3620001c76101606200059b565b90610120918252620001d98362000762565b906101409182526101605160206101600120938460e05251902092610100938085524660a0526040519060208201927f8b73c3c69bb8fe3d512ecc4cf759cc79239f7b179b0ffacaa9a75d522b39400f8452604083015260608201524660808201523060a082015260a0815260c081019080821060018060401b03831117620003535760cb600e91602b9484604052815190206080523060c0526001600a556001600b556a1859d95b9d15d85b1b195d60aa1b845201522060ff19906001828254161790556028604051671d995c9a599a595960c21b8152600e6008820152206001828254161790556027604051661d1c9d5cdd195960ca1b8152600e60078201522060018282541617905560016028604051671bd9999a58da585b60c21b8152600e60088201522091825416179055604051916124e393846200091b85396080518461237c015260a05184612447015260c05184612346015260e051846123cb015251836123f1015251826106ac015251816106d50152f35b634e487b7160e01b600052604160045260246000fd5b604051631e4fbdf760e01b815260006004820152602490fd5b0151905038806200015a565b600160009081527fb10e2d527612073b26eecdfd717e6a320cf44b4afac2b0732d9fcbe2b7fa0cf69190601f198416905b818110620003ff57509583600195969710620003e5575b505050811b0160015562000170565b015160001960f88460031b161c19169055388080620003d6565b9192602060018192868b015181550194019201620003bf565b600160005260206000208280850160051c8201926020861062000459575b0160051c01905b8181106200044c57506200013f565b600081556001016200043d565b9250819262000436565b634e487b7160e01b600052602260045260246000fd5b90607f16906200012c565b015190503880620000f2565b60008080527f290decd9548b62a8d60345a988386fc84ba6bc95484008f6362f93160ef3e5639350601f198516905b818110620005005750908460019594939210620004e6575b505050811b0160005562000108565b015160001960f88460031b161c19169055388080620004d7565b92936020600181928786015181550195019301620004bf565b9091506000805260206000208480850160051c8201926020861062000565575b9085949392910160051c01905b818110620005555750620000da565b6000815584935060010162000546565b9250819262000539565b92607f1692620000c2565b600080fd5b604081019081106001600160401b038211176200035357604052565b805160209081811015620006385750601f825111620005d75780825192015190808310620005c857501790565b82600019910360031b1b161790565b90604051809263305a27a960e01b82528060048301528251908160248401526000935b8285106200061e575050604492506000838284010152601f80199101168101030190fd5b8481018201518686016044015293810193859350620005fa565b906001600160401b0382116200035357600854926001938481811c9116801562000757575b838210146200046357601f81116200071d575b5081601f8411600114620006b15750928293918392600094620006a5575b50501b916000199060031b1c19161760085560ff90565b0151925038806200068e565b919083601f198116600860005284600020946000905b88838310620007025750505010620006e8575b505050811b0160085560ff90565b015160001960f88460031b161c19169055388080620006da565b858701518855909601959485019487935090810190620006c7565b600860005284601f84600020920160051c820191601f860160051c015b8281106200074a57505062000670565b600081550185906200073a565b90607f16906200065d565b805160209081811015620007f05750601f8251116200078f5780825192015190808310620005c857501790565b90604051809263305a27a960e01b82528060048301528251908160248401526000935b828510620007d6575050604492506000838284010152601f80199101168101030190fd5b8481018201518686016044015293810193859350620007b2565b906001600160401b0382116200035357600954926001938481811c911680156200090f575b838210146200046357601f8111620008d5575b5081601f84116001146200086957509282939183926000946200085d575b50501b916000199060031b1c19161760095560ff90565b01519250388062000846565b919083601f198116600960005284600020946000905b88838310620008ba5750505010620008a0575b505050811b0160095560ff90565b015160001960f88460031b161c1916905538808062000892565b8587015188559096019594850194879350908101906200087f565b600960005284601f84600020920160051c820191601f860160051c015b8281106200090257505062000828565b60008155018590620008f2565b90607f16906200081556fe6040608081526004908136101561001557600080fd5b600091823560e01c8062339509146110dd57806301ffc9a71461105357806306fdde0314610fab578063081812fc14610f70578063095ea7b314610e945780630af28bd314610e125780631aa3a00814610dd857806323b872dd14610dc05780632d1ef5ae14610b6a5780633fddcf1914610ac457806342842e0e14610a9b578063466648da146108c25780636352211e1461089157806370a082311461083c578063715018a6146107df5780637b17f2b01461078957806384b0196e146106945780638ad781541461063b5780638da5cb5b146106125780638ea42286146104f357806395d89b4114610410578063a22cb46514610373578063b88d4fde1461031d578063c87b56dd146102ba578063cb4799f214610286578063e985e9c514610234578063f2c298be146101e15763f2fde38b1461015457600080fd5b346101dd5760203660031901126101dd5761016d611170565b90610176611313565b6001600160a01b039182169283156101c7575050600754826001600160601b0360a01b821617600755167f8be0079c531659141344cd1fd0a4f28419497f9722a3daafe3b4186f6b6457e08380a380f35b51631e4fbdf760e01b8152908101849052602490fd5b8280fd5b50346101dd5760203660031901126101dd5780356001600160401b0381116102305792610216610229926020953691016112f5565b83519161022283611267565b8252611941565b9051908152f35b8380fd5b50503461028257806003193601126102825760ff81602093610254611170565b61025c61118b565b6001600160a01b0391821683526005875283832091168252855220549151911615158152f35b5080fd5b505034610282576102b6906102a361029d366111ce565b91612124565b905191829160208352602083019061114b565b0390f35b50346101dd5760203660031901126101dd57906102b6926102f892356102df81611753565b50815260066020526102ff828220835194858092611379565b0384611282565b815161030a81611267565b525191829160208352602083019061114b565b83823461028257608036600319011261028257610338611170565b61034061118b565b906064356001600160401b03811161036f5761036c93610362913691016112f5565b91604435916115ff565b80f35b8480fd5b5090346101dd57806003193601126101dd5761038d611170565b906024359182151580930361036f576001600160a01b03169283156103fb5750338452600560205280842083855260205280842060ff1981541660ff8416179055519081527f17307eab39ab6107e8899845ad3d59bd9653f200f220920489ca2b5937696c3160203392a380f35b836024925191630b61174360e31b8352820152fd5b5050346102825781600319360112610282578051908260018054916104348361133f565b808652928281169081156104cb575060011461046f575b50505061045d826102b6940383611282565b5191829160208352602083019061114b565b94508085527fb10e2d527612073b26eecdfd717e6a320cf44b4afac2b0732d9fcbe2b7fa0cf65b8286106104b35750505061045d8260206102b6958201019461044b565b80546020878701810191909152909501948101610496565b6102b697508693506020925061045d94915060ff191682840152151560051b8201019461044b565b509190346102825780600319360112610282576001600160401b0383358181116102305761052490369086016112f5565b602480359483861161060f573660238701121561060f5785870135968488116105ff57508660051b9185519460209861055f8a860188611282565b865281898701948901019736891161023057828101945b898610610589578a896102298a8a611941565b85358381116105fb5782018960231982360301126105fb578951906105ad82611236565b858101358581116105f7576105c7908736918401016112f5565b825260448101358581116105f757916105e88e9492888695369201016112f5565b83820152815201950194610576565b8780fd5b8580fd5b634e487b7160e01b825260419052fd5b80fd5b50503461028257816003193601126102825760075490516001600160a01b039091168152602090f35b50346101dd5760203660031901126101dd5780356001600160401b0381116102305760209161066c913691016111a1565b8093610676611313565b5193849283378101600e815203019020600160ff1982541617905580f35b505034610282578160031936011261028257906106d07f000000000000000000000000000000000000000000000000000000000000000061178e565b6106f97f0000000000000000000000000000000000000000000000000000000000000000611887565b9183519161070683611267565b81835261073b8551958695600f60f81b875261072e60209460e0868a015260e089019061114b565b918783039088015261114b565b904660608601523060808601528260a086015284820360c08601528080855193848152019401925b82811061077257505050500390f35b835185528695509381019392810192600101610763565b50913461060f57602036600319011261060f578235906001600160401b03821161060f575060206107c0819460ff933691016111a1565b919082855193849283378101600e815203019020541690519015158152f35b833461060f578060031936011261060f576107f8611313565b600780546001600160a01b0319811690915581906001600160a01b03167f8be0079c531659141344cd1fd0a4f28419497f9722a3daafe3b4186f6b6457e08280a380f35b50913461060f57602036600319011261060f576001600160a01b0361085f611170565b1692831561087c5750806020938392526003845220549051908152f35b91516322718ad960e21b815291820152602490fd5b50913461060f57602036600319011261060f57506108b160209235611753565b90516001600160a01b039091168152f35b50346101dd5760603660031901126101dd57803590602435926001600160401b03938481116105fb576108f890369084016111a1565b9290946044358181116105f75761091290369084016111a1565b918689526020936002855261093d610938898c8960018060a01b03912054163390612040565b611fe2565b61095d60ff8751898c823787818b8101600e815203019020541615611ded565b878a52600c8552610971868b20888b61210b565b918411610a88575061098d83610987835461133f565b83611e39565b88601f8411600114610a10579183916109ff9460008051602061246e833981519152989796948c91610a05575b508360011b906000198560031b1c19161790555b6109f28551878b8237808881018d815203902099865197878998895288019161201f565b928584039086015261201f565b0390a380f35b9050820135386109ba565b818a52848a2090601f1985168b5b818110610a715750918593916109ff9660008051602061246e8339815191529a9998969410610a57575b5050600183811b0190556109ce565b830135600019600386901b60f8161c191690553880610a48565b919287600181928689013581550194019201610a1e565b634e487b7160e01b8a5260419052602489fd5b5050346102825761036c90610aaf36611201565b91925192610abc84611267565b8584526115ff565b5090346101dd5760203660031901126101dd5760008051602061246e8339815191526109ff60008051602061248e8339815191529335928386526002602052610b1d6109388560018060a01b03848a2054163390612040565b838652600d6020528086206001600160601b0360a01b815416905580519086602083015260148252610b4e82611236565b6a1859d95b9d15d85b1b195d60aa1b8151525191829182611d90565b50346101dd5760803660031901126101dd57803591610b8761118b565b91604435906001600160401b03906064358281116105f757610bad8591369084016111a1565b90610bb6611fbf565b888a5260209560028752610bdc6109388b8d60018060a01b039788912054163390612040565b804211610d8957838916958615610d4d57885190888201927f225139e8b7c05dd59c88f8f995824b087598346a9cf21d8192ce391b602f82f484528c8b84015288606084015260808301526080825260a082019082821090821117610d3a57610c88936042610c7f948a989794610c79948e52519020610c5a612343565b908d519161190160f01b835260028301526022820152209236916112be565b906121f2565b909291926122be565b1603610d035750848652600d825282862080546001600160a01b0319169091179055815160609390931b6bffffffffffffffffffffffff1916908301526014825260008051602061248e833981519152929160008051602061246e83398151915291610cf89190610b4e82611236565b0390a36001600a5580f35b835162461bcd60e51b81529081018390526011602482015270496e76616c6964207369676e617475726560781b6044820152606490fd5b634e487b7160e01b8d526041875260248dfd5b885162461bcd60e51b81528087018990526016602482015275496e76616c69642077616c6c6574206164647265737360501b6044820152606490fd5b875162461bcd60e51b8152808601889052601160248201527014da59db985d1d5c9948195e1c1a5c9959607a1b6044820152606490fd5b833461060f5761036c610dd236611201565b9161140f565b505034610282578160031936011261028257610229602092825190610dfc82611267565b808252835190610e0b82611267565b8152611941565b505034610282576109ff907f3a2c7fffc2cba7582c690e3b82c453ea02a308326a98a3ad7576c606336409fb610e47366111ce565b9491938487526002602052610e6c6109388660018060a01b03848b2054163390612040565b610e80610e7a3688856112be565b86611e8d565b51918291602083523396602084019161201f565b5090346101dd57806003193601126101dd57610eae611170565b91602435610ebb81611753565b33151580610f5d575b80610f34575b610f1e576001600160a01b039485169482918691167f8c5be1e5ebec7d5bd14f71427d1e84f3dd0314c0f7b2291e5b200ac8c7c3b9258880a48452602052822080546001600160a01b031916909117905580f35b835163a9fbf51f60e01b81523381850152602490fd5b506001600160a01b03811686526005602090815284872033885290528386205460ff1615610eca565b506001600160a01b038116331415610ec4565b50346101dd5760203660031901126101dd57918260209335610f9181611753565b50825283528190205490516001600160a01b039091168152f35b505034610282578160031936011261028257805190828054610fcc8161133f565b808552916001918083169081156104cb5750600114610ff75750505061045d826102b6940383611282565b80809650527f290decd9548b62a8d60345a988386fc84ba6bc95484008f6362f93160ef3e5635b82861061103b5750505061045d8260206102b6958201019461044b565b8054602087870181019190915290950194810161101e565b50346101dd5760203660031901126101dd57359063ffffffff60e01b82168092036101dd5760209250632483248360e11b8214918215611097575b50519015158152f35b9091506380ac58cd60e01b81149081156110cc575b81156110bb575b50903861108e565b6301ffc9a760e01b149050386110b3565b635b5e139f60e01b811491506110ac565b50346101dd5760203660031901126101dd5735808352600260209081528284205490936001600160a01b0392849261111890851615156120c8565b8152600d85522054169051908152f35b60005b83811061113b5750506000910152565b818101518382015260200161112b565b9060209161116481518092818552858086019101611128565b601f01601f1916010190565b600435906001600160a01b038216820361118657565b600080fd5b602435906001600160a01b038216820361118657565b9181601f84011215611186578235916001600160401b038311611186576020838186019501011161118657565b9060406003198301126111865760043591602435906001600160401b038211611186576111fd916004016111a1565b9091565b6060906003190112611186576001600160a01b0390600435828116810361118657916024359081168103611186579060443590565b604081019081106001600160401b0382111761125157604052565b634e487b7160e01b600052604160045260246000fd5b602081019081106001600160401b0382111761125157604052565b90601f801991011681019081106001600160401b0382111761125157604052565b6001600160401b03811161125157601f01601f191660200190565b9291926112ca826112a3565b916112d86040519384611282565b829481845281830111611186578281602093846000960137010152565b9080601f8301121561118657816020611310933591016112be565b90565b6007546001600160a01b0316330361132757565b60405163118cdaa760e01b8152336004820152602490fd5b90600182811c9216801561136f575b602083101461135957565b634e487b7160e01b600052602260045260246000fd5b91607f169161134e565b906000929180549161138a8361133f565b9182825260019384811690816000146113ec57506001146113ac575b50505050565b90919394506000526020928360002092846000945b8386106113d85750505050010190388080806113a6565b8054858701830152940193859082016113c1565b9294505050602093945060ff191683830152151560051b010190388080806113a6565b6001600160a01b0391821692909183156115e65760009282845282602095600287526040968488882054161515806115de575b61156c575b8287526002815284888820541696879133611515575b9060027fddf252ad1be2c89b69c2b068fc378daa952ba7f163c4a11628f55a4df523b3ef92846114e2575b858352600381528b8320805460010190558683525289812080546001600160a01b0319168517905580a416928383036114c15750505050565b6064945051926364283d7b60e01b8452600484015260248301526044820152fd5b600087815260046020526040902080546001600160a01b0319169055848352600381528b83208054600019019055611488565b91509192611524903389612040565b1561153357859291879161145d565b878688611550576024915190637e27328960e01b82526004820152fd5b604491519063177e802f60e01b82523360048301526024820152fd5b600d81528787206001600160601b0360a01b815416905560008051602061248e8339815191528360008051602061246e8339815191526115d68b518b86820152601481526115b981611236565b6a1859d95b9d15d85b1b195d60aa1b8d51528c5191829182611d90565b0390a3611447565b506001611442565b604051633250574960e11b815260006004820152602490fd5b92909261160d83858361140f565b833b6116195750505050565b604051630a85bd0160e11b8082523360048301526001600160a01b039283166024830152604482019490945260806064820152949316926020929091859061166590608483019061114b565b039483816000978189895af186918161170f575b506116da575050503d6000146116d1573d611693816112a3565b906116a16040519283611282565b81528093823d92013e5b825192836116cc57604051633250574960e11b815260048101849052602490fd5b019050fd5b606092506116ab565b919450915063ffffffff60e01b16036116f75750388080806113a6565b60249060405190633250574960e11b82526004820152fd5b9091508481813d831161174c575b6117278183611282565b8101031261174857516001600160e01b031981168103611748579038611679565b8680fd5b503d61171d565b6000818152600260205260409020546001600160a01b0316908115611776575090565b60249060405190637e27328960e01b82526004820152fd5b60ff81146117cc5760ff811690601f82116117ba57604051916117b083611236565b8252602082015290565b604051632cd44ac360e21b8152600490fd5b506040516008548160006117df8361133f565b808352926001908181169081156118655750600114611806575b5061131092500382611282565b6008600090815291507ff3f7a9fe364faab93b216da50a3214154f22a0a2b415b23a84c8169e8b636ee35b84831061184a57506113109350508101602001386117f9565b81935090816020925483858901015201910190918492611831565b90506020925061131094915060ff191682840152151560051b820101386117f9565b60ff81146118a95760ff811690601f82116117ba57604051916117b083611236565b506040516009548160006118bc8361133f565b8083529260019081811690811561186557506001146118e2575061131092500382611282565b6009600090815291507f6e1540171b6c0c960b71a7020d9f60077f6af931a8bbf590da0223dacf75c7af5b84831061192657506113109350508101602001386117f9565b8193509081602092548385890101520191019091849261190d565b909161194b611fbf565b600b5461195781611d6b565b600b5533156115e6576000938185526020926002845260018060a01b0390604091808389205416151580611d63575b611cf1575b84885260028652828820541680151580611cbe575b33895260038752838920600181540190558589526002875285848a20926001600160601b0360a01b93338582541617905533907fddf252ad1be2c89b69c2b068fc378daa952ba7f163c4a11628f55a4df523b3ef8c80a4611ca65790611a709392918751611c97575b858952600d875282892090339082541617905560008051602061248e8339815191528583513360601b8982015260148152611a4381611236565b6a1859d95b9d15d85b1b195d60aa1b85515284518060008051602061246e83398151915298899382611d90565b0390a3875b8351811015611c4d57611ab760ff611aa589611a918589611dc3565b515181885193828580945193849201611128565b8101600e815203019020541615611ded565b86611ac28286611dc3565b51015190868a52600c8852611af388858c20611ade8489611dc3565b51519082885194838680955193849201611128565b82019081520301902082516001600160401b038111611c3957611b2081611b1a845461133f565b84611e39565b898c601f8311600114611bcf5790611bbf9583611bc4575b50508160011b916000199060031b1c19161790555b611b578186611dc3565b51518787611baa88611bb78d611b9381611b7d8a611b758188611dc3565b515196611dc3565b51015197828d5192828480945193849201611128565b8101039020968b519485948d86528d86019061114b565b918483039085015261114b565b0390a3611d6b565b611a75565b015190503880611b38565b91929394601f1984168584528c8420935b8d828210611c23575050916001939185611bbf9897969410611c0a575b505050811b019055611b4d565b015160001960f88460031b161c19169055388080611bfd565b6001859682939686015181550195019301611be0565b634e487b7160e01b8c52604160045260248cfd5b5096507fca52e62c367d81bb2e328eb795f7c7ba24afb478408a26c0e201d155c449bc4a9250611c8c915094839551918291868352339683019061114b565b0390a3906001600a55565b611ca18887611e8d565b611a09565b82516339e3563760e11b815260048101899052602490fd5b600086815260046020526040902080546001600160a01b03191690558189526003875283892080546000190190556119a0565b600d86528288206001600160601b0360a01b815416905560008051602061248e8339815191528560008051602061246e833981519152611d5b86518c8b82015260148152611d3e81611236565b6a1859d95b9d15d85b1b195d60aa1b885152875191829182611d90565b0390a361198b565b506001611986565b6000198114611d7a5760010190565b634e487b7160e01b600052601160045260246000fd5b9060806113109260408152600b60408201526a1859d95b9d15d85b1b195d60aa1b6060820152816020820152019061114b565b8051821015611dd75760209160051b010190565b634e487b7160e01b600052603260045260246000fd5b15611df457565b60405162461bcd60e51b815260206004820152601760248201527f43616e6e6f7420736574207265736572766564206b65790000000000000000006044820152606490fd5b90601f8111611e4757505050565b600091825260208220906020601f850160051c83019410611e83575b601f0160051c01915b828110611e7857505050565b818155600101611e6c565b9092508290611e63565b9190916000908082526020916006835260408120908551906001600160401b038211611fab57611ec782611ec1855461133f565b85611e39565b8490601f8311600114611f2757907ff8e1a15aba9398e019f0b49df1a4fde98ee17ae345cb5f6b5e2c27f5033e8ce7969783611f1c575b50508160011b916000199060031b1c19161790555b604051908152a1565b015190503880611efe565b9196601f198816848452868420935b818110611f9457509160019391897ff8e1a15aba9398e019f0b49df1a4fde98ee17ae345cb5f6b5e2c27f5033e8ce7999a9410611f7b575b505050811b019055611f13565b015160001960f88460031b161c19169055388080611f6e565b929387600181928786015181550195019301611f36565b634e487b7160e01b81526041600452602490fd5b6002600a5414611fd0576002600a55565b604051633ee5aeb560e01b8152600490fd5b15611fe957565b60405162461bcd60e51b815260206004820152600e60248201526d139bdd08185d5d1a1bdc9a5e995960921b6044820152606490fd5b908060209392818452848401376000828201840152601f01601f1916010190565b6001600160a01b03918216801515939290918461205f575b5050505090565b819293945016928284149384156120a1575b508315612085575b50505038808080612058565b9091925060005260046020526040600020541614388080612079565b909350600052600560205260406000208260005260205260ff604060002054169238612071565b156120cf57565b60405162461bcd60e51b81526020600482015260146024820152731059d95b9d08191bd95cc81b9bdd08195e1a5cdd60621b6044820152606490fd5b6020919283604051948593843782019081520301902090565b91600083815260206002815260409461214960018060a01b03878520541615156120c8565b60008051602061248e8339815191526121633686886112be565b8381519101206a1859d95b9d15d85b1b195d60aa1b84895161218481611236565b600b81520152146121bd57928583600c61131097946121b699976121ab975252209161210b565b905192838092611379565b0382611282565b8252600d81529084902054935160609490941b6bffffffffffffffffffffffff19169084015250506014815261131081611236565b81519190604183036122235761221c92506020820151906060604084015193015160001a9061222e565b9192909190565b505060009160029190565b91907f7fffffffffffffffffffffffffffffff5d576e7357a4501ddfe92f46681b20a084116122b257926020929160ff608095604051948552168484015260408301526060820152600092839182805260015afa156122a65780516001600160a01b0381161561229d57918190565b50809160019190565b604051903d90823e3d90fd5b50505060009160039190565b600481101561232d57806122d0575050565b600181036122ea5760405163f645eedf60e01b8152600490fd5b6002810361230b5760405163fce698f760e01b815260048101839052602490fd5b6003146123155750565b602490604051906335e2f38360e21b82526004820152fd5b634e487b7160e01b600052602160045260246000fd5b307f00000000000000000000000000000000000000000000000000000000000000006001600160a01b03161480612444575b1561239e577f000000000000000000000000000000000000000000000000000000000000000090565b60405160208101907f8b73c3c69bb8fe3d512ecc4cf759cc79239f7b179b0ffacaa9a75d522b39400f82527f000000000000000000000000000000000000000000000000000000000000000060408201527f000000000000000000000000000000000000000000000000000000000000000060608201524660808201523060a082015260a0815260c081018181106001600160401b038211176112515760405251902090565b507f0000000000000000000000000000000000000000000000000000000000000000461461237556fe2c149ed548c6d2993cd73efe187df6eccabe4538091b33adbd25fafdb8a1468b2ac6109326e720d1435c0db66f7e35eda7839f52b6f1f5520a60788e132b4e39a26469706673582212206b4125b51de1f1bc6a3f9e1c599c6f9a334b6a8c72e62a2febad59f2a04fbe5c64736f6c63430008140033","opcodes":"PUSH2 0x160 PUSH1 0x40 MSTORE CALLVALUE PUSH3 0x57A JUMPI PUSH3 0x18 PUSH2 0x160 PUSH3 0x57F JUMP JUMPDEST PUSH1 0x10 PUSH2 0x160 MSTORE PUSH16 0x4964656E746974795265676973747279 PUSH1 0x80 SHL PUSH2 0x180 MSTORE PUSH1 0x40 MLOAD PUSH3 0x44 DUP2 PUSH3 0x57F JUMP JUMPDEST PUSH1 0x1 DUP2 MSTORE PUSH1 0x20 DUP2 ADD SWAP1 PUSH1 0x31 PUSH1 0xF8 SHL DUP3 MSTORE PUSH1 0x40 MLOAD SWAP2 PUSH3 0x63 DUP4 PUSH3 0x57F JUMP JUMPDEST PUSH1 0xD DUP4 MSTORE PUSH13 0x4167656E744964656E74697479 PUSH1 0x98 SHL PUSH1 0x20 DUP5 ADD MSTORE PUSH1 0x40 MLOAD SWAP3 PUSH3 0x8C DUP5 PUSH3 0x57F JUMP JUMPDEST PUSH1 0x5 DUP5 MSTORE PUSH5 0x1051D15395 PUSH1 0xDA SHL PUSH1 0x20 DUP6 ADD MSTORE DUP1 MLOAD PUSH1 0x1 PUSH1 0x1 PUSH1 0x40 SHL SUB DUP2 GT PUSH3 0x353 JUMPI PUSH1 0x0 SLOAD SWAP2 PUSH1 0x1 DUP4 DUP2 SHR SWAP4 AND DUP1 ISZERO PUSH3 0x56F JUMPI JUMPDEST PUSH1 0x20 DUP5 LT EQ PUSH3 0x463 JUMPI DUP2 SWAP1 PUSH1 0x1F SWAP4 DUP5 DUP2 GT PUSH3 0x519 JUMPI JUMPDEST POP PUSH1 0x20 SWAP1 DUP5 DUP4 GT PUSH1 0x1 EQ PUSH3 0x490 JUMPI PUSH1 0x0 SWAP3 PUSH3 0x484 JUMPI JUMPDEST POP POP DUP2 PUSH1 0x1 SHL SWAP2 PUSH1 0x0 NOT SWAP1 PUSH1 0x3 SHL SHR NOT AND OR PUSH1 0x0 SSTORE JUMPDEST DUP4 MLOAD SWAP1 PUSH1 0x1 PUSH1 0x1 PUSH1 0x40 SHL SUB DUP3 GT PUSH3 0x353 JUMPI PUSH1 0x1 SLOAD PUSH1 0x1 DUP2 DUP2 SHR SWAP2 AND DUP1 ISZERO PUSH3 0x479 JUMPI JUMPDEST PUSH1 0x20 DUP3 LT EQ PUSH3 0x463 JUMPI DUP2 DUP2 GT PUSH3 0x418 JUMPI JUMPDEST POP PUSH1 0x20 SWAP1 DUP3 GT PUSH1 0x1 EQ PUSH3 0x38E JUMPI DUP2 SWAP3 SWAP4 SWAP5 PUSH1 0x0 SWAP3 PUSH3 0x382 JUMPI JUMPDEST POP POP DUP2 PUSH1 0x1 SHL SWAP2 PUSH1 0x0 NOT SWAP1 PUSH1 0x3 SHL SHR NOT AND OR PUSH1 0x1 SSTORE JUMPDEST CALLER ISZERO PUSH3 0x369 JUMPI PUSH1 0x7 DUP1 SLOAD CALLER PUSH1 0x1 PUSH1 0x1 PUSH1 0xA0 SHL SUB NOT DUP3 AND DUP2 OR SWAP1 SWAP3 SSTORE PUSH1 0x1 PUSH1 0x1 PUSH1 0xA0 SHL SUB AND PUSH32 0x8BE0079C531659141344CD1FD0A4F28419497F9722A3DAAFE3B4186F6B6457E0 PUSH1 0x0 DUP1 LOG3 PUSH3 0x1C7 PUSH2 0x160 PUSH3 0x59B JUMP JUMPDEST SWAP1 PUSH2 0x120 SWAP2 DUP3 MSTORE PUSH3 0x1D9 DUP4 PUSH3 0x762 JUMP JUMPDEST SWAP1 PUSH2 0x140 SWAP2 DUP3 MSTORE PUSH2 0x160 MLOAD PUSH1 0x20 PUSH2 0x160 ADD KECCAK256 SWAP4 DUP5 PUSH1 0xE0 MSTORE MLOAD SWAP1 KECCAK256 SWAP3 PUSH2 0x100 SWAP4 DUP1 DUP6 MSTORE CHAINID PUSH1 0xA0 MSTORE PUSH1 0x40 MLOAD SWAP1 PUSH1 0x20 DUP3 ADD SWAP3 PUSH32 0x8B73C3C69BB8FE3D512ECC4CF759CC79239F7B179B0FFACAA9A75D522B39400F DUP5 MSTORE PUSH1 0x40 DUP4 ADD MSTORE PUSH1 0x60 DUP3 ADD MSTORE CHAINID PUSH1 0x80 DUP3 ADD MSTORE ADDRESS PUSH1 0xA0 DUP3 ADD MSTORE PUSH1 0xA0 DUP2 MSTORE PUSH1 0xC0 DUP2 ADD SWAP1 DUP1 DUP3 LT PUSH1 0x1 DUP1 PUSH1 0x40 SHL SUB DUP4 GT OR PUSH3 0x353 JUMPI PUSH1 0xCB PUSH1 0xE SWAP2 PUSH1 0x2B SWAP5 DUP5 PUSH1 0x40 MSTORE DUP2 MLOAD SWAP1 KECCAK256 PUSH1 0x80 MSTORE ADDRESS PUSH1 0xC0 MSTORE PUSH1 0x1 PUSH1 0xA SSTORE PUSH1 0x1 PUSH1 0xB SSTORE PUSH11 0x1859D95B9D15D85B1B195D PUSH1 0xAA SHL DUP5 MSTORE ADD MSTORE KECCAK256 PUSH1 0xFF NOT SWAP1 PUSH1 0x1 DUP3 DUP3 SLOAD AND OR SWAP1 SSTORE PUSH1 0x28 PUSH1 0x40 MLOAD PUSH8 0x1D995C9A599A5959 PUSH1 0xC2 SHL DUP2 MSTORE PUSH1 0xE PUSH1 0x8 DUP3 ADD MSTORE KECCAK256 PUSH1 0x1 DUP3 DUP3 SLOAD AND OR SWAP1 SSTORE PUSH1 0x27 PUSH1 0x40 MLOAD PUSH7 0x1D1C9D5CDD1959 PUSH1 0xCA SHL DUP2 MSTORE PUSH1 0xE PUSH1 0x7 DUP3 ADD MSTORE KECCAK256 PUSH1 0x1 DUP3 DUP3 SLOAD AND OR SWAP1 SSTORE PUSH1 0x1 PUSH1 0x28 PUSH1 0x40 MLOAD PUSH8 0x1BD9999A58DA585B PUSH1 0xC2 SHL DUP2 MSTORE PUSH1 0xE PUSH1 0x8 DUP3 ADD MSTORE KECCAK256 SWAP2 DUP3 SLOAD AND OR SWAP1 SSTORE PUSH1 0x40 MLOAD SWAP2 PUSH2 0x24E3 SWAP4 DUP5 PUSH3 0x91B DUP6 CODECOPY PUSH1 0x80 MLOAD DUP5 PUSH2 0x237C ADD MSTORE PUSH1 0xA0 MLOAD DUP5 PUSH2 0x2447 ADD MSTORE PUSH1 0xC0 MLOAD DUP5 PUSH2 0x2346 ADD MSTORE PUSH1 0xE0 MLOAD DUP5 PUSH2 0x23CB ADD MSTORE MLOAD DUP4 PUSH2 0x23F1 ADD MSTORE MLOAD DUP3 PUSH2 0x6AC ADD MSTORE MLOAD DUP2 PUSH2 0x6D5 ADD MSTORE RETURN JUMPDEST PUSH4 0x4E487B71 PUSH1 0xE0 SHL PUSH1 0x0 MSTORE PUSH1 0x41 PUSH1 0x4 MSTORE PUSH1 0x24 PUSH1 0x0 REVERT JUMPDEST PUSH1 0x40 MLOAD PUSH4 0x1E4FBDF7 PUSH1 0xE0 SHL DUP2 MSTORE PUSH1 0x0 PUSH1 0x4 DUP3 ADD MSTORE PUSH1 0x24 SWAP1 REVERT JUMPDEST ADD MLOAD SWAP1 POP CODESIZE DUP1 PUSH3 0x15A JUMP JUMPDEST PUSH1 0x1 PUSH1 0x0 SWAP1 DUP2 MSTORE PUSH32 0xB10E2D527612073B26EECDFD717E6A320CF44B4AFAC2B0732D9FCBE2B7FA0CF6 SWAP2 SWAP1 PUSH1 0x1F NOT DUP5 AND SWAP1 JUMPDEST DUP2 DUP2 LT PUSH3 0x3FF JUMPI POP SWAP6 DUP4 PUSH1 0x1 SWAP6 SWAP7 SWAP8 LT PUSH3 0x3E5 JUMPI JUMPDEST POP POP POP DUP2 SHL ADD PUSH1 0x1 SSTORE PUSH3 0x170 JUMP JUMPDEST ADD MLOAD PUSH1 0x0 NOT PUSH1 0xF8 DUP5 PUSH1 0x3 SHL AND SHR NOT AND SWAP1 SSTORE CODESIZE DUP1 DUP1 PUSH3 0x3D6 JUMP JUMPDEST SWAP2 SWAP3 PUSH1 0x20 PUSH1 0x1 DUP2 SWAP3 DUP7 DUP12 ADD MLOAD DUP2 SSTORE ADD SWAP5 ADD SWAP3 ADD PUSH3 0x3BF JUMP JUMPDEST PUSH1 0x1 PUSH1 0x0 MSTORE PUSH1 0x20 PUSH1 0x0 KECCAK256 DUP3 DUP1 DUP6 ADD PUSH1 0x5 SHR DUP3 ADD SWAP3 PUSH1 0x20 DUP7 LT PUSH3 0x459 JUMPI JUMPDEST ADD PUSH1 0x5 SHR ADD SWAP1 JUMPDEST DUP2 DUP2 LT PUSH3 0x44C JUMPI POP PUSH3 0x13F JUMP JUMPDEST PUSH1 0x0 DUP2 SSTORE PUSH1 0x1 ADD PUSH3 0x43D JUMP JUMPDEST SWAP3 POP DUP2 SWAP3 PUSH3 0x436 JUMP JUMPDEST PUSH4 0x4E487B71 PUSH1 0xE0 SHL PUSH1 0x0 MSTORE PUSH1 0x22 PUSH1 0x4 MSTORE PUSH1 0x24 PUSH1 0x0 REVERT JUMPDEST SWAP1 PUSH1 0x7F AND SWAP1 PUSH3 0x12C JUMP JUMPDEST ADD MLOAD SWAP1 POP CODESIZE DUP1 PUSH3 0xF2 JUMP JUMPDEST PUSH1 0x0 DUP1 DUP1 MSTORE PUSH32 0x290DECD9548B62A8D60345A988386FC84BA6BC95484008F6362F93160EF3E563 SWAP4 POP PUSH1 0x1F NOT DUP6 AND SWAP1 JUMPDEST DUP2 DUP2 LT PUSH3 0x500 JUMPI POP SWAP1 DUP5 PUSH1 0x1 SWAP6 SWAP5 SWAP4 SWAP3 LT PUSH3 0x4E6 JUMPI JUMPDEST POP POP POP DUP2 SHL ADD PUSH1 0x0 SSTORE PUSH3 0x108 JUMP JUMPDEST ADD MLOAD PUSH1 0x0 NOT PUSH1 0xF8 DUP5 PUSH1 0x3 SHL AND SHR NOT AND SWAP1 SSTORE CODESIZE DUP1 DUP1 PUSH3 0x4D7 JUMP JUMPDEST SWAP3 SWAP4 PUSH1 0x20 PUSH1 0x1 DUP2 SWAP3 DUP8 DUP7 ADD MLOAD DUP2 SSTORE ADD SWAP6 ADD SWAP4 ADD PUSH3 0x4BF JUMP JUMPDEST SWAP1 SWAP2 POP PUSH1 0x0 DUP1 MSTORE PUSH1 0x20 PUSH1 0x0 KECCAK256 DUP5 DUP1 DUP6 ADD PUSH1 0x5 SHR DUP3 ADD SWAP3 PUSH1 0x20 DUP7 LT PUSH3 0x565 JUMPI JUMPDEST SWAP1 DUP6 SWAP5 SWAP4 SWAP3 SWAP2 ADD PUSH1 0x5 SHR ADD SWAP1 JUMPDEST DUP2 DUP2 LT PUSH3 0x555 JUMPI POP PUSH3 0xDA JUMP JUMPDEST PUSH1 0x0 DUP2 SSTORE DUP5 SWAP4 POP PUSH1 0x1 ADD PUSH3 0x546 JUMP JUMPDEST SWAP3 POP DUP2 SWAP3 PUSH3 0x539 JUMP JUMPDEST SWAP3 PUSH1 0x7F AND SWAP3 PUSH3 0xC2 JUMP JUMPDEST PUSH1 0x0 DUP1 REVERT JUMPDEST PUSH1 0x40 DUP2 ADD SWAP1 DUP2 LT PUSH1 0x1 PUSH1 0x1 PUSH1 0x40 SHL SUB DUP3 GT OR PUSH3 0x353 JUMPI PUSH1 0x40 MSTORE JUMP JUMPDEST DUP1 MLOAD PUSH1 0x20 SWAP1 DUP2 DUP2 LT ISZERO PUSH3 0x638 JUMPI POP PUSH1 0x1F DUP3 MLOAD GT PUSH3 0x5D7 JUMPI DUP1 DUP3 MLOAD SWAP3 ADD MLOAD SWAP1 DUP1 DUP4 LT PUSH3 0x5C8 JUMPI POP OR SWAP1 JUMP JUMPDEST DUP3 PUSH1 0x0 NOT SWAP2 SUB PUSH1 0x3 SHL SHL AND OR SWAP1 JUMP JUMPDEST SWAP1 PUSH1 0x40 MLOAD DUP1 SWAP3 PUSH4 0x305A27A9 PUSH1 0xE0 SHL DUP3 MSTORE DUP1 PUSH1 0x4 DUP4 ADD MSTORE DUP3 MLOAD SWAP1 DUP2 PUSH1 0x24 DUP5 ADD MSTORE PUSH1 0x0 SWAP4 JUMPDEST DUP3 DUP6 LT PUSH3 0x61E JUMPI POP POP PUSH1 0x44 SWAP3 POP PUSH1 0x0 DUP4 DUP3 DUP5 ADD ADD MSTORE PUSH1 0x1F DUP1 NOT SWAP2 ADD AND DUP2 ADD SUB ADD SWAP1 REVERT JUMPDEST DUP5 DUP2 ADD DUP3 ADD MLOAD DUP7 DUP7 ADD PUSH1 0x44 ADD MSTORE SWAP4 DUP2 ADD SWAP4 DUP6 SWAP4 POP PUSH3 0x5FA JUMP JUMPDEST SWAP1 PUSH1 0x1 PUSH1 0x1 PUSH1 0x40 SHL SUB DUP3 GT PUSH3 0x353 JUMPI PUSH1 0x8 SLOAD SWAP3 PUSH1 0x1 SWAP4 DUP5 DUP2 DUP2 SHR SWAP2 AND DUP1 ISZERO PUSH3 0x757 JUMPI JUMPDEST DUP4 DUP3 LT EQ PUSH3 0x463 JUMPI PUSH1 0x1F DUP2 GT PUSH3 0x71D JUMPI JUMPDEST POP DUP2 PUSH1 0x1F DUP5 GT PUSH1 0x1 EQ PUSH3 0x6B1 JUMPI POP SWAP3 DUP3 SWAP4 SWAP2 DUP4 SWAP3 PUSH1 0x0 SWAP5 PUSH3 0x6A5 JUMPI JUMPDEST POP POP SHL SWAP2 PUSH1 0x0 NOT SWAP1 PUSH1 0x3 SHL SHR NOT AND OR PUSH1 0x8 SSTORE PUSH1 0xFF SWAP1 JUMP JUMPDEST ADD MLOAD SWAP3 POP CODESIZE DUP1 PUSH3 0x68E JUMP JUMPDEST SWAP2 SWAP1 DUP4 PUSH1 0x1F NOT DUP2 AND PUSH1 0x8 PUSH1 0x0 MSTORE DUP5 PUSH1 0x0 KECCAK256 SWAP5 PUSH1 0x0 SWAP1 JUMPDEST DUP9 DUP4 DUP4 LT PUSH3 0x702 JUMPI POP POP POP LT PUSH3 0x6E8 JUMPI JUMPDEST POP POP POP DUP2 SHL ADD PUSH1 0x8 SSTORE PUSH1 0xFF SWAP1 JUMP JUMPDEST ADD MLOAD PUSH1 0x0 NOT PUSH1 0xF8 DUP5 PUSH1 0x3 SHL AND SHR NOT AND SWAP1 SSTORE CODESIZE DUP1 DUP1 PUSH3 0x6DA JUMP JUMPDEST DUP6 DUP8 ADD MLOAD DUP9 SSTORE SWAP1 SWAP7 ADD SWAP6 SWAP5 DUP6 ADD SWAP5 DUP8 SWAP4 POP SWAP1 DUP2 ADD SWAP1 PUSH3 0x6C7 JUMP JUMPDEST PUSH1 0x8 PUSH1 0x0 MSTORE DUP5 PUSH1 0x1F DUP5 PUSH1 0x0 KECCAK256 SWAP3 ADD PUSH1 0x5 SHR DUP3 ADD SWAP2 PUSH1 0x1F DUP7 ADD PUSH1 0x5 SHR ADD JUMPDEST DUP3 DUP2 LT PUSH3 0x74A JUMPI POP POP PUSH3 0x670 JUMP JUMPDEST PUSH1 0x0 DUP2 SSTORE ADD DUP6 SWAP1 PUSH3 0x73A JUMP JUMPDEST SWAP1 PUSH1 0x7F AND SWAP1 PUSH3 0x65D JUMP JUMPDEST DUP1 MLOAD PUSH1 0x20 SWAP1 DUP2 DUP2 LT ISZERO PUSH3 0x7F0 JUMPI POP PUSH1 0x1F DUP3 MLOAD GT PUSH3 0x78F JUMPI DUP1 DUP3 MLOAD SWAP3 ADD MLOAD SWAP1 DUP1 DUP4 LT PUSH3 0x5C8 JUMPI POP OR SWAP1 JUMP JUMPDEST SWAP1 PUSH1 0x40 MLOAD DUP1 SWAP3 PUSH4 0x305A27A9 PUSH1 0xE0 SHL DUP3 MSTORE DUP1 PUSH1 0x4 DUP4 ADD MSTORE DUP3 MLOAD SWAP1 DUP2 PUSH1 0x24 DUP5 ADD MSTORE PUSH1 0x0 SWAP4 JUMPDEST DUP3 DUP6 LT PUSH3 0x7D6 JUMPI POP POP PUSH1 0x44 SWAP3 POP PUSH1 0x0 DUP4 DUP3 DUP5 ADD ADD MSTORE PUSH1 0x1F DUP1 NOT SWAP2 ADD AND DUP2 ADD SUB ADD SWAP1 REVERT JUMPDEST DUP5 DUP2 ADD DUP3 ADD MLOAD DUP7 DUP7 ADD PUSH1 0x44 ADD MSTORE SWAP4 DUP2 ADD SWAP4 DUP6 SWAP4 POP PUSH3 0x7B2 JUMP JUMPDEST SWAP1 PUSH1 0x1 PUSH1 0x1 PUSH1 0x40 SHL SUB DUP3 GT PUSH3 0x353 JUMPI PUSH1 0x9 SLOAD SWAP3 PUSH1 0x1 SWAP4 DUP5 DUP2 DUP2 SHR SWAP2 AND DUP1 ISZERO PUSH3 0x90F JUMPI JUMPDEST DUP4 DUP3 LT EQ PUSH3 0x463 JUMPI PUSH1 0x1F DUP2 GT PUSH3 0x8D5 JUMPI JUMPDEST POP DUP2 PUSH1 0x1F DUP5 GT PUSH1 0x1 EQ PUSH3 0x869 JUMPI POP SWAP3 DUP3 SWAP4 SWAP2 DUP4 SWAP3 PUSH1 0x0 SWAP5 PUSH3 0x85D JUMPI JUMPDEST POP POP SHL SWAP2 PUSH1 0x0 NOT SWAP1 PUSH1 0x3 SHL SHR NOT AND OR PUSH1 0x9 SSTORE PUSH1 0xFF SWAP1 JUMP JUMPDEST ADD MLOAD SWAP3 POP CODESIZE DUP1 PUSH3 0x846 JUMP JUMPDEST SWAP2 SWAP1 DUP4 PUSH1 0x1F NOT DUP2 AND PUSH1 0x9 PUSH1 0x0 MSTORE DUP5 PUSH1 0x0 KECCAK256 SWAP5 PUSH1 0x0 SWAP1 JUMPDEST DUP9 DUP4 DUP4 LT PUSH3 0x8BA JUMPI POP POP POP LT PUSH3 0x8A0 JUMPI JUMPDEST POP POP POP DUP2 SHL ADD PUSH1 0x9 SSTORE PUSH1 0xFF SWAP1 JUMP JUMPDEST ADD MLOAD PUSH1 0x0 NOT PUSH1 0xF8 DUP5 PUSH1 0x3 SHL AND SHR NOT AND SWAP1 SSTORE CODESIZE DUP1 DUP1 PUSH3 0x892 JUMP JUMPDEST DUP6 DUP8 ADD MLOAD DUP9 SSTORE SWAP1 SWAP7 ADD SWAP6 SWAP5 DUP6 ADD SWAP5 DUP8 SWAP4 POP SWAP1 DUP2 ADD SWAP1 PUSH3 0x87F JUMP JUMPDEST PUSH1 0x9 PUSH1 0x0 MSTORE DUP5 PUSH1 0x1F DUP5 PUSH1 0x0 KECCAK256 SWAP3 ADD PUSH1 0x5 SHR DUP3 ADD SWAP2 PUSH1 0x1F DUP7 ADD PUSH1 0x5 SHR ADD JUMPDEST DUP3 DUP2 LT PUSH3 0x902 JUMPI POP POP PUSH3 0x828 JUMP JUMPDEST PUSH1 0x0 DUP2 SSTORE ADD DUP6 SWAP1 PUSH3 0x8F2 JUMP JUMPDEST SWAP1 PUSH1 0x7F AND SWAP1 PUSH3 0x815 JUMP INVALID PUSH1 0x40 PUSH1 0x80 DUP2 MSTORE PUSH1 0x4 SWAP1 DUP2 CALLDATASIZE LT ISZERO PUSH2 0x15 JUMPI PUSH1 0x0 DUP1 REVERT JUMPDEST PUSH1 0x0 SWAP2 DUP3 CALLDATALOAD PUSH1 0xE0 SHR DUP1 PUSH3 0x339509 EQ PUSH2 0x10DD JUMPI DUP1 PUSH4 0x1FFC9A7 EQ PUSH2 0x1053 JUMPI DUP1 PUSH4 0x6FDDE03 EQ PUSH2 0xFAB JUMPI DUP1 PUSH4 0x81812FC EQ PUSH2 0xF70 JUMPI DUP1 PUSH4 0x95EA7B3 EQ PUSH2 0xE94 JUMPI DUP1 PUSH4 0xAF28BD3 EQ PUSH2 0xE12 JUMPI DUP1 PUSH4 0x1AA3A008 EQ PUSH2 0xDD8 JUMPI DUP1 PUSH4 0x23B872DD EQ PUSH2 0xDC0 JUMPI DUP1 PUSH4 0x2D1EF5AE EQ PUSH2 0xB6A JUMPI DUP1 PUSH4 0x3FDDCF19 EQ PUSH2 0xAC4 JUMPI DUP1 PUSH4 0x42842E0E EQ PUSH2 0xA9B JUMPI DUP1 PUSH4 0x466648DA EQ PUSH2 0x8C2 JUMPI DUP1 PUSH4 0x6352211E EQ PUSH2 0x891 JUMPI DUP1 PUSH4 0x70A08231 EQ PUSH2 0x83C JUMPI DUP1 PUSH4 0x715018A6 EQ PUSH2 0x7DF JUMPI DUP1 PUSH4 0x7B17F2B0 EQ PUSH2 0x789 JUMPI DUP1 PUSH4 0x84B0196E EQ PUSH2 0x694 JUMPI DUP1 PUSH4 0x8AD78154 EQ PUSH2 0x63B JUMPI DUP1 PUSH4 0x8DA5CB5B EQ PUSH2 0x612 JUMPI DUP1 PUSH4 0x8EA42286 EQ PUSH2 0x4F3 JUMPI DUP1 PUSH4 0x95D89B41 EQ PUSH2 0x410 JUMPI DUP1 PUSH4 0xA22CB465 EQ PUSH2 0x373 JUMPI DUP1 PUSH4 0xB88D4FDE EQ PUSH2 0x31D JUMPI DUP1 PUSH4 0xC87B56DD EQ PUSH2 0x2BA JUMPI DUP1 PUSH4 0xCB4799F2 EQ PUSH2 0x286 JUMPI DUP1 PUSH4 0xE985E9C5 EQ PUSH2 0x234 JUMPI DUP1 PUSH4 0xF2C298BE EQ PUSH2 0x1E1 JUMPI PUSH4 0xF2FDE38B EQ PUSH2 0x154 JUMPI PUSH1 0x0 DUP1 REVERT JUMPDEST CALLVALUE PUSH2 0x1DD JUMPI PUSH1 0x20 CALLDATASIZE PUSH1 0x3 NOT ADD SLT PUSH2 0x1DD JUMPI PUSH2 0x16D PUSH2 0x1170 JUMP JUMPDEST SWAP1 PUSH2 0x176 PUSH2 0x1313 JUMP JUMPDEST PUSH1 0x1 PUSH1 0x1 PUSH1 0xA0 SHL SUB SWAP2 DUP3 AND SWAP3 DUP4 ISZERO PUSH2 0x1C7 JUMPI POP POP PUSH1 0x7 SLOAD DUP3 PUSH1 0x1 PUSH1 0x1 PUSH1 0x60 SHL SUB PUSH1 0xA0 SHL DUP3 AND OR PUSH1 0x7 SSTORE AND PUSH32 0x8BE0079C531659141344CD1FD0A4F28419497F9722A3DAAFE3B4186F6B6457E0 DUP4 DUP1 LOG3 DUP1 RETURN JUMPDEST MLOAD PUSH4 0x1E4FBDF7 PUSH1 0xE0 SHL DUP2 MSTORE SWAP1 DUP2 ADD DUP5 SWAP1 MSTORE PUSH1 0x24 SWAP1 REVERT JUMPDEST DUP3 DUP1 REVERT JUMPDEST POP CALLVALUE PUSH2 0x1DD JUMPI PUSH1 0x20 CALLDATASIZE PUSH1 0x3 NOT ADD SLT PUSH2 0x1DD JUMPI DUP1 CALLDATALOAD PUSH1 0x1 PUSH1 0x1 PUSH1 0x40 SHL SUB DUP2 GT PUSH2 0x230 JUMPI SWAP3 PUSH2 0x216 PUSH2 0x229 SWAP3 PUSH1 0x20 SWAP6 CALLDATASIZE SWAP2 ADD PUSH2 0x12F5 JUMP JUMPDEST DUP4 MLOAD SWAP2 PUSH2 0x222 DUP4 PUSH2 0x1267 JUMP JUMPDEST DUP3 MSTORE PUSH2 0x1941 JUMP JUMPDEST SWAP1 MLOAD SWAP1 DUP2 MSTORE RETURN JUMPDEST DUP4 DUP1 REVERT JUMPDEST POP POP CALLVALUE PUSH2 0x282 JUMPI DUP1 PUSH1 0x3 NOT CALLDATASIZE ADD SLT PUSH2 0x282 JUMPI PUSH1 0xFF DUP2 PUSH1 0x20 SWAP4 PUSH2 0x254 PUSH2 0x1170 JUMP JUMPDEST PUSH2 0x25C PUSH2 0x118B JUMP JUMPDEST PUSH1 0x1 PUSH1 0x1 PUSH1 0xA0 SHL SUB SWAP2 DUP3 AND DUP4 MSTORE PUSH1 0x5 DUP8 MSTORE DUP4 DUP4 KECCAK256 SWAP2 AND DUP3 MSTORE DUP6 MSTORE KECCAK256 SLOAD SWAP2 MLOAD SWAP2 AND ISZERO ISZERO DUP2 MSTORE RETURN JUMPDEST POP DUP1 REVERT JUMPDEST POP POP CALLVALUE PUSH2 0x282 JUMPI PUSH2 0x2B6 SWAP1 PUSH2 0x2A3 PUSH2 0x29D CALLDATASIZE PUSH2 0x11CE JUMP JUMPDEST SWAP2 PUSH2 0x2124 JUMP JUMPDEST SWAP1 MLOAD SWAP2 DUP3 SWAP2 PUSH1 0x20 DUP4 MSTORE PUSH1 0x20 DUP4 ADD SWAP1 PUSH2 0x114B JUMP JUMPDEST SUB SWAP1 RETURN JUMPDEST POP CALLVALUE PUSH2 0x1DD JUMPI PUSH1 0x20 CALLDATASIZE PUSH1 0x3 NOT ADD SLT PUSH2 0x1DD JUMPI SWAP1 PUSH2 0x2B6 SWAP3 PUSH2 0x2F8 SWAP3 CALLDATALOAD PUSH2 0x2DF DUP2 PUSH2 0x1753 JUMP JUMPDEST POP DUP2 MSTORE PUSH1 0x6 PUSH1 0x20 MSTORE PUSH2 0x2FF DUP3 DUP3 KECCAK256 DUP4 MLOAD SWAP5 DUP6 DUP1 SWAP3 PUSH2 0x1379 JUMP JUMPDEST SUB DUP5 PUSH2 0x1282 JUMP JUMPDEST DUP2 MLOAD PUSH2 0x30A DUP2 PUSH2 0x1267 JUMP JUMPDEST MSTORE MLOAD SWAP2 DUP3 SWAP2 PUSH1 0x20 DUP4 MSTORE PUSH1 0x20 DUP4 ADD SWAP1 PUSH2 0x114B JUMP JUMPDEST DUP4 DUP3 CALLVALUE PUSH2 0x282 JUMPI PUSH1 0x80 CALLDATASIZE PUSH1 0x3 NOT ADD SLT PUSH2 0x282 JUMPI PUSH2 0x338 PUSH2 0x1170 JUMP JUMPDEST PUSH2 0x340 PUSH2 0x118B JUMP JUMPDEST SWAP1 PUSH1 0x64 CALLDATALOAD PUSH1 0x1 PUSH1 0x1 PUSH1 0x40 SHL SUB DUP2 GT PUSH2 0x36F JUMPI PUSH2 0x36C SWAP4 PUSH2 0x362 SWAP2 CALLDATASIZE SWAP2 ADD PUSH2 0x12F5 JUMP JUMPDEST SWAP2 PUSH1 0x44 CALLDATALOAD SWAP2 PUSH2 0x15FF JUMP JUMPDEST DUP1 RETURN JUMPDEST DUP5 DUP1 REVERT JUMPDEST POP SWAP1 CALLVALUE PUSH2 0x1DD JUMPI DUP1 PUSH1 0x3 NOT CALLDATASIZE ADD SLT PUSH2 0x1DD JUMPI PUSH2 0x38D PUSH2 0x1170 JUMP JUMPDEST SWAP1 PUSH1 0x24 CALLDATALOAD SWAP2 DUP3 ISZERO ISZERO DUP1 SWAP4 SUB PUSH2 0x36F JUMPI PUSH1 0x1 PUSH1 0x1 PUSH1 0xA0 SHL SUB AND SWAP3 DUP4 ISZERO PUSH2 0x3FB JUMPI POP CALLER DUP5 MSTORE PUSH1 0x5 PUSH1 0x20 MSTORE DUP1 DUP5 KECCAK256 DUP4 DUP6 MSTORE PUSH1 0x20 MSTORE DUP1 DUP5 KECCAK256 PUSH1 0xFF NOT DUP2 SLOAD AND PUSH1 0xFF DUP5 AND OR SWAP1 SSTORE MLOAD SWAP1 DUP2 MSTORE PUSH32 0x17307EAB39AB6107E8899845AD3D59BD9653F200F220920489CA2B5937696C31 PUSH1 0x20 CALLER SWAP3 LOG3 DUP1 RETURN JUMPDEST DUP4 PUSH1 0x24 SWAP3 MLOAD SWAP2 PUSH4 0xB611743 PUSH1 0xE3 SHL DUP4 MSTORE DUP3 ADD MSTORE REVERT JUMPDEST POP POP CALLVALUE PUSH2 0x282 JUMPI DUP2 PUSH1 0x3 NOT CALLDATASIZE ADD SLT PUSH2 0x282 JUMPI DUP1 MLOAD SWAP1 DUP3 PUSH1 0x1 DUP1 SLOAD SWAP2 PUSH2 0x434 DUP4 PUSH2 0x133F JUMP JUMPDEST DUP1 DUP7 MSTORE SWAP3 DUP3 DUP2 AND SWAP1 DUP2 ISZERO PUSH2 0x4CB JUMPI POP PUSH1 0x1 EQ PUSH2 0x46F JUMPI JUMPDEST POP POP POP PUSH2 0x45D DUP3 PUSH2 0x2B6 SWAP5 SUB DUP4 PUSH2 0x1282 JUMP JUMPDEST MLOAD SWAP2 DUP3 SWAP2 PUSH1 0x20 DUP4 MSTORE PUSH1 0x20 DUP4 ADD SWAP1 PUSH2 0x114B JUMP JUMPDEST SWAP5 POP DUP1 DUP6 MSTORE PUSH32 0xB10E2D527612073B26EECDFD717E6A320CF44B4AFAC2B0732D9FCBE2B7FA0CF6 JUMPDEST DUP3 DUP7 LT PUSH2 0x4B3 JUMPI POP POP POP PUSH2 0x45D DUP3 PUSH1 0x20 PUSH2 0x2B6 SWAP6 DUP3 ADD ADD SWAP5 PUSH2 0x44B JUMP JUMPDEST DUP1 SLOAD PUSH1 0x20 DUP8 DUP8 ADD DUP2 ADD SWAP2 SWAP1 SWAP2 MSTORE SWAP1 SWAP6 ADD SWAP5 DUP2 ADD PUSH2 0x496 JUMP JUMPDEST PUSH2 0x2B6 SWAP8 POP DUP7 SWAP4 POP PUSH1 0x20 SWAP3 POP PUSH2 0x45D SWAP5 SWAP2 POP PUSH1 0xFF NOT AND DUP3 DUP5 ADD MSTORE ISZERO ISZERO PUSH1 0x5 SHL DUP3 ADD ADD SWAP5 PUSH2 0x44B JUMP JUMPDEST POP SWAP2 SWAP1 CALLVALUE PUSH2 0x282 JUMPI DUP1 PUSH1 0x3 NOT CALLDATASIZE ADD SLT PUSH2 0x282 JUMPI PUSH1 0x1 PUSH1 0x1 PUSH1 0x40 SHL SUB DUP4 CALLDATALOAD DUP2 DUP2 GT PUSH2 0x230 JUMPI PUSH2 0x524 SWAP1 CALLDATASIZE SWAP1 DUP7 ADD PUSH2 0x12F5 JUMP JUMPDEST PUSH1 0x24 DUP1 CALLDATALOAD SWAP5 DUP4 DUP7 GT PUSH2 0x60F JUMPI CALLDATASIZE PUSH1 0x23 DUP8 ADD SLT ISZERO PUSH2 0x60F JUMPI DUP6 DUP8 ADD CALLDATALOAD SWAP7 DUP5 DUP9 GT PUSH2 0x5FF JUMPI POP DUP7 PUSH1 0x5 SHL SWAP2 DUP6 MLOAD SWAP5 PUSH1 0x20 SWAP9 PUSH2 0x55F DUP11 DUP7 ADD DUP9 PUSH2 0x1282 JUMP JUMPDEST DUP7 MSTORE DUP2 DUP10 DUP8 ADD SWAP5 DUP10 ADD ADD SWAP8 CALLDATASIZE DUP10 GT PUSH2 0x230 JUMPI DUP3 DUP2 ADD SWAP5 JUMPDEST DUP10 DUP7 LT PUSH2 0x589 JUMPI DUP11 DUP10 PUSH2 0x229 DUP11 DUP11 PUSH2 0x1941 JUMP JUMPDEST DUP6 CALLDATALOAD DUP4 DUP2 GT PUSH2 0x5FB JUMPI DUP3 ADD DUP10 PUSH1 0x23 NOT DUP3 CALLDATASIZE SUB ADD SLT PUSH2 0x5FB JUMPI DUP10 MLOAD SWAP1 PUSH2 0x5AD DUP3 PUSH2 0x1236 JUMP JUMPDEST DUP6 DUP2 ADD CALLDATALOAD DUP6 DUP2 GT PUSH2 0x5F7 JUMPI PUSH2 0x5C7 SWAP1 DUP8 CALLDATASIZE SWAP2 DUP5 ADD ADD PUSH2 0x12F5 JUMP JUMPDEST DUP3 MSTORE PUSH1 0x44 DUP2 ADD CALLDATALOAD DUP6 DUP2 GT PUSH2 0x5F7 JUMPI SWAP2 PUSH2 0x5E8 DUP15 SWAP5 SWAP3 DUP9 DUP7 SWAP6 CALLDATASIZE SWAP3 ADD ADD PUSH2 0x12F5 JUMP JUMPDEST DUP4 DUP3 ADD MSTORE DUP2 MSTORE ADD SWAP6 ADD SWAP5 PUSH2 0x576 JUMP JUMPDEST DUP8 DUP1 REVERT JUMPDEST DUP6 DUP1 REVERT JUMPDEST PUSH4 0x4E487B71 PUSH1 0xE0 SHL DUP3 MSTORE PUSH1 0x41 SWAP1 MSTORE REVERT JUMPDEST DUP1 REVERT JUMPDEST POP POP CALLVALUE PUSH2 0x282 JUMPI DUP2 PUSH1 0x3 NOT CALLDATASIZE ADD SLT PUSH2 0x282 JUMPI PUSH1 0x7 SLOAD SWAP1 MLOAD PUSH1 0x1 PUSH1 0x1 PUSH1 0xA0 SHL SUB SWAP1 SWAP2 AND DUP2 MSTORE PUSH1 0x20 SWAP1 RETURN JUMPDEST POP CALLVALUE PUSH2 0x1DD JUMPI PUSH1 0x20 CALLDATASIZE PUSH1 0x3 NOT ADD SLT PUSH2 0x1DD JUMPI DUP1 CALLDATALOAD PUSH1 0x1 PUSH1 0x1 PUSH1 0x40 SHL SUB DUP2 GT PUSH2 0x230 JUMPI PUSH1 0x20 SWAP2 PUSH2 0x66C SWAP2 CALLDATASIZE SWAP2 ADD PUSH2 0x11A1 JUMP JUMPDEST DUP1 SWAP4 PUSH2 0x676 PUSH2 0x1313 JUMP JUMPDEST MLOAD SWAP4 DUP5 SWAP3 DUP4 CALLDATACOPY DUP2 ADD PUSH1 0xE DUP2 MSTORE SUB ADD SWAP1 KECCAK256 PUSH1 0x1 PUSH1 0xFF NOT DUP3 SLOAD AND OR SWAP1 SSTORE DUP1 RETURN JUMPDEST POP POP CALLVALUE PUSH2 0x282 JUMPI DUP2 PUSH1 0x3 NOT CALLDATASIZE ADD SLT PUSH2 0x282 JUMPI SWAP1 PUSH2 0x6D0 PUSH32 0x0 PUSH2 0x178E JUMP JUMPDEST PUSH2 0x6F9 PUSH32 0x0 PUSH2 0x1887 JUMP JUMPDEST SWAP2 DUP4 MLOAD SWAP2 PUSH2 0x706 DUP4 PUSH2 0x1267 JUMP JUMPDEST DUP2 DUP4 MSTORE PUSH2 0x73B DUP6 MLOAD SWAP6 DUP7 SWAP6 PUSH1 0xF PUSH1 0xF8 SHL DUP8 MSTORE PUSH2 0x72E PUSH1 0x20 SWAP5 PUSH1 0xE0 DUP7 DUP11 ADD MSTORE PUSH1 0xE0 DUP10 ADD SWAP1 PUSH2 0x114B JUMP JUMPDEST SWAP2 DUP8 DUP4 SUB SWAP1 DUP9 ADD MSTORE PUSH2 0x114B JUMP JUMPDEST SWAP1 CHAINID PUSH1 0x60 DUP7 ADD MSTORE ADDRESS PUSH1 0x80 DUP7 ADD MSTORE DUP3 PUSH1 0xA0 DUP7 ADD MSTORE DUP5 DUP3 SUB PUSH1 0xC0 DUP7 ADD MSTORE DUP1 DUP1 DUP6 MLOAD SWAP4 DUP5 DUP2 MSTORE ADD SWAP5 ADD SWAP3 JUMPDEST DUP3 DUP2 LT PUSH2 0x772 JUMPI POP POP POP POP SUB SWAP1 RETURN JUMPDEST DUP4 MLOAD DUP6 MSTORE DUP7 SWAP6 POP SWAP4 DUP2 ADD SWAP4 SWAP3 DUP2 ADD SWAP3 PUSH1 0x1 ADD PUSH2 0x763 JUMP JUMPDEST POP SWAP2 CALLVALUE PUSH2 0x60F JUMPI PUSH1 0x20 CALLDATASIZE PUSH1 0x3 NOT ADD SLT PUSH2 0x60F JUMPI DUP3 CALLDATALOAD SWAP1 PUSH1 0x1 PUSH1 0x1 PUSH1 0x40 SHL SUB DUP3 GT PUSH2 0x60F JUMPI POP PUSH1 0x20 PUSH2 0x7C0 DUP2 SWAP5 PUSH1 0xFF SWAP4 CALLDATASIZE SWAP2 ADD PUSH2 0x11A1 JUMP JUMPDEST SWAP2 SWAP1 DUP3 DUP6 MLOAD SWAP4 DUP5 SWAP3 DUP4 CALLDATACOPY DUP2 ADD PUSH1 0xE DUP2 MSTORE SUB ADD SWAP1 KECCAK256 SLOAD AND SWAP1 MLOAD SWAP1 ISZERO ISZERO DUP2 MSTORE RETURN JUMPDEST DUP4 CALLVALUE PUSH2 0x60F JUMPI DUP1 PUSH1 0x3 NOT CALLDATASIZE ADD SLT PUSH2 0x60F JUMPI PUSH2 0x7F8 PUSH2 0x1313 JUMP JUMPDEST PUSH1 0x7 DUP1 SLOAD PUSH1 0x1 PUSH1 0x1 PUSH1 0xA0 SHL SUB NOT DUP2 AND SWAP1 SWAP2 SSTORE DUP2 SWAP1 PUSH1 0x1 PUSH1 0x1 PUSH1 0xA0 SHL SUB AND PUSH32 0x8BE0079C531659141344CD1FD0A4F28419497F9722A3DAAFE3B4186F6B6457E0 DUP3 DUP1 LOG3 DUP1 RETURN JUMPDEST POP SWAP2 CALLVALUE PUSH2 0x60F JUMPI PUSH1 0x20 CALLDATASIZE PUSH1 0x3 NOT ADD SLT PUSH2 0x60F JUMPI PUSH1 0x1 PUSH1 0x1 PUSH1 0xA0 SHL SUB PUSH2 0x85F PUSH2 0x1170 JUMP JUMPDEST AND SWAP3 DUP4 ISZERO PUSH2 0x87C JUMPI POP DUP1 PUSH1 0x20 SWAP4 DUP4 SWAP3 MSTORE PUSH1 0x3 DUP5 MSTORE KECCAK256 SLOAD SWAP1 MLOAD SWAP1 DUP2 MSTORE RETURN JUMPDEST SWAP2 MLOAD PUSH4 0x22718AD9 PUSH1 0xE2 SHL DUP2 MSTORE SWAP2 DUP3 ADD MSTORE PUSH1 0x24 SWAP1 REVERT JUMPDEST POP SWAP2 CALLVALUE PUSH2 0x60F JUMPI PUSH1 0x20 CALLDATASIZE PUSH1 0x3 NOT ADD SLT PUSH2 0x60F JUMPI POP PUSH2 0x8B1 PUSH1 0x20 SWAP3 CALLDATALOAD PUSH2 0x1753 JUMP JUMPDEST SWAP1 MLOAD PUSH1 0x1 PUSH1 0x1 PUSH1 0xA0 SHL SUB SWAP1 SWAP2 AND DUP2 MSTORE RETURN JUMPDEST POP CALLVALUE PUSH2 0x1DD JUMPI PUSH1 0x60 CALLDATASIZE PUSH1 0x3 NOT ADD SLT PUSH2 0x1DD JUMPI DUP1 CALLDATALOAD SWAP1 PUSH1 0x24 CALLDATALOAD SWAP3 PUSH1 0x1 PUSH1 0x1 PUSH1 0x40 SHL SUB SWAP4 DUP5 DUP2 GT PUSH2 0x5FB JUMPI PUSH2 0x8F8 SWAP1 CALLDATASIZE SWAP1 DUP5 ADD PUSH2 0x11A1 JUMP JUMPDEST SWAP3 SWAP1 SWAP5 PUSH1 0x44 CALLDATALOAD DUP2 DUP2 GT PUSH2 0x5F7 JUMPI PUSH2 0x912 SWAP1 CALLDATASIZE SWAP1 DUP5 ADD PUSH2 0x11A1 JUMP JUMPDEST SWAP2 DUP7 DUP10 MSTORE PUSH1 0x20 SWAP4 PUSH1 0x2 DUP6 MSTORE PUSH2 0x93D PUSH2 0x938 DUP10 DUP13 DUP10 PUSH1 0x1 DUP1 PUSH1 0xA0 SHL SUB SWAP2 KECCAK256 SLOAD AND CALLER SWAP1 PUSH2 0x2040 JUMP JUMPDEST PUSH2 0x1FE2 JUMP JUMPDEST PUSH2 0x95D PUSH1 0xFF DUP8 MLOAD DUP10 DUP13 DUP3 CALLDATACOPY DUP8 DUP2 DUP12 DUP2 ADD PUSH1 0xE DUP2 MSTORE SUB ADD SWAP1 KECCAK256 SLOAD AND ISZERO PUSH2 0x1DED JUMP JUMPDEST DUP8 DUP11 MSTORE PUSH1 0xC DUP6 MSTORE PUSH2 0x971 DUP7 DUP12 KECCAK256 DUP9 DUP12 PUSH2 0x210B JUMP JUMPDEST SWAP2 DUP5 GT PUSH2 0xA88 JUMPI POP PUSH2 0x98D DUP4 PUSH2 0x987 DUP4 SLOAD PUSH2 0x133F JUMP JUMPDEST DUP4 PUSH2 0x1E39 JUMP JUMPDEST DUP9 PUSH1 0x1F DUP5 GT PUSH1 0x1 EQ PUSH2 0xA10 JUMPI SWAP2 DUP4 SWAP2 PUSH2 0x9FF SWAP5 PUSH1 0x0 DUP1 MLOAD PUSH1 0x20 PUSH2 0x246E DUP4 CODECOPY DUP2 MLOAD SWAP2 MSTORE SWAP9 SWAP8 SWAP7 SWAP5 DUP13 SWAP2 PUSH2 0xA05 JUMPI JUMPDEST POP DUP4 PUSH1 0x1 SHL SWAP1 PUSH1 0x0 NOT DUP6 PUSH1 0x3 SHL SHR NOT AND OR SWAP1 SSTORE JUMPDEST PUSH2 0x9F2 DUP6 MLOAD DUP8 DUP12 DUP3 CALLDATACOPY DUP1 DUP9 DUP2 ADD DUP14 DUP2 MSTORE SUB SWAP1 KECCAK256 SWAP10 DUP7 MLOAD SWAP8 DUP8 DUP10 SWAP9 DUP10 MSTORE DUP9 ADD SWAP2 PUSH2 0x201F JUMP JUMPDEST SWAP3 DUP6 DUP5 SUB SWAP1 DUP7 ADD MSTORE PUSH2 0x201F JUMP JUMPDEST SUB SWAP1 LOG3 DUP1 RETURN JUMPDEST SWAP1 POP DUP3 ADD CALLDATALOAD CODESIZE PUSH2 0x9BA JUMP JUMPDEST DUP2 DUP11 MSTORE DUP5 DUP11 KECCAK256 SWAP1 PUSH1 0x1F NOT DUP6 AND DUP12 JUMPDEST DUP2 DUP2 LT PUSH2 0xA71 JUMPI POP SWAP2 DUP6 SWAP4 SWAP2 PUSH2 0x9FF SWAP7 PUSH1 0x0 DUP1 MLOAD PUSH1 0x20 PUSH2 0x246E DUP4 CODECOPY DUP2 MLOAD SWAP2 MSTORE SWAP11 SWAP10 SWAP9 SWAP7 SWAP5 LT PUSH2 0xA57 JUMPI JUMPDEST POP POP PUSH1 0x1 DUP4 DUP2 SHL ADD SWAP1 SSTORE PUSH2 0x9CE JUMP JUMPDEST DUP4 ADD CALLDATALOAD PUSH1 0x0 NOT PUSH1 0x3 DUP7 SWAP1 SHL PUSH1 0xF8 AND SHR NOT AND SWAP1 SSTORE CODESIZE DUP1 PUSH2 0xA48 JUMP JUMPDEST SWAP2 SWAP3 DUP8 PUSH1 0x1 DUP2 SWAP3 DUP7 DUP10 ADD CALLDATALOAD DUP2 SSTORE ADD SWAP5 ADD SWAP3 ADD PUSH2 0xA1E JUMP JUMPDEST PUSH4 0x4E487B71 PUSH1 0xE0 SHL DUP11 MSTORE PUSH1 0x41 SWAP1 MSTORE PUSH1 0x24 DUP10 REVERT JUMPDEST POP POP CALLVALUE PUSH2 0x282 JUMPI PUSH2 0x36C SWAP1 PUSH2 0xAAF CALLDATASIZE PUSH2 0x1201 JUMP JUMPDEST SWAP2 SWAP3 MLOAD SWAP3 PUSH2 0xABC DUP5 PUSH2 0x1267 JUMP JUMPDEST DUP6 DUP5 MSTORE PUSH2 0x15FF JUMP JUMPDEST POP SWAP1 CALLVALUE PUSH2 0x1DD JUMPI PUSH1 0x20 CALLDATASIZE PUSH1 0x3 NOT ADD SLT PUSH2 0x1DD JUMPI PUSH1 0x0 DUP1 MLOAD PUSH1 0x20 PUSH2 0x246E DUP4 CODECOPY DUP2 MLOAD SWAP2 MSTORE PUSH2 0x9FF PUSH1 0x0 DUP1 MLOAD PUSH1 0x20 PUSH2 0x248E DUP4 CODECOPY DUP2 MLOAD SWAP2 MSTORE SWAP4 CALLDATALOAD SWAP3 DUP4 DUP7 MSTORE PUSH1 0x2 PUSH1 0x20 MSTORE PUSH2 0xB1D PUSH2 0x938 DUP6 PUSH1 0x1 DUP1 PUSH1 0xA0 SHL SUB DUP5 DUP11 KECCAK256 SLOAD AND CALLER SWAP1 PUSH2 0x2040 JUMP JUMPDEST DUP4 DUP7 MSTORE PUSH1 0xD PUSH1 0x20 MSTORE DUP1 DUP7 KECCAK256 PUSH1 0x1 PUSH1 0x1 PUSH1 0x60 SHL SUB PUSH1 0xA0 SHL DUP2 SLOAD AND SWAP1 SSTORE DUP1 MLOAD SWAP1 DUP7 PUSH1 0x20 DUP4 ADD MSTORE PUSH1 0x14 DUP3 MSTORE PUSH2 0xB4E DUP3 PUSH2 0x1236 JUMP JUMPDEST PUSH11 0x1859D95B9D15D85B1B195D PUSH1 0xAA SHL DUP2 MLOAD MSTORE MLOAD SWAP2 DUP3 SWAP2 DUP3 PUSH2 0x1D90 JUMP JUMPDEST POP CALLVALUE PUSH2 0x1DD JUMPI PUSH1 0x80 CALLDATASIZE PUSH1 0x3 NOT ADD SLT PUSH2 0x1DD JUMPI DUP1 CALLDATALOAD SWAP2 PUSH2 0xB87 PUSH2 0x118B JUMP JUMPDEST SWAP2 PUSH1 0x44 CALLDATALOAD SWAP1 PUSH1 0x1 PUSH1 0x1 PUSH1 0x40 SHL SUB SWAP1 PUSH1 0x64 CALLDATALOAD DUP3 DUP2 GT PUSH2 0x5F7 JUMPI PUSH2 0xBAD DUP6 SWAP2 CALLDATASIZE SWAP1 DUP5 ADD PUSH2 0x11A1 JUMP JUMPDEST SWAP1 PUSH2 0xBB6 PUSH2 0x1FBF JUMP JUMPDEST DUP9 DUP11 MSTORE PUSH1 0x20 SWAP6 PUSH1 0x2 DUP8 MSTORE PUSH2 0xBDC PUSH2 0x938 DUP12 DUP14 PUSH1 0x1 DUP1 PUSH1 0xA0 SHL SUB SWAP8 DUP9 SWAP2 KECCAK256 SLOAD AND CALLER SWAP1 PUSH2 0x2040 JUMP JUMPDEST DUP1 TIMESTAMP GT PUSH2 0xD89 JUMPI DUP4 DUP10 AND SWAP6 DUP7 ISZERO PUSH2 0xD4D JUMPI DUP9 MLOAD SWAP1 DUP9 DUP3 ADD SWAP3 PUSH32 0x225139E8B7C05DD59C88F8F995824B087598346A9CF21D8192CE391B602F82F4 DUP5 MSTORE DUP13 DUP12 DUP5 ADD MSTORE DUP9 PUSH1 0x60 DUP5 ADD MSTORE PUSH1 0x80 DUP4 ADD MSTORE PUSH1 0x80 DUP3 MSTORE PUSH1 0xA0 DUP3 ADD SWAP1 DUP3 DUP3 LT SWAP1 DUP3 GT OR PUSH2 0xD3A JUMPI PUSH2 0xC88 SWAP4 PUSH1 0x42 PUSH2 0xC7F SWAP5 DUP11 SWAP9 SWAP8 SWAP5 PUSH2 0xC79 SWAP5 DUP15 MSTORE MLOAD SWAP1 KECCAK256 PUSH2 0xC5A PUSH2 0x2343 JUMP JUMPDEST SWAP1 DUP14 MLOAD SWAP2 PUSH2 0x1901 PUSH1 0xF0 SHL DUP4 MSTORE PUSH1 0x2 DUP4 ADD MSTORE PUSH1 0x22 DUP3 ADD MSTORE KECCAK256 SWAP3 CALLDATASIZE SWAP2 PUSH2 0x12BE JUMP JUMPDEST SWAP1 PUSH2 0x21F2 JUMP JUMPDEST SWAP1 SWAP3 SWAP2 SWAP3 PUSH2 0x22BE JUMP JUMPDEST AND SUB PUSH2 0xD03 JUMPI POP DUP5 DUP7 MSTORE PUSH1 0xD DUP3 MSTORE DUP3 DUP7 KECCAK256 DUP1 SLOAD PUSH1 0x1 PUSH1 0x1 PUSH1 0xA0 SHL SUB NOT AND SWAP1 SWAP2 OR SWAP1 SSTORE DUP2 MLOAD PUSH1 0x60 SWAP4 SWAP1 SWAP4 SHL PUSH12 0xFFFFFFFFFFFFFFFFFFFFFFFF NOT AND SWAP1 DUP4 ADD MSTORE PUSH1 0x14 DUP3 MSTORE PUSH1 0x0 DUP1 MLOAD PUSH1 0x20 PUSH2 0x248E DUP4 CODECOPY DUP2 MLOAD SWAP2 MSTORE SWAP3 SWAP2 PUSH1 0x0 DUP1 MLOAD PUSH1 0x20 PUSH2 0x246E DUP4 CODECOPY DUP2 MLOAD SWAP2 MSTORE SWAP2 PUSH2 0xCF8 SWAP2 SWAP1 PUSH2 0xB4E DUP3 PUSH2 0x1236 JUMP JUMPDEST SUB SWAP1 LOG3 PUSH1 0x1 PUSH1 0xA SSTORE DUP1 RETURN JUMPDEST DUP4 MLOAD PUSH3 0x461BCD PUSH1 0xE5 SHL DUP2 MSTORE SWAP1 DUP2 ADD DUP4 SWAP1 MSTORE PUSH1 0x11 PUSH1 0x24 DUP3 ADD MSTORE PUSH17 0x496E76616C6964207369676E6174757265 PUSH1 0x78 SHL PUSH1 0x44 DUP3 ADD MSTORE PUSH1 0x64 SWAP1 REVERT JUMPDEST PUSH4 0x4E487B71 PUSH1 0xE0 SHL DUP14 MSTORE PUSH1 0x41 DUP8 MSTORE PUSH1 0x24 DUP14 REVERT JUMPDEST DUP9 MLOAD PUSH3 0x461BCD PUSH1 0xE5 SHL DUP2 MSTORE DUP1 DUP8 ADD DUP10 SWAP1 MSTORE PUSH1 0x16 PUSH1 0x24 DUP3 ADD MSTORE PUSH22 0x496E76616C69642077616C6C65742061646472657373 PUSH1 0x50 SHL PUSH1 0x44 DUP3 ADD MSTORE PUSH1 0x64 SWAP1 REVERT JUMPDEST DUP8 MLOAD PUSH3 0x461BCD PUSH1 0xE5 SHL DUP2 MSTORE DUP1 DUP7 ADD DUP9 SWAP1 MSTORE PUSH1 0x11 PUSH1 0x24 DUP3 ADD MSTORE PUSH17 0x14DA59DB985D1D5C9948195E1C1A5C9959 PUSH1 0x7A SHL PUSH1 0x44 DUP3 ADD MSTORE PUSH1 0x64 SWAP1 REVERT JUMPDEST DUP4 CALLVALUE PUSH2 0x60F JUMPI PUSH2 0x36C PUSH2 0xDD2 CALLDATASIZE PUSH2 0x1201 JUMP JUMPDEST SWAP2 PUSH2 0x140F JUMP JUMPDEST POP POP CALLVALUE PUSH2 0x282 JUMPI DUP2 PUSH1 0x3 NOT CALLDATASIZE ADD SLT PUSH2 0x282 JUMPI PUSH2 0x229 PUSH1 0x20 SWAP3 DUP3 MLOAD SWAP1 PUSH2 0xDFC DUP3 PUSH2 0x1267 JUMP JUMPDEST DUP1 DUP3 MSTORE DUP4 MLOAD SWAP1 PUSH2 0xE0B DUP3 PUSH2 0x1267 JUMP JUMPDEST DUP2 MSTORE PUSH2 0x1941 JUMP JUMPDEST POP POP CALLVALUE PUSH2 0x282 JUMPI PUSH2 0x9FF SWAP1 PUSH32 0x3A2C7FFFC2CBA7582C690E3B82C453EA02A308326A98A3AD7576C606336409FB PUSH2 0xE47 CALLDATASIZE PUSH2 0x11CE JUMP JUMPDEST SWAP5 SWAP2 SWAP4 DUP5 DUP8 MSTORE PUSH1 0x2 PUSH1 0x20 MSTORE PUSH2 0xE6C PUSH2 0x938 DUP7 PUSH1 0x1 DUP1 PUSH1 0xA0 SHL SUB DUP5 DUP12 KECCAK256 SLOAD AND CALLER SWAP1 PUSH2 0x2040 JUMP JUMPDEST PUSH2 0xE80 PUSH2 0xE7A CALLDATASIZE DUP9 DUP6 PUSH2 0x12BE JUMP JUMPDEST DUP7 PUSH2 0x1E8D JUMP JUMPDEST MLOAD SWAP2 DUP3 SWAP2 PUSH1 0x20 DUP4 MSTORE CALLER SWAP7 PUSH1 0x20 DUP5 ADD SWAP2 PUSH2 0x201F JUMP JUMPDEST POP SWAP1 CALLVALUE PUSH2 0x1DD JUMPI DUP1 PUSH1 0x3 NOT CALLDATASIZE ADD SLT PUSH2 0x1DD JUMPI PUSH2 0xEAE PUSH2 0x1170 JUMP JUMPDEST SWAP2 PUSH1 0x24 CALLDATALOAD PUSH2 0xEBB DUP2 PUSH2 0x1753 JUMP JUMPDEST CALLER ISZERO ISZERO DUP1 PUSH2 0xF5D JUMPI JUMPDEST DUP1 PUSH2 0xF34 JUMPI JUMPDEST PUSH2 0xF1E JUMPI PUSH1 0x1 PUSH1 0x1 PUSH1 0xA0 SHL SUB SWAP5 DUP6 AND SWAP5 DUP3 SWAP2 DUP7 SWAP2 AND PUSH32 0x8C5BE1E5EBEC7D5BD14F71427D1E84F3DD0314C0F7B2291E5B200AC8C7C3B925 DUP9 DUP1 LOG4 DUP5 MSTORE PUSH1 0x20 MSTORE DUP3 KECCAK256 DUP1 SLOAD PUSH1 0x1 PUSH1 0x1 PUSH1 0xA0 SHL SUB NOT AND SWAP1 SWAP2 OR SWAP1 SSTORE DUP1 RETURN JUMPDEST DUP4 MLOAD PUSH4 0xA9FBF51F PUSH1 0xE0 SHL DUP2 MSTORE CALLER DUP2 DUP6 ADD MSTORE PUSH1 0x24 SWAP1 REVERT JUMPDEST POP PUSH1 0x1 PUSH1 0x1 PUSH1 0xA0 SHL SUB DUP2 AND DUP7 MSTORE PUSH1 0x5 PUSH1 0x20 SWAP1 DUP2 MSTORE DUP5 DUP8 KECCAK256 CALLER DUP9 MSTORE SWAP1 MSTORE DUP4 DUP7 KECCAK256 SLOAD PUSH1 0xFF AND ISZERO PUSH2 0xECA JUMP JUMPDEST POP PUSH1 0x1 PUSH1 0x1 PUSH1 0xA0 SHL SUB DUP2 AND CALLER EQ ISZERO PUSH2 0xEC4 JUMP JUMPDEST POP CALLVALUE PUSH2 0x1DD JUMPI PUSH1 0x20 CALLDATASIZE PUSH1 0x3 NOT ADD SLT PUSH2 0x1DD JUMPI SWAP2 DUP3 PUSH1 0x20 SWAP4 CALLDATALOAD PUSH2 0xF91 DUP2 PUSH2 0x1753 JUMP JUMPDEST POP DUP3 MSTORE DUP4 MSTORE DUP2 SWAP1 KECCAK256 SLOAD SWAP1 MLOAD PUSH1 0x1 PUSH1 0x1 PUSH1 0xA0 SHL SUB SWAP1 SWAP2 AND DUP2 MSTORE RETURN JUMPDEST POP POP CALLVALUE PUSH2 0x282 JUMPI DUP2 PUSH1 0x3 NOT CALLDATASIZE ADD SLT PUSH2 0x282 JUMPI DUP1 MLOAD SWAP1 DUP3 DUP1 SLOAD PUSH2 0xFCC DUP2 PUSH2 0x133F JUMP JUMPDEST DUP1 DUP6 MSTORE SWAP2 PUSH1 0x1 SWAP2 DUP1 DUP4 AND SWAP1 DUP2 ISZERO PUSH2 0x4CB JUMPI POP PUSH1 0x1 EQ PUSH2 0xFF7 JUMPI POP POP POP PUSH2 0x45D DUP3 PUSH2 0x2B6 SWAP5 SUB DUP4 PUSH2 0x1282 JUMP JUMPDEST DUP1 DUP1 SWAP7 POP MSTORE PUSH32 0x290DECD9548B62A8D60345A988386FC84BA6BC95484008F6362F93160EF3E563 JUMPDEST DUP3 DUP7 LT PUSH2 0x103B JUMPI POP POP POP PUSH2 0x45D DUP3 PUSH1 0x20 PUSH2 0x2B6 SWAP6 DUP3 ADD ADD SWAP5 PUSH2 0x44B JUMP JUMPDEST DUP1 SLOAD PUSH1 0x20 DUP8 DUP8 ADD DUP2 ADD SWAP2 SWAP1 SWAP2 MSTORE SWAP1 SWAP6 ADD SWAP5 DUP2 ADD PUSH2 0x101E JUMP JUMPDEST POP CALLVALUE PUSH2 0x1DD JUMPI PUSH1 0x20 CALLDATASIZE PUSH1 0x3 NOT ADD SLT PUSH2 0x1DD JUMPI CALLDATALOAD SWAP1 PUSH4 0xFFFFFFFF PUSH1 0xE0 SHL DUP3 AND DUP1 SWAP3 SUB PUSH2 0x1DD JUMPI PUSH1 0x20 SWAP3 POP PUSH4 0x24832483 PUSH1 0xE1 SHL DUP3 EQ SWAP2 DUP3 ISZERO PUSH2 0x1097 JUMPI JUMPDEST POP MLOAD SWAP1 ISZERO ISZERO DUP2 MSTORE RETURN JUMPDEST SWAP1 SWAP2 POP PUSH4 0x80AC58CD PUSH1 0xE0 SHL DUP2 EQ SWAP1 DUP2 ISZERO PUSH2 0x10CC JUMPI JUMPDEST DUP2 ISZERO PUSH2 0x10BB JUMPI JUMPDEST POP SWAP1 CODESIZE PUSH2 0x108E JUMP JUMPDEST PUSH4 0x1FFC9A7 PUSH1 0xE0 SHL EQ SWAP1 POP CODESIZE PUSH2 0x10B3 JUMP JUMPDEST PUSH4 0x5B5E139F PUSH1 0xE0 SHL DUP2 EQ SWAP2 POP PUSH2 0x10AC JUMP JUMPDEST POP CALLVALUE PUSH2 0x1DD JUMPI PUSH1 0x20 CALLDATASIZE PUSH1 0x3 NOT ADD SLT PUSH2 0x1DD JUMPI CALLDATALOAD DUP1 DUP4 MSTORE PUSH1 0x2 PUSH1 0x20 SWAP1 DUP2 MSTORE DUP3 DUP5 KECCAK256 SLOAD SWAP1 SWAP4 PUSH1 0x1 PUSH1 0x1 PUSH1 0xA0 SHL SUB SWAP3 DUP5 SWAP3 PUSH2 0x1118 SWAP1 DUP6 AND ISZERO ISZERO PUSH2 0x20C8 JUMP JUMPDEST DUP2 MSTORE PUSH1 0xD DUP6 MSTORE KECCAK256 SLOAD AND SWAP1 MLOAD SWAP1 DUP2 MSTORE RETURN JUMPDEST PUSH1 0x0 JUMPDEST DUP4 DUP2 LT PUSH2 0x113B JUMPI POP POP PUSH1 0x0 SWAP2 ADD MSTORE JUMP JUMPDEST DUP2 DUP2 ADD MLOAD DUP4 DUP3 ADD MSTORE PUSH1 0x20 ADD PUSH2 0x112B JUMP JUMPDEST SWAP1 PUSH1 0x20 SWAP2 PUSH2 0x1164 DUP2 MLOAD DUP1 SWAP3 DUP2 DUP6 MSTORE DUP6 DUP1 DUP7 ADD SWAP2 ADD PUSH2 0x1128 JUMP JUMPDEST PUSH1 0x1F ADD PUSH1 0x1F NOT AND ADD ADD SWAP1 JUMP JUMPDEST PUSH1 0x4 CALLDATALOAD SWAP1 PUSH1 0x1 PUSH1 0x1 PUSH1 0xA0 SHL SUB DUP3 AND DUP3 SUB PUSH2 0x1186 JUMPI JUMP JUMPDEST PUSH1 0x0 DUP1 REVERT JUMPDEST PUSH1 0x24 CALLDATALOAD SWAP1 PUSH1 0x1 PUSH1 0x1 PUSH1 0xA0 SHL SUB DUP3 AND DUP3 SUB PUSH2 0x1186 JUMPI JUMP JUMPDEST SWAP2 DUP2 PUSH1 0x1F DUP5 ADD SLT ISZERO PUSH2 0x1186 JUMPI DUP3 CALLDATALOAD SWAP2 PUSH1 0x1 PUSH1 0x1 PUSH1 0x40 SHL SUB DUP4 GT PUSH2 0x1186 JUMPI PUSH1 0x20 DUP4 DUP2 DUP7 ADD SWAP6 ADD ADD GT PUSH2 0x1186 JUMPI JUMP JUMPDEST SWAP1 PUSH1 0x40 PUSH1 0x3 NOT DUP4 ADD SLT PUSH2 0x1186 JUMPI PUSH1 0x4 CALLDATALOAD SWAP2 PUSH1 0x24 CALLDATALOAD SWAP1 PUSH1 0x1 PUSH1 0x1 PUSH1 0x40 SHL SUB DUP3 GT PUSH2 0x1186 JUMPI PUSH2 0x11FD SWAP2 PUSH1 0x4 ADD PUSH2 0x11A1 JUMP JUMPDEST SWAP1 SWAP2 JUMP JUMPDEST PUSH1 0x60 SWAP1 PUSH1 0x3 NOT ADD SLT PUSH2 0x1186 JUMPI PUSH1 0x1 PUSH1 0x1 PUSH1 0xA0 SHL SUB SWAP1 PUSH1 0x4 CALLDATALOAD DUP3 DUP2 AND DUP2 SUB PUSH2 0x1186 JUMPI SWAP2 PUSH1 0x24 CALLDATALOAD SWAP1 DUP2 AND DUP2 SUB PUSH2 0x1186 JUMPI SWAP1 PUSH1 0x44 CALLDATALOAD SWAP1 JUMP JUMPDEST PUSH1 0x40 DUP2 ADD SWAP1 DUP2 LT PUSH1 0x1 PUSH1 0x1 PUSH1 0x40 SHL SUB DUP3 GT OR PUSH2 0x1251 JUMPI PUSH1 0x40 MSTORE JUMP JUMPDEST PUSH4 0x4E487B71 PUSH1 0xE0 SHL PUSH1 0x0 MSTORE PUSH1 0x41 PUSH1 0x4 MSTORE PUSH1 0x24 PUSH1 0x0 REVERT JUMPDEST PUSH1 0x20 DUP2 ADD SWAP1 DUP2 LT PUSH1 0x1 PUSH1 0x1 PUSH1 0x40 SHL SUB DUP3 GT OR PUSH2 0x1251 JUMPI PUSH1 0x40 MSTORE JUMP JUMPDEST SWAP1 PUSH1 0x1F DUP1 NOT SWAP2 ADD AND DUP2 ADD SWAP1 DUP2 LT PUSH1 0x1 PUSH1 0x1 PUSH1 0x40 SHL SUB DUP3 GT OR PUSH2 0x1251 JUMPI PUSH1 0x40 MSTORE JUMP JUMPDEST PUSH1 0x1 PUSH1 0x1 PUSH1 0x40 SHL SUB DUP2 GT PUSH2 0x1251 JUMPI PUSH1 0x1F ADD PUSH1 0x1F NOT AND PUSH1 0x20 ADD SWAP1 JUMP JUMPDEST SWAP3 SWAP2 SWAP3 PUSH2 0x12CA DUP3 PUSH2 0x12A3 JUMP JUMPDEST SWAP2 PUSH2 0x12D8 PUSH1 0x40 MLOAD SWAP4 DUP5 PUSH2 0x1282 JUMP JUMPDEST DUP3 SWAP5 DUP2 DUP5 MSTORE DUP2 DUP4 ADD GT PUSH2 0x1186 JUMPI DUP3 DUP2 PUSH1 0x20 SWAP4 DUP5 PUSH1 0x0 SWAP7 ADD CALLDATACOPY ADD ADD MSTORE JUMP JUMPDEST SWAP1 DUP1 PUSH1 0x1F DUP4 ADD SLT ISZERO PUSH2 0x1186 JUMPI DUP2 PUSH1 0x20 PUSH2 0x1310 SWAP4 CALLDATALOAD SWAP2 ADD PUSH2 0x12BE JUMP JUMPDEST SWAP1 JUMP JUMPDEST PUSH1 0x7 SLOAD PUSH1 0x1 PUSH1 0x1 PUSH1 0xA0 SHL SUB AND CALLER SUB PUSH2 0x1327 JUMPI JUMP JUMPDEST PUSH1 0x40 MLOAD PUSH4 0x118CDAA7 PUSH1 0xE0 SHL DUP2 MSTORE CALLER PUSH1 0x4 DUP3 ADD MSTORE PUSH1 0x24 SWAP1 REVERT JUMPDEST SWAP1 PUSH1 0x1 DUP3 DUP2 SHR SWAP3 AND DUP1 ISZERO PUSH2 0x136F JUMPI JUMPDEST PUSH1 0x20 DUP4 LT EQ PUSH2 0x1359 JUMPI JUMP JUMPDEST PUSH4 0x4E487B71 PUSH1 0xE0 SHL PUSH1 0x0 MSTORE PUSH1 0x22 PUSH1 0x4 MSTORE PUSH1 0x24 PUSH1 0x0 REVERT JUMPDEST SWAP2 PUSH1 0x7F AND SWAP2 PUSH2 0x134E JUMP JUMPDEST SWAP1 PUSH1 0x0 SWAP3 SWAP2 DUP1 SLOAD SWAP2 PUSH2 0x138A DUP4 PUSH2 0x133F JUMP JUMPDEST SWAP2 DUP3 DUP3 MSTORE PUSH1 0x1 SWAP4 DUP5 DUP2 AND SWAP1 DUP2 PUSH1 0x0 EQ PUSH2 0x13EC JUMPI POP PUSH1 0x1 EQ PUSH2 0x13AC JUMPI JUMPDEST POP POP POP POP JUMP JUMPDEST SWAP1 SWAP2 SWAP4 SWAP5 POP PUSH1 0x0 MSTORE PUSH1 0x20 SWAP3 DUP4 PUSH1 0x0 KECCAK256 SWAP3 DUP5 PUSH1 0x0 SWAP5 JUMPDEST DUP4 DUP7 LT PUSH2 0x13D8 JUMPI POP POP POP POP ADD ADD SWAP1 CODESIZE DUP1 DUP1 DUP1 PUSH2 0x13A6 JUMP JUMPDEST DUP1 SLOAD DUP6 DUP8 ADD DUP4 ADD MSTORE SWAP5 ADD SWAP4 DUP6 SWAP1 DUP3 ADD PUSH2 0x13C1 JUMP JUMPDEST SWAP3 SWAP5 POP POP POP PUSH1 0x20 SWAP4 SWAP5 POP PUSH1 0xFF NOT AND DUP4 DUP4 ADD MSTORE ISZERO ISZERO PUSH1 0x5 SHL ADD ADD SWAP1 CODESIZE DUP1 DUP1 DUP1 PUSH2 0x13A6 JUMP JUMPDEST PUSH1 0x1 PUSH1 0x1 PUSH1 0xA0 SHL SUB SWAP2 DUP3 AND SWAP3 SWAP1 SWAP2 DUP4 ISZERO PUSH2 0x15E6 JUMPI PUSH1 0x0 SWAP3 DUP3 DUP5 MSTORE DUP3 PUSH1 0x20 SWAP6 PUSH1 0x2 DUP8 MSTORE PUSH1 0x40 SWAP7 DUP5 DUP9 DUP9 KECCAK256 SLOAD AND ISZERO ISZERO DUP1 PUSH2 0x15DE JUMPI JUMPDEST PUSH2 0x156C JUMPI JUMPDEST DUP3 DUP8 MSTORE PUSH1 0x2 DUP2 MSTORE DUP5 DUP9 DUP9 KECCAK256 SLOAD AND SWAP7 DUP8 SWAP2 CALLER PUSH2 0x1515 JUMPI JUMPDEST SWAP1 PUSH1 0x2 PUSH32 0xDDF252AD1BE2C89B69C2B068FC378DAA952BA7F163C4A11628F55A4DF523B3EF SWAP3 DUP5 PUSH2 0x14E2 JUMPI JUMPDEST DUP6 DUP4 MSTORE PUSH1 0x3 DUP2 MSTORE DUP12 DUP4 KECCAK256 DUP1 SLOAD PUSH1 0x1 ADD SWAP1 SSTORE DUP7 DUP4 MSTORE MSTORE DUP10 DUP2 KECCAK256 DUP1 SLOAD PUSH1 0x1 PUSH1 0x1 PUSH1 0xA0 SHL SUB NOT AND DUP6 OR SWAP1 SSTORE DUP1 LOG4 AND SWAP3 DUP4 DUP4 SUB PUSH2 0x14C1 JUMPI POP POP POP POP JUMP JUMPDEST PUSH1 0x64 SWAP5 POP MLOAD SWAP3 PUSH4 0x64283D7B PUSH1 0xE0 SHL DUP5 MSTORE PUSH1 0x4 DUP5 ADD MSTORE PUSH1 0x24 DUP4 ADD MSTORE PUSH1 0x44 DUP3 ADD MSTORE REVERT JUMPDEST PUSH1 0x0 DUP8 DUP2 MSTORE PUSH1 0x4 PUSH1 0x20 MSTORE PUSH1 0x40 SWAP1 KECCAK256 DUP1 SLOAD PUSH1 0x1 PUSH1 0x1 PUSH1 0xA0 SHL SUB NOT AND SWAP1 SSTORE DUP5 DUP4 MSTORE PUSH1 0x3 DUP2 MSTORE DUP12 DUP4 KECCAK256 DUP1 SLOAD PUSH1 0x0 NOT ADD SWAP1 SSTORE PUSH2 0x1488 JUMP JUMPDEST SWAP2 POP SWAP2 SWAP3 PUSH2 0x1524 SWAP1 CALLER DUP10 PUSH2 0x2040 JUMP JUMPDEST ISZERO PUSH2 0x1533 JUMPI DUP6 SWAP3 SWAP2 DUP8 SWAP2 PUSH2 0x145D JUMP JUMPDEST DUP8 DUP7 DUP9 PUSH2 0x1550 JUMPI PUSH1 0x24 SWAP2 MLOAD SWAP1 PUSH4 0x7E273289 PUSH1 0xE0 SHL DUP3 MSTORE PUSH1 0x4 DUP3 ADD MSTORE REVERT JUMPDEST PUSH1 0x44 SWAP2 MLOAD SWAP1 PUSH4 0x177E802F PUSH1 0xE0 SHL DUP3 MSTORE CALLER PUSH1 0x4 DUP4 ADD MSTORE PUSH1 0x24 DUP3 ADD MSTORE REVERT JUMPDEST PUSH1 0xD DUP2 MSTORE DUP8 DUP8 KECCAK256 PUSH1 0x1 PUSH1 0x1 PUSH1 0x60 SHL SUB PUSH1 0xA0 SHL DUP2 SLOAD AND SWAP1 SSTORE PUSH1 0x0 DUP1 MLOAD PUSH1 0x20 PUSH2 0x248E DUP4 CODECOPY DUP2 MLOAD SWAP2 MSTORE DUP4 PUSH1 0x0 DUP1 MLOAD PUSH1 0x20 PUSH2 0x246E DUP4 CODECOPY DUP2 MLOAD SWAP2 MSTORE PUSH2 0x15D6 DUP12 MLOAD DUP12 DUP7 DUP3 ADD MSTORE PUSH1 0x14 DUP2 MSTORE PUSH2 0x15B9 DUP2 PUSH2 0x1236 JUMP JUMPDEST PUSH11 0x1859D95B9D15D85B1B195D PUSH1 0xAA SHL DUP14 MLOAD MSTORE DUP13 MLOAD SWAP2 DUP3 SWAP2 DUP3 PUSH2 0x1D90 JUMP JUMPDEST SUB SWAP1 LOG3 PUSH2 0x1447 JUMP JUMPDEST POP PUSH1 0x1 PUSH2 0x1442 JUMP JUMPDEST PUSH1 0x40 MLOAD PUSH4 0x32505749 PUSH1 0xE1 SHL DUP2 MSTORE PUSH1 0x0 PUSH1 0x4 DUP3 ADD MSTORE PUSH1 0x24 SWAP1 REVERT JUMPDEST SWAP3 SWAP1 SWAP3 PUSH2 0x160D DUP4 DUP6 DUP4 PUSH2 0x140F JUMP JUMPDEST DUP4 EXTCODESIZE PUSH2 0x1619 JUMPI POP POP POP POP JUMP JUMPDEST PUSH1 0x40 MLOAD PUSH4 0xA85BD01 PUSH1 0xE1 SHL DUP1 DUP3 MSTORE CALLER PUSH1 0x4 DUP4 ADD MSTORE PUSH1 0x1 PUSH1 0x1 PUSH1 0xA0 SHL SUB SWAP3 DUP4 AND PUSH1 0x24 DUP4 ADD MSTORE PUSH1 0x44 DUP3 ADD SWAP5 SWAP1 SWAP5 MSTORE PUSH1 0x80 PUSH1 0x64 DUP3 ADD MSTORE SWAP5 SWAP4 AND SWAP3 PUSH1 0x20 SWAP3 SWAP1 SWAP2 DUP6 SWAP1 PUSH2 0x1665 SWAP1 PUSH1 0x84 DUP4 ADD SWAP1 PUSH2 0x114B JUMP JUMPDEST SUB SWAP5 DUP4 DUP2 PUSH1 0x0 SWAP8 DUP2 DUP10 DUP10 GAS CALL DUP7 SWAP2 DUP2 PUSH2 0x170F JUMPI JUMPDEST POP PUSH2 0x16DA JUMPI POP POP POP RETURNDATASIZE PUSH1 0x0 EQ PUSH2 0x16D1 JUMPI RETURNDATASIZE PUSH2 0x1693 DUP2 PUSH2 0x12A3 JUMP JUMPDEST SWAP1 PUSH2 0x16A1 PUSH1 0x40 MLOAD SWAP3 DUP4 PUSH2 0x1282 JUMP JUMPDEST DUP2 MSTORE DUP1 SWAP4 DUP3 RETURNDATASIZE SWAP3 ADD RETURNDATACOPY JUMPDEST DUP3 MLOAD SWAP3 DUP4 PUSH2 0x16CC JUMPI PUSH1 0x40 MLOAD PUSH4 0x32505749 PUSH1 0xE1 SHL DUP2 MSTORE PUSH1 0x4 DUP2 ADD DUP5 SWAP1 MSTORE PUSH1 0x24 SWAP1 REVERT JUMPDEST ADD SWAP1 POP REVERT JUMPDEST PUSH1 0x60 SWAP3 POP PUSH2 0x16AB JUMP JUMPDEST SWAP2 SWAP5 POP SWAP2 POP PUSH4 0xFFFFFFFF PUSH1 0xE0 SHL AND SUB PUSH2 0x16F7 JUMPI POP CODESIZE DUP1 DUP1 DUP1 PUSH2 0x13A6 JUMP JUMPDEST PUSH1 0x24 SWAP1 PUSH1 0x40 MLOAD SWAP1 PUSH4 0x32505749 PUSH1 0xE1 SHL DUP3 MSTORE PUSH1 0x4 DUP3 ADD MSTORE REVERT JUMPDEST SWAP1 SWAP2 POP DUP5 DUP2 DUP2 RETURNDATASIZE DUP4 GT PUSH2 0x174C JUMPI JUMPDEST PUSH2 0x1727 DUP2 DUP4 PUSH2 0x1282 JUMP JUMPDEST DUP2 ADD SUB SLT PUSH2 0x1748 JUMPI MLOAD PUSH1 0x1 PUSH1 0x1 PUSH1 0xE0 SHL SUB NOT DUP2 AND DUP2 SUB PUSH2 0x1748 JUMPI SWAP1 CODESIZE PUSH2 0x1679 JUMP JUMPDEST DUP7 DUP1 REVERT JUMPDEST POP RETURNDATASIZE PUSH2 0x171D JUMP JUMPDEST PUSH1 0x0 DUP2 DUP2 MSTORE PUSH1 0x2 PUSH1 0x20 MSTORE PUSH1 0x40 SWAP1 KECCAK256 SLOAD PUSH1 0x1 PUSH1 0x1 PUSH1 0xA0 SHL SUB AND SWAP1 DUP2 ISZERO PUSH2 0x1776 JUMPI POP SWAP1 JUMP JUMPDEST PUSH1 0x24 SWAP1 PUSH1 0x40 MLOAD SWAP1 PUSH4 0x7E273289 PUSH1 0xE0 SHL DUP3 MSTORE PUSH1 0x4 DUP3 ADD MSTORE REVERT JUMPDEST PUSH1 0xFF DUP2 EQ PUSH2 0x17CC JUMPI PUSH1 0xFF DUP2 AND SWAP1 PUSH1 0x1F DUP3 GT PUSH2 0x17BA JUMPI PUSH1 0x40 MLOAD SWAP2 PUSH2 0x17B0 DUP4 PUSH2 0x1236 JUMP JUMPDEST DUP3 MSTORE PUSH1 0x20 DUP3 ADD MSTORE SWAP1 JUMP JUMPDEST PUSH1 0x40 MLOAD PUSH4 0x2CD44AC3 PUSH1 0xE2 SHL DUP2 MSTORE PUSH1 0x4 SWAP1 REVERT JUMPDEST POP PUSH1 0x40 MLOAD PUSH1 0x8 SLOAD DUP2 PUSH1 0x0 PUSH2 0x17DF DUP4 PUSH2 0x133F JUMP JUMPDEST DUP1 DUP4 MSTORE SWAP3 PUSH1 0x1 SWAP1 DUP2 DUP2 AND SWAP1 DUP2 ISZERO PUSH2 0x1865 JUMPI POP PUSH1 0x1 EQ PUSH2 0x1806 JUMPI JUMPDEST POP PUSH2 0x1310 SWAP3 POP SUB DUP3 PUSH2 0x1282 JUMP JUMPDEST PUSH1 0x8 PUSH1 0x0 SWAP1 DUP2 MSTORE SWAP2 POP PUSH32 0xF3F7A9FE364FAAB93B216DA50A3214154F22A0A2B415B23A84C8169E8B636EE3 JUMPDEST DUP5 DUP4 LT PUSH2 0x184A JUMPI POP PUSH2 0x1310 SWAP4 POP POP DUP2 ADD PUSH1 0x20 ADD CODESIZE PUSH2 0x17F9 JUMP JUMPDEST DUP2 SWAP4 POP SWAP1 DUP2 PUSH1 0x20 SWAP3 SLOAD DUP4 DUP6 DUP10 ADD ADD MSTORE ADD SWAP2 ADD SWAP1 SWAP2 DUP5 SWAP3 PUSH2 0x1831 JUMP JUMPDEST SWAP1 POP PUSH1 0x20 SWAP3 POP PUSH2 0x1310 SWAP5 SWAP2 POP PUSH1 0xFF NOT AND DUP3 DUP5 ADD MSTORE ISZERO ISZERO PUSH1 0x5 SHL DUP3 ADD ADD CODESIZE PUSH2 0x17F9 JUMP JUMPDEST PUSH1 0xFF DUP2 EQ PUSH2 0x18A9 JUMPI PUSH1 0xFF DUP2 AND SWAP1 PUSH1 0x1F DUP3 GT PUSH2 0x17BA JUMPI PUSH1 0x40 MLOAD SWAP2 PUSH2 0x17B0 DUP4 PUSH2 0x1236 JUMP JUMPDEST POP PUSH1 0x40 MLOAD PUSH1 0x9 SLOAD DUP2 PUSH1 0x0 PUSH2 0x18BC DUP4 PUSH2 0x133F JUMP JUMPDEST DUP1 DUP4 MSTORE SWAP3 PUSH1 0x1 SWAP1 DUP2 DUP2 AND SWAP1 DUP2 ISZERO PUSH2 0x1865 JUMPI POP PUSH1 0x1 EQ PUSH2 0x18E2 JUMPI POP PUSH2 0x1310 SWAP3 POP SUB DUP3 PUSH2 0x1282 JUMP JUMPDEST PUSH1 0x9 PUSH1 0x0 SWAP1 DUP2 MSTORE SWAP2 POP PUSH32 0x6E1540171B6C0C960B71A7020D9F60077F6AF931A8BBF590DA0223DACF75C7AF JUMPDEST DUP5 DUP4 LT PUSH2 0x1926 JUMPI POP PUSH2 0x1310 SWAP4 POP POP DUP2 ADD PUSH1 0x20 ADD CODESIZE PUSH2 0x17F9 JUMP JUMPDEST DUP2 SWAP4 POP SWAP1 DUP2 PUSH1 0x20 SWAP3 SLOAD DUP4 DUP6 DUP10 ADD ADD MSTORE ADD SWAP2 ADD SWAP1 SWAP2 DUP5 SWAP3 PUSH2 0x190D JUMP JUMPDEST SWAP1 SWAP2 PUSH2 0x194B PUSH2 0x1FBF JUMP JUMPDEST PUSH1 0xB SLOAD PUSH2 0x1957 DUP2 PUSH2 0x1D6B JUMP JUMPDEST PUSH1 0xB SSTORE CALLER ISZERO PUSH2 0x15E6 JUMPI PUSH1 0x0 SWAP4 DUP2 DUP6 MSTORE PUSH1 0x20 SWAP3 PUSH1 0x2 DUP5 MSTORE PUSH1 0x1 DUP1 PUSH1 0xA0 SHL SUB SWAP1 PUSH1 0x40 SWAP2 DUP1 DUP4 DUP10 KECCAK256 SLOAD AND ISZERO ISZERO DUP1 PUSH2 0x1D63 JUMPI JUMPDEST PUSH2 0x1CF1 JUMPI JUMPDEST DUP5 DUP9 MSTORE PUSH1 0x2 DUP7 MSTORE DUP3 DUP9 KECCAK256 SLOAD AND DUP1 ISZERO ISZERO DUP1 PUSH2 0x1CBE JUMPI JUMPDEST CALLER DUP10 MSTORE PUSH1 0x3 DUP8 MSTORE DUP4 DUP10 KECCAK256 PUSH1 0x1 DUP2 SLOAD ADD SWAP1 SSTORE DUP6 DUP10 MSTORE PUSH1 0x2 DUP8 MSTORE DUP6 DUP5 DUP11 KECCAK256 SWAP3 PUSH1 0x1 PUSH1 0x1 PUSH1 0x60 SHL SUB PUSH1 0xA0 SHL SWAP4 CALLER DUP6 DUP3 SLOAD AND OR SWAP1 SSTORE CALLER SWAP1 PUSH32 0xDDF252AD1BE2C89B69C2B068FC378DAA952BA7F163C4A11628F55A4DF523B3EF DUP13 DUP1 LOG4 PUSH2 0x1CA6 JUMPI SWAP1 PUSH2 0x1A70 SWAP4 SWAP3 SWAP2 DUP8 MLOAD PUSH2 0x1C97 JUMPI JUMPDEST DUP6 DUP10 MSTORE PUSH1 0xD DUP8 MSTORE DUP3 DUP10 KECCAK256 SWAP1 CALLER SWAP1 DUP3 SLOAD AND OR SWAP1 SSTORE PUSH1 0x0 DUP1 MLOAD PUSH1 0x20 PUSH2 0x248E DUP4 CODECOPY DUP2 MLOAD SWAP2 MSTORE DUP6 DUP4 MLOAD CALLER PUSH1 0x60 SHL DUP10 DUP3 ADD MSTORE PUSH1 0x14 DUP2 MSTORE PUSH2 0x1A43 DUP2 PUSH2 0x1236 JUMP JUMPDEST PUSH11 0x1859D95B9D15D85B1B195D PUSH1 0xAA SHL DUP6 MLOAD MSTORE DUP5 MLOAD DUP1 PUSH1 0x0 DUP1 MLOAD PUSH1 0x20 PUSH2 0x246E DUP4 CODECOPY DUP2 MLOAD SWAP2 MSTORE SWAP9 DUP10 SWAP4 DUP3 PUSH2 0x1D90 JUMP JUMPDEST SUB SWAP1 LOG3 DUP8 JUMPDEST DUP4 MLOAD DUP2 LT ISZERO PUSH2 0x1C4D JUMPI PUSH2 0x1AB7 PUSH1 0xFF PUSH2 0x1AA5 DUP10 PUSH2 0x1A91 DUP6 DUP10 PUSH2 0x1DC3 JUMP JUMPDEST MLOAD MLOAD DUP2 DUP9 MLOAD SWAP4 DUP3 DUP6 DUP1 SWAP5 MLOAD SWAP4 DUP5 SWAP3 ADD PUSH2 0x1128 JUMP JUMPDEST DUP2 ADD PUSH1 0xE DUP2 MSTORE SUB ADD SWAP1 KECCAK256 SLOAD AND ISZERO PUSH2 0x1DED JUMP JUMPDEST DUP7 PUSH2 0x1AC2 DUP3 DUP7 PUSH2 0x1DC3 JUMP JUMPDEST MLOAD ADD MLOAD SWAP1 DUP7 DUP11 MSTORE PUSH1 0xC DUP9 MSTORE PUSH2 0x1AF3 DUP9 DUP6 DUP13 KECCAK256 PUSH2 0x1ADE DUP5 DUP10 PUSH2 0x1DC3 JUMP JUMPDEST MLOAD MLOAD SWAP1 DUP3 DUP9 MLOAD SWAP5 DUP4 DUP7 DUP1 SWAP6 MLOAD SWAP4 DUP5 SWAP3 ADD PUSH2 0x1128 JUMP JUMPDEST DUP3 ADD SWAP1 DUP2 MSTORE SUB ADD SWAP1 KECCAK256 DUP3 MLOAD PUSH1 0x1 PUSH1 0x1 PUSH1 0x40 SHL SUB DUP2 GT PUSH2 0x1C39 JUMPI PUSH2 0x1B20 DUP2 PUSH2 0x1B1A DUP5 SLOAD PUSH2 0x133F JUMP JUMPDEST DUP5 PUSH2 0x1E39 JUMP JUMPDEST DUP10 DUP13 PUSH1 0x1F DUP4 GT PUSH1 0x1 EQ PUSH2 0x1BCF JUMPI SWAP1 PUSH2 0x1BBF SWAP6 DUP4 PUSH2 0x1BC4 JUMPI JUMPDEST POP POP DUP2 PUSH1 0x1 SHL SWAP2 PUSH1 0x0 NOT SWAP1 PUSH1 0x3 SHL SHR NOT AND OR SWAP1 SSTORE JUMPDEST PUSH2 0x1B57 DUP2 DUP7 PUSH2 0x1DC3 JUMP JUMPDEST MLOAD MLOAD DUP8 DUP8 PUSH2 0x1BAA DUP9 PUSH2 0x1BB7 DUP14 PUSH2 0x1B93 DUP2 PUSH2 0x1B7D DUP11 PUSH2 0x1B75 DUP2 DUP9 PUSH2 0x1DC3 JUMP JUMPDEST MLOAD MLOAD SWAP7 PUSH2 0x1DC3 JUMP JUMPDEST MLOAD ADD MLOAD SWAP8 DUP3 DUP14 MLOAD SWAP3 DUP3 DUP5 DUP1 SWAP5 MLOAD SWAP4 DUP5 SWAP3 ADD PUSH2 0x1128 JUMP JUMPDEST DUP2 ADD SUB SWAP1 KECCAK256 SWAP7 DUP12 MLOAD SWAP5 DUP6 SWAP5 DUP14 DUP7 MSTORE DUP14 DUP7 ADD SWAP1 PUSH2 0x114B JUMP JUMPDEST SWAP2 DUP5 DUP4 SUB SWAP1 DUP6 ADD MSTORE PUSH2 0x114B JUMP JUMPDEST SUB SWAP1 LOG3 PUSH2 0x1D6B JUMP JUMPDEST PUSH2 0x1A75 JUMP JUMPDEST ADD MLOAD SWAP1 POP CODESIZE DUP1 PUSH2 0x1B38 JUMP JUMPDEST SWAP2 SWAP3 SWAP4 SWAP5 PUSH1 0x1F NOT DUP5 AND DUP6 DUP5 MSTORE DUP13 DUP5 KECCAK256 SWAP4 JUMPDEST DUP14 DUP3 DUP3 LT PUSH2 0x1C23 JUMPI POP POP SWAP2 PUSH1 0x1 SWAP4 SWAP2 DUP6 PUSH2 0x1BBF SWAP9 SWAP8 SWAP7 SWAP5 LT PUSH2 0x1C0A JUMPI JUMPDEST POP POP POP DUP2 SHL ADD SWAP1 SSTORE PUSH2 0x1B4D JUMP JUMPDEST ADD MLOAD PUSH1 0x0 NOT PUSH1 0xF8 DUP5 PUSH1 0x3 SHL AND SHR NOT AND SWAP1 SSTORE CODESIZE DUP1 DUP1 PUSH2 0x1BFD JUMP JUMPDEST PUSH1 0x1 DUP6 SWAP7 DUP3 SWAP4 SWAP7 DUP7 ADD MLOAD DUP2 SSTORE ADD SWAP6 ADD SWAP4 ADD PUSH2 0x1BE0 JUMP JUMPDEST PUSH4 0x4E487B71 PUSH1 0xE0 SHL DUP13 MSTORE PUSH1 0x41 PUSH1 0x4 MSTORE PUSH1 0x24 DUP13 REVERT JUMPDEST POP SWAP7 POP PUSH32 0xCA52E62C367D81BB2E328EB795F7C7BA24AFB478408A26C0E201D155C449BC4A SWAP3 POP PUSH2 0x1C8C SWAP2 POP SWAP5 DUP4 SWAP6 MLOAD SWAP2 DUP3 SWAP2 DUP7 DUP4 MSTORE CALLER SWAP7 DUP4 ADD SWAP1 PUSH2 0x114B JUMP JUMPDEST SUB SWAP1 LOG3 SWAP1 PUSH1 0x1 PUSH1 0xA SSTORE JUMP JUMPDEST PUSH2 0x1CA1 DUP9 DUP8 PUSH2 0x1E8D JUMP JUMPDEST PUSH2 0x1A09 JUMP JUMPDEST DUP3 MLOAD PUSH4 0x39E35637 PUSH1 0xE1 SHL DUP2 MSTORE PUSH1 0x4 DUP2 ADD DUP10 SWAP1 MSTORE PUSH1 0x24 SWAP1 REVERT JUMPDEST PUSH1 0x0 DUP7 DUP2 MSTORE PUSH1 0x4 PUSH1 0x20 MSTORE PUSH1 0x40 SWAP1 KECCAK256 DUP1 SLOAD PUSH1 0x1 PUSH1 0x1 PUSH1 0xA0 SHL SUB NOT AND SWAP1 SSTORE DUP2 DUP10 MSTORE PUSH1 0x3 DUP8 MSTORE DUP4 DUP10 KECCAK256 DUP1 SLOAD PUSH1 0x0 NOT ADD SWAP1 SSTORE PUSH2 0x19A0 JUMP JUMPDEST PUSH1 0xD DUP7 MSTORE DUP3 DUP9 KECCAK256 PUSH1 0x1 PUSH1 0x1 PUSH1 0x60 SHL SUB PUSH1 0xA0 SHL DUP2 SLOAD AND SWAP1 SSTORE PUSH1 0x0 DUP1 MLOAD PUSH1 0x20 PUSH2 0x248E DUP4 CODECOPY DUP2 MLOAD SWAP2 MSTORE DUP6 PUSH1 0x0 DUP1 MLOAD PUSH1 0x20 PUSH2 0x246E DUP4 CODECOPY DUP2 MLOAD SWAP2 MSTORE PUSH2 0x1D5B DUP7 MLOAD DUP13 DUP12 DUP3 ADD MSTORE PUSH1 0x14 DUP2 MSTORE PUSH2 0x1D3E DUP2 PUSH2 0x1236 JUMP JUMPDEST PUSH11 0x1859D95B9D15D85B1B195D PUSH1 0xAA SHL DUP9 MLOAD MSTORE DUP8 MLOAD SWAP2 DUP3 SWAP2 DUP3 PUSH2 0x1D90 JUMP JUMPDEST SUB SWAP1 LOG3 PUSH2 0x198B JUMP JUMPDEST POP PUSH1 0x1 PUSH2 0x1986 JUMP JUMPDEST PUSH1 0x0 NOT DUP2 EQ PUSH2 0x1D7A JUMPI PUSH1 0x1 ADD SWAP1 JUMP JUMPDEST PUSH4 0x4E487B71 PUSH1 0xE0 SHL PUSH1 0x0 MSTORE PUSH1 0x11 PUSH1 0x4 MSTORE PUSH1 0x24 PUSH1 0x0 REVERT JUMPDEST SWAP1 PUSH1 0x80 PUSH2 0x1310 SWAP3 PUSH1 0x40 DUP2 MSTORE PUSH1 0xB PUSH1 0x40 DUP3 ADD MSTORE PUSH11 0x1859D95B9D15D85B1B195D PUSH1 0xAA SHL PUSH1 0x60 DUP3 ADD MSTORE DUP2 PUSH1 0x20 DUP3 ADD MSTORE ADD SWAP1 PUSH2 0x114B JUMP JUMPDEST DUP1 MLOAD DUP3 LT ISZERO PUSH2 0x1DD7 JUMPI PUSH1 0x20 SWAP2 PUSH1 0x5 SHL ADD ADD SWAP1 JUMP JUMPDEST PUSH4 0x4E487B71 PUSH1 0xE0 SHL PUSH1 0x0 MSTORE PUSH1 0x32 PUSH1 0x4 MSTORE PUSH1 0x24 PUSH1 0x0 REVERT JUMPDEST ISZERO PUSH2 0x1DF4 JUMPI JUMP JUMPDEST PUSH1 0x40 MLOAD PUSH3 0x461BCD PUSH1 0xE5 SHL DUP2 MSTORE PUSH1 0x20 PUSH1 0x4 DUP3 ADD MSTORE PUSH1 0x17 PUSH1 0x24 DUP3 ADD MSTORE PUSH32 0x43616E6E6F7420736574207265736572766564206B6579000000000000000000 PUSH1 0x44 DUP3 ADD MSTORE PUSH1 0x64 SWAP1 REVERT JUMPDEST SWAP1 PUSH1 0x1F DUP2 GT PUSH2 0x1E47 JUMPI POP POP POP JUMP JUMPDEST PUSH1 0x0 SWAP2 DUP3 MSTORE PUSH1 0x20 DUP3 KECCAK256 SWAP1 PUSH1 0x20 PUSH1 0x1F DUP6 ADD PUSH1 0x5 SHR DUP4 ADD SWAP5 LT PUSH2 0x1E83 JUMPI JUMPDEST PUSH1 0x1F ADD PUSH1 0x5 SHR ADD SWAP2 JUMPDEST DUP3 DUP2 LT PUSH2 0x1E78 JUMPI POP POP POP JUMP JUMPDEST DUP2 DUP2 SSTORE PUSH1 0x1 ADD PUSH2 0x1E6C JUMP JUMPDEST SWAP1 SWAP3 POP DUP3 SWAP1 PUSH2 0x1E63 JUMP JUMPDEST SWAP2 SWAP1 SWAP2 PUSH1 0x0 SWAP1 DUP1 DUP3 MSTORE PUSH1 0x20 SWAP2 PUSH1 0x6 DUP4 MSTORE PUSH1 0x40 DUP2 KECCAK256 SWAP1 DUP6 MLOAD SWAP1 PUSH1 0x1 PUSH1 0x1 PUSH1 0x40 SHL SUB DUP3 GT PUSH2 0x1FAB JUMPI PUSH2 0x1EC7 DUP3 PUSH2 0x1EC1 DUP6 SLOAD PUSH2 0x133F JUMP JUMPDEST DUP6 PUSH2 0x1E39 JUMP JUMPDEST DUP5 SWAP1 PUSH1 0x1F DUP4 GT PUSH1 0x1 EQ PUSH2 0x1F27 JUMPI SWAP1 PUSH32 0xF8E1A15ABA9398E019F0B49DF1A4FDE98EE17AE345CB5F6B5E2C27F5033E8CE7 SWAP7 SWAP8 DUP4 PUSH2 0x1F1C JUMPI JUMPDEST POP POP DUP2 PUSH1 0x1 SHL SWAP2 PUSH1 0x0 NOT SWAP1 PUSH1 0x3 SHL SHR NOT AND OR SWAP1 SSTORE JUMPDEST PUSH1 0x40 MLOAD SWAP1 DUP2 MSTORE LOG1 JUMP JUMPDEST ADD MLOAD SWAP1 POP CODESIZE DUP1 PUSH2 0x1EFE JUMP JUMPDEST SWAP2 SWAP7 PUSH1 0x1F NOT DUP9 AND DUP5 DUP5 MSTORE DUP7 DUP5 KECCAK256 SWAP4 JUMPDEST DUP2 DUP2 LT PUSH2 0x1F94 JUMPI POP SWAP2 PUSH1 0x1 SWAP4 SWAP2 DUP10 PUSH32 0xF8E1A15ABA9398E019F0B49DF1A4FDE98EE17AE345CB5F6B5E2C27F5033E8CE7 SWAP10 SWAP11 SWAP5 LT PUSH2 0x1F7B JUMPI JUMPDEST POP POP POP DUP2 SHL ADD SWAP1 SSTORE PUSH2 0x1F13 JUMP JUMPDEST ADD MLOAD PUSH1 0x0 NOT PUSH1 0xF8 DUP5 PUSH1 0x3 SHL AND SHR NOT AND SWAP1 SSTORE CODESIZE DUP1 DUP1 PUSH2 0x1F6E JUMP JUMPDEST SWAP3 SWAP4 DUP8 PUSH1 0x1 DUP2 SWAP3 DUP8 DUP7 ADD MLOAD DUP2 SSTORE ADD SWAP6 ADD SWAP4 ADD PUSH2 0x1F36 JUMP JUMPDEST PUSH4 0x4E487B71 PUSH1 0xE0 SHL DUP2 MSTORE PUSH1 0x41 PUSH1 0x4 MSTORE PUSH1 0x24 SWAP1 REVERT JUMPDEST PUSH1 0x2 PUSH1 0xA SLOAD EQ PUSH2 0x1FD0 JUMPI PUSH1 0x2 PUSH1 0xA SSTORE JUMP JUMPDEST PUSH1 0x40 MLOAD PUSH4 0x3EE5AEB5 PUSH1 0xE0 SHL DUP2 MSTORE PUSH1 0x4 SWAP1 REVERT JUMPDEST ISZERO PUSH2 0x1FE9 JUMPI JUMP JUMPDEST PUSH1 0x40 MLOAD PUSH3 0x461BCD PUSH1 0xE5 SHL DUP2 MSTORE PUSH1 0x20 PUSH1 0x4 DUP3 ADD MSTORE PUSH1 0xE PUSH1 0x24 DUP3 ADD MSTORE PUSH14 0x139BDD08185D5D1A1BDC9A5E9959 PUSH1 0x92 SHL PUSH1 0x44 DUP3 ADD MSTORE PUSH1 0x64 SWAP1 REVERT JUMPDEST SWAP1 DUP1 PUSH1 0x20 SWAP4 SWAP3 DUP2 DUP5 MSTORE DUP5 DUP5 ADD CALLDATACOPY PUSH1 0x0 DUP3 DUP3 ADD DUP5 ADD MSTORE PUSH1 0x1F ADD PUSH1 0x1F NOT AND ADD ADD SWAP1 JUMP JUMPDEST PUSH1 0x1 PUSH1 0x1 PUSH1 0xA0 SHL SUB SWAP2 DUP3 AND DUP1 ISZERO ISZERO SWAP4 SWAP3 SWAP1 SWAP2 DUP5 PUSH2 0x205F JUMPI JUMPDEST POP POP POP POP SWAP1 JUMP JUMPDEST DUP2 SWAP3 SWAP4 SWAP5 POP AND SWAP3 DUP3 DUP5 EQ SWAP4 DUP5 ISZERO PUSH2 0x20A1 JUMPI JUMPDEST POP DUP4 ISZERO PUSH2 0x2085 JUMPI JUMPDEST POP POP POP CODESIZE DUP1 DUP1 DUP1 PUSH2 0x2058 JUMP JUMPDEST SWAP1 SWAP2 SWAP3 POP PUSH1 0x0 MSTORE PUSH1 0x4 PUSH1 0x20 MSTORE PUSH1 0x40 PUSH1 0x0 KECCAK256 SLOAD AND EQ CODESIZE DUP1 DUP1 PUSH2 0x2079 JUMP JUMPDEST SWAP1 SWAP4 POP PUSH1 0x0 MSTORE PUSH1 0x5 PUSH1 0x20 MSTORE PUSH1 0x40 PUSH1 0x0 KECCAK256 DUP3 PUSH1 0x0 MSTORE PUSH1 0x20 MSTORE PUSH1 0xFF PUSH1 0x40 PUSH1 0x0 KECCAK256 SLOAD AND SWAP3 CODESIZE PUSH2 0x2071 JUMP JUMPDEST ISZERO PUSH2 0x20CF JUMPI JUMP JUMPDEST PUSH1 0x40 MLOAD PUSH3 0x461BCD PUSH1 0xE5 SHL DUP2 MSTORE PUSH1 0x20 PUSH1 0x4 DUP3 ADD MSTORE PUSH1 0x14 PUSH1 0x24 DUP3 ADD MSTORE PUSH20 0x1059D95B9D08191BD95CC81B9BDD08195E1A5CDD PUSH1 0x62 SHL PUSH1 0x44 DUP3 ADD MSTORE PUSH1 0x64 SWAP1 REVERT JUMPDEST PUSH1 0x20 SWAP2 SWAP3 DUP4 PUSH1 0x40 MLOAD SWAP5 DUP6 SWAP4 DUP5 CALLDATACOPY DUP3 ADD SWAP1 DUP2 MSTORE SUB ADD SWAP1 KECCAK256 SWAP1 JUMP JUMPDEST SWAP2 PUSH1 0x0 DUP4 DUP2 MSTORE PUSH1 0x20 PUSH1 0x2 DUP2 MSTORE PUSH1 0x40 SWAP5 PUSH2 0x2149 PUSH1 0x1 DUP1 PUSH1 0xA0 SHL SUB DUP8 DUP6 KECCAK256 SLOAD AND ISZERO ISZERO PUSH2 0x20C8 JUMP JUMPDEST PUSH1 0x0 DUP1 MLOAD PUSH1 0x20 PUSH2 0x248E DUP4 CODECOPY DUP2 MLOAD SWAP2 MSTORE PUSH2 0x2163 CALLDATASIZE DUP7 DUP9 PUSH2 0x12BE JUMP JUMPDEST DUP4 DUP2 MLOAD SWAP2 ADD KECCAK256 PUSH11 0x1859D95B9D15D85B1B195D PUSH1 0xAA SHL DUP5 DUP10 MLOAD PUSH2 0x2184 DUP2 PUSH2 0x1236 JUMP JUMPDEST PUSH1 0xB DUP2 MSTORE ADD MSTORE EQ PUSH2 0x21BD JUMPI SWAP3 DUP6 DUP4 PUSH1 0xC PUSH2 0x1310 SWAP8 SWAP5 PUSH2 0x21B6 SWAP10 SWAP8 PUSH2 0x21AB SWAP8 MSTORE MSTORE KECCAK256 SWAP2 PUSH2 0x210B JUMP JUMPDEST SWAP1 MLOAD SWAP3 DUP4 DUP1 SWAP3 PUSH2 0x1379 JUMP JUMPDEST SUB DUP3 PUSH2 0x1282 JUMP JUMPDEST DUP3 MSTORE PUSH1 0xD DUP2 MSTORE SWAP1 DUP5 SWAP1 KECCAK256 SLOAD SWAP4 MLOAD PUSH1 0x60 SWAP5 SWAP1 SWAP5 SHL PUSH12 0xFFFFFFFFFFFFFFFFFFFFFFFF NOT AND SWAP1 DUP5 ADD MSTORE POP POP PUSH1 0x14 DUP2 MSTORE PUSH2 0x1310 DUP2 PUSH2 0x1236 JUMP JUMPDEST DUP2 MLOAD SWAP2 SWAP1 PUSH1 0x41 DUP4 SUB PUSH2 0x2223 JUMPI PUSH2 0x221C SWAP3 POP PUSH1 0x20 DUP3 ADD MLOAD SWAP1 PUSH1 0x60 PUSH1 0x40 DUP5 ADD MLOAD SWAP4 ADD MLOAD PUSH1 0x0 BYTE SWAP1 PUSH2 0x222E JUMP JUMPDEST SWAP2 SWAP3 SWAP1 SWAP2 SWAP1 JUMP JUMPDEST POP POP PUSH1 0x0 SWAP2 PUSH1 0x2 SWAP2 SWAP1 JUMP JUMPDEST SWAP2 SWAP1 PUSH32 0x7FFFFFFFFFFFFFFFFFFFFFFFFFFFFFFF5D576E7357A4501DDFE92F46681B20A0 DUP5 GT PUSH2 0x22B2 JUMPI SWAP3 PUSH1 0x20 SWAP3 SWAP2 PUSH1 0xFF PUSH1 0x80 SWAP6 PUSH1 0x40 MLOAD SWAP5 DUP6 MSTORE AND DUP5 DUP5 ADD MSTORE PUSH1 0x40 DUP4 ADD MSTORE PUSH1 0x60 DUP3 ADD MSTORE PUSH1 0x0 SWAP3 DUP4 SWAP2 DUP3 DUP1 MSTORE PUSH1 0x1 GAS STATICCALL ISZERO PUSH2 0x22A6 JUMPI DUP1 MLOAD PUSH1 0x1 PUSH1 0x1 PUSH1 0xA0 SHL SUB DUP2 AND ISZERO PUSH2 0x229D JUMPI SWAP2 DUP2 SWAP1 JUMP JUMPDEST POP DUP1 SWAP2 PUSH1 0x1 SWAP2 SWAP1 JUMP JUMPDEST PUSH1 0x40 MLOAD SWAP1 RETURNDATASIZE SWAP1 DUP3 RETURNDATACOPY RETURNDATASIZE SWAP1 REVERT JUMPDEST POP POP POP PUSH1 0x0 SWAP2 PUSH1 0x3 SWAP2 SWAP1 JUMP JUMPDEST PUSH1 0x4 DUP2 LT ISZERO PUSH2 0x232D JUMPI DUP1 PUSH2 0x22D0 JUMPI POP POP JUMP JUMPDEST PUSH1 0x1 DUP2 SUB PUSH2 0x22EA JUMPI PUSH1 0x40 MLOAD PUSH4 0xF645EEDF PUSH1 0xE0 SHL DUP2 MSTORE PUSH1 0x4 SWAP1 REVERT JUMPDEST PUSH1 0x2 DUP2 SUB PUSH2 0x230B JUMPI PUSH1 0x40 MLOAD PUSH4 0xFCE698F7 PUSH1 0xE0 SHL DUP2 MSTORE PUSH1 0x4 DUP2 ADD DUP4 SWAP1 MSTORE PUSH1 0x24 SWAP1 REVERT JUMPDEST PUSH1 0x3 EQ PUSH2 0x2315 JUMPI POP JUMP JUMPDEST PUSH1 0x24 SWAP1 PUSH1 0x40 MLOAD SWAP1 PUSH4 0x35E2F383 PUSH1 0xE2 SHL DUP3 MSTORE PUSH1 0x4 DUP3 ADD MSTORE REVERT JUMPDEST PUSH4 0x4E487B71 PUSH1 0xE0 SHL PUSH1 0x0 MSTORE PUSH1 0x21 PUSH1 0x4 MSTORE PUSH1 0x24 PUSH1 0x0 REVERT JUMPDEST ADDRESS PUSH32 0x0 PUSH1 0x1 PUSH1 0x1 PUSH1 0xA0 SHL SUB AND EQ DUP1 PUSH2 0x2444 JUMPI JUMPDEST ISZERO PUSH2 0x239E JUMPI PUSH32 0x0 SWAP1 JUMP JUMPDEST PUSH1 0x40 MLOAD PUSH1 0x20 DUP2 ADD SWAP1 PUSH32 0x8B73C3C69BB8FE3D512ECC4CF759CC79239F7B179B0FFACAA9A75D522B39400F DUP3 MSTORE PUSH32 0x0 PUSH1 0x40 DUP3 ADD MSTORE PUSH32 0x0 PUSH1 0x60 DUP3 ADD MSTORE CHAINID PUSH1 0x80 DUP3 ADD MSTORE ADDRESS PUSH1 0xA0 DUP3 ADD MSTORE PUSH1 0xA0 DUP2 MSTORE PUSH1 0xC0 DUP2 ADD DUP2 DUP2 LT PUSH1 0x1 PUSH1 0x1 PUSH1 0x40 SHL SUB DUP3 GT OR PUSH2 0x1251 JUMPI PUSH1 0x40 MSTORE MLOAD SWAP1 KECCAK256 SWAP1 JUMP JUMPDEST POP PUSH32 0x0 CHAINID EQ PUSH2 0x2375 JUMP INVALID 0x2C EQ SWAP15 0xD5 BASEFEE 0xC6 0xD2 SWAP10 EXTCODECOPY 0xD7 RETURNDATACOPY INVALID XOR PUSH30 0xF6ECCABE4538091B33ADBD25FAFDB8A1468B2AC6109326E720D1435C0DB6 PUSH16 0x7E35EDA7839F52B6F1F5520A60788E13 0x2B 0x4E CODECOPY LOG2 PUSH5 0x6970667358 0x22 SLT KECCAK256 PUSH12 0x4125B51DE1F1BC6A3F9E1C59 SWAP13 PUSH16 0x9A334B6A8C72E62A2FEBAD59F2A04FBE 0x5C PUSH5 0x736F6C6343 STOP ADDMOD EQ STOP CALLER "},"methodIdentifiers":{"addReservedKey(string)":"8ad78154","approve(address,uint256)":"095ea7b3","balanceOf(address)":"70a08231","eip712Domain()":"84b0196e","getAgentWallet(uint256)":"00339509","getApproved(uint256)":"081812fc","getMetadata(uint256,string)":"cb4799f2","isApprovedForAll(address,address)":"e985e9c5","isReservedKey(string)":"7b17f2b0","name()":"06fdde03","owner()":"8da5cb5b","ownerOf(uint256)":"6352211e","register()":"1aa3a008","register(string)":"f2c298be","register(string,(string,bytes)[])":"8ea42286","renounceOwnership()":"715018a6","safeTransferFrom(address,address,uint256)":"42842e0e","safeTransferFrom(address,address,uint256,bytes)":"b88d4fde","setAgentURI(uint256,string)":"0af28bd3","setAgentWallet(uint256,address,uint256,bytes)":"2d1ef5ae","setApprovalForAll(address,bool)":"a22cb465","setMetadata(uint256,string,bytes)":"466648da","supportsInterface(bytes4)":"01ffc9a7","symbol()":"95d89b41","tokenURI(uint256)":"c87b56dd","transferFrom(address,address,uint256)":"23b872dd","transferOwnership(address)":"f2fde38b","unsetAgentWallet(uint256)":"3fddcf19"}}}}}