{"contracts/ReputationRegistry.sol":{"ReputationRegistry":{"abi":[{"inputs":[{"internalType":"address","name":"identityRegistry_","type":"address"}],"stateMutability":"nonpayable","type":"constructor"},{"anonymous":false,"inputs":[{"indexed":true,"internalType":"uint256","name":"agentId","type":"uint256"},{"indexed":true,"internalType":"address","name":"clientAddress","type":"address"},{"indexed":true,"internalType":"uint64","name":"feedbackIndex","type":"uint64"}],"name":"FeedbackRevoked","type":"event"},{"anonymous":false,"inputs":[{"indexed":true,"internalType":"uint256","name":"agentId","type":"uint256"},{"indexed":true,"internalType":"address","name":"clientAddress","type":"address"},{"indexed":false,"internalType":"uint64","name":"feedbackIndex","type":"uint64"},{"indexed":false,"internalType":"int128","name":"value","type":"int128"},{"indexed":false,"internalType":"uint8","name":"valueDecimals","type":"uint8"},{"indexed":true,"internalType":"string","name":"indexedTag1","type":"string"},{"indexed":false,"internalType":"string","name":"tag1","type":"string"},{"indexed":false,"internalType":"string","name":"tag2","type":"string"},{"indexed":false,"internalType":"string","name":"endpoint","type":"string"},{"indexed":false,"internalType":"string","name":"feedbackURI","type":"string"},{"indexed":false,"internalType":"bytes32","name":"feedbackHash","type":"bytes32"}],"name":"NewFeedback","type":"event"},{"anonymous":false,"inputs":[{"indexed":true,"internalType":"uint256","name":"agentId","type":"uint256"},{"indexed":true,"internalType":"address","name":"clientAddress","type":"address"},{"indexed":false,"internalType":"uint64","name":"feedbackIndex","type":"uint64"},{"indexed":true,"internalType":"address","name":"responder","type":"address"},{"indexed":false,"internalType":"string","name":"responseURI","type":"string"},{"indexed":false,"internalType":"bytes32","name":"responseHash","type":"bytes32"}],"name":"ResponseAppended","type":"event"},{"inputs":[],"name":"FEEDBACK_COOLDOWN","outputs":[{"internalType":"uint256","name":"","type":"uint256"}],"stateMutability":"view","type":"function"},{"inputs":[],"name":"MAX_ITERATION","outputs":[{"internalType":"uint256","name":"","type":"uint256"}],"stateMutability":"view","type":"function"},{"inputs":[{"internalType":"uint256","name":"agentId","type":"uint256"},{"internalType":"address","name":"clientAddress","type":"address"},{"internalType":"uint64","name":"feedbackIndex","type":"uint64"},{"internalType":"string","name":"responseURI","type":"string"},{"internalType":"bytes32","name":"responseHash","type":"bytes32"}],"name":"appendResponse","outputs":[],"stateMutability":"nonpayable","type":"function"},{"inputs":[{"internalType":"uint256","name":"agentId","type":"uint256"}],"name":"getClientCount","outputs":[{"internalType":"uint256","name":"","type":"uint256"}],"stateMutability":"view","type":"function"},{"inputs":[{"internalType":"uint256","name":"agentId","type":"uint256"},{"internalType":"uint256","name":"offset","type":"uint256"},{"internalType":"uint256","name":"limit","type":"uint256"}],"name":"getClients","outputs":[{"internalType":"address[]","name":"","type":"address[]"}],"stateMutability":"view","type":"function"},{"inputs":[],"name":"getIdentityRegistry","outputs":[{"internalType":"address","name":"","type":"address"}],"stateMutability":"view","type":"function"},{"inputs":[{"internalType":"uint256","name":"agentId","type":"uint256"},{"internalType":"address","name":"clientAddress","type":"address"}],"name":"getLastIndex","outputs":[{"internalType":"uint64","name":"","type":"uint64"}],"stateMutability":"view","type":"function"},{"inputs":[{"internalType":"uint256","name":"agentId","type":"uint256"},{"internalType":"address[]","name":"clientAddresses","type":"address[]"},{"internalType":"string","name":"tag1","type":"string"},{"internalType":"string","name":"tag2","type":"string"}],"name":"getSummary","outputs":[{"internalType":"uint64","name":"count","type":"uint64"},{"internalType":"int128","name":"summaryValue","type":"int128"},{"internalType":"uint8","name":"summaryValueDecimals","type":"uint8"}],"stateMutability":"view","type":"function"},{"inputs":[{"internalType":"uint256","name":"agentId","type":"uint256"},{"internalType":"int128","name":"value","type":"int128"},{"internalType":"uint8","name":"valueDecimals","type":"uint8"},{"internalType":"string","name":"tag1","type":"string"},{"internalType":"string","name":"tag2","type":"string"},{"internalType":"string","name":"endpoint","type":"string"},{"internalType":"string","name":"feedbackURI","type":"string"},{"internalType":"bytes32","name":"feedbackHash","type":"bytes32"}],"name":"giveFeedback","outputs":[],"stateMutability":"nonpayable","type":"function"},{"inputs":[],"name":"identityRegistry","outputs":[{"internalType":"contract IdentityRegistry","name":"","type":"address"}],"stateMutability":"view","type":"function"},{"inputs":[{"internalType":"uint256","name":"agentId","type":"uint256"},{"internalType":"address","name":"clientAddress","type":"address"},{"internalType":"uint64","name":"feedbackIndex","type":"uint64"}],"name":"readFeedback","outputs":[{"internalType":"int128","name":"value","type":"int128"},{"internalType":"uint8","name":"valueDecimals","type":"uint8"},{"internalType":"string","name":"tag1","type":"string"},{"internalType":"string","name":"tag2","type":"string"},{"internalType":"bool","name":"isRevoked","type":"bool"}],"stateMutability":"view","type":"function"},{"inputs":[{"internalType":"uint256","name":"agentId","type":"uint256"},{"internalType":"address","name":"clientAddress","type":"address"},{"internalType":"uint64","name":"startIndex","type":"uint64"},{"internalType":"uint64","name":"limit","type":"uint64"}],"name":"readFeedbackPaginated","outputs":[{"internalType":"uint64[]","name":"feedbackIndexes","type":"uint64[]"},{"internalType":"int128[]","name":"values","type":"int128[]"},{"internalType":"uint8[]","name":"valueDecimals","type":"uint8[]"},{"internalType":"string[]","name":"tag1s","type":"string[]"},{"internalType":"string[]","name":"tag2s","type":"string[]"},{"internalType":"bool[]","name":"revokedStatuses","type":"bool[]"}],"stateMutability":"view","type":"function"},{"inputs":[{"internalType":"uint256","name":"agentId","type":"uint256"},{"internalType":"uint64","name":"feedbackIndex","type":"uint64"}],"name":"revokeFeedback","outputs":[],"stateMutability":"nonpayable","type":"function"}],"evm":{"bytecode":{"linkReferences":{},"object":"60a0346100d357601f611b9838819003918201601f19168301916001600160401b038311848410176100d8578084926020946040528339810103126100d357516001600160a01b038116908190036100d357801561008e57608052604051611aa990816100ef82396080518181816101ce01528181610988015281816109f801528181610a6a01526112230152f35b60405162461bcd60e51b815260206004820152601860248201527f496e76616c6964207265676973747279206164647265737300000000000000006044820152606490fd5b600080fd5b634e487b7160e01b600052604160045260246000fdfe608080604052600436101561001357600080fd5b60003560e01c908163134e18f41461121057508063232b0810146111235780633c036a7e146108b9578063494a38d71461084b5780634ab3ca99146107535780636faf25ed1461073757806370dfa6bc146105cb57806381bbba58146102465780639477cdc614610229578063aa65d93f146101fd578063bc4d861b146101b8578063c2349ab2146101045763f2d81759146100ae57600080fd5b346100ff5760403660031901126100ff576100c7611252565b600435600052600160205260406000209060018060a01b031660005260205260206001600160401b0360406000205416604051908152f35b600080fd5b346100ff5760a03660031901126100ff57600435610120611252565b90610129611268565b906001600160401b036064358181116100ff577fb1c6be0b5b8aef6539e2fac0fd131a2faa7b49edf8e505b5eb0ad487d56051d49161016f61019c9236906004016112be565b909161018461017f888a89611515565b6114c9565b604051961686526060602087015260608601916114a8565b608435604085015233946001600160a01b0316939081900390a4005b346100ff5760003660031901126100ff576040517f00000000000000000000000000000000000000000000000000000000000000006001600160a01b03168152602090f35b346100ff5760203660031901126100ff5760043560005260026020526020604060002054604051908152f35b346100ff5760003660031901126100ff576020604051610e108152f35b346100ff5760803660031901126100ff576001600160401b03602435116100ff573660236024350112156100ff576001600160401b0360243560040135116100ff5736602480356004013560051b81350101116100ff576044356001600160401b0381116100ff576102bc9036906004016112be565b906064356001600160401b0381116100ff576102dc9036906004016112be565b906024356004013515610586576064602435600401351161054e5760009384938493849391845b6004602435013588108080610544575b1561051e5715610508576024803560058a901b010135906001600160a01b03821682036100ff576004356000526001602052604060002060018060a01b0383166000526020526001600160401b0360406000205416986001915b8a6001600160401b0384161115806104fe575b156104e45761038e90611564565b916004356000526000602052604060002060018060a01b03851660005260205260406000206001600160401b038216600052602052604060002060ff60038201541661046657881515806104af575b6104665786151580610473575b61046657549889600f0b8a600f0b820112600082129080158216911516176104505761041b908a600f0b019c6113f8565b9860ff8b1660ff8260801c1611610440575b50610437906113f8565b919a979a61036d565b60801c60ff16995061043761042d565b634e487b7160e01b600052601160045260246000fd5b50610437909b989b6113f8565b5060405161048f816104888160028601611573565b0382611362565b602081519101206104a136898b611410565b6020815191012014156103ea565b506040516104c4816104888160018601611573565b602081519101206104d6368b89611410565b6020815191012014156103dd565b995090506104f59150989598611564565b96979497610303565b5060648110610380565b634e487b7160e01b600052603260045260246000fd5b60608a60ff8a8a6001600160401b0360405194168452600f0b6020840152166040820152f35b5060648210610313565b60405162461bcd60e51b815260206004820152601060248201526f546f6f206d616e7920636c69656e747360801b6044820152606490fd5b60405162461bcd60e51b815260206004820152601d60248201527f4d757374207370656369667920636c69656e74206164647265737365730000006044820152606490fd5b346100ff5760803660031901126100ff576105e4611252565b6105ec611268565b906064356001600160401b039283821682036100ff5761060e9260043561179f565b93959492909160405196879660c088019060c08952865180925260e08901916020809801916000905b82821061071a57505050508781038689015285808351928381520192019060005b81811061070057505050868103604088015284808451928381520193019060005b8181106106e6575050508161069991876106a795940360608901526112eb565b9085820360808701526112eb565b83810360a085015281808451928381520193019160005b8281106106cd57505050500390f35b83511515855286955093810193928101926001016106be565b825160ff1685528998509386019391860191600101610679565b8251600f0b84528a99509287019291870191600101610658565b8351811685528c9b50938901939289019260019190910190610637565b346100ff5760003660031901126100ff57602060405160648152f35b346100ff5760403660031901126100ff57600435602435906001600160401b038216918281036100ff5761017f61078b913384611515565b806000526020600081526040600020336000528152604060002083600052815260ff60036040600020015416610815578160005260008152604060002033600052815260406000209083600052526003604060002001600160ff1982541617905533907f25156fd3288212246d8b008d5921fde376c71ed14ac2e072a506eb06fde6d09d600080a4005b6064906040519062461bcd60e51b82526004820152600f60248201526e105b1c9958591e481c995d9bdad959608a1b6044820152fd5b346100ff5760603660031901126100ff5761086d604435602435600435611673565b604051809160208083018184528251809152816040850193019160005b82811061089957505050500390f35b83516001600160a01b03168552869550938101939281019260010161088a565b346100ff576101003660031901126100ff5760243580600f0b81036100ff5760443560ff811681036100ff576064356001600160401b0381116100ff576109049036906004016112be565b906084356001600160401b0381116100ff576109249036906004016112be565b9060a4356001600160401b0381116100ff576109449036906004016112be565b91909260c4356001600160401b0381116100ff576109669036906004016112be565b6040516331a9108f60e11b8152600480359082015291979096916020816024817f00000000000000000000000000000000000000000000000000000000000000006001600160a01b03165afa90811561105057600091611104575b506001600160a01b0316156110c857601260ff8a161161108b576040516331a9108f60e11b815260048035908201526020816024817f00000000000000000000000000000000000000000000000000000000000000006001600160a01b03165afa9081156110505760009161105c575b506001600160a01b0316610a47338214156113a2565b60405163e985e9c560e01b815260048101919091523360248201526020816044817f00000000000000000000000000000000000000000000000000000000000000006001600160a01b03165afa801561105057600090611013575b610aad9150156113a2565b3360005260046020526040600020600435600052602052604060002054610e108101809111610450574210610fce5733600052600460205260406000206004356000526020524260406000205560016020526040600020336000526020526040600020988954996001600160401b03610b27818d166113f8565b16809b6001600160401b0319161790556040518060c08101106001600160401b0360c083011117610e215760c081016040528b600f0b8152602081019060ff83168252610b75368587611410565b60408201908152610b8736888a611410565b6060830152600060808301524260a0830152600435600052600060205260406000203360005260205260406000208d6000526020526040600020928251906fffffffffffffffffffffffffffffffff85549160ff60801b905160801b1692169070ffffffffffffffffffffffffffffffffff191617178355518051906001600160401b038211610e21578190610c206001860154611456565b601f8111610f7b575b50602090601f8311600114610f0957600092610efe575b50508160011b916000199060031b1c19161760018301555b60608101518051906001600160401b038211610e2157610c7b6002850154611456565b601f8111610eb7575b50602090601f8311600114610e425791806004949260a094600092610e37575b50508160011b916000199060031b1c19161760028501555b600384016080820151151560ff801983541691161790550151910155600435600052600360205260406000203360005260205260ff6040600020541615610daa575b6040518284823780838101600081520390209a6040519a8b52600f0b60208b015260ff1660408a0152606089016101009052610100890190610d3f926114a8565b908782036080890152610d51926114a8565b9085820360a0870152610d63926114a8565b9083820360c0850152610d75926114a8565b60e43560e083015233918060043592037f6a4a61743519c9d648a14e6493f47dbe3ff1aa29e7785c96c8326a205e58febc91a4005b60043560005260026020526040600020805468010000000000000000811015610e2157610ddc91600182018155611490565b81549060031b9033821b9160018060a01b03901b191617905560043560005260036020526040600020336000526020526040600020600160ff19825416179055610cfe565b634e487b7160e01b600052604160045260246000fd5b015190503880610ca4565b906002850160005260206000209160005b601f1985168110610e9f5750926004949260019260a09583601f19811610610e86575b505050811b016002850155610cbc565b015160001960f88460031b161c19169055388080610e76565b91926020600181928685015181550194019201610e53565b600285016000526020600020601f840160051c810160208510610ef7575b601f830160051c82018110610eeb575050610c84565b60008155600101610ed5565b5080610ed5565b015190508f80610c40565b9250600185016000526020600020906000935b601f1984168510610f60576001945083601f19811610610f47575b505050811b016001830155610c58565b015160001960f88460031b161c191690558f8080610f37565b81810151835560209485019460019093019290910190610f1c565b909150600185016000526020600020601f840160051c810160208510610fc7575b90849392915b601f830160051c82018110610fb8575050610c29565b60008155859450600101610fa2565b5080610f9c565b60405162461bcd60e51b815260206004820152601d60248201527f466565646261636b20636f6f6c646f776e206e6f7420656c61707365640000006044820152606490fd5b506020813d602011611048575b8161102d60209383611362565b810103126100ff575180151581036100ff57610aad90610aa2565b3d9150611020565b6040513d6000823e3d90fd5b61107e915060203d602011611084575b6110768183611362565b810190611383565b8b610a31565b503d61106c565b60405162461bcd60e51b8152602060048201526015602482015274496e76616c69642076616c7565446563696d616c7360581b6044820152606490fd5b60405162461bcd60e51b81526020600482015260146024820152731059d95b9d08191bd95cc81b9bdd08195e1a5cdd60621b6044820152606490fd5b61111d915060203d602011611084576110768183611362565b8b6109c1565b346100ff5760603660031901126100ff5760043561113f611252565b611147611268565b9161115661017f848484611515565b600052600060205260406000209060018060a01b03166000526020526001600160401b036040600020911660005260205260ff604060002080549061120460026111f685600385015416936111d0604051916111c0836111b98160018501611573565b0384611362565b6111b96040518096819301611573565b60405196868897600f0b885260801c16602087015260a0604087015260a086019061127e565b90848203606086015261127e565b90151560808301520390f35b346100ff5760003660031901126100ff577f00000000000000000000000000000000000000000000000000000000000000006001600160a01b03168152602090f35b602435906001600160a01b03821682036100ff57565b604435906001600160401b03821682036100ff57565b919082519283825260005b8481106112aa575050826000602080949584010152601f8019910116010190565b602081830181015184830182015201611289565b9181601f840112156100ff578235916001600160401b0383116100ff57602083818601950101116100ff57565b908082519081815260208091019281808460051b8301019501936000915b8483106113195750505050505090565b9091929394958480611337600193601f198682030187528a5161127e565b9801930193019194939290611309565b602081019081106001600160401b03821117610e2157604052565b90601f801991011681019081106001600160401b03821117610e2157604052565b908160209103126100ff57516001600160a01b03811681036100ff5790565b156113a957565b60405162461bcd60e51b815260206004820152602160248201527f43616e6e6f74206769766520666565646261636b20746f206f776e206167656e6044820152601d60fa1b6064820152608490fd5b6001600160401b038091169081146104505760010190565b9291926001600160401b038211610e215760405191611439601f8201601f191660200184611362565b8294818452818301116100ff578281602093846000960137010152565b90600182811c92168015611486575b602083101461147057565b634e487b7160e01b600052602260045260246000fd5b91607f1691611465565b80548210156105085760005260206000200190600090565b908060209392818452848401376000828201840152601f01601f1916010190565b156114d057565b60405162461bcd60e51b815260206004820152601760248201527f466565646261636b20646f6573206e6f742065786973740000000000000000006044820152606490fd5b916001600160401b03809116918215159384611533575b5050505090565b60009081526001602090815260408083206001600160a01b039094168352929052205416101590503880808061152c565b60001981146104505760010190565b906000929180549161158483611456565b9182825260019384811690816000146115e657506001146115a6575b50505050565b90919394506000526020928360002092846000945b8386106115d25750505050010190388080806115a0565b8054858701830152940193859082016115bb565b9294505050602093945060ff191683830152151560051b010190388080806115a0565b6001600160401b038111610e215760051b60200190565b9061162a82611609565b6116376040519182611362565b8281528092611648601f1991611609565b0190602036910137565b9190820391821161045057565b80518210156105085760209160051b010190565b906000918252600260205260408220928354908183101561171f5782019283831161170b5750808311611703575b506116b46116af8284611652565b611620565b92815b8381106116c5575050505090565b806116d36116fe9284611490565b905460039190911b1c6001600160a01b03166116f86116f28684611652565b8861165f565b52611564565b6116b7565b9150386116a1565b634e487b7160e01b81526011600452602490fd5b50505090506040519061173182611347565b80825236813790565b9061174482611609565b6117516040519182611362565b8281528092611762601f1991611609565b019060005b82811061177357505050565b806060602080938501015201611767565b9190916001600160401b038080941691160191821161045057565b90939192816000526001602052604060002060018060a01b0386166000526020526001600160401b03604060002054166001600160401b038516918183118015611a6b575b6119f1576001600160401b036117fd6000199288611784565b16016001600160401b03811161045057816001600160401b0392838316116119e9575b5016036001600160401b038111610450576001600160401b036001911601926001600160401b0384116104505761185f6001600160401b038516611620565b946118726001600160401b038616611620565b926118856001600160401b038716611620565b906118986001600160401b03881661173a565b926118ab6001600160401b03891661173a565b946118be6001600160401b038a16611620565b9760005b6001600160401b038b166001600160401b03821610156119dd576119d6818d6118f36001600160401b039487611784565b886000526000602052604060002060018060a01b038916600052602052846040600020911690816000526020526119326040600020928685169061165f565b5260038154918d61194a84600f0b918887169061165f565b5260ff809360801c1661195f8786168d61165f565b52604051611974816104888160018601611573565b6119808588168e61165f565b5261198d8685168d61165f565b506040516119af8e6119a6836111b98160028801611573565b8887169061165f565b526119bc8487168e61165f565b500154166119cc8285168e61165f565b90151590526113f8565b90506118c2565b50939794969850505050565b905038611820565b5050505091505060405190611a0582611347565b6000825260405191611a1683611347565b6000835260405191611a2783611347565b6000835260405191611a3883611347565b6000835260405191611a4983611347565b6000835260405191611a5a83611347565b600083526000368137959493929190565b5082156117e456fea2646970667358221220551760d61d2c0d8578dd783a226772e848361aa10f99fd0f9f6524a253d2869164736f6c63430008140033","opcodes":"PUSH1 0xA0 CALLVALUE PUSH2 0xD3 JUMPI PUSH1 0x1F PUSH2 0x1B98 CODESIZE DUP2 SWAP1 SUB SWAP2 DUP3 ADD PUSH1 0x1F NOT AND DUP4 ADD SWAP2 PUSH1 0x1 PUSH1 0x1 PUSH1 0x40 SHL SUB DUP4 GT DUP5 DUP5 LT OR PUSH2 0xD8 JUMPI DUP1 DUP5 SWAP3 PUSH1 0x20 SWAP5 PUSH1 0x40 MSTORE DUP4 CODECOPY DUP2 ADD SUB SLT PUSH2 0xD3 JUMPI MLOAD PUSH1 0x1 PUSH1 0x1 PUSH1 0xA0 SHL SUB DUP2 AND SWAP1 DUP2 SWAP1 SUB PUSH2 0xD3 JUMPI DUP1 ISZERO PUSH2 0x8E JUMPI PUSH1 0x80 MSTORE PUSH1 0x40 MLOAD PUSH2 0x1AA9 SWAP1 DUP2 PUSH2 0xEF DUP3 CODECOPY PUSH1 0x80 MLOAD DUP2 DUP2 DUP2 PUSH2 0x1CE ADD MSTORE DUP2 DUP2 PUSH2 0x988 ADD MSTORE DUP2 DUP2 PUSH2 0x9F8 ADD MSTORE DUP2 DUP2 PUSH2 0xA6A ADD MSTORE PUSH2 0x1223 ADD MSTORE RETURN JUMPDEST PUSH1 0x40 MLOAD PUSH3 0x461BCD PUSH1 0xE5 SHL DUP2 MSTORE PUSH1 0x20 PUSH1 0x4 DUP3 ADD MSTORE PUSH1 0x18 PUSH1 0x24 DUP3 ADD MSTORE PUSH32 0x496E76616C696420726567697374727920616464726573730000000000000000 PUSH1 0x44 DUP3 ADD MSTORE PUSH1 0x64 SWAP1 REVERT JUMPDEST PUSH1 0x0 DUP1 REVERT JUMPDEST PUSH4 0x4E487B71 PUSH1 0xE0 SHL PUSH1 0x0 MSTORE PUSH1 0x41 PUSH1 0x4 MSTORE PUSH1 0x24 PUSH1 0x0 REVERT INVALID PUSH1 0x80 DUP1 PUSH1 0x40 MSTORE PUSH1 0x4 CALLDATASIZE LT ISZERO PUSH2 0x13 JUMPI PUSH1 0x0 DUP1 REVERT JUMPDEST PUSH1 0x0 CALLDATALOAD PUSH1 0xE0 SHR SWAP1 DUP2 PUSH4 0x134E18F4 EQ PUSH2 0x1210 JUMPI POP DUP1 PUSH4 0x232B0810 EQ PUSH2 0x1123 JUMPI DUP1 PUSH4 0x3C036A7E EQ PUSH2 0x8B9 JUMPI DUP1 PUSH4 0x494A38D7 EQ PUSH2 0x84B JUMPI DUP1 PUSH4 0x4AB3CA99 EQ PUSH2 0x753 JUMPI DUP1 PUSH4 0x6FAF25ED EQ PUSH2 0x737 JUMPI DUP1 PUSH4 0x70DFA6BC EQ PUSH2 0x5CB JUMPI DUP1 PUSH4 0x81BBBA58 EQ PUSH2 0x246 JUMPI DUP1 PUSH4 0x9477CDC6 EQ PUSH2 0x229 JUMPI DUP1 PUSH4 0xAA65D93F EQ PUSH2 0x1FD JUMPI DUP1 PUSH4 0xBC4D861B EQ PUSH2 0x1B8 JUMPI DUP1 PUSH4 0xC2349AB2 EQ PUSH2 0x104 JUMPI PUSH4 0xF2D81759 EQ PUSH2 0xAE JUMPI PUSH1 0x0 DUP1 REVERT JUMPDEST CALLVALUE PUSH2 0xFF JUMPI PUSH1 0x40 CALLDATASIZE PUSH1 0x3 NOT ADD SLT PUSH2 0xFF JUMPI PUSH2 0xC7 PUSH2 0x1252 JUMP JUMPDEST PUSH1 0x4 CALLDATALOAD PUSH1 0x0 MSTORE PUSH1 0x1 PUSH1 0x20 MSTORE PUSH1 0x40 PUSH1 0x0 KECCAK256 SWAP1 PUSH1 0x1 DUP1 PUSH1 0xA0 SHL SUB AND PUSH1 0x0 MSTORE PUSH1 0x20 MSTORE PUSH1 0x20 PUSH1 0x1 PUSH1 0x1 PUSH1 0x40 SHL SUB PUSH1 0x40 PUSH1 0x0 KECCAK256 SLOAD AND PUSH1 0x40 MLOAD SWAP1 DUP2 MSTORE RETURN JUMPDEST PUSH1 0x0 DUP1 REVERT JUMPDEST CALLVALUE PUSH2 0xFF JUMPI PUSH1 0xA0 CALLDATASIZE PUSH1 0x3 NOT ADD SLT PUSH2 0xFF JUMPI PUSH1 0x4 CALLDATALOAD PUSH2 0x120 PUSH2 0x1252 JUMP JUMPDEST SWAP1 PUSH2 0x129 PUSH2 0x1268 JUMP JUMPDEST SWAP1 PUSH1 0x1 PUSH1 0x1 PUSH1 0x40 SHL SUB PUSH1 0x64 CALLDATALOAD DUP2 DUP2 GT PUSH2 0xFF JUMPI PUSH32 0xB1C6BE0B5B8AEF6539E2FAC0FD131A2FAA7B49EDF8E505B5EB0AD487D56051D4 SWAP2 PUSH2 0x16F PUSH2 0x19C SWAP3 CALLDATASIZE SWAP1 PUSH1 0x4 ADD PUSH2 0x12BE JUMP JUMPDEST SWAP1 SWAP2 PUSH2 0x184 PUSH2 0x17F DUP9 DUP11 DUP10 PUSH2 0x1515 JUMP JUMPDEST PUSH2 0x14C9 JUMP JUMPDEST PUSH1 0x40 MLOAD SWAP7 AND DUP7 MSTORE PUSH1 0x60 PUSH1 0x20 DUP8 ADD MSTORE PUSH1 0x60 DUP7 ADD SWAP2 PUSH2 0x14A8 JUMP JUMPDEST PUSH1 0x84 CALLDATALOAD PUSH1 0x40 DUP6 ADD MSTORE CALLER SWAP5 PUSH1 0x1 PUSH1 0x1 PUSH1 0xA0 SHL SUB AND SWAP4 SWAP1 DUP2 SWAP1 SUB SWAP1 LOG4 STOP JUMPDEST CALLVALUE PUSH2 0xFF JUMPI PUSH1 0x0 CALLDATASIZE PUSH1 0x3 NOT ADD SLT PUSH2 0xFF JUMPI PUSH1 0x40 MLOAD PUSH32 0x0 PUSH1 0x1 PUSH1 0x1 PUSH1 0xA0 SHL SUB AND DUP2 MSTORE PUSH1 0x20 SWAP1 RETURN JUMPDEST CALLVALUE PUSH2 0xFF JUMPI PUSH1 0x20 CALLDATASIZE PUSH1 0x3 NOT ADD SLT PUSH2 0xFF JUMPI PUSH1 0x4 CALLDATALOAD PUSH1 0x0 MSTORE PUSH1 0x2 PUSH1 0x20 MSTORE PUSH1 0x20 PUSH1 0x40 PUSH1 0x0 KECCAK256 SLOAD PUSH1 0x40 MLOAD SWAP1 DUP2 MSTORE RETURN JUMPDEST CALLVALUE PUSH2 0xFF JUMPI PUSH1 0x0 CALLDATASIZE PUSH1 0x3 NOT ADD SLT PUSH2 0xFF JUMPI PUSH1 0x20 PUSH1 0x40 MLOAD PUSH2 0xE10 DUP2 MSTORE RETURN JUMPDEST CALLVALUE PUSH2 0xFF JUMPI PUSH1 0x80 CALLDATASIZE PUSH1 0x3 NOT ADD SLT PUSH2 0xFF JUMPI PUSH1 0x1 PUSH1 0x1 PUSH1 0x40 SHL SUB PUSH1 0x24 CALLDATALOAD GT PUSH2 0xFF JUMPI CALLDATASIZE PUSH1 0x23 PUSH1 0x24 CALLDATALOAD ADD SLT ISZERO PUSH2 0xFF JUMPI PUSH1 0x1 PUSH1 0x1 PUSH1 0x40 SHL SUB PUSH1 0x24 CALLDATALOAD PUSH1 0x4 ADD CALLDATALOAD GT PUSH2 0xFF JUMPI CALLDATASIZE PUSH1 0x24 DUP1 CALLDATALOAD PUSH1 0x4 ADD CALLDATALOAD PUSH1 0x5 SHL DUP2 CALLDATALOAD ADD ADD GT PUSH2 0xFF JUMPI PUSH1 0x44 CALLDATALOAD PUSH1 0x1 PUSH1 0x1 PUSH1 0x40 SHL SUB DUP2 GT PUSH2 0xFF JUMPI PUSH2 0x2BC SWAP1 CALLDATASIZE SWAP1 PUSH1 0x4 ADD PUSH2 0x12BE JUMP JUMPDEST SWAP1 PUSH1 0x64 CALLDATALOAD PUSH1 0x1 PUSH1 0x1 PUSH1 0x40 SHL SUB DUP2 GT PUSH2 0xFF JUMPI PUSH2 0x2DC SWAP1 CALLDATASIZE SWAP1 PUSH1 0x4 ADD PUSH2 0x12BE JUMP JUMPDEST SWAP1 PUSH1 0x24 CALLDATALOAD PUSH1 0x4 ADD CALLDATALOAD ISZERO PUSH2 0x586 JUMPI PUSH1 0x64 PUSH1 0x24 CALLDATALOAD PUSH1 0x4 ADD CALLDATALOAD GT PUSH2 0x54E JUMPI PUSH1 0x0 SWAP4 DUP5 SWAP4 DUP5 SWAP4 DUP5 SWAP4 SWAP2 DUP5 JUMPDEST PUSH1 0x4 PUSH1 0x24 CALLDATALOAD ADD CALLDATALOAD DUP9 LT DUP1 DUP1 PUSH2 0x544 JUMPI JUMPDEST ISZERO PUSH2 0x51E JUMPI ISZERO PUSH2 0x508 JUMPI PUSH1 0x24 DUP1 CALLDATALOAD PUSH1 0x5 DUP11 SWAP1 SHL ADD ADD CALLDATALOAD SWAP1 PUSH1 0x1 PUSH1 0x1 PUSH1 0xA0 SHL SUB DUP3 AND DUP3 SUB PUSH2 0xFF JUMPI PUSH1 0x4 CALLDATALOAD PUSH1 0x0 MSTORE PUSH1 0x1 PUSH1 0x20 MSTORE PUSH1 0x40 PUSH1 0x0 KECCAK256 PUSH1 0x1 DUP1 PUSH1 0xA0 SHL SUB DUP4 AND PUSH1 0x0 MSTORE PUSH1 0x20 MSTORE PUSH1 0x1 PUSH1 0x1 PUSH1 0x40 SHL SUB PUSH1 0x40 PUSH1 0x0 KECCAK256 SLOAD AND SWAP9 PUSH1 0x1 SWAP2 JUMPDEST DUP11 PUSH1 0x1 PUSH1 0x1 PUSH1 0x40 SHL SUB DUP5 AND GT ISZERO DUP1 PUSH2 0x4FE JUMPI JUMPDEST ISZERO PUSH2 0x4E4 JUMPI PUSH2 0x38E SWAP1 PUSH2 0x1564 JUMP JUMPDEST SWAP2 PUSH1 0x4 CALLDATALOAD PUSH1 0x0 MSTORE PUSH1 0x0 PUSH1 0x20 MSTORE PUSH1 0x40 PUSH1 0x0 KECCAK256 PUSH1 0x1 DUP1 PUSH1 0xA0 SHL SUB DUP6 AND PUSH1 0x0 MSTORE PUSH1 0x20 MSTORE PUSH1 0x40 PUSH1 0x0 KECCAK256 PUSH1 0x1 PUSH1 0x1 PUSH1 0x40 SHL SUB DUP3 AND PUSH1 0x0 MSTORE PUSH1 0x20 MSTORE PUSH1 0x40 PUSH1 0x0 KECCAK256 PUSH1 0xFF PUSH1 0x3 DUP3 ADD SLOAD AND PUSH2 0x466 JUMPI DUP9 ISZERO ISZERO DUP1 PUSH2 0x4AF JUMPI JUMPDEST PUSH2 0x466 JUMPI DUP7 ISZERO ISZERO DUP1 PUSH2 0x473 JUMPI JUMPDEST PUSH2 0x466 JUMPI SLOAD SWAP9 DUP10 PUSH1 0xF SIGNEXTEND DUP11 PUSH1 0xF SIGNEXTEND DUP3 ADD SLT PUSH1 0x0 DUP3 SLT SWAP1 DUP1 ISZERO DUP3 AND SWAP2 ISZERO AND OR PUSH2 0x450 JUMPI PUSH2 0x41B SWAP1 DUP11 PUSH1 0xF SIGNEXTEND ADD SWAP13 PUSH2 0x13F8 JUMP JUMPDEST SWAP9 PUSH1 0xFF DUP12 AND PUSH1 0xFF DUP3 PUSH1 0x80 SHR AND GT PUSH2 0x440 JUMPI JUMPDEST POP PUSH2 0x437 SWAP1 PUSH2 0x13F8 JUMP JUMPDEST SWAP2 SWAP11 SWAP8 SWAP11 PUSH2 0x36D JUMP JUMPDEST PUSH1 0x80 SHR PUSH1 0xFF AND SWAP10 POP PUSH2 0x437 PUSH2 0x42D JUMP JUMPDEST PUSH4 0x4E487B71 PUSH1 0xE0 SHL PUSH1 0x0 MSTORE PUSH1 0x11 PUSH1 0x4 MSTORE PUSH1 0x24 PUSH1 0x0 REVERT JUMPDEST POP PUSH2 0x437 SWAP1 SWAP12 SWAP9 SWAP12 PUSH2 0x13F8 JUMP JUMPDEST POP PUSH1 0x40 MLOAD PUSH2 0x48F DUP2 PUSH2 0x488 DUP2 PUSH1 0x2 DUP7 ADD PUSH2 0x1573 JUMP JUMPDEST SUB DUP3 PUSH2 0x1362 JUMP JUMPDEST PUSH1 0x20 DUP2 MLOAD SWAP2 ADD KECCAK256 PUSH2 0x4A1 CALLDATASIZE DUP10 DUP12 PUSH2 0x1410 JUMP JUMPDEST PUSH1 0x20 DUP2 MLOAD SWAP2 ADD KECCAK256 EQ ISZERO PUSH2 0x3EA JUMP JUMPDEST POP PUSH1 0x40 MLOAD PUSH2 0x4C4 DUP2 PUSH2 0x488 DUP2 PUSH1 0x1 DUP7 ADD PUSH2 0x1573 JUMP JUMPDEST PUSH1 0x20 DUP2 MLOAD SWAP2 ADD KECCAK256 PUSH2 0x4D6 CALLDATASIZE DUP12 DUP10 PUSH2 0x1410 JUMP JUMPDEST PUSH1 0x20 DUP2 MLOAD SWAP2 ADD KECCAK256 EQ ISZERO PUSH2 0x3DD JUMP JUMPDEST SWAP10 POP SWAP1 POP PUSH2 0x4F5 SWAP2 POP SWAP9 SWAP6 SWAP9 PUSH2 0x1564 JUMP JUMPDEST SWAP7 SWAP8 SWAP5 SWAP8 PUSH2 0x303 JUMP JUMPDEST POP PUSH1 0x64 DUP2 LT PUSH2 0x380 JUMP JUMPDEST PUSH4 0x4E487B71 PUSH1 0xE0 SHL PUSH1 0x0 MSTORE PUSH1 0x32 PUSH1 0x4 MSTORE PUSH1 0x24 PUSH1 0x0 REVERT JUMPDEST PUSH1 0x60 DUP11 PUSH1 0xFF DUP11 DUP11 PUSH1 0x1 PUSH1 0x1 PUSH1 0x40 SHL SUB PUSH1 0x40 MLOAD SWAP5 AND DUP5 MSTORE PUSH1 0xF SIGNEXTEND PUSH1 0x20 DUP5 ADD MSTORE AND PUSH1 0x40 DUP3 ADD MSTORE RETURN JUMPDEST POP PUSH1 0x64 DUP3 LT PUSH2 0x313 JUMP JUMPDEST PUSH1 0x40 MLOAD PUSH3 0x461BCD PUSH1 0xE5 SHL DUP2 MSTORE PUSH1 0x20 PUSH1 0x4 DUP3 ADD MSTORE PUSH1 0x10 PUSH1 0x24 DUP3 ADD MSTORE PUSH16 0x546F6F206D616E7920636C69656E7473 PUSH1 0x80 SHL PUSH1 0x44 DUP3 ADD MSTORE PUSH1 0x64 SWAP1 REVERT JUMPDEST PUSH1 0x40 MLOAD PUSH3 0x461BCD PUSH1 0xE5 SHL DUP2 MSTORE PUSH1 0x20 PUSH1 0x4 DUP3 ADD MSTORE PUSH1 0x1D PUSH1 0x24 DUP3 ADD MSTORE PUSH32 0x4D757374207370656369667920636C69656E7420616464726573736573000000 PUSH1 0x44 DUP3 ADD MSTORE PUSH1 0x64 SWAP1 REVERT JUMPDEST CALLVALUE PUSH2 0xFF JUMPI PUSH1 0x80 CALLDATASIZE PUSH1 0x3 NOT ADD SLT PUSH2 0xFF JUMPI PUSH2 0x5E4 PUSH2 0x1252 JUMP JUMPDEST PUSH2 0x5EC PUSH2 0x1268 JUMP JUMPDEST SWAP1 PUSH1 0x64 CALLDATALOAD PUSH1 0x1 PUSH1 0x1 PUSH1 0x40 SHL SUB SWAP3 DUP4 DUP3 AND DUP3 SUB PUSH2 0xFF JUMPI PUSH2 0x60E SWAP3 PUSH1 0x4 CALLDATALOAD PUSH2 0x179F JUMP JUMPDEST SWAP4 SWAP6 SWAP5 SWAP3 SWAP1 SWAP2 PUSH1 0x40 MLOAD SWAP7 DUP8 SWAP7 PUSH1 0xC0 DUP9 ADD SWAP1 PUSH1 0xC0 DUP10 MSTORE DUP7 MLOAD DUP1 SWAP3 MSTORE PUSH1 0xE0 DUP10 ADD SWAP2 PUSH1 0x20 DUP1 SWAP9 ADD SWAP2 PUSH1 0x0 SWAP1 JUMPDEST DUP3 DUP3 LT PUSH2 0x71A JUMPI POP POP POP POP DUP8 DUP2 SUB DUP7 DUP10 ADD MSTORE DUP6 DUP1 DUP4 MLOAD SWAP3 DUP4 DUP2 MSTORE ADD SWAP3 ADD SWAP1 PUSH1 0x0 JUMPDEST DUP2 DUP2 LT PUSH2 0x700 JUMPI POP POP POP DUP7 DUP2 SUB PUSH1 0x40 DUP9 ADD MSTORE DUP5 DUP1 DUP5 MLOAD SWAP3 DUP4 DUP2 MSTORE ADD SWAP4 ADD SWAP1 PUSH1 0x0 JUMPDEST DUP2 DUP2 LT PUSH2 0x6E6 JUMPI POP POP POP DUP2 PUSH2 0x699 SWAP2 DUP8 PUSH2 0x6A7 SWAP6 SWAP5 SUB PUSH1 0x60 DUP10 ADD MSTORE PUSH2 0x12EB JUMP JUMPDEST SWAP1 DUP6 DUP3 SUB PUSH1 0x80 DUP8 ADD MSTORE PUSH2 0x12EB JUMP JUMPDEST DUP4 DUP2 SUB PUSH1 0xA0 DUP6 ADD MSTORE DUP2 DUP1 DUP5 MLOAD SWAP3 DUP4 DUP2 MSTORE ADD SWAP4 ADD SWAP2 PUSH1 0x0 JUMPDEST DUP3 DUP2 LT PUSH2 0x6CD JUMPI POP POP POP POP SUB SWAP1 RETURN JUMPDEST DUP4 MLOAD ISZERO ISZERO DUP6 MSTORE DUP7 SWAP6 POP SWAP4 DUP2 ADD SWAP4 SWAP3 DUP2 ADD SWAP3 PUSH1 0x1 ADD PUSH2 0x6BE JUMP JUMPDEST DUP3 MLOAD PUSH1 0xFF AND DUP6 MSTORE DUP10 SWAP9 POP SWAP4 DUP7 ADD SWAP4 SWAP2 DUP7 ADD SWAP2 PUSH1 0x1 ADD PUSH2 0x679 JUMP JUMPDEST DUP3 MLOAD PUSH1 0xF SIGNEXTEND DUP5 MSTORE DUP11 SWAP10 POP SWAP3 DUP8 ADD SWAP3 SWAP2 DUP8 ADD SWAP2 PUSH1 0x1 ADD PUSH2 0x658 JUMP JUMPDEST DUP4 MLOAD DUP2 AND DUP6 MSTORE DUP13 SWAP12 POP SWAP4 DUP10 ADD SWAP4 SWAP3 DUP10 ADD SWAP3 PUSH1 0x1 SWAP2 SWAP1 SWAP2 ADD SWAP1 PUSH2 0x637 JUMP JUMPDEST CALLVALUE PUSH2 0xFF JUMPI PUSH1 0x0 CALLDATASIZE PUSH1 0x3 NOT ADD SLT PUSH2 0xFF JUMPI PUSH1 0x20 PUSH1 0x40 MLOAD PUSH1 0x64 DUP2 MSTORE RETURN JUMPDEST CALLVALUE PUSH2 0xFF JUMPI PUSH1 0x40 CALLDATASIZE PUSH1 0x3 NOT ADD SLT PUSH2 0xFF JUMPI PUSH1 0x4 CALLDATALOAD PUSH1 0x24 CALLDATALOAD SWAP1 PUSH1 0x1 PUSH1 0x1 PUSH1 0x40 SHL SUB DUP3 AND SWAP2 DUP3 DUP2 SUB PUSH2 0xFF JUMPI PUSH2 0x17F PUSH2 0x78B SWAP2 CALLER DUP5 PUSH2 0x1515 JUMP JUMPDEST DUP1 PUSH1 0x0 MSTORE PUSH1 0x20 PUSH1 0x0 DUP2 MSTORE PUSH1 0x40 PUSH1 0x0 KECCAK256 CALLER PUSH1 0x0 MSTORE DUP2 MSTORE PUSH1 0x40 PUSH1 0x0 KECCAK256 DUP4 PUSH1 0x0 MSTORE DUP2 MSTORE PUSH1 0xFF PUSH1 0x3 PUSH1 0x40 PUSH1 0x0 KECCAK256 ADD SLOAD AND PUSH2 0x815 JUMPI DUP2 PUSH1 0x0 MSTORE PUSH1 0x0 DUP2 MSTORE PUSH1 0x40 PUSH1 0x0 KECCAK256 CALLER PUSH1 0x0 MSTORE DUP2 MSTORE PUSH1 0x40 PUSH1 0x0 KECCAK256 SWAP1 DUP4 PUSH1 0x0 MSTORE MSTORE PUSH1 0x3 PUSH1 0x40 PUSH1 0x0 KECCAK256 ADD PUSH1 0x1 PUSH1 0xFF NOT DUP3 SLOAD AND OR SWAP1 SSTORE CALLER SWAP1 PUSH32 0x25156FD3288212246D8B008D5921FDE376C71ED14AC2E072A506EB06FDE6D09D PUSH1 0x0 DUP1 LOG4 STOP JUMPDEST PUSH1 0x64 SWAP1 PUSH1 0x40 MLOAD SWAP1 PUSH3 0x461BCD PUSH1 0xE5 SHL DUP3 MSTORE PUSH1 0x4 DUP3 ADD MSTORE PUSH1 0xF PUSH1 0x24 DUP3 ADD MSTORE PUSH15 0x105B1C9958591E481C995D9BDAD959 PUSH1 0x8A SHL PUSH1 0x44 DUP3 ADD MSTORE REVERT JUMPDEST CALLVALUE PUSH2 0xFF JUMPI PUSH1 0x60 CALLDATASIZE PUSH1 0x3 NOT ADD SLT PUSH2 0xFF JUMPI PUSH2 0x86D PUSH1 0x44 CALLDATALOAD PUSH1 0x24 CALLDATALOAD PUSH1 0x4 CALLDATALOAD PUSH2 0x1673 JUMP JUMPDEST PUSH1 0x40 MLOAD DUP1 SWAP2 PUSH1 0x20 DUP1 DUP4 ADD DUP2 DUP5 MSTORE DUP3 MLOAD DUP1 SWAP2 MSTORE DUP2 PUSH1 0x40 DUP6 ADD SWAP4 ADD SWAP2 PUSH1 0x0 JUMPDEST DUP3 DUP2 LT PUSH2 0x899 JUMPI POP POP POP POP SUB SWAP1 RETURN JUMPDEST DUP4 MLOAD PUSH1 0x1 PUSH1 0x1 PUSH1 0xA0 SHL SUB AND DUP6 MSTORE DUP7 SWAP6 POP SWAP4 DUP2 ADD SWAP4 SWAP3 DUP2 ADD SWAP3 PUSH1 0x1 ADD PUSH2 0x88A JUMP JUMPDEST CALLVALUE PUSH2 0xFF JUMPI PUSH2 0x100 CALLDATASIZE PUSH1 0x3 NOT ADD SLT PUSH2 0xFF JUMPI PUSH1 0x24 CALLDATALOAD DUP1 PUSH1 0xF SIGNEXTEND DUP2 SUB PUSH2 0xFF JUMPI PUSH1 0x44 CALLDATALOAD PUSH1 0xFF DUP2 AND DUP2 SUB PUSH2 0xFF JUMPI PUSH1 0x64 CALLDATALOAD PUSH1 0x1 PUSH1 0x1 PUSH1 0x40 SHL SUB DUP2 GT PUSH2 0xFF JUMPI PUSH2 0x904 SWAP1 CALLDATASIZE SWAP1 PUSH1 0x4 ADD PUSH2 0x12BE JUMP JUMPDEST SWAP1 PUSH1 0x84 CALLDATALOAD PUSH1 0x1 PUSH1 0x1 PUSH1 0x40 SHL SUB DUP2 GT PUSH2 0xFF JUMPI PUSH2 0x924 SWAP1 CALLDATASIZE SWAP1 PUSH1 0x4 ADD PUSH2 0x12BE JUMP JUMPDEST SWAP1 PUSH1 0xA4 CALLDATALOAD PUSH1 0x1 PUSH1 0x1 PUSH1 0x40 SHL SUB DUP2 GT PUSH2 0xFF JUMPI PUSH2 0x944 SWAP1 CALLDATASIZE SWAP1 PUSH1 0x4 ADD PUSH2 0x12BE JUMP JUMPDEST SWAP2 SWAP1 SWAP3 PUSH1 0xC4 CALLDATALOAD PUSH1 0x1 PUSH1 0x1 PUSH1 0x40 SHL SUB DUP2 GT PUSH2 0xFF JUMPI PUSH2 0x966 SWAP1 CALLDATASIZE SWAP1 PUSH1 0x4 ADD PUSH2 0x12BE JUMP JUMPDEST PUSH1 0x40 MLOAD PUSH4 0x31A9108F PUSH1 0xE1 SHL DUP2 MSTORE PUSH1 0x4 DUP1 CALLDATALOAD SWAP1 DUP3 ADD MSTORE SWAP2 SWAP8 SWAP1 SWAP7 SWAP2 PUSH1 0x20 DUP2 PUSH1 0x24 DUP2 PUSH32 0x0 PUSH1 0x1 PUSH1 0x1 PUSH1 0xA0 SHL SUB AND GAS STATICCALL SWAP1 DUP2 ISZERO PUSH2 0x1050 JUMPI PUSH1 0x0 SWAP2 PUSH2 0x1104 JUMPI JUMPDEST POP PUSH1 0x1 PUSH1 0x1 PUSH1 0xA0 SHL SUB AND ISZERO PUSH2 0x10C8 JUMPI PUSH1 0x12 PUSH1 0xFF DUP11 AND GT PUSH2 0x108B JUMPI PUSH1 0x40 MLOAD PUSH4 0x31A9108F PUSH1 0xE1 SHL DUP2 MSTORE PUSH1 0x4 DUP1 CALLDATALOAD SWAP1 DUP3 ADD MSTORE PUSH1 0x20 DUP2 PUSH1 0x24 DUP2 PUSH32 0x0 PUSH1 0x1 PUSH1 0x1 PUSH1 0xA0 SHL SUB AND GAS STATICCALL SWAP1 DUP2 ISZERO PUSH2 0x1050 JUMPI PUSH1 0x0 SWAP2 PUSH2 0x105C JUMPI JUMPDEST POP PUSH1 0x1 PUSH1 0x1 PUSH1 0xA0 SHL SUB AND PUSH2 0xA47 CALLER DUP3 EQ ISZERO PUSH2 0x13A2 JUMP JUMPDEST PUSH1 0x40 MLOAD PUSH4 0xE985E9C5 PUSH1 0xE0 SHL DUP2 MSTORE PUSH1 0x4 DUP2 ADD SWAP2 SWAP1 SWAP2 MSTORE CALLER PUSH1 0x24 DUP3 ADD MSTORE PUSH1 0x20 DUP2 PUSH1 0x44 DUP2 PUSH32 0x0 PUSH1 0x1 PUSH1 0x1 PUSH1 0xA0 SHL SUB AND GAS STATICCALL DUP1 ISZERO PUSH2 0x1050 JUMPI PUSH1 0x0 SWAP1 PUSH2 0x1013 JUMPI JUMPDEST PUSH2 0xAAD SWAP2 POP ISZERO PUSH2 0x13A2 JUMP JUMPDEST CALLER PUSH1 0x0 MSTORE PUSH1 0x4 PUSH1 0x20 MSTORE PUSH1 0x40 PUSH1 0x0 KECCAK256 PUSH1 0x4 CALLDATALOAD PUSH1 0x0 MSTORE PUSH1 0x20 MSTORE PUSH1 0x40 PUSH1 0x0 KECCAK256 SLOAD PUSH2 0xE10 DUP2 ADD DUP1 SWAP2 GT PUSH2 0x450 JUMPI TIMESTAMP LT PUSH2 0xFCE JUMPI CALLER PUSH1 0x0 MSTORE PUSH1 0x4 PUSH1 0x20 MSTORE PUSH1 0x40 PUSH1 0x0 KECCAK256 PUSH1 0x4 CALLDATALOAD PUSH1 0x0 MSTORE PUSH1 0x20 MSTORE TIMESTAMP PUSH1 0x40 PUSH1 0x0 KECCAK256 SSTORE PUSH1 0x1 PUSH1 0x20 MSTORE PUSH1 0x40 PUSH1 0x0 KECCAK256 CALLER PUSH1 0x0 MSTORE PUSH1 0x20 MSTORE PUSH1 0x40 PUSH1 0x0 KECCAK256 SWAP9 DUP10 SLOAD SWAP10 PUSH1 0x1 PUSH1 0x1 PUSH1 0x40 SHL SUB PUSH2 0xB27 DUP2 DUP14 AND PUSH2 0x13F8 JUMP JUMPDEST AND DUP1 SWAP12 PUSH1 0x1 PUSH1 0x1 PUSH1 0x40 SHL SUB NOT AND OR SWAP1 SSTORE PUSH1 0x40 MLOAD DUP1 PUSH1 0xC0 DUP2 ADD LT PUSH1 0x1 PUSH1 0x1 PUSH1 0x40 SHL SUB PUSH1 0xC0 DUP4 ADD GT OR PUSH2 0xE21 JUMPI PUSH1 0xC0 DUP2 ADD PUSH1 0x40 MSTORE DUP12 PUSH1 0xF SIGNEXTEND DUP2 MSTORE PUSH1 0x20 DUP2 ADD SWAP1 PUSH1 0xFF DUP4 AND DUP3 MSTORE PUSH2 0xB75 CALLDATASIZE DUP6 DUP8 PUSH2 0x1410 JUMP JUMPDEST PUSH1 0x40 DUP3 ADD SWAP1 DUP2 MSTORE PUSH2 0xB87 CALLDATASIZE DUP9 DUP11 PUSH2 0x1410 JUMP JUMPDEST PUSH1 0x60 DUP4 ADD MSTORE PUSH1 0x0 PUSH1 0x80 DUP4 ADD MSTORE TIMESTAMP PUSH1 0xA0 DUP4 ADD MSTORE PUSH1 0x4 CALLDATALOAD PUSH1 0x0 MSTORE PUSH1 0x0 PUSH1 0x20 MSTORE PUSH1 0x40 PUSH1 0x0 KECCAK256 CALLER PUSH1 0x0 MSTORE PUSH1 0x20 MSTORE PUSH1 0x40 PUSH1 0x0 KECCAK256 DUP14 PUSH1 0x0 MSTORE PUSH1 0x20 MSTORE PUSH1 0x40 PUSH1 0x0 KECCAK256 SWAP3 DUP3 MLOAD SWAP1 PUSH16 0xFFFFFFFFFFFFFFFFFFFFFFFFFFFFFFFF DUP6 SLOAD SWAP2 PUSH1 0xFF PUSH1 0x80 SHL SWAP1 MLOAD PUSH1 0x80 SHL AND SWAP3 AND SWAP1 PUSH17 0xFFFFFFFFFFFFFFFFFFFFFFFFFFFFFFFFFF NOT AND OR OR DUP4 SSTORE MLOAD DUP1 MLOAD SWAP1 PUSH1 0x1 PUSH1 0x1 PUSH1 0x40 SHL SUB DUP3 GT PUSH2 0xE21 JUMPI DUP2 SWAP1 PUSH2 0xC20 PUSH1 0x1 DUP7 ADD SLOAD PUSH2 0x1456 JUMP JUMPDEST PUSH1 0x1F DUP2 GT PUSH2 0xF7B JUMPI JUMPDEST POP PUSH1 0x20 SWAP1 PUSH1 0x1F DUP4 GT PUSH1 0x1 EQ PUSH2 0xF09 JUMPI PUSH1 0x0 SWAP3 PUSH2 0xEFE JUMPI JUMPDEST POP POP DUP2 PUSH1 0x1 SHL SWAP2 PUSH1 0x0 NOT SWAP1 PUSH1 0x3 SHL SHR NOT AND OR PUSH1 0x1 DUP4 ADD SSTORE JUMPDEST PUSH1 0x60 DUP2 ADD MLOAD DUP1 MLOAD SWAP1 PUSH1 0x1 PUSH1 0x1 PUSH1 0x40 SHL SUB DUP3 GT PUSH2 0xE21 JUMPI PUSH2 0xC7B PUSH1 0x2 DUP6 ADD SLOAD PUSH2 0x1456 JUMP JUMPDEST PUSH1 0x1F DUP2 GT PUSH2 0xEB7 JUMPI JUMPDEST POP PUSH1 0x20 SWAP1 PUSH1 0x1F DUP4 GT PUSH1 0x1 EQ PUSH2 0xE42 JUMPI SWAP2 DUP1 PUSH1 0x4 SWAP5 SWAP3 PUSH1 0xA0 SWAP5 PUSH1 0x0 SWAP3 PUSH2 0xE37 JUMPI JUMPDEST POP POP DUP2 PUSH1 0x1 SHL SWAP2 PUSH1 0x0 NOT SWAP1 PUSH1 0x3 SHL SHR NOT AND OR PUSH1 0x2 DUP6 ADD SSTORE JUMPDEST PUSH1 0x3 DUP5 ADD PUSH1 0x80 DUP3 ADD MLOAD ISZERO ISZERO PUSH1 0xFF DUP1 NOT DUP4 SLOAD AND SWAP2 AND OR SWAP1 SSTORE ADD MLOAD SWAP2 ADD SSTORE PUSH1 0x4 CALLDATALOAD PUSH1 0x0 MSTORE PUSH1 0x3 PUSH1 0x20 MSTORE PUSH1 0x40 PUSH1 0x0 KECCAK256 CALLER PUSH1 0x0 MSTORE PUSH1 0x20 MSTORE PUSH1 0xFF PUSH1 0x40 PUSH1 0x0 KECCAK256 SLOAD AND ISZERO PUSH2 0xDAA JUMPI JUMPDEST PUSH1 0x40 MLOAD DUP3 DUP5 DUP3 CALLDATACOPY DUP1 DUP4 DUP2 ADD PUSH1 0x0 DUP2 MSTORE SUB SWAP1 KECCAK256 SWAP11 PUSH1 0x40 MLOAD SWAP11 DUP12 MSTORE PUSH1 0xF SIGNEXTEND PUSH1 0x20 DUP12 ADD MSTORE PUSH1 0xFF AND PUSH1 0x40 DUP11 ADD MSTORE PUSH1 0x60 DUP10 ADD PUSH2 0x100 SWAP1 MSTORE PUSH2 0x100 DUP10 ADD SWAP1 PUSH2 0xD3F SWAP3 PUSH2 0x14A8 JUMP JUMPDEST SWAP1 DUP8 DUP3 SUB PUSH1 0x80 DUP10 ADD MSTORE PUSH2 0xD51 SWAP3 PUSH2 0x14A8 JUMP JUMPDEST SWAP1 DUP6 DUP3 SUB PUSH1 0xA0 DUP8 ADD MSTORE PUSH2 0xD63 SWAP3 PUSH2 0x14A8 JUMP JUMPDEST SWAP1 DUP4 DUP3 SUB PUSH1 0xC0 DUP6 ADD MSTORE PUSH2 0xD75 SWAP3 PUSH2 0x14A8 JUMP JUMPDEST PUSH1 0xE4 CALLDATALOAD PUSH1 0xE0 DUP4 ADD MSTORE CALLER SWAP2 DUP1 PUSH1 0x4 CALLDATALOAD SWAP3 SUB PUSH32 0x6A4A61743519C9D648A14E6493F47DBE3FF1AA29E7785C96C8326A205E58FEBC SWAP2 LOG4 STOP JUMPDEST PUSH1 0x4 CALLDATALOAD PUSH1 0x0 MSTORE PUSH1 0x2 PUSH1 0x20 MSTORE PUSH1 0x40 PUSH1 0x0 KECCAK256 DUP1 SLOAD PUSH9 0x10000000000000000 DUP2 LT ISZERO PUSH2 0xE21 JUMPI PUSH2 0xDDC SWAP2 PUSH1 0x1 DUP3 ADD DUP2 SSTORE PUSH2 0x1490 JUMP JUMPDEST DUP2 SLOAD SWAP1 PUSH1 0x3 SHL SWAP1 CALLER DUP3 SHL SWAP2 PUSH1 0x1 DUP1 PUSH1 0xA0 SHL SUB SWAP1 SHL NOT AND OR SWAP1 SSTORE PUSH1 0x4 CALLDATALOAD PUSH1 0x0 MSTORE PUSH1 0x3 PUSH1 0x20 MSTORE PUSH1 0x40 PUSH1 0x0 KECCAK256 CALLER PUSH1 0x0 MSTORE PUSH1 0x20 MSTORE PUSH1 0x40 PUSH1 0x0 KECCAK256 PUSH1 0x1 PUSH1 0xFF NOT DUP3 SLOAD AND OR SWAP1 SSTORE PUSH2 0xCFE JUMP JUMPDEST PUSH4 0x4E487B71 PUSH1 0xE0 SHL PUSH1 0x0 MSTORE PUSH1 0x41 PUSH1 0x4 MSTORE PUSH1 0x24 PUSH1 0x0 REVERT JUMPDEST ADD MLOAD SWAP1 POP CODESIZE DUP1 PUSH2 0xCA4 JUMP JUMPDEST SWAP1 PUSH1 0x2 DUP6 ADD PUSH1 0x0 MSTORE PUSH1 0x20 PUSH1 0x0 KECCAK256 SWAP2 PUSH1 0x0 JUMPDEST PUSH1 0x1F NOT DUP6 AND DUP2 LT PUSH2 0xE9F JUMPI POP SWAP3 PUSH1 0x4 SWAP5 SWAP3 PUSH1 0x1 SWAP3 PUSH1 0xA0 SWAP6 DUP4 PUSH1 0x1F NOT DUP2 AND LT PUSH2 0xE86 JUMPI JUMPDEST POP POP POP DUP2 SHL ADD PUSH1 0x2 DUP6 ADD SSTORE PUSH2 0xCBC JUMP JUMPDEST ADD MLOAD PUSH1 0x0 NOT PUSH1 0xF8 DUP5 PUSH1 0x3 SHL AND SHR NOT AND SWAP1 SSTORE CODESIZE DUP1 DUP1 PUSH2 0xE76 JUMP JUMPDEST SWAP2 SWAP3 PUSH1 0x20 PUSH1 0x1 DUP2 SWAP3 DUP7 DUP6 ADD MLOAD DUP2 SSTORE ADD SWAP5 ADD SWAP3 ADD PUSH2 0xE53 JUMP JUMPDEST PUSH1 0x2 DUP6 ADD PUSH1 0x0 MSTORE PUSH1 0x20 PUSH1 0x0 KECCAK256 PUSH1 0x1F DUP5 ADD PUSH1 0x5 SHR DUP2 ADD PUSH1 0x20 DUP6 LT PUSH2 0xEF7 JUMPI JUMPDEST PUSH1 0x1F DUP4 ADD PUSH1 0x5 SHR DUP3 ADD DUP2 LT PUSH2 0xEEB JUMPI POP POP PUSH2 0xC84 JUMP JUMPDEST PUSH1 0x0 DUP2 SSTORE PUSH1 0x1 ADD PUSH2 0xED5 JUMP JUMPDEST POP DUP1 PUSH2 0xED5 JUMP JUMPDEST ADD MLOAD SWAP1 POP DUP16 DUP1 PUSH2 0xC40 JUMP JUMPDEST SWAP3 POP PUSH1 0x1 DUP6 ADD PUSH1 0x0 MSTORE PUSH1 0x20 PUSH1 0x0 KECCAK256 SWAP1 PUSH1 0x0 SWAP4 JUMPDEST PUSH1 0x1F NOT DUP5 AND DUP6 LT PUSH2 0xF60 JUMPI PUSH1 0x1 SWAP5 POP DUP4 PUSH1 0x1F NOT DUP2 AND LT PUSH2 0xF47 JUMPI JUMPDEST POP POP POP DUP2 SHL ADD PUSH1 0x1 DUP4 ADD SSTORE PUSH2 0xC58 JUMP JUMPDEST ADD MLOAD PUSH1 0x0 NOT PUSH1 0xF8 DUP5 PUSH1 0x3 SHL AND SHR NOT AND SWAP1 SSTORE DUP16 DUP1 DUP1 PUSH2 0xF37 JUMP JUMPDEST DUP2 DUP2 ADD MLOAD DUP4 SSTORE PUSH1 0x20 SWAP5 DUP6 ADD SWAP5 PUSH1 0x1 SWAP1 SWAP4 ADD SWAP3 SWAP1 SWAP2 ADD SWAP1 PUSH2 0xF1C JUMP JUMPDEST SWAP1 SWAP2 POP PUSH1 0x1 DUP6 ADD PUSH1 0x0 MSTORE PUSH1 0x20 PUSH1 0x0 KECCAK256 PUSH1 0x1F DUP5 ADD PUSH1 0x5 SHR DUP2 ADD PUSH1 0x20 DUP6 LT PUSH2 0xFC7 JUMPI JUMPDEST SWAP1 DUP5 SWAP4 SWAP3 SWAP2 JUMPDEST PUSH1 0x1F DUP4 ADD PUSH1 0x5 SHR DUP3 ADD DUP2 LT PUSH2 0xFB8 JUMPI POP POP PUSH2 0xC29 JUMP JUMPDEST PUSH1 0x0 DUP2 SSTORE DUP6 SWAP5 POP PUSH1 0x1 ADD PUSH2 0xFA2 JUMP JUMPDEST POP DUP1 PUSH2 0xF9C JUMP JUMPDEST PUSH1 0x40 MLOAD PUSH3 0x461BCD PUSH1 0xE5 SHL DUP2 MSTORE PUSH1 0x20 PUSH1 0x4 DUP3 ADD MSTORE PUSH1 0x1D PUSH1 0x24 DUP3 ADD MSTORE PUSH32 0x466565646261636B20636F6F6C646F776E206E6F7420656C6170736564000000 PUSH1 0x44 DUP3 ADD MSTORE PUSH1 0x64 SWAP1 REVERT JUMPDEST POP PUSH1 0x20 DUP2 RETURNDATASIZE PUSH1 0x20 GT PUSH2 0x1048 JUMPI JUMPDEST DUP2 PUSH2 0x102D PUSH1 0x20 SWAP4 DUP4 PUSH2 0x1362 JUMP JUMPDEST DUP2 ADD SUB SLT PUSH2 0xFF JUMPI MLOAD DUP1 ISZERO ISZERO DUP2 SUB PUSH2 0xFF JUMPI PUSH2 0xAAD SWAP1 PUSH2 0xAA2 JUMP JUMPDEST RETURNDATASIZE SWAP2 POP PUSH2 0x1020 JUMP JUMPDEST PUSH1 0x40 MLOAD RETURNDATASIZE PUSH1 0x0 DUP3 RETURNDATACOPY RETURNDATASIZE SWAP1 REVERT JUMPDEST PUSH2 0x107E SWAP2 POP PUSH1 0x20 RETURNDATASIZE PUSH1 0x20 GT PUSH2 0x1084 JUMPI JUMPDEST PUSH2 0x1076 DUP2 DUP4 PUSH2 0x1362 JUMP JUMPDEST DUP2 ADD SWAP1 PUSH2 0x1383 JUMP JUMPDEST DUP12 PUSH2 0xA31 JUMP JUMPDEST POP RETURNDATASIZE PUSH2 0x106C JUMP JUMPDEST PUSH1 0x40 MLOAD PUSH3 0x461BCD PUSH1 0xE5 SHL DUP2 MSTORE PUSH1 0x20 PUSH1 0x4 DUP3 ADD MSTORE PUSH1 0x15 PUSH1 0x24 DUP3 ADD MSTORE PUSH21 0x496E76616C69642076616C7565446563696D616C73 PUSH1 0x58 SHL PUSH1 0x44 DUP3 ADD MSTORE PUSH1 0x64 SWAP1 REVERT JUMPDEST PUSH1 0x40 MLOAD PUSH3 0x461BCD PUSH1 0xE5 SHL DUP2 MSTORE PUSH1 0x20 PUSH1 0x4 DUP3 ADD MSTORE PUSH1 0x14 PUSH1 0x24 DUP3 ADD MSTORE PUSH20 0x1059D95B9D08191BD95CC81B9BDD08195E1A5CDD PUSH1 0x62 SHL PUSH1 0x44 DUP3 ADD MSTORE PUSH1 0x64 SWAP1 REVERT JUMPDEST PUSH2 0x111D SWAP2 POP PUSH1 0x20 RETURNDATASIZE PUSH1 0x20 GT PUSH2 0x1084 JUMPI PUSH2 0x1076 DUP2 DUP4 PUSH2 0x1362 JUMP JUMPDEST DUP12 PUSH2 0x9C1 JUMP JUMPDEST CALLVALUE PUSH2 0xFF JUMPI PUSH1 0x60 CALLDATASIZE PUSH1 0x3 NOT ADD SLT PUSH2 0xFF JUMPI PUSH1 0x4 CALLDATALOAD PUSH2 0x113F PUSH2 0x1252 JUMP JUMPDEST PUSH2 0x1147 PUSH2 0x1268 JUMP JUMPDEST SWAP2 PUSH2 0x1156 PUSH2 0x17F DUP5 DUP5 DUP5 PUSH2 0x1515 JUMP JUMPDEST PUSH1 0x0 MSTORE PUSH1 0x0 PUSH1 0x20 MSTORE PUSH1 0x40 PUSH1 0x0 KECCAK256 SWAP1 PUSH1 0x1 DUP1 PUSH1 0xA0 SHL SUB AND PUSH1 0x0 MSTORE PUSH1 0x20 MSTORE PUSH1 0x1 PUSH1 0x1 PUSH1 0x40 SHL SUB PUSH1 0x40 PUSH1 0x0 KECCAK256 SWAP2 AND PUSH1 0x0 MSTORE PUSH1 0x20 MSTORE PUSH1 0xFF PUSH1 0x40 PUSH1 0x0 KECCAK256 DUP1 SLOAD SWAP1 PUSH2 0x1204 PUSH1 0x2 PUSH2 0x11F6 DUP6 PUSH1 0x3 DUP6 ADD SLOAD AND SWAP4 PUSH2 0x11D0 PUSH1 0x40 MLOAD SWAP2 PUSH2 0x11C0 DUP4 PUSH2 0x11B9 DUP2 PUSH1 0x1 DUP6 ADD PUSH2 0x1573 JUMP JUMPDEST SUB DUP5 PUSH2 0x1362 JUMP JUMPDEST PUSH2 0x11B9 PUSH1 0x40 MLOAD DUP1 SWAP7 DUP2 SWAP4 ADD PUSH2 0x1573 JUMP JUMPDEST PUSH1 0x40 MLOAD SWAP7 DUP7 DUP9 SWAP8 PUSH1 0xF SIGNEXTEND DUP9 MSTORE PUSH1 0x80 SHR AND PUSH1 0x20 DUP8 ADD MSTORE PUSH1 0xA0 PUSH1 0x40 DUP8 ADD MSTORE PUSH1 0xA0 DUP7 ADD SWAP1 PUSH2 0x127E JUMP JUMPDEST SWAP1 DUP5 DUP3 SUB PUSH1 0x60 DUP7 ADD MSTORE PUSH2 0x127E JUMP JUMPDEST SWAP1 ISZERO ISZERO PUSH1 0x80 DUP4 ADD MSTORE SUB SWAP1 RETURN JUMPDEST CALLVALUE PUSH2 0xFF JUMPI PUSH1 0x0 CALLDATASIZE PUSH1 0x3 NOT ADD SLT PUSH2 0xFF JUMPI PUSH32 0x0 PUSH1 0x1 PUSH1 0x1 PUSH1 0xA0 SHL SUB AND DUP2 MSTORE PUSH1 0x20 SWAP1 RETURN JUMPDEST PUSH1 0x24 CALLDATALOAD SWAP1 PUSH1 0x1 PUSH1 0x1 PUSH1 0xA0 SHL SUB DUP3 AND DUP3 SUB PUSH2 0xFF JUMPI JUMP JUMPDEST PUSH1 0x44 CALLDATALOAD SWAP1 PUSH1 0x1 PUSH1 0x1 PUSH1 0x40 SHL SUB DUP3 AND DUP3 SUB PUSH2 0xFF JUMPI JUMP JUMPDEST SWAP2 SWAP1 DUP3 MLOAD SWAP3 DUP4 DUP3 MSTORE PUSH1 0x0 JUMPDEST DUP5 DUP2 LT PUSH2 0x12AA JUMPI POP POP DUP3 PUSH1 0x0 PUSH1 0x20 DUP1 SWAP5 SWAP6 DUP5 ADD ADD MSTORE PUSH1 0x1F DUP1 NOT SWAP2 ADD AND ADD ADD SWAP1 JUMP JUMPDEST PUSH1 0x20 DUP2 DUP4 ADD DUP2 ADD MLOAD DUP5 DUP4 ADD DUP3 ADD MSTORE ADD PUSH2 0x1289 JUMP JUMPDEST SWAP2 DUP2 PUSH1 0x1F DUP5 ADD SLT ISZERO PUSH2 0xFF JUMPI DUP3 CALLDATALOAD SWAP2 PUSH1 0x1 PUSH1 0x1 PUSH1 0x40 SHL SUB DUP4 GT PUSH2 0xFF JUMPI PUSH1 0x20 DUP4 DUP2 DUP7 ADD SWAP6 ADD ADD GT PUSH2 0xFF JUMPI JUMP JUMPDEST SWAP1 DUP1 DUP3 MLOAD SWAP1 DUP2 DUP2 MSTORE PUSH1 0x20 DUP1 SWAP2 ADD SWAP3 DUP2 DUP1 DUP5 PUSH1 0x5 SHL DUP4 ADD ADD SWAP6 ADD SWAP4 PUSH1 0x0 SWAP2 JUMPDEST DUP5 DUP4 LT PUSH2 0x1319 JUMPI POP POP POP POP POP POP SWAP1 JUMP JUMPDEST SWAP1 SWAP2 SWAP3 SWAP4 SWAP5 SWAP6 DUP5 DUP1 PUSH2 0x1337 PUSH1 0x1 SWAP4 PUSH1 0x1F NOT DUP7 DUP3 SUB ADD DUP8 MSTORE DUP11 MLOAD PUSH2 0x127E JUMP JUMPDEST SWAP9 ADD SWAP4 ADD SWAP4 ADD SWAP2 SWAP5 SWAP4 SWAP3 SWAP1 PUSH2 0x1309 JUMP JUMPDEST PUSH1 0x20 DUP2 ADD SWAP1 DUP2 LT PUSH1 0x1 PUSH1 0x1 PUSH1 0x40 SHL SUB DUP3 GT OR PUSH2 0xE21 JUMPI PUSH1 0x40 MSTORE JUMP JUMPDEST SWAP1 PUSH1 0x1F DUP1 NOT SWAP2 ADD AND DUP2 ADD SWAP1 DUP2 LT PUSH1 0x1 PUSH1 0x1 PUSH1 0x40 SHL SUB DUP3 GT OR PUSH2 0xE21 JUMPI PUSH1 0x40 MSTORE JUMP JUMPDEST SWAP1 DUP2 PUSH1 0x20 SWAP2 SUB SLT PUSH2 0xFF JUMPI MLOAD PUSH1 0x1 PUSH1 0x1 PUSH1 0xA0 SHL SUB DUP2 AND DUP2 SUB PUSH2 0xFF JUMPI SWAP1 JUMP JUMPDEST ISZERO PUSH2 0x13A9 JUMPI JUMP JUMPDEST PUSH1 0x40 MLOAD PUSH3 0x461BCD PUSH1 0xE5 SHL DUP2 MSTORE PUSH1 0x20 PUSH1 0x4 DUP3 ADD MSTORE PUSH1 0x21 PUSH1 0x24 DUP3 ADD MSTORE PUSH32 0x43616E6E6F74206769766520666565646261636B20746F206F776E206167656E PUSH1 0x44 DUP3 ADD MSTORE PUSH1 0x1D PUSH1 0xFA SHL PUSH1 0x64 DUP3 ADD MSTORE PUSH1 0x84 SWAP1 REVERT JUMPDEST PUSH1 0x1 PUSH1 0x1 PUSH1 0x40 SHL SUB DUP1 SWAP2 AND SWAP1 DUP2 EQ PUSH2 0x450 JUMPI PUSH1 0x1 ADD SWAP1 JUMP JUMPDEST SWAP3 SWAP2 SWAP3 PUSH1 0x1 PUSH1 0x1 PUSH1 0x40 SHL SUB DUP3 GT PUSH2 0xE21 JUMPI PUSH1 0x40 MLOAD SWAP2 PUSH2 0x1439 PUSH1 0x1F DUP3 ADD PUSH1 0x1F NOT AND PUSH1 0x20 ADD DUP5 PUSH2 0x1362 JUMP JUMPDEST DUP3 SWAP5 DUP2 DUP5 MSTORE DUP2 DUP4 ADD GT PUSH2 0xFF JUMPI DUP3 DUP2 PUSH1 0x20 SWAP4 DUP5 PUSH1 0x0 SWAP7 ADD CALLDATACOPY ADD ADD MSTORE JUMP JUMPDEST SWAP1 PUSH1 0x1 DUP3 DUP2 SHR SWAP3 AND DUP1 ISZERO PUSH2 0x1486 JUMPI JUMPDEST PUSH1 0x20 DUP4 LT EQ PUSH2 0x1470 JUMPI JUMP JUMPDEST PUSH4 0x4E487B71 PUSH1 0xE0 SHL PUSH1 0x0 MSTORE PUSH1 0x22 PUSH1 0x4 MSTORE PUSH1 0x24 PUSH1 0x0 REVERT JUMPDEST SWAP2 PUSH1 0x7F AND SWAP2 PUSH2 0x1465 JUMP JUMPDEST DUP1 SLOAD DUP3 LT ISZERO PUSH2 0x508 JUMPI PUSH1 0x0 MSTORE PUSH1 0x20 PUSH1 0x0 KECCAK256 ADD SWAP1 PUSH1 0x0 SWAP1 JUMP JUMPDEST SWAP1 DUP1 PUSH1 0x20 SWAP4 SWAP3 DUP2 DUP5 MSTORE DUP5 DUP5 ADD CALLDATACOPY PUSH1 0x0 DUP3 DUP3 ADD DUP5 ADD MSTORE PUSH1 0x1F ADD PUSH1 0x1F NOT AND ADD ADD SWAP1 JUMP JUMPDEST ISZERO PUSH2 0x14D0 JUMPI JUMP JUMPDEST PUSH1 0x40 MLOAD PUSH3 0x461BCD PUSH1 0xE5 SHL DUP2 MSTORE PUSH1 0x20 PUSH1 0x4 DUP3 ADD MSTORE PUSH1 0x17 PUSH1 0x24 DUP3 ADD MSTORE PUSH32 0x466565646261636B20646F6573206E6F74206578697374000000000000000000 PUSH1 0x44 DUP3 ADD MSTORE PUSH1 0x64 SWAP1 REVERT JUMPDEST SWAP2 PUSH1 0x1 PUSH1 0x1 PUSH1 0x40 SHL SUB DUP1 SWAP2 AND SWAP2 DUP3 ISZERO ISZERO SWAP4 DUP5 PUSH2 0x1533 JUMPI JUMPDEST POP POP POP POP SWAP1 JUMP JUMPDEST PUSH1 0x0 SWAP1 DUP2 MSTORE PUSH1 0x1 PUSH1 0x20 SWAP1 DUP2 MSTORE PUSH1 0x40 DUP1 DUP4 KECCAK256 PUSH1 0x1 PUSH1 0x1 PUSH1 0xA0 SHL SUB SWAP1 SWAP5 AND DUP4 MSTORE SWAP3 SWAP1 MSTORE KECCAK256 SLOAD AND LT ISZERO SWAP1 POP CODESIZE DUP1 DUP1 DUP1 PUSH2 0x152C JUMP JUMPDEST PUSH1 0x0 NOT DUP2 EQ PUSH2 0x450 JUMPI PUSH1 0x1 ADD SWAP1 JUMP JUMPDEST SWAP1 PUSH1 0x0 SWAP3 SWAP2 DUP1 SLOAD SWAP2 PUSH2 0x1584 DUP4 PUSH2 0x1456 JUMP JUMPDEST SWAP2 DUP3 DUP3 MSTORE PUSH1 0x1 SWAP4 DUP5 DUP2 AND SWAP1 DUP2 PUSH1 0x0 EQ PUSH2 0x15E6 JUMPI POP PUSH1 0x1 EQ PUSH2 0x15A6 JUMPI JUMPDEST POP POP POP POP JUMP JUMPDEST SWAP1 SWAP2 SWAP4 SWAP5 POP PUSH1 0x0 MSTORE PUSH1 0x20 SWAP3 DUP4 PUSH1 0x0 KECCAK256 SWAP3 DUP5 PUSH1 0x0 SWAP5 JUMPDEST DUP4 DUP7 LT PUSH2 0x15D2 JUMPI POP POP POP POP ADD ADD SWAP1 CODESIZE DUP1 DUP1 DUP1 PUSH2 0x15A0 JUMP JUMPDEST DUP1 SLOAD DUP6 DUP8 ADD DUP4 ADD MSTORE SWAP5 ADD SWAP4 DUP6 SWAP1 DUP3 ADD PUSH2 0x15BB JUMP JUMPDEST SWAP3 SWAP5 POP POP POP PUSH1 0x20 SWAP4 SWAP5 POP PUSH1 0xFF NOT AND DUP4 DUP4 ADD MSTORE ISZERO ISZERO PUSH1 0x5 SHL ADD ADD SWAP1 CODESIZE DUP1 DUP1 DUP1 PUSH2 0x15A0 JUMP JUMPDEST PUSH1 0x1 PUSH1 0x1 PUSH1 0x40 SHL SUB DUP2 GT PUSH2 0xE21 JUMPI PUSH1 0x5 SHL PUSH1 0x20 ADD SWAP1 JUMP JUMPDEST SWAP1 PUSH2 0x162A DUP3 PUSH2 0x1609 JUMP JUMPDEST PUSH2 0x1637 PUSH1 0x40 MLOAD SWAP2 DUP3 PUSH2 0x1362 JUMP JUMPDEST DUP3 DUP2 MSTORE DUP1 SWAP3 PUSH2 0x1648 PUSH1 0x1F NOT SWAP2 PUSH2 0x1609 JUMP JUMPDEST ADD SWAP1 PUSH1 0x20 CALLDATASIZE SWAP2 ADD CALLDATACOPY JUMP JUMPDEST SWAP2 SWAP1 DUP3 SUB SWAP2 DUP3 GT PUSH2 0x450 JUMPI JUMP JUMPDEST DUP1 MLOAD DUP3 LT ISZERO PUSH2 0x508 JUMPI PUSH1 0x20 SWAP2 PUSH1 0x5 SHL ADD ADD SWAP1 JUMP JUMPDEST SWAP1 PUSH1 0x0 SWAP2 DUP3 MSTORE PUSH1 0x2 PUSH1 0x20 MSTORE PUSH1 0x40 DUP3 KECCAK256 SWAP3 DUP4 SLOAD SWAP1 DUP2 DUP4 LT ISZERO PUSH2 0x171F JUMPI DUP3 ADD SWAP3 DUP4 DUP4 GT PUSH2 0x170B JUMPI POP DUP1 DUP4 GT PUSH2 0x1703 JUMPI JUMPDEST POP PUSH2 0x16B4 PUSH2 0x16AF DUP3 DUP5 PUSH2 0x1652 JUMP JUMPDEST PUSH2 0x1620 JUMP JUMPDEST SWAP3 DUP2 JUMPDEST DUP4 DUP2 LT PUSH2 0x16C5 JUMPI POP POP POP POP SWAP1 JUMP JUMPDEST DUP1 PUSH2 0x16D3 PUSH2 0x16FE SWAP3 DUP5 PUSH2 0x1490 JUMP JUMPDEST SWAP1 SLOAD PUSH1 0x3 SWAP2 SWAP1 SWAP2 SHL SHR PUSH1 0x1 PUSH1 0x1 PUSH1 0xA0 SHL SUB AND PUSH2 0x16F8 PUSH2 0x16F2 DUP7 DUP5 PUSH2 0x1652 JUMP JUMPDEST DUP9 PUSH2 0x165F JUMP JUMPDEST MSTORE PUSH2 0x1564 JUMP JUMPDEST PUSH2 0x16B7 JUMP JUMPDEST SWAP2 POP CODESIZE PUSH2 0x16A1 JUMP JUMPDEST PUSH4 0x4E487B71 PUSH1 0xE0 SHL DUP2 MSTORE PUSH1 0x11 PUSH1 0x4 MSTORE PUSH1 0x24 SWAP1 REVERT JUMPDEST POP POP POP SWAP1 POP PUSH1 0x40 MLOAD SWAP1 PUSH2 0x1731 DUP3 PUSH2 0x1347 JUMP JUMPDEST DUP1 DUP3 MSTORE CALLDATASIZE DUP2 CALLDATACOPY SWAP1 JUMP JUMPDEST SWAP1 PUSH2 0x1744 DUP3 PUSH2 0x1609 JUMP JUMPDEST PUSH2 0x1751 PUSH1 0x40 MLOAD SWAP2 DUP3 PUSH2 0x1362 JUMP JUMPDEST DUP3 DUP2 MSTORE DUP1 SWAP3 PUSH2 0x1762 PUSH1 0x1F NOT SWAP2 PUSH2 0x1609 JUMP JUMPDEST ADD SWAP1 PUSH1 0x0 JUMPDEST DUP3 DUP2 LT PUSH2 0x1773 JUMPI POP POP POP JUMP JUMPDEST DUP1 PUSH1 0x60 PUSH1 0x20 DUP1 SWAP4 DUP6 ADD ADD MSTORE ADD PUSH2 0x1767 JUMP JUMPDEST SWAP2 SWAP1 SWAP2 PUSH1 0x1 PUSH1 0x1 PUSH1 0x40 SHL SUB DUP1 DUP1 SWAP5 AND SWAP2 AND ADD SWAP2 DUP3 GT PUSH2 0x450 JUMPI JUMP JUMPDEST SWAP1 SWAP4 SWAP2 SWAP3 DUP2 PUSH1 0x0 MSTORE PUSH1 0x1 PUSH1 0x20 MSTORE PUSH1 0x40 PUSH1 0x0 KECCAK256 PUSH1 0x1 DUP1 PUSH1 0xA0 SHL SUB DUP7 AND PUSH1 0x0 MSTORE PUSH1 0x20 MSTORE PUSH1 0x1 PUSH1 0x1 PUSH1 0x40 SHL SUB PUSH1 0x40 PUSH1 0x0 KECCAK256 SLOAD AND PUSH1 0x1 PUSH1 0x1 PUSH1 0x40 SHL SUB DUP6 AND SWAP2 DUP2 DUP4 GT DUP1 ISZERO PUSH2 0x1A6B JUMPI JUMPDEST PUSH2 0x19F1 JUMPI PUSH1 0x1 PUSH1 0x1 PUSH1 0x40 SHL SUB PUSH2 0x17FD PUSH1 0x0 NOT SWAP3 DUP9 PUSH2 0x1784 JUMP JUMPDEST AND ADD PUSH1 0x1 PUSH1 0x1 PUSH1 0x40 SHL SUB DUP2 GT PUSH2 0x450 JUMPI DUP2 PUSH1 0x1 PUSH1 0x1 PUSH1 0x40 SHL SUB SWAP3 DUP4 DUP4 AND GT PUSH2 0x19E9 JUMPI JUMPDEST POP AND SUB PUSH1 0x1 PUSH1 0x1 PUSH1 0x40 SHL SUB DUP2 GT PUSH2 0x450 JUMPI PUSH1 0x1 PUSH1 0x1 PUSH1 0x40 SHL SUB PUSH1 0x1 SWAP2 AND ADD SWAP3 PUSH1 0x1 PUSH1 0x1 PUSH1 0x40 SHL SUB DUP5 GT PUSH2 0x450 JUMPI PUSH2 0x185F PUSH1 0x1 PUSH1 0x1 PUSH1 0x40 SHL SUB DUP6 AND PUSH2 0x1620 JUMP JUMPDEST SWAP5 PUSH2 0x1872 PUSH1 0x1 PUSH1 0x1 PUSH1 0x40 SHL SUB DUP7 AND PUSH2 0x1620 JUMP JUMPDEST SWAP3 PUSH2 0x1885 PUSH1 0x1 PUSH1 0x1 PUSH1 0x40 SHL SUB DUP8 AND PUSH2 0x1620 JUMP JUMPDEST SWAP1 PUSH2 0x1898 PUSH1 0x1 PUSH1 0x1 PUSH1 0x40 SHL SUB DUP9 AND PUSH2 0x173A JUMP JUMPDEST SWAP3 PUSH2 0x18AB PUSH1 0x1 PUSH1 0x1 PUSH1 0x40 SHL SUB DUP10 AND PUSH2 0x173A JUMP JUMPDEST SWAP5 PUSH2 0x18BE PUSH1 0x1 PUSH1 0x1 PUSH1 0x40 SHL SUB DUP11 AND PUSH2 0x1620 JUMP JUMPDEST SWAP8 PUSH1 0x0 JUMPDEST PUSH1 0x1 PUSH1 0x1 PUSH1 0x40 SHL SUB DUP12 AND PUSH1 0x1 PUSH1 0x1 PUSH1 0x40 SHL SUB DUP3 AND LT ISZERO PUSH2 0x19DD JUMPI PUSH2 0x19D6 DUP2 DUP14 PUSH2 0x18F3 PUSH1 0x1 PUSH1 0x1 PUSH1 0x40 SHL SUB SWAP5 DUP8 PUSH2 0x1784 JUMP JUMPDEST DUP9 PUSH1 0x0 MSTORE PUSH1 0x0 PUSH1 0x20 MSTORE PUSH1 0x40 PUSH1 0x0 KECCAK256 PUSH1 0x1 DUP1 PUSH1 0xA0 SHL SUB DUP10 AND PUSH1 0x0 MSTORE PUSH1 0x20 MSTORE DUP5 PUSH1 0x40 PUSH1 0x0 KECCAK256 SWAP2 AND SWAP1 DUP2 PUSH1 0x0 MSTORE PUSH1 0x20 MSTORE PUSH2 0x1932 PUSH1 0x40 PUSH1 0x0 KECCAK256 SWAP3 DUP7 DUP6 AND SWAP1 PUSH2 0x165F JUMP JUMPDEST MSTORE PUSH1 0x3 DUP2 SLOAD SWAP2 DUP14 PUSH2 0x194A DUP5 PUSH1 0xF SIGNEXTEND SWAP2 DUP9 DUP8 AND SWAP1 PUSH2 0x165F JUMP JUMPDEST MSTORE PUSH1 0xFF DUP1 SWAP4 PUSH1 0x80 SHR AND PUSH2 0x195F DUP8 DUP7 AND DUP14 PUSH2 0x165F JUMP JUMPDEST MSTORE PUSH1 0x40 MLOAD PUSH2 0x1974 DUP2 PUSH2 0x488 DUP2 PUSH1 0x1 DUP7 ADD PUSH2 0x1573 JUMP JUMPDEST PUSH2 0x1980 DUP6 DUP9 AND DUP15 PUSH2 0x165F JUMP JUMPDEST MSTORE PUSH2 0x198D DUP7 DUP6 AND DUP14 PUSH2 0x165F JUMP JUMPDEST POP PUSH1 0x40 MLOAD PUSH2 0x19AF DUP15 PUSH2 0x19A6 DUP4 PUSH2 0x11B9 DUP2 PUSH1 0x2 DUP9 ADD PUSH2 0x1573 JUMP JUMPDEST DUP9 DUP8 AND SWAP1 PUSH2 0x165F JUMP JUMPDEST MSTORE PUSH2 0x19BC DUP5 DUP8 AND DUP15 PUSH2 0x165F JUMP JUMPDEST POP ADD SLOAD AND PUSH2 0x19CC DUP3 DUP6 AND DUP15 PUSH2 0x165F JUMP JUMPDEST SWAP1 ISZERO ISZERO SWAP1 MSTORE PUSH2 0x13F8 JUMP JUMPDEST SWAP1 POP PUSH2 0x18C2 JUMP JUMPDEST POP SWAP4 SWAP8 SWAP5 SWAP7 SWAP9 POP POP POP POP JUMP JUMPDEST SWAP1 POP CODESIZE PUSH2 0x1820 JUMP JUMPDEST POP POP POP POP SWAP2 POP POP PUSH1 0x40 MLOAD SWAP1 PUSH2 0x1A05 DUP3 PUSH2 0x1347 JUMP JUMPDEST PUSH1 0x0 DUP3 MSTORE PUSH1 0x40 MLOAD SWAP2 PUSH2 0x1A16 DUP4 PUSH2 0x1347 JUMP JUMPDEST PUSH1 0x0 DUP4 MSTORE PUSH1 0x40 MLOAD SWAP2 PUSH2 0x1A27 DUP4 PUSH2 0x1347 JUMP JUMPDEST PUSH1 0x0 DUP4 MSTORE PUSH1 0x40 MLOAD SWAP2 PUSH2 0x1A38 DUP4 PUSH2 0x1347 JUMP JUMPDEST PUSH1 0x0 DUP4 MSTORE PUSH1 0x40 MLOAD SWAP2 PUSH2 0x1A49 DUP4 PUSH2 0x1347 JUMP JUMPDEST PUSH1 0x0 DUP4 MSTORE PUSH1 0x40 MLOAD SWAP2 PUSH2 0x1A5A DUP4 PUSH2 0x1347 JUMP JUMPDEST PUSH1 0x0 DUP4 MSTORE PUSH1 0x0 CALLDATASIZE DUP2 CALLDATACOPY SWAP6 SWAP5 SWAP4 SWAP3 SWAP2 SWAP1 JUMP JUMPDEST POP DUP3 ISZERO PUSH2 0x17E4 JUMP INVALID LOG2 PUSH5 0x6970667358 0x22 SLT KECCAK256 SSTORE OR PUSH1 0xD6 SAR 0x2C 0xD DUP6 PUSH25 0xDD783A226772E848361AA10F99FD0F9F6524A253D286916473 PUSH16 0x6C634300081400330000000000000000 "},"methodIdentifiers":{"FEEDBACK_COOLDOWN()":"9477cdc6","MAX_ITERATION()":"6faf25ed","appendResponse(uint256,address,uint64,string,bytes32)":"c2349ab2","getClientCount(uint256)":"aa65d93f","getClients(uint256,uint256,uint256)":"494a38d7","getIdentityRegistry()":"bc4d861b","getLastIndex(uint256,address)":"f2d81759","getSummary(uint256,address[],string,string)":"81bbba58","giveFeedback(uint256,int128,uint8,string,string,string,string,bytes32)":"3c036a7e","identityRegistry()":"134e18f4","readFeedback(uint256,address,uint64)":"232b0810","readFeedbackPaginated(uint256,address,uint64,uint64)":"70dfa6bc","revokeFeedback(uint256,uint64)":"4ab3ca99"}}}}}