{"contracts/ValidationRegistry.sol":{"ValidationRegistry":{"abi":[{"inputs":[{"internalType":"address","name":"identityRegistry_","type":"address"}],"stateMutability":"nonpayable","type":"constructor"},{"anonymous":false,"inputs":[{"indexed":true,"internalType":"bytes32","name":"requestHash","type":"bytes32"},{"indexed":true,"internalType":"uint256","name":"agentId","type":"uint256"}],"name":"ValidationExpired","type":"event"},{"anonymous":false,"inputs":[{"indexed":true,"internalType":"address","name":"validatorAddress","type":"address"},{"indexed":true,"internalType":"uint256","name":"agentId","type":"uint256"},{"indexed":false,"internalType":"string","name":"requestURI","type":"string"},{"indexed":true,"internalType":"bytes32","name":"requestHash","type":"bytes32"}],"name":"ValidationRequest","type":"event"},{"anonymous":false,"inputs":[{"indexed":true,"internalType":"address","name":"validatorAddress","type":"address"},{"indexed":true,"internalType":"uint256","name":"agentId","type":"uint256"},{"indexed":true,"internalType":"bytes32","name":"requestHash","type":"bytes32"},{"indexed":false,"internalType":"uint8","name":"response","type":"uint8"},{"indexed":false,"internalType":"string","name":"responseURI","type":"string"},{"indexed":false,"internalType":"bytes32","name":"responseHash","type":"bytes32"},{"indexed":false,"internalType":"string","name":"tag","type":"string"}],"name":"ValidationResponse","type":"event"},{"inputs":[],"name":"MAX_ITERATION","outputs":[{"internalType":"uint256","name":"","type":"uint256"}],"stateMutability":"view","type":"function"},{"inputs":[],"name":"MAX_VALIDATIONS_PER_AGENT","outputs":[{"internalType":"uint256","name":"","type":"uint256"}],"stateMutability":"view","type":"function"},{"inputs":[],"name":"REQUEST_EXPIRY","outputs":[{"internalType":"uint256","name":"","type":"uint256"}],"stateMutability":"view","type":"function"},{"inputs":[{"internalType":"uint256","name":"agentId","type":"uint256"}],"name":"getAgentValidationCount","outputs":[{"internalType":"uint256","name":"","type":"uint256"}],"stateMutability":"view","type":"function"},{"inputs":[{"internalType":"uint256","name":"agentId","type":"uint256"},{"internalType":"uint256","name":"offset","type":"uint256"},{"internalType":"uint256","name":"limit","type":"uint256"}],"name":"getAgentValidations","outputs":[{"internalType":"bytes32[]","name":"","type":"bytes32[]"}],"stateMutability":"view","type":"function"},{"inputs":[],"name":"getIdentityRegistry","outputs":[{"internalType":"address","name":"","type":"address"}],"stateMutability":"view","type":"function"},{"inputs":[{"internalType":"uint256","name":"agentId","type":"uint256"},{"internalType":"address[]","name":"validatorAddresses","type":"address[]"},{"internalType":"string","name":"tag","type":"string"},{"internalType":"uint256","name":"offset","type":"uint256"},{"internalType":"uint256","name":"limit","type":"uint256"}],"name":"getSummary","outputs":[{"internalType":"uint64","name":"count","type":"uint64"},{"internalType":"uint8","name":"averageResponse","type":"uint8"},{"internalType":"uint256","name":"totalChecked","type":"uint256"}],"stateMutability":"view","type":"function"},{"inputs":[{"internalType":"bytes32","name":"requestHash","type":"bytes32"}],"name":"getValidationStatus","outputs":[{"internalType":"address","name":"validatorAddress","type":"address"},{"internalType":"uint256","name":"agentId","type":"uint256"},{"internalType":"uint8","name":"response","type":"uint8"},{"internalType":"bytes32","name":"responseHash","type":"bytes32"},{"internalType":"string","name":"tag","type":"string"},{"internalType":"uint256","name":"createdAt","type":"uint256"},{"internalType":"uint256","name":"respondedAt","type":"uint256"},{"internalType":"bool","name":"isExpired","type":"bool"}],"stateMutability":"view","type":"function"},{"inputs":[{"internalType":"address","name":"validatorAddress","type":"address"}],"name":"getValidatorRequestCount","outputs":[{"internalType":"uint256","name":"","type":"uint256"}],"stateMutability":"view","type":"function"},{"inputs":[{"internalType":"address","name":"validatorAddress","type":"address"},{"internalType":"uint256","name":"offset","type":"uint256"},{"internalType":"uint256","name":"limit","type":"uint256"}],"name":"getValidatorRequests","outputs":[{"internalType":"bytes32[]","name":"","type":"bytes32[]"}],"stateMutability":"view","type":"function"},{"inputs":[],"name":"identityRegistry","outputs":[{"internalType":"contract IdentityRegistry","name":"","type":"address"}],"stateMutability":"view","type":"function"},{"inputs":[{"internalType":"address","name":"validatorAddress","type":"address"},{"internalType":"uint256","name":"agentId","type":"uint256"},{"internalType":"string","name":"requestURI","type":"string"},{"internalType":"bytes32","name":"requestHash","type":"bytes32"}],"name":"validationRequest","outputs":[],"stateMutability":"nonpayable","type":"function"},{"inputs":[{"internalType":"bytes32","name":"requestHash","type":"bytes32"},{"internalType":"uint8","name":"response","type":"uint8"},{"internalType":"string","name":"responseURI","type":"string"},{"internalType":"bytes32","name":"responseHash","type":"bytes32"},{"internalType":"string","name":"tag","type":"string"}],"name":"validationResponse","outputs":[],"stateMutability":"nonpayable","type":"function"}],"evm":{"bytecode":{"linkReferences":{},"object":"60a0346100c557601f6114cc38819003918201601f19168301916001600160401b038311848410176100ca578084926020946040528339810103126100c557516001600160a01b038116908190036100c5578015610080576080526040516113eb90816100e182396080518181816101f2015281816102670152610cb60152f35b60405162461bcd60e51b815260206004820152601860248201527f496e76616c6964207265676973747279206164647265737300000000000000006044820152606490fd5b600080fd5b634e487b7160e01b600052604160045260246000fdfe608080604052600436101561001357600080fd5b60003560e01c908163134e18f414610ca35750806322f195b514610c85578063387f810114610c4b5780633d659a961461090757806351e592f7146108ea5780636faf25ed146108ce57806378dcd434146108a257806383cc5b6a1461080b578063a6166d2d146107e6578063aa8700b2146107aa578063aaf400c414610221578063bc4d861b146101dc5763ff2febfc146100ae57600080fd5b346101d7576020806003193601126101d7576004356000526000815260406000206100df60ff600783015416610ec8565b60068101548015806101a5575b60049060018060a01b038454169260018501549560ff60028701541660038701549061012e6005890154986101276040518099819301610f1a565b0387610d80565b60405198899788528388015260408701526060860152610100938460808701528051809587015260005b85811061018d5750505061012094600086858701015260a085015260c0840152151560e0830152601f80199101168101030190f35b81810183015189820161012001528896508201610158565b5060058201549062278d0082018092116101c1579042116100ec565b634e487b7160e01b600052601160045260246000fd5b600080fd5b346101d75760003660031901126101d7576040517f00000000000000000000000000000000000000000000000000000000000000006001600160a01b03168152602090f35b346101d75760803660031901126101d75761023a610ce5565b604490813567ffffffffffffffff81116101d75761025c903690600401610cfb565b909260018060a01b037f0000000000000000000000000000000000000000000000000000000000000000166040516331a9108f60e11b81526024356004820152602081602481855afa90811561075c57600091610768575b5060018060a01b0316903382149182156106e6575b5050156106a2576001600160a01b0383161561065e576064351561062357606435600052600060205260ff600760406000200154166105df5760243560005260026020526103e8604060002054101561059b5750604051610100810181811067ffffffffffffffff8211176105855760409081526001600160a01b03841682526024356020830152600082820181905260608301525161036881610d64565b6000815260808201524260a0820152600060c0820152600160e08201526064356000526000602052604060002060018060a01b038251166bffffffffffffffffffffffff60a01b825416178155602082015160018201556002810160ff60408401511660ff19825416179055606082015160038201556080820151805167ffffffffffffffff811161058557600483019161040d826104078554610da2565b85610ddc565b602090601f83116001146105175791806007949260e0969460009261050c575b50508160011b916000199060031b1c19161790555b60a0840151600582015560c0840151600682015501910151151560ff8019835416911617905560243560005260016020526104836064356040600020610e5e565b6024356000526002602052604060002061049d8154610e98565b905560018060a01b03821660005260036020526104c06064356040600020610e5e565b7f530436c3634a98e1e626b0898be2f1e9980cc1bd2a78c07a0aba52d0a48a50596040516020815280610507606435966024359660018060a01b0316956020840191610ea7565b0390a4005b015190508a8061042d565b90601f198316918460005260206000209260005b81811061056d575092600192859260e098966007989610610554575b505050811b019055610442565b015160001960f88460031b161c191690558a8080610547565b9293602060018192878601518155019501930161052b565b634e487b7160e01b600052604160045260246000fd5b6064907f4167656e742076616c69646174696f6e206c696d6974207265616368656400006040519162461bcd60e51b835260206004840152601e6024840152820152fd5b6064907f52657175657374206861736820616c72656164792065786973747300000000006040519162461bcd60e51b835260206004840152601b6024840152820152fd5b60649073092dcecc2d8d2c840e4cae2eacae6e840d0c2e6d60631b6040519162461bcd60e51b83526020600484015260146024840152820152fd5b6064907f496e76616c69642076616c696461746f722061646472657373000000000000006040519162461bcd60e51b83526020600484015260196024840152820152fd5b6064907f4e6f7420617574686f72697a656420666f722074686973206167656e740000006040519162461bcd60e51b835260206004840152601d6024840152820152fd5b6020919250836040518094819363e985e9c560e01b835260048301523360248301525afa90811561075c57600091610721575b5085806102c9565b90506020813d602011610754575b8161073c60209383610d80565b810103126101d7575180151581036101d75785610719565b3d915061072f565b6040513d6000823e3d90fd5b90506020813d6020116107a2575b8161078360209383610d80565b810103126101d757516001600160a01b03811681036101d757866102b4565b3d9150610776565b346101d75760603660031901126101d7576107e26107d66107c9610ce5565b6044359060243590611317565b60405191829182610d29565b0390f35b346101d75760603660031901126101d7576107e26107d660443560243560043561126d565b346101d75760a03660031901126101d75760243567ffffffffffffffff8082116101d757366023830112156101d7578160040135918183116101d7573660248460051b830101116101d7576044358281116101d75760609360ff9261087761088b933690600401610cfb565b906084359360246064359401600435610fbd565b929193604051941684521660208301526040820152f35b346101d75760203660031901126101d75760043560005260026020526020604060002054604051908152f35b346101d75760003660031901126101d757602060405160648152f35b346101d75760003660031901126101d75760206040516103e88152f35b346101d75760a03660031901126101d757600435602480359060ff82168092036101d75767ffffffffffffffff6044358181116101d75761094c903690600401610cfb565b9390926084358381116101d757610967903690600401610cfb565b9094876000526020946000865260406000209061098a60ff600784015416610ec8565b81546001600160a01b03163303610c075760648611610bca5760068201908154610b9257600583015462278d008101809111610b7d574211610b4357600283018760ff198254161790556064359586600385015560048401918611610b2f57506109fe856109f88354610da2565b83610ddc565b6000601f8611600114610a96578593610a76937fafddf629e874ccc3963b6a888c477bd464a6c8525024fc88759ea3b2326349ae9a9998969361050798600194600091610a8b575b50600019600389901b1c191687851b1790555b429055015499608060405198899889528801526080870191610ea7565b91604085015283820360608501523396610ea7565b90508d013538610a46565b89601f19871691836000528a6000209260005b818110610b16575093600193899793610a7697936105079b7fafddf629e874ccc3963b6a888c477bd464a6c8525024fc88759ea3b2326349ae9f9e9d9b9810610afc575b5050508387811b019055610a59565b013560001960038a901b60f8161c191690558f8d81610aed565b9282013584556001909301928c92918c01918c01610aa9565b634e487b7160e01b60009081526041600452fd5b60405162461bcd60e51b8152600481018990526013818801527214995c5d595cdd081a185cc8195e1c1a5c9959606a1b6044820152606490fd5b86634e487b7160e01b60005260116004526000fd5b60405162461bcd60e51b81526004810189905260118188015270105b1c9958591e481c995cdc1bdb991959607a1b6044820152606490fd5b60405162461bcd60e51b815260048101889052601681870152750526573706f6e7365206d75737420626520302d3130360541b6044820152606490fd5b60405162461bcd60e51b815260048101889052601a818701527f4f6e6c792076616c696461746f722063616e20726573706f6e640000000000006044820152606490fd5b346101d75760203660031901126101d7576001600160a01b03610c6c610ce5565b1660005260036020526020604060002054604051908152f35b346101d75760003660031901126101d757602060405162278d008152f35b346101d75760003660031901126101d7577f00000000000000000000000000000000000000000000000000000000000000006001600160a01b03168152602090f35b600435906001600160a01b03821682036101d757565b9181601f840112156101d75782359167ffffffffffffffff83116101d757602083818601950101116101d757565b6020908160408183019282815285518094520193019160005b828110610d50575050505090565b835185529381019392810192600101610d42565b6020810190811067ffffffffffffffff82111761058557604052565b90601f8019910116810190811067ffffffffffffffff82111761058557604052565b90600182811c92168015610dd2575b6020831014610dbc57565b634e487b7160e01b600052602260045260246000fd5b91607f1691610db1565b90601f8111610dea57505050565b600091825260208220906020601f850160051c83019410610e26575b601f0160051c01915b828110610e1b57505050565b818155600101610e0f565b9092508290610e06565b8054821015610e485760005260206000200190600090565b634e487b7160e01b600052603260045260246000fd5b80546801000000000000000081101561058557610e8091600182018155610e30565b819291549060031b91821b91600019901b1916179055565b60001981146101c15760010190565b908060209392818452848401376000828201840152601f01601f1916010190565b15610ecf57565b60405162461bcd60e51b815260206004820152601660248201527514995c5d595cdd08191bd95cc81b9bdd08195e1a5cdd60521b6044820152606490fd5b919082018092116101c157565b9060009291805491610f2b83610da2565b918282526001938481169081600014610f8d5750600114610f4d575b50505050565b90919394506000526020928360002092846000945b838610610f79575050505001019038808080610f47565b805485870183015294019385908201610f62565b9294505050602093945060ff191683830152151560051b01019038808080610f47565b919082039182116101c157565b939694929160009485526001906020828152604080882095889b610fe28a9c8a610f0d565b968854808911611207575b508697988a985b61103e575b50505050505050505067ffffffffffffffff851692831561102a575060ff929161102291610fb0565b939404169190565b955090915061103a929350610fb0565b8291565b90919293949596979c9d8d8b8b821091826111f1575b5050156111ea576110658e83610e30565b90549060031b1c8c528b8752858c206006810154156110e5578861117e575b841515806110f9575b6110e5579060ff60026110a39301541690610f0d565b9d67ffffffffffffffff8091169081146110d157906110cb898099989796959493019e610e98565b98610ff4565b634e487b7160e01b8c52601160045260248cfd5b509d9c906110cb8998979695949392610e98565b5086516004906111168161110f81858701610f1a565b0382610d80565b8981519101209067ffffffffffffffff871161116b57508751611142601f8801601f19168b0182610d80565b8681528981019036888a0111611167578f888a84378b8983010152519020141561108d565b8f80fd5b634e487b7160e01b8f526041905260248efd5b80548d906001600160a01b03908116825b8c81106111b2575b50505061108457509d9c906110cb8998979695949392610e98565b8060051b8801358381168091036111e45782146111d7576111d290610e98565b61118f565b5050505089388080611197565b50508f80fd5b9d9c610ff9565b60649250906111ff91610fb0565b108b8f611054565b975086610fed565b67ffffffffffffffff81116105855760051b60200190565b906112318261120f565b61123e6040519182610d80565b828152809261124f601f199161120f565b0190602036910137565b8051821015610e485760209160051b010190565b9190916000526001602052604060002091825491828210156112fb576112939082610f0d565b918083116112f3575b506112af6112aa8284610fb0565b611227565b92815b8381106112c0575050505090565b806112ce6112ee9284610e30565b90549060031b1c6112e86112e28684610fb0565b88611259565b52610e98565b6112b2565b91503861129c565b5050505060405161130b81610d64565b60008152600036813790565b91909160018060a01b031660005260039182602052604060002092835492838310156113a4576113479083610f0d565b9280841161139c575b5061135e6112aa8385610fb0565b93825b84811061137057505050505090565b8061137e6113979284610e30565b905490851b1c6112e86113918784610fb0565b89611259565b611361565b925038611350565b505050505060405161130b81610d6456fea2646970667358221220f00e009f6d76ad0dd249d1a499ac3d468f872bde9ee3b840e30ce049452c603464736f6c63430008140033","opcodes":"PUSH1 0xA0 CALLVALUE PUSH2 0xC5 JUMPI PUSH1 0x1F PUSH2 0x14CC CODESIZE DUP2 SWAP1 SUB SWAP2 DUP3 ADD PUSH1 0x1F NOT AND DUP4 ADD SWAP2 PUSH1 0x1 PUSH1 0x1 PUSH1 0x40 SHL SUB DUP4 GT DUP5 DUP5 LT OR PUSH2 0xCA JUMPI DUP1 DUP5 SWAP3 PUSH1 0x20 SWAP5 PUSH1 0x40 MSTORE DUP4 CODECOPY DUP2 ADD SUB SLT PUSH2 0xC5 JUMPI MLOAD PUSH1 0x1 PUSH1 0x1 PUSH1 0xA0 SHL SUB DUP2 AND SWAP1 DUP2 SWAP1 SUB PUSH2 0xC5 JUMPI DUP1 ISZERO PUSH2 0x80 JUMPI PUSH1 0x80 MSTORE PUSH1 0x40 MLOAD PUSH2 0x13EB SWAP1 DUP2 PUSH2 0xE1 DUP3 CODECOPY PUSH1 0x80 MLOAD DUP2 DUP2 DUP2 PUSH2 0x1F2 ADD MSTORE DUP2 DUP2 PUSH2 0x267 ADD MSTORE PUSH2 0xCB6 ADD MSTORE RETURN JUMPDEST PUSH1 0x40 MLOAD PUSH3 0x461BCD PUSH1 0xE5 SHL DUP2 MSTORE PUSH1 0x20 PUSH1 0x4 DUP3 ADD MSTORE PUSH1 0x18 PUSH1 0x24 DUP3 ADD MSTORE PUSH32 0x496E76616C696420726567697374727920616464726573730000000000000000 PUSH1 0x44 DUP3 ADD MSTORE PUSH1 0x64 SWAP1 REVERT JUMPDEST PUSH1 0x0 DUP1 REVERT JUMPDEST PUSH4 0x4E487B71 PUSH1 0xE0 SHL PUSH1 0x0 MSTORE PUSH1 0x41 PUSH1 0x4 MSTORE PUSH1 0x24 PUSH1 0x0 REVERT INVALID PUSH1 0x80 DUP1 PUSH1 0x40 MSTORE PUSH1 0x4 CALLDATASIZE LT ISZERO PUSH2 0x13 JUMPI PUSH1 0x0 DUP1 REVERT JUMPDEST PUSH1 0x0 CALLDATALOAD PUSH1 0xE0 SHR SWAP1 DUP2 PUSH4 0x134E18F4 EQ PUSH2 0xCA3 JUMPI POP DUP1 PUSH4 0x22F195B5 EQ PUSH2 0xC85 JUMPI DUP1 PUSH4 0x387F8101 EQ PUSH2 0xC4B JUMPI DUP1 PUSH4 0x3D659A96 EQ PUSH2 0x907 JUMPI DUP1 PUSH4 0x51E592F7 EQ PUSH2 0x8EA JUMPI DUP1 PUSH4 0x6FAF25ED EQ PUSH2 0x8CE JUMPI DUP1 PUSH4 0x78DCD434 EQ PUSH2 0x8A2 JUMPI DUP1 PUSH4 0x83CC5B6A EQ PUSH2 0x80B JUMPI DUP1 PUSH4 0xA6166D2D EQ PUSH2 0x7E6 JUMPI DUP1 PUSH4 0xAA8700B2 EQ PUSH2 0x7AA JUMPI DUP1 PUSH4 0xAAF400C4 EQ PUSH2 0x221 JUMPI DUP1 PUSH4 0xBC4D861B EQ PUSH2 0x1DC JUMPI PUSH4 0xFF2FEBFC EQ PUSH2 0xAE JUMPI PUSH1 0x0 DUP1 REVERT JUMPDEST CALLVALUE PUSH2 0x1D7 JUMPI PUSH1 0x20 DUP1 PUSH1 0x3 NOT CALLDATASIZE ADD SLT PUSH2 0x1D7 JUMPI PUSH1 0x4 CALLDATALOAD PUSH1 0x0 MSTORE PUSH1 0x0 DUP2 MSTORE PUSH1 0x40 PUSH1 0x0 KECCAK256 PUSH2 0xDF PUSH1 0xFF PUSH1 0x7 DUP4 ADD SLOAD AND PUSH2 0xEC8 JUMP JUMPDEST PUSH1 0x6 DUP2 ADD SLOAD DUP1 ISZERO DUP1 PUSH2 0x1A5 JUMPI JUMPDEST PUSH1 0x4 SWAP1 PUSH1 0x1 DUP1 PUSH1 0xA0 SHL SUB DUP5 SLOAD AND SWAP3 PUSH1 0x1 DUP6 ADD SLOAD SWAP6 PUSH1 0xFF PUSH1 0x2 DUP8 ADD SLOAD AND PUSH1 0x3 DUP8 ADD SLOAD SWAP1 PUSH2 0x12E PUSH1 0x5 DUP10 ADD SLOAD SWAP9 PUSH2 0x127 PUSH1 0x40 MLOAD DUP1 SWAP10 DUP2 SWAP4 ADD PUSH2 0xF1A JUMP JUMPDEST SUB DUP8 PUSH2 0xD80 JUMP JUMPDEST PUSH1 0x40 MLOAD SWAP9 DUP10 SWAP8 DUP9 MSTORE DUP4 DUP9 ADD MSTORE PUSH1 0x40 DUP8 ADD MSTORE PUSH1 0x60 DUP7 ADD MSTORE PUSH2 0x100 SWAP4 DUP5 PUSH1 0x80 DUP8 ADD MSTORE DUP1 MLOAD DUP1 SWAP6 DUP8 ADD MSTORE PUSH1 0x0 JUMPDEST DUP6 DUP2 LT PUSH2 0x18D JUMPI POP POP POP PUSH2 0x120 SWAP5 PUSH1 0x0 DUP7 DUP6 DUP8 ADD ADD MSTORE PUSH1 0xA0 DUP6 ADD MSTORE PUSH1 0xC0 DUP5 ADD MSTORE ISZERO ISZERO PUSH1 0xE0 DUP4 ADD MSTORE PUSH1 0x1F DUP1 NOT SWAP2 ADD AND DUP2 ADD SUB ADD SWAP1 RETURN JUMPDEST DUP2 DUP2 ADD DUP4 ADD MLOAD DUP10 DUP3 ADD PUSH2 0x120 ADD MSTORE DUP9 SWAP7 POP DUP3 ADD PUSH2 0x158 JUMP JUMPDEST POP PUSH1 0x5 DUP3 ADD SLOAD SWAP1 PUSH3 0x278D00 DUP3 ADD DUP1 SWAP3 GT PUSH2 0x1C1 JUMPI SWAP1 TIMESTAMP GT PUSH2 0xEC JUMP JUMPDEST PUSH4 0x4E487B71 PUSH1 0xE0 SHL PUSH1 0x0 MSTORE PUSH1 0x11 PUSH1 0x4 MSTORE PUSH1 0x24 PUSH1 0x0 REVERT JUMPDEST PUSH1 0x0 DUP1 REVERT JUMPDEST CALLVALUE PUSH2 0x1D7 JUMPI PUSH1 0x0 CALLDATASIZE PUSH1 0x3 NOT ADD SLT PUSH2 0x1D7 JUMPI PUSH1 0x40 MLOAD PUSH32 0x0 PUSH1 0x1 PUSH1 0x1 PUSH1 0xA0 SHL SUB AND DUP2 MSTORE PUSH1 0x20 SWAP1 RETURN JUMPDEST CALLVALUE PUSH2 0x1D7 JUMPI PUSH1 0x80 CALLDATASIZE PUSH1 0x3 NOT ADD SLT PUSH2 0x1D7 JUMPI PUSH2 0x23A PUSH2 0xCE5 JUMP JUMPDEST PUSH1 0x44 SWAP1 DUP2 CALLDATALOAD PUSH8 0xFFFFFFFFFFFFFFFF DUP2 GT PUSH2 0x1D7 JUMPI PUSH2 0x25C SWAP1 CALLDATASIZE SWAP1 PUSH1 0x4 ADD PUSH2 0xCFB JUMP JUMPDEST SWAP1 SWAP3 PUSH1 0x1 DUP1 PUSH1 0xA0 SHL SUB PUSH32 0x0 AND PUSH1 0x40 MLOAD PUSH4 0x31A9108F PUSH1 0xE1 SHL DUP2 MSTORE PUSH1 0x24 CALLDATALOAD PUSH1 0x4 DUP3 ADD MSTORE PUSH1 0x20 DUP2 PUSH1 0x24 DUP2 DUP6 GAS STATICCALL SWAP1 DUP2 ISZERO PUSH2 0x75C JUMPI PUSH1 0x0 SWAP2 PUSH2 0x768 JUMPI JUMPDEST POP PUSH1 0x1 DUP1 PUSH1 0xA0 SHL SUB AND SWAP1 CALLER DUP3 EQ SWAP2 DUP3 ISZERO PUSH2 0x6E6 JUMPI JUMPDEST POP POP ISZERO PUSH2 0x6A2 JUMPI PUSH1 0x1 PUSH1 0x1 PUSH1 0xA0 SHL SUB DUP4 AND ISZERO PUSH2 0x65E JUMPI PUSH1 0x64 CALLDATALOAD ISZERO PUSH2 0x623 JUMPI PUSH1 0x64 CALLDATALOAD PUSH1 0x0 MSTORE PUSH1 0x0 PUSH1 0x20 MSTORE PUSH1 0xFF PUSH1 0x7 PUSH1 0x40 PUSH1 0x0 KECCAK256 ADD SLOAD AND PUSH2 0x5DF JUMPI PUSH1 0x24 CALLDATALOAD PUSH1 0x0 MSTORE PUSH1 0x2 PUSH1 0x20 MSTORE PUSH2 0x3E8 PUSH1 0x40 PUSH1 0x0 KECCAK256 SLOAD LT ISZERO PUSH2 0x59B JUMPI POP PUSH1 0x40 MLOAD PUSH2 0x100 DUP2 ADD DUP2 DUP2 LT PUSH8 0xFFFFFFFFFFFFFFFF DUP3 GT OR PUSH2 0x585 JUMPI PUSH1 0x40 SWAP1 DUP2 MSTORE PUSH1 0x1 PUSH1 0x1 PUSH1 0xA0 SHL SUB DUP5 AND DUP3 MSTORE PUSH1 0x24 CALLDATALOAD PUSH1 0x20 DUP4 ADD MSTORE PUSH1 0x0 DUP3 DUP3 ADD DUP2 SWAP1 MSTORE PUSH1 0x60 DUP4 ADD MSTORE MLOAD PUSH2 0x368 DUP2 PUSH2 0xD64 JUMP JUMPDEST PUSH1 0x0 DUP2 MSTORE PUSH1 0x80 DUP3 ADD MSTORE TIMESTAMP PUSH1 0xA0 DUP3 ADD MSTORE PUSH1 0x0 PUSH1 0xC0 DUP3 ADD MSTORE PUSH1 0x1 PUSH1 0xE0 DUP3 ADD MSTORE PUSH1 0x64 CALLDATALOAD PUSH1 0x0 MSTORE PUSH1 0x0 PUSH1 0x20 MSTORE PUSH1 0x40 PUSH1 0x0 KECCAK256 PUSH1 0x1 DUP1 PUSH1 0xA0 SHL SUB DUP3 MLOAD AND PUSH12 0xFFFFFFFFFFFFFFFFFFFFFFFF PUSH1 0xA0 SHL DUP3 SLOAD AND OR DUP2 SSTORE PUSH1 0x20 DUP3 ADD MLOAD PUSH1 0x1 DUP3 ADD SSTORE PUSH1 0x2 DUP2 ADD PUSH1 0xFF PUSH1 0x40 DUP5 ADD MLOAD AND PUSH1 0xFF NOT DUP3 SLOAD AND OR SWAP1 SSTORE PUSH1 0x60 DUP3 ADD MLOAD PUSH1 0x3 DUP3 ADD SSTORE PUSH1 0x80 DUP3 ADD MLOAD DUP1 MLOAD PUSH8 0xFFFFFFFFFFFFFFFF DUP2 GT PUSH2 0x585 JUMPI PUSH1 0x4 DUP4 ADD SWAP2 PUSH2 0x40D DUP3 PUSH2 0x407 DUP6 SLOAD PUSH2 0xDA2 JUMP JUMPDEST DUP6 PUSH2 0xDDC JUMP JUMPDEST PUSH1 0x20 SWAP1 PUSH1 0x1F DUP4 GT PUSH1 0x1 EQ PUSH2 0x517 JUMPI SWAP2 DUP1 PUSH1 0x7 SWAP5 SWAP3 PUSH1 0xE0 SWAP7 SWAP5 PUSH1 0x0 SWAP3 PUSH2 0x50C JUMPI JUMPDEST POP POP DUP2 PUSH1 0x1 SHL SWAP2 PUSH1 0x0 NOT SWAP1 PUSH1 0x3 SHL SHR NOT AND OR SWAP1 SSTORE JUMPDEST PUSH1 0xA0 DUP5 ADD MLOAD PUSH1 0x5 DUP3 ADD SSTORE PUSH1 0xC0 DUP5 ADD MLOAD PUSH1 0x6 DUP3 ADD SSTORE ADD SWAP2 ADD MLOAD ISZERO ISZERO PUSH1 0xFF DUP1 NOT DUP4 SLOAD AND SWAP2 AND OR SWAP1 SSTORE PUSH1 0x24 CALLDATALOAD PUSH1 0x0 MSTORE PUSH1 0x1 PUSH1 0x20 MSTORE PUSH2 0x483 PUSH1 0x64 CALLDATALOAD PUSH1 0x40 PUSH1 0x0 KECCAK256 PUSH2 0xE5E JUMP JUMPDEST PUSH1 0x24 CALLDATALOAD PUSH1 0x0 MSTORE PUSH1 0x2 PUSH1 0x20 MSTORE PUSH1 0x40 PUSH1 0x0 KECCAK256 PUSH2 0x49D DUP2 SLOAD PUSH2 0xE98 JUMP JUMPDEST SWAP1 SSTORE PUSH1 0x1 DUP1 PUSH1 0xA0 SHL SUB DUP3 AND PUSH1 0x0 MSTORE PUSH1 0x3 PUSH1 0x20 MSTORE PUSH2 0x4C0 PUSH1 0x64 CALLDATALOAD PUSH1 0x40 PUSH1 0x0 KECCAK256 PUSH2 0xE5E JUMP JUMPDEST PUSH32 0x530436C3634A98E1E626B0898BE2F1E9980CC1BD2A78C07A0ABA52D0A48A5059 PUSH1 0x40 MLOAD PUSH1 0x20 DUP2 MSTORE DUP1 PUSH2 0x507 PUSH1 0x64 CALLDATALOAD SWAP7 PUSH1 0x24 CALLDATALOAD SWAP7 PUSH1 0x1 DUP1 PUSH1 0xA0 SHL SUB AND SWAP6 PUSH1 0x20 DUP5 ADD SWAP2 PUSH2 0xEA7 JUMP JUMPDEST SUB SWAP1 LOG4 STOP JUMPDEST ADD MLOAD SWAP1 POP DUP11 DUP1 PUSH2 0x42D JUMP JUMPDEST SWAP1 PUSH1 0x1F NOT DUP4 AND SWAP2 DUP5 PUSH1 0x0 MSTORE PUSH1 0x20 PUSH1 0x0 KECCAK256 SWAP3 PUSH1 0x0 JUMPDEST DUP2 DUP2 LT PUSH2 0x56D JUMPI POP SWAP3 PUSH1 0x1 SWAP3 DUP6 SWAP3 PUSH1 0xE0 SWAP9 SWAP7 PUSH1 0x7 SWAP9 SWAP7 LT PUSH2 0x554 JUMPI JUMPDEST POP POP POP DUP2 SHL ADD SWAP1 SSTORE PUSH2 0x442 JUMP JUMPDEST ADD MLOAD PUSH1 0x0 NOT PUSH1 0xF8 DUP5 PUSH1 0x3 SHL AND SHR NOT AND SWAP1 SSTORE DUP11 DUP1 DUP1 PUSH2 0x547 JUMP JUMPDEST SWAP3 SWAP4 PUSH1 0x20 PUSH1 0x1 DUP2 SWAP3 DUP8 DUP7 ADD MLOAD DUP2 SSTORE ADD SWAP6 ADD SWAP4 ADD PUSH2 0x52B JUMP JUMPDEST PUSH4 0x4E487B71 PUSH1 0xE0 SHL PUSH1 0x0 MSTORE PUSH1 0x41 PUSH1 0x4 MSTORE PUSH1 0x24 PUSH1 0x0 REVERT JUMPDEST PUSH1 0x64 SWAP1 PUSH32 0x4167656E742076616C69646174696F6E206C696D697420726561636865640000 PUSH1 0x40 MLOAD SWAP2 PUSH3 0x461BCD PUSH1 0xE5 SHL DUP4 MSTORE PUSH1 0x20 PUSH1 0x4 DUP5 ADD MSTORE PUSH1 0x1E PUSH1 0x24 DUP5 ADD MSTORE DUP3 ADD MSTORE REVERT JUMPDEST PUSH1 0x64 SWAP1 PUSH32 0x52657175657374206861736820616C7265616479206578697374730000000000 PUSH1 0x40 MLOAD SWAP2 PUSH3 0x461BCD PUSH1 0xE5 SHL DUP4 MSTORE PUSH1 0x20 PUSH1 0x4 DUP5 ADD MSTORE PUSH1 0x1B PUSH1 0x24 DUP5 ADD MSTORE DUP3 ADD MSTORE REVERT JUMPDEST PUSH1 0x64 SWAP1 PUSH20 0x92DCECC2D8D2C840E4CAE2EACAE6E840D0C2E6D PUSH1 0x63 SHL PUSH1 0x40 MLOAD SWAP2 PUSH3 0x461BCD PUSH1 0xE5 SHL DUP4 MSTORE PUSH1 0x20 PUSH1 0x4 DUP5 ADD MSTORE PUSH1 0x14 PUSH1 0x24 DUP5 ADD MSTORE DUP3 ADD MSTORE REVERT JUMPDEST PUSH1 0x64 SWAP1 PUSH32 0x496E76616C69642076616C696461746F72206164647265737300000000000000 PUSH1 0x40 MLOAD SWAP2 PUSH3 0x461BCD PUSH1 0xE5 SHL DUP4 MSTORE PUSH1 0x20 PUSH1 0x4 DUP5 ADD MSTORE PUSH1 0x19 PUSH1 0x24 DUP5 ADD MSTORE DUP3 ADD MSTORE REVERT JUMPDEST PUSH1 0x64 SWAP1 PUSH32 0x4E6F7420617574686F72697A656420666F722074686973206167656E74000000 PUSH1 0x40 MLOAD SWAP2 PUSH3 0x461BCD PUSH1 0xE5 SHL DUP4 MSTORE PUSH1 0x20 PUSH1 0x4 DUP5 ADD MSTORE PUSH1 0x1D PUSH1 0x24 DUP5 ADD MSTORE DUP3 ADD MSTORE REVERT JUMPDEST PUSH1 0x20 SWAP2 SWAP3 POP DUP4 PUSH1 0x40 MLOAD DUP1 SWAP5 DUP2 SWAP4 PUSH4 0xE985E9C5 PUSH1 0xE0 SHL DUP4 MSTORE PUSH1 0x4 DUP4 ADD MSTORE CALLER PUSH1 0x24 DUP4 ADD MSTORE GAS STATICCALL SWAP1 DUP2 ISZERO PUSH2 0x75C JUMPI PUSH1 0x0 SWAP2 PUSH2 0x721 JUMPI JUMPDEST POP DUP6 DUP1 PUSH2 0x2C9 JUMP JUMPDEST SWAP1 POP PUSH1 0x20 DUP2 RETURNDATASIZE PUSH1 0x20 GT PUSH2 0x754 JUMPI JUMPDEST DUP2 PUSH2 0x73C PUSH1 0x20 SWAP4 DUP4 PUSH2 0xD80 JUMP JUMPDEST DUP2 ADD SUB SLT PUSH2 0x1D7 JUMPI MLOAD DUP1 ISZERO ISZERO DUP2 SUB PUSH2 0x1D7 JUMPI DUP6 PUSH2 0x719 JUMP JUMPDEST RETURNDATASIZE SWAP2 POP PUSH2 0x72F JUMP JUMPDEST PUSH1 0x40 MLOAD RETURNDATASIZE PUSH1 0x0 DUP3 RETURNDATACOPY RETURNDATASIZE SWAP1 REVERT JUMPDEST SWAP1 POP PUSH1 0x20 DUP2 RETURNDATASIZE PUSH1 0x20 GT PUSH2 0x7A2 JUMPI JUMPDEST DUP2 PUSH2 0x783 PUSH1 0x20 SWAP4 DUP4 PUSH2 0xD80 JUMP JUMPDEST DUP2 ADD SUB SLT PUSH2 0x1D7 JUMPI MLOAD PUSH1 0x1 PUSH1 0x1 PUSH1 0xA0 SHL SUB DUP2 AND DUP2 SUB PUSH2 0x1D7 JUMPI DUP7 PUSH2 0x2B4 JUMP JUMPDEST RETURNDATASIZE SWAP2 POP PUSH2 0x776 JUMP JUMPDEST CALLVALUE PUSH2 0x1D7 JUMPI PUSH1 0x60 CALLDATASIZE PUSH1 0x3 NOT ADD SLT PUSH2 0x1D7 JUMPI PUSH2 0x7E2 PUSH2 0x7D6 PUSH2 0x7C9 PUSH2 0xCE5 JUMP JUMPDEST PUSH1 0x44 CALLDATALOAD SWAP1 PUSH1 0x24 CALLDATALOAD SWAP1 PUSH2 0x1317 JUMP JUMPDEST PUSH1 0x40 MLOAD SWAP2 DUP3 SWAP2 DUP3 PUSH2 0xD29 JUMP JUMPDEST SUB SWAP1 RETURN JUMPDEST CALLVALUE PUSH2 0x1D7 JUMPI PUSH1 0x60 CALLDATASIZE PUSH1 0x3 NOT ADD SLT PUSH2 0x1D7 JUMPI PUSH2 0x7E2 PUSH2 0x7D6 PUSH1 0x44 CALLDATALOAD PUSH1 0x24 CALLDATALOAD PUSH1 0x4 CALLDATALOAD PUSH2 0x126D JUMP JUMPDEST CALLVALUE PUSH2 0x1D7 JUMPI PUSH1 0xA0 CALLDATASIZE PUSH1 0x3 NOT ADD SLT PUSH2 0x1D7 JUMPI PUSH1 0x24 CALLDATALOAD PUSH8 0xFFFFFFFFFFFFFFFF DUP1 DUP3 GT PUSH2 0x1D7 JUMPI CALLDATASIZE PUSH1 0x23 DUP4 ADD SLT ISZERO PUSH2 0x1D7 JUMPI DUP2 PUSH1 0x4 ADD CALLDATALOAD SWAP2 DUP2 DUP4 GT PUSH2 0x1D7 JUMPI CALLDATASIZE PUSH1 0x24 DUP5 PUSH1 0x5 SHL DUP4 ADD ADD GT PUSH2 0x1D7 JUMPI PUSH1 0x44 CALLDATALOAD DUP3 DUP2 GT PUSH2 0x1D7 JUMPI PUSH1 0x60 SWAP4 PUSH1 0xFF SWAP3 PUSH2 0x877 PUSH2 0x88B SWAP4 CALLDATASIZE SWAP1 PUSH1 0x4 ADD PUSH2 0xCFB JUMP JUMPDEST SWAP1 PUSH1 0x84 CALLDATALOAD SWAP4 PUSH1 0x24 PUSH1 0x64 CALLDATALOAD SWAP5 ADD PUSH1 0x4 CALLDATALOAD PUSH2 0xFBD JUMP JUMPDEST SWAP3 SWAP2 SWAP4 PUSH1 0x40 MLOAD SWAP5 AND DUP5 MSTORE AND PUSH1 0x20 DUP4 ADD MSTORE PUSH1 0x40 DUP3 ADD MSTORE RETURN JUMPDEST CALLVALUE PUSH2 0x1D7 JUMPI PUSH1 0x20 CALLDATASIZE PUSH1 0x3 NOT ADD SLT PUSH2 0x1D7 JUMPI PUSH1 0x4 CALLDATALOAD PUSH1 0x0 MSTORE PUSH1 0x2 PUSH1 0x20 MSTORE PUSH1 0x20 PUSH1 0x40 PUSH1 0x0 KECCAK256 SLOAD PUSH1 0x40 MLOAD SWAP1 DUP2 MSTORE RETURN JUMPDEST CALLVALUE PUSH2 0x1D7 JUMPI PUSH1 0x0 CALLDATASIZE PUSH1 0x3 NOT ADD SLT PUSH2 0x1D7 JUMPI PUSH1 0x20 PUSH1 0x40 MLOAD PUSH1 0x64 DUP2 MSTORE RETURN JUMPDEST CALLVALUE PUSH2 0x1D7 JUMPI PUSH1 0x0 CALLDATASIZE PUSH1 0x3 NOT ADD SLT PUSH2 0x1D7 JUMPI PUSH1 0x20 PUSH1 0x40 MLOAD PUSH2 0x3E8 DUP2 MSTORE RETURN JUMPDEST CALLVALUE PUSH2 0x1D7 JUMPI PUSH1 0xA0 CALLDATASIZE PUSH1 0x3 NOT ADD SLT PUSH2 0x1D7 JUMPI PUSH1 0x4 CALLDATALOAD PUSH1 0x24 DUP1 CALLDATALOAD SWAP1 PUSH1 0xFF DUP3 AND DUP1 SWAP3 SUB PUSH2 0x1D7 JUMPI PUSH8 0xFFFFFFFFFFFFFFFF PUSH1 0x44 CALLDATALOAD DUP2 DUP2 GT PUSH2 0x1D7 JUMPI PUSH2 0x94C SWAP1 CALLDATASIZE SWAP1 PUSH1 0x4 ADD PUSH2 0xCFB JUMP JUMPDEST SWAP4 SWAP1 SWAP3 PUSH1 0x84 CALLDATALOAD DUP4 DUP2 GT PUSH2 0x1D7 JUMPI PUSH2 0x967 SWAP1 CALLDATASIZE SWAP1 PUSH1 0x4 ADD PUSH2 0xCFB JUMP JUMPDEST SWAP1 SWAP5 DUP8 PUSH1 0x0 MSTORE PUSH1 0x20 SWAP5 PUSH1 0x0 DUP7 MSTORE PUSH1 0x40 PUSH1 0x0 KECCAK256 SWAP1 PUSH2 0x98A PUSH1 0xFF PUSH1 0x7 DUP5 ADD SLOAD AND PUSH2 0xEC8 JUMP JUMPDEST DUP2 SLOAD PUSH1 0x1 PUSH1 0x1 PUSH1 0xA0 SHL SUB AND CALLER SUB PUSH2 0xC07 JUMPI PUSH1 0x64 DUP7 GT PUSH2 0xBCA JUMPI PUSH1 0x6 DUP3 ADD SWAP1 DUP2 SLOAD PUSH2 0xB92 JUMPI PUSH1 0x5 DUP4 ADD SLOAD PUSH3 0x278D00 DUP2 ADD DUP1 SWAP2 GT PUSH2 0xB7D JUMPI TIMESTAMP GT PUSH2 0xB43 JUMPI PUSH1 0x2 DUP4 ADD DUP8 PUSH1 0xFF NOT DUP3 SLOAD AND OR SWAP1 SSTORE PUSH1 0x64 CALLDATALOAD SWAP6 DUP7 PUSH1 0x3 DUP6 ADD SSTORE PUSH1 0x4 DUP5 ADD SWAP2 DUP7 GT PUSH2 0xB2F JUMPI POP PUSH2 0x9FE DUP6 PUSH2 0x9F8 DUP4 SLOAD PUSH2 0xDA2 JUMP JUMPDEST DUP4 PUSH2 0xDDC JUMP JUMPDEST PUSH1 0x0 PUSH1 0x1F DUP7 GT PUSH1 0x1 EQ PUSH2 0xA96 JUMPI DUP6 SWAP4 PUSH2 0xA76 SWAP4 PUSH32 0xAFDDF629E874CCC3963B6A888C477BD464A6C8525024FC88759EA3B2326349AE SWAP11 SWAP10 SWAP9 SWAP7 SWAP4 PUSH2 0x507 SWAP9 PUSH1 0x1 SWAP5 PUSH1 0x0 SWAP2 PUSH2 0xA8B JUMPI JUMPDEST POP PUSH1 0x0 NOT PUSH1 0x3 DUP10 SWAP1 SHL SHR NOT AND DUP8 DUP6 SHL OR SWAP1 SSTORE JUMPDEST TIMESTAMP SWAP1 SSTORE ADD SLOAD SWAP10 PUSH1 0x80 PUSH1 0x40 MLOAD SWAP9 DUP10 SWAP9 DUP10 MSTORE DUP9 ADD MSTORE PUSH1 0x80 DUP8 ADD SWAP2 PUSH2 0xEA7 JUMP JUMPDEST SWAP2 PUSH1 0x40 DUP6 ADD MSTORE DUP4 DUP3 SUB PUSH1 0x60 DUP6 ADD MSTORE CALLER SWAP7 PUSH2 0xEA7 JUMP JUMPDEST SWAP1 POP DUP14 ADD CALLDATALOAD CODESIZE PUSH2 0xA46 JUMP JUMPDEST DUP10 PUSH1 0x1F NOT DUP8 AND SWAP2 DUP4 PUSH1 0x0 MSTORE DUP11 PUSH1 0x0 KECCAK256 SWAP3 PUSH1 0x0 JUMPDEST DUP2 DUP2 LT PUSH2 0xB16 JUMPI POP SWAP4 PUSH1 0x1 SWAP4 DUP10 SWAP8 SWAP4 PUSH2 0xA76 SWAP8 SWAP4 PUSH2 0x507 SWAP12 PUSH32 0xAFDDF629E874CCC3963B6A888C477BD464A6C8525024FC88759EA3B2326349AE SWAP16 SWAP15 SWAP14 SWAP12 SWAP9 LT PUSH2 0xAFC JUMPI JUMPDEST POP POP POP DUP4 DUP8 DUP2 SHL ADD SWAP1 SSTORE PUSH2 0xA59 JUMP JUMPDEST ADD CALLDATALOAD PUSH1 0x0 NOT PUSH1 0x3 DUP11 SWAP1 SHL PUSH1 0xF8 AND SHR NOT AND SWAP1 SSTORE DUP16 DUP14 DUP2 PUSH2 0xAED JUMP JUMPDEST SWAP3 DUP3 ADD CALLDATALOAD DUP5 SSTORE PUSH1 0x1 SWAP1 SWAP4 ADD SWAP3 DUP13 SWAP3 SWAP2 DUP13 ADD SWAP2 DUP13 ADD PUSH2 0xAA9 JUMP JUMPDEST PUSH4 0x4E487B71 PUSH1 0xE0 SHL PUSH1 0x0 SWAP1 DUP2 MSTORE PUSH1 0x41 PUSH1 0x4 MSTORE REVERT JUMPDEST PUSH1 0x40 MLOAD PUSH3 0x461BCD PUSH1 0xE5 SHL DUP2 MSTORE PUSH1 0x4 DUP2 ADD DUP10 SWAP1 MSTORE PUSH1 0x13 DUP2 DUP9 ADD MSTORE PUSH19 0x14995C5D595CDD081A185CC8195E1C1A5C9959 PUSH1 0x6A SHL PUSH1 0x44 DUP3 ADD MSTORE PUSH1 0x64 SWAP1 REVERT JUMPDEST DUP7 PUSH4 0x4E487B71 PUSH1 0xE0 SHL PUSH1 0x0 MSTORE PUSH1 0x11 PUSH1 0x4 MSTORE PUSH1 0x0 REVERT JUMPDEST PUSH1 0x40 MLOAD PUSH3 0x461BCD PUSH1 0xE5 SHL DUP2 MSTORE PUSH1 0x4 DUP2 ADD DUP10 SWAP1 MSTORE PUSH1 0x11 DUP2 DUP9 ADD MSTORE PUSH17 0x105B1C9958591E481C995CDC1BDB991959 PUSH1 0x7A SHL PUSH1 0x44 DUP3 ADD MSTORE PUSH1 0x64 SWAP1 REVERT JUMPDEST PUSH1 0x40 MLOAD PUSH3 0x461BCD PUSH1 0xE5 SHL DUP2 MSTORE PUSH1 0x4 DUP2 ADD DUP9 SWAP1 MSTORE PUSH1 0x16 DUP2 DUP8 ADD MSTORE PUSH22 0x526573706F6E7365206D75737420626520302D31303 PUSH1 0x54 SHL PUSH1 0x44 DUP3 ADD MSTORE PUSH1 0x64 SWAP1 REVERT JUMPDEST PUSH1 0x40 MLOAD PUSH3 0x461BCD PUSH1 0xE5 SHL DUP2 MSTORE PUSH1 0x4 DUP2 ADD DUP9 SWAP1 MSTORE PUSH1 0x1A DUP2 DUP8 ADD MSTORE PUSH32 0x4F6E6C792076616C696461746F722063616E20726573706F6E64000000000000 PUSH1 0x44 DUP3 ADD MSTORE PUSH1 0x64 SWAP1 REVERT JUMPDEST CALLVALUE PUSH2 0x1D7 JUMPI PUSH1 0x20 CALLDATASIZE PUSH1 0x3 NOT ADD SLT PUSH2 0x1D7 JUMPI PUSH1 0x1 PUSH1 0x1 PUSH1 0xA0 SHL SUB PUSH2 0xC6C PUSH2 0xCE5 JUMP JUMPDEST AND PUSH1 0x0 MSTORE PUSH1 0x3 PUSH1 0x20 MSTORE PUSH1 0x20 PUSH1 0x40 PUSH1 0x0 KECCAK256 SLOAD PUSH1 0x40 MLOAD SWAP1 DUP2 MSTORE RETURN JUMPDEST CALLVALUE PUSH2 0x1D7 JUMPI PUSH1 0x0 CALLDATASIZE PUSH1 0x3 NOT ADD SLT PUSH2 0x1D7 JUMPI PUSH1 0x20 PUSH1 0x40 MLOAD PUSH3 0x278D00 DUP2 MSTORE RETURN JUMPDEST CALLVALUE PUSH2 0x1D7 JUMPI PUSH1 0x0 CALLDATASIZE PUSH1 0x3 NOT ADD SLT PUSH2 0x1D7 JUMPI PUSH32 0x0 PUSH1 0x1 PUSH1 0x1 PUSH1 0xA0 SHL SUB AND DUP2 MSTORE PUSH1 0x20 SWAP1 RETURN JUMPDEST PUSH1 0x4 CALLDATALOAD SWAP1 PUSH1 0x1 PUSH1 0x1 PUSH1 0xA0 SHL SUB DUP3 AND DUP3 SUB PUSH2 0x1D7 JUMPI JUMP JUMPDEST SWAP2 DUP2 PUSH1 0x1F DUP5 ADD SLT ISZERO PUSH2 0x1D7 JUMPI DUP3 CALLDATALOAD SWAP2 PUSH8 0xFFFFFFFFFFFFFFFF DUP4 GT PUSH2 0x1D7 JUMPI PUSH1 0x20 DUP4 DUP2 DUP7 ADD SWAP6 ADD ADD GT PUSH2 0x1D7 JUMPI JUMP JUMPDEST PUSH1 0x20 SWAP1 DUP2 PUSH1 0x40 DUP2 DUP4 ADD SWAP3 DUP3 DUP2 MSTORE DUP6 MLOAD DUP1 SWAP5 MSTORE ADD SWAP4 ADD SWAP2 PUSH1 0x0 JUMPDEST DUP3 DUP2 LT PUSH2 0xD50 JUMPI POP POP POP POP SWAP1 JUMP JUMPDEST DUP4 MLOAD DUP6 MSTORE SWAP4 DUP2 ADD SWAP4 SWAP3 DUP2 ADD SWAP3 PUSH1 0x1 ADD PUSH2 0xD42 JUMP JUMPDEST PUSH1 0x20 DUP2 ADD SWAP1 DUP2 LT PUSH8 0xFFFFFFFFFFFFFFFF DUP3 GT OR PUSH2 0x585 JUMPI PUSH1 0x40 MSTORE JUMP JUMPDEST SWAP1 PUSH1 0x1F DUP1 NOT SWAP2 ADD AND DUP2 ADD SWAP1 DUP2 LT PUSH8 0xFFFFFFFFFFFFFFFF DUP3 GT OR PUSH2 0x585 JUMPI PUSH1 0x40 MSTORE JUMP JUMPDEST SWAP1 PUSH1 0x1 DUP3 DUP2 SHR SWAP3 AND DUP1 ISZERO PUSH2 0xDD2 JUMPI JUMPDEST PUSH1 0x20 DUP4 LT EQ PUSH2 0xDBC JUMPI JUMP JUMPDEST PUSH4 0x4E487B71 PUSH1 0xE0 SHL PUSH1 0x0 MSTORE PUSH1 0x22 PUSH1 0x4 MSTORE PUSH1 0x24 PUSH1 0x0 REVERT JUMPDEST SWAP2 PUSH1 0x7F AND SWAP2 PUSH2 0xDB1 JUMP JUMPDEST SWAP1 PUSH1 0x1F DUP2 GT PUSH2 0xDEA JUMPI POP POP POP JUMP JUMPDEST PUSH1 0x0 SWAP2 DUP3 MSTORE PUSH1 0x20 DUP3 KECCAK256 SWAP1 PUSH1 0x20 PUSH1 0x1F DUP6 ADD PUSH1 0x5 SHR DUP4 ADD SWAP5 LT PUSH2 0xE26 JUMPI JUMPDEST PUSH1 0x1F ADD PUSH1 0x5 SHR ADD SWAP2 JUMPDEST DUP3 DUP2 LT PUSH2 0xE1B JUMPI POP POP POP JUMP JUMPDEST DUP2 DUP2 SSTORE PUSH1 0x1 ADD PUSH2 0xE0F JUMP JUMPDEST SWAP1 SWAP3 POP DUP3 SWAP1 PUSH2 0xE06 JUMP JUMPDEST DUP1 SLOAD DUP3 LT ISZERO PUSH2 0xE48 JUMPI PUSH1 0x0 MSTORE PUSH1 0x20 PUSH1 0x0 KECCAK256 ADD SWAP1 PUSH1 0x0 SWAP1 JUMP JUMPDEST PUSH4 0x4E487B71 PUSH1 0xE0 SHL PUSH1 0x0 MSTORE PUSH1 0x32 PUSH1 0x4 MSTORE PUSH1 0x24 PUSH1 0x0 REVERT JUMPDEST DUP1 SLOAD PUSH9 0x10000000000000000 DUP2 LT ISZERO PUSH2 0x585 JUMPI PUSH2 0xE80 SWAP2 PUSH1 0x1 DUP3 ADD DUP2 SSTORE PUSH2 0xE30 JUMP JUMPDEST DUP2 SWAP3 SWAP2 SLOAD SWAP1 PUSH1 0x3 SHL SWAP2 DUP3 SHL SWAP2 PUSH1 0x0 NOT SWAP1 SHL NOT AND OR SWAP1 SSTORE JUMP JUMPDEST PUSH1 0x0 NOT DUP2 EQ PUSH2 0x1C1 JUMPI PUSH1 0x1 ADD SWAP1 JUMP JUMPDEST SWAP1 DUP1 PUSH1 0x20 SWAP4 SWAP3 DUP2 DUP5 MSTORE DUP5 DUP5 ADD CALLDATACOPY PUSH1 0x0 DUP3 DUP3 ADD DUP5 ADD MSTORE PUSH1 0x1F ADD PUSH1 0x1F NOT AND ADD ADD SWAP1 JUMP JUMPDEST ISZERO PUSH2 0xECF JUMPI JUMP JUMPDEST PUSH1 0x40 MLOAD PUSH3 0x461BCD PUSH1 0xE5 SHL DUP2 MSTORE PUSH1 0x20 PUSH1 0x4 DUP3 ADD MSTORE PUSH1 0x16 PUSH1 0x24 DUP3 ADD MSTORE PUSH22 0x14995C5D595CDD08191BD95CC81B9BDD08195E1A5CDD PUSH1 0x52 SHL PUSH1 0x44 DUP3 ADD MSTORE PUSH1 0x64 SWAP1 REVERT JUMPDEST SWAP2 SWAP1 DUP3 ADD DUP1 SWAP3 GT PUSH2 0x1C1 JUMPI JUMP JUMPDEST SWAP1 PUSH1 0x0 SWAP3 SWAP2 DUP1 SLOAD SWAP2 PUSH2 0xF2B DUP4 PUSH2 0xDA2 JUMP JUMPDEST SWAP2 DUP3 DUP3 MSTORE PUSH1 0x1 SWAP4 DUP5 DUP2 AND SWAP1 DUP2 PUSH1 0x0 EQ PUSH2 0xF8D JUMPI POP PUSH1 0x1 EQ PUSH2 0xF4D JUMPI JUMPDEST POP POP POP POP JUMP JUMPDEST SWAP1 SWAP2 SWAP4 SWAP5 POP PUSH1 0x0 MSTORE PUSH1 0x20 SWAP3 DUP4 PUSH1 0x0 KECCAK256 SWAP3 DUP5 PUSH1 0x0 SWAP5 JUMPDEST DUP4 DUP7 LT PUSH2 0xF79 JUMPI POP POP POP POP ADD ADD SWAP1 CODESIZE DUP1 DUP1 DUP1 PUSH2 0xF47 JUMP JUMPDEST DUP1 SLOAD DUP6 DUP8 ADD DUP4 ADD MSTORE SWAP5 ADD SWAP4 DUP6 SWAP1 DUP3 ADD PUSH2 0xF62 JUMP JUMPDEST SWAP3 SWAP5 POP POP POP PUSH1 0x20 SWAP4 SWAP5 POP PUSH1 0xFF NOT AND DUP4 DUP4 ADD MSTORE ISZERO ISZERO PUSH1 0x5 SHL ADD ADD SWAP1 CODESIZE DUP1 DUP1 DUP1 PUSH2 0xF47 JUMP JUMPDEST SWAP2 SWAP1 DUP3 SUB SWAP2 DUP3 GT PUSH2 0x1C1 JUMPI JUMP JUMPDEST SWAP4 SWAP7 SWAP5 SWAP3 SWAP2 PUSH1 0x0 SWAP5 DUP6 MSTORE PUSH1 0x1 SWAP1 PUSH1 0x20 DUP3 DUP2 MSTORE PUSH1 0x40 DUP1 DUP9 KECCAK256 SWAP6 DUP9 SWAP12 PUSH2 0xFE2 DUP11 SWAP13 DUP11 PUSH2 0xF0D JUMP JUMPDEST SWAP7 DUP9 SLOAD DUP1 DUP10 GT PUSH2 0x1207 JUMPI JUMPDEST POP DUP7 SWAP8 SWAP9 DUP11 SWAP9 JUMPDEST PUSH2 0x103E JUMPI JUMPDEST POP POP POP POP POP POP POP POP POP PUSH8 0xFFFFFFFFFFFFFFFF DUP6 AND SWAP3 DUP4 ISZERO PUSH2 0x102A JUMPI POP PUSH1 0xFF SWAP3 SWAP2 PUSH2 0x1022 SWAP2 PUSH2 0xFB0 JUMP JUMPDEST SWAP4 SWAP5 DIV AND SWAP2 SWAP1 JUMP JUMPDEST SWAP6 POP SWAP1 SWAP2 POP PUSH2 0x103A SWAP3 SWAP4 POP PUSH2 0xFB0 JUMP JUMPDEST DUP3 SWAP2 JUMP JUMPDEST SWAP1 SWAP2 SWAP3 SWAP4 SWAP5 SWAP6 SWAP7 SWAP8 SWAP13 SWAP14 DUP14 DUP12 DUP12 DUP3 LT SWAP2 DUP3 PUSH2 0x11F1 JUMPI JUMPDEST POP POP ISZERO PUSH2 0x11EA JUMPI PUSH2 0x1065 DUP15 DUP4 PUSH2 0xE30 JUMP JUMPDEST SWAP1 SLOAD SWAP1 PUSH1 0x3 SHL SHR DUP13 MSTORE DUP12 DUP8 MSTORE DUP6 DUP13 KECCAK256 PUSH1 0x6 DUP2 ADD SLOAD ISZERO PUSH2 0x10E5 JUMPI DUP9 PUSH2 0x117E JUMPI JUMPDEST DUP5 ISZERO ISZERO DUP1 PUSH2 0x10F9 JUMPI JUMPDEST PUSH2 0x10E5 JUMPI SWAP1 PUSH1 0xFF PUSH1 0x2 PUSH2 0x10A3 SWAP4 ADD SLOAD AND SWAP1 PUSH2 0xF0D JUMP JUMPDEST SWAP14 PUSH8 0xFFFFFFFFFFFFFFFF DUP1 SWAP2 AND SWAP1 DUP2 EQ PUSH2 0x10D1 JUMPI SWAP1 PUSH2 0x10CB DUP10 DUP1 SWAP10 SWAP9 SWAP8 SWAP7 SWAP6 SWAP5 SWAP4 ADD SWAP15 PUSH2 0xE98 JUMP JUMPDEST SWAP9 PUSH2 0xFF4 JUMP JUMPDEST PUSH4 0x4E487B71 PUSH1 0xE0 SHL DUP13 MSTORE PUSH1 0x11 PUSH1 0x4 MSTORE PUSH1 0x24 DUP13 REVERT JUMPDEST POP SWAP14 SWAP13 SWAP1 PUSH2 0x10CB DUP10 SWAP9 SWAP8 SWAP7 SWAP6 SWAP5 SWAP4 SWAP3 PUSH2 0xE98 JUMP JUMPDEST POP DUP7 MLOAD PUSH1 0x4 SWAP1 PUSH2 0x1116 DUP2 PUSH2 0x110F DUP2 DUP6 DUP8 ADD PUSH2 0xF1A JUMP JUMPDEST SUB DUP3 PUSH2 0xD80 JUMP JUMPDEST DUP10 DUP2 MLOAD SWAP2 ADD KECCAK256 SWAP1 PUSH8 0xFFFFFFFFFFFFFFFF DUP8 GT PUSH2 0x116B JUMPI POP DUP8 MLOAD PUSH2 0x1142 PUSH1 0x1F DUP9 ADD PUSH1 0x1F NOT AND DUP12 ADD DUP3 PUSH2 0xD80 JUMP JUMPDEST DUP7 DUP2 MSTORE DUP10 DUP2 ADD SWAP1 CALLDATASIZE DUP9 DUP11 ADD GT PUSH2 0x1167 JUMPI DUP16 DUP9 DUP11 DUP5 CALLDATACOPY DUP12 DUP10 DUP4 ADD ADD MSTORE MLOAD SWAP1 KECCAK256 EQ ISZERO PUSH2 0x108D JUMP JUMPDEST DUP16 DUP1 REVERT JUMPDEST PUSH4 0x4E487B71 PUSH1 0xE0 SHL DUP16 MSTORE PUSH1 0x41 SWAP1 MSTORE PUSH1 0x24 DUP15 REVERT JUMPDEST DUP1 SLOAD DUP14 SWAP1 PUSH1 0x1 PUSH1 0x1 PUSH1 0xA0 SHL SUB SWAP1 DUP2 AND DUP3 JUMPDEST DUP13 DUP2 LT PUSH2 0x11B2 JUMPI JUMPDEST POP POP POP PUSH2 0x1084 JUMPI POP SWAP14 SWAP13 SWAP1 PUSH2 0x10CB DUP10 SWAP9 SWAP8 SWAP7 SWAP6 SWAP5 SWAP4 SWAP3 PUSH2 0xE98 JUMP JUMPDEST DUP1 PUSH1 0x5 SHL DUP9 ADD CALLDATALOAD DUP4 DUP2 AND DUP1 SWAP2 SUB PUSH2 0x11E4 JUMPI DUP3 EQ PUSH2 0x11D7 JUMPI PUSH2 0x11D2 SWAP1 PUSH2 0xE98 JUMP JUMPDEST PUSH2 0x118F JUMP JUMPDEST POP POP POP POP DUP10 CODESIZE DUP1 DUP1 PUSH2 0x1197 JUMP JUMPDEST POP POP DUP16 DUP1 REVERT JUMPDEST SWAP14 SWAP13 PUSH2 0xFF9 JUMP JUMPDEST PUSH1 0x64 SWAP3 POP SWAP1 PUSH2 0x11FF SWAP2 PUSH2 0xFB0 JUMP JUMPDEST LT DUP12 DUP16 PUSH2 0x1054 JUMP JUMPDEST SWAP8 POP DUP7 PUSH2 0xFED JUMP JUMPDEST PUSH8 0xFFFFFFFFFFFFFFFF DUP2 GT PUSH2 0x585 JUMPI PUSH1 0x5 SHL PUSH1 0x20 ADD SWAP1 JUMP JUMPDEST SWAP1 PUSH2 0x1231 DUP3 PUSH2 0x120F JUMP JUMPDEST PUSH2 0x123E PUSH1 0x40 MLOAD SWAP2 DUP3 PUSH2 0xD80 JUMP JUMPDEST DUP3 DUP2 MSTORE DUP1 SWAP3 PUSH2 0x124F PUSH1 0x1F NOT SWAP2 PUSH2 0x120F JUMP JUMPDEST ADD SWAP1 PUSH1 0x20 CALLDATASIZE SWAP2 ADD CALLDATACOPY JUMP JUMPDEST DUP1 MLOAD DUP3 LT ISZERO PUSH2 0xE48 JUMPI PUSH1 0x20 SWAP2 PUSH1 0x5 SHL ADD ADD SWAP1 JUMP JUMPDEST SWAP2 SWAP1 SWAP2 PUSH1 0x0 MSTORE PUSH1 0x1 PUSH1 0x20 MSTORE PUSH1 0x40 PUSH1 0x0 KECCAK256 SWAP2 DUP3 SLOAD SWAP2 DUP3 DUP3 LT ISZERO PUSH2 0x12FB JUMPI PUSH2 0x1293 SWAP1 DUP3 PUSH2 0xF0D JUMP JUMPDEST SWAP2 DUP1 DUP4 GT PUSH2 0x12F3 JUMPI JUMPDEST POP PUSH2 0x12AF PUSH2 0x12AA DUP3 DUP5 PUSH2 0xFB0 JUMP JUMPDEST PUSH2 0x1227 JUMP JUMPDEST SWAP3 DUP2 JUMPDEST DUP4 DUP2 LT PUSH2 0x12C0 JUMPI POP POP POP POP SWAP1 JUMP JUMPDEST DUP1 PUSH2 0x12CE PUSH2 0x12EE SWAP3 DUP5 PUSH2 0xE30 JUMP JUMPDEST SWAP1 SLOAD SWAP1 PUSH1 0x3 SHL SHR PUSH2 0x12E8 PUSH2 0x12E2 DUP7 DUP5 PUSH2 0xFB0 JUMP JUMPDEST DUP9 PUSH2 0x1259 JUMP JUMPDEST MSTORE PUSH2 0xE98 JUMP JUMPDEST PUSH2 0x12B2 JUMP JUMPDEST SWAP2 POP CODESIZE PUSH2 0x129C JUMP JUMPDEST POP POP POP POP PUSH1 0x40 MLOAD PUSH2 0x130B DUP2 PUSH2 0xD64 JUMP JUMPDEST PUSH1 0x0 DUP2 MSTORE PUSH1 0x0 CALLDATASIZE DUP2 CALLDATACOPY SWAP1 JUMP JUMPDEST SWAP2 SWAP1 SWAP2 PUSH1 0x1 DUP1 PUSH1 0xA0 SHL SUB AND PUSH1 0x0 MSTORE PUSH1 0x3 SWAP2 DUP3 PUSH1 0x20 MSTORE PUSH1 0x40 PUSH1 0x0 KECCAK256 SWAP3 DUP4 SLOAD SWAP3 DUP4 DUP4 LT ISZERO PUSH2 0x13A4 JUMPI PUSH2 0x1347 SWAP1 DUP4 PUSH2 0xF0D JUMP JUMPDEST SWAP3 DUP1 DUP5 GT PUSH2 0x139C JUMPI JUMPDEST POP PUSH2 0x135E PUSH2 0x12AA DUP4 DUP6 PUSH2 0xFB0 JUMP JUMPDEST SWAP4 DUP3 JUMPDEST DUP5 DUP2 LT PUSH2 0x1370 JUMPI POP POP POP POP POP SWAP1 JUMP JUMPDEST DUP1 PUSH2 0x137E PUSH2 0x1397 SWAP3 DUP5 PUSH2 0xE30 JUMP JUMPDEST SWAP1 SLOAD SWAP1 DUP6 SHL SHR PUSH2 0x12E8 PUSH2 0x1391 DUP8 DUP5 PUSH2 0xFB0 JUMP JUMPDEST DUP10 PUSH2 0x1259 JUMP JUMPDEST PUSH2 0x1361 JUMP JUMPDEST SWAP3 POP CODESIZE PUSH2 0x1350 JUMP JUMPDEST POP POP POP POP POP PUSH1 0x40 MLOAD PUSH2 0x130B DUP2 PUSH2 0xD64 JUMP INVALID LOG2 PUSH5 0x6970667358 0x22 SLT KECCAK256 CREATE 0xE STOP SWAP16 PUSH14 0x76AD0DD249D1A499AC3D468F872B 0xDE SWAP15 0xE3 0xB8 BLOCKHASH 0xE3 0xC 0xE0 0x49 GASLIMIT 0x2C PUSH1 0x34 PUSH5 0x736F6C6343 STOP ADDMOD EQ STOP CALLER "},"methodIdentifiers":{"MAX_ITERATION()":"6faf25ed","MAX_VALIDATIONS_PER_AGENT()":"51e592f7","REQUEST_EXPIRY()":"22f195b5","getAgentValidationCount(uint256)":"78dcd434","getAgentValidations(uint256,uint256,uint256)":"a6166d2d","getIdentityRegistry()":"bc4d861b","getSummary(uint256,address[],string,uint256,uint256)":"83cc5b6a","getValidationStatus(bytes32)":"ff2febfc","getValidatorRequestCount(address)":"387f8101","getValidatorRequests(address,uint256,uint256)":"aa8700b2","identityRegistry()":"134e18f4","validationRequest(address,uint256,string,bytes32)":"aaf400c4","validationResponse(bytes32,uint8,string,bytes32,string)":"3d659a96"}}}}}