{
  "_format": "hh-sol-artifact-1",
  "contractName": "ValidationRegistry",
  "sourceName": "contracts/ValidationRegistry.sol",
  "abi": [
    {
      "inputs": [
        {
          "internalType": "address",
          "name": "identityRegistry_",
          "type": "address"
        }
      ],
      "stateMutability": "nonpayable",
      "type": "constructor"
    },
    {
      "anonymous": false,
      "inputs": [
        {
          "indexed": true,
          "internalType": "address",
          "name": "validatorAddress",
          "type": "address"
        },
        {
          "indexed": true,
          "internalType": "uint256",
          "name": "agentId",
          "type": "uint256"
        },
        {
          "indexed": false,
          "internalType": "string",
          "name": "requestURI",
          "type": "string"
        },
        {
          "indexed": true,
          "internalType": "bytes32",
          "name": "requestHash",
          "type": "bytes32"
        }
      ],
      "name": "ValidationRequest",
      "type": "event"
    },
    {
      "anonymous": false,
      "inputs": [
        {
          "indexed": true,
          "internalType": "address",
          "name": "validatorAddress",
          "type": "address"
        },
        {
          "indexed": true,
          "internalType": "uint256",
          "name": "agentId",
          "type": "uint256"
        },
        {
          "indexed": true,
          "internalType": "bytes32",
          "name": "requestHash",
          "type": "bytes32"
        },
        {
          "indexed": false,
          "internalType": "uint8",
          "name": "response",
          "type": "uint8"
        },
        {
          "indexed": false,
          "internalType": "string",
          "name": "responseURI",
          "type": "string"
        },
        {
          "indexed": false,
          "internalType": "bytes32",
          "name": "responseHash",
          "type": "bytes32"
        },
        {
          "indexed": false,
          "internalType": "string",
          "name": "tag",
          "type": "string"
        }
      ],
      "name": "ValidationResponse",
      "type": "event"
    },
    {
      "inputs": [
        {
          "internalType": "uint256",
          "name": "agentId",
          "type": "uint256"
        }
      ],
      "name": "getAgentValidations",
      "outputs": [
        {
          "internalType": "bytes32[]",
          "name": "",
          "type": "bytes32[]"
        }
      ],
      "stateMutability": "view",
      "type": "function"
    },
    {
      "inputs": [],
      "name": "getIdentityRegistry",
      "outputs": [
        {
          "internalType": "address",
          "name": "",
          "type": "address"
        }
      ],
      "stateMutability": "view",
      "type": "function"
    },
    {
      "inputs": [
        {
          "internalType": "uint256",
          "name": "agentId",
          "type": "uint256"
        },
        {
          "internalType": "address",
          "name": "clientAddress",
          "type": "address"
        },
        {
          "internalType": "uint64",
          "name": "feedbackIndex",
          "type": "uint64"
        },
        {
          "internalType": "address[]",
          "name": "responders",
          "type": "address[]"
        }
      ],
      "name": "getResponseCount",
      "outputs": [
        {
          "internalType": "uint64",
          "name": "count",
          "type": "uint64"
        }
      ],
      "stateMutability": "view",
      "type": "function"
    },
    {
      "inputs": [
        {
          "internalType": "uint256",
          "name": "agentId",
          "type": "uint256"
        },
        {
          "internalType": "address[]",
          "name": "validatorAddresses",
          "type": "address[]"
        },
        {
          "internalType": "string",
          "name": "tag",
          "type": "string"
        }
      ],
      "name": "getSummary",
      "outputs": [
        {
          "internalType": "uint64",
          "name": "count",
          "type": "uint64"
        },
        {
          "internalType": "uint8",
          "name": "averageResponse",
          "type": "uint8"
        }
      ],
      "stateMutability": "view",
      "type": "function"
    },
    {
      "inputs": [
        {
          "internalType": "bytes32",
          "name": "requestHash",
          "type": "bytes32"
        }
      ],
      "name": "getValidationStatus",
      "outputs": [
        {
          "internalType": "address",
          "name": "validatorAddress",
          "type": "address"
        },
        {
          "internalType": "uint256",
          "name": "agentId",
          "type": "uint256"
        },
        {
          "internalType": "uint8",
          "name": "response",
          "type": "uint8"
        },
        {
          "internalType": "bytes32",
          "name": "responseHash",
          "type": "bytes32"
        },
        {
          "internalType": "string",
          "name": "tag",
          "type": "string"
        },
        {
          "internalType": "uint256",
          "name": "lastUpdate",
          "type": "uint256"
        }
      ],
      "stateMutability": "view",
      "type": "function"
    },
    {
      "inputs": [
        {
          "internalType": "address",
          "name": "validatorAddress",
          "type": "address"
        }
      ],
      "name": "getValidatorRequests",
      "outputs": [
        {
          "internalType": "bytes32[]",
          "name": "",
          "type": "bytes32[]"
        }
      ],
      "stateMutability": "view",
      "type": "function"
    },
    {
      "inputs": [],
      "name": "identityRegistry",
      "outputs": [
        {
          "internalType": "contract IdentityRegistry",
          "name": "",
          "type": "address"
        }
      ],
      "stateMutability": "view",
      "type": "function"
    },
    {
      "inputs": [
        {
          "internalType": "address",
          "name": "validatorAddress",
          "type": "address"
        },
        {
          "internalType": "uint256",
          "name": "agentId",
          "type": "uint256"
        },
        {
          "internalType": "string",
          "name": "requestURI",
          "type": "string"
        },
        {
          "internalType": "bytes32",
          "name": "requestHash",
          "type": "bytes32"
        }
      ],
      "name": "validationRequest",
      "outputs": [],
      "stateMutability": "nonpayable",
      "type": "function"
    },
    {
      "inputs": [
        {
          "internalType": "bytes32",
          "name": "requestHash",
          "type": "bytes32"
        },
        {
          "internalType": "uint8",
          "name": "response",
          "type": "uint8"
        },
        {
          "internalType": "string",
          "name": "responseURI",
          "type": "string"
        },
        {
          "internalType": "bytes32",
          "name": "responseHash",
          "type": "bytes32"
        },
        {
          "internalType": "string",
          "name": "tag",
          "type": "string"
        }
      ],
      "name": "validationResponse",
      "outputs": [],
      "stateMutability": "nonpayable",
      "type": "function"
    }
  ],
  "bytecode": "0x60a03461007a57601f61113e38819003918201601f19168301916001600160401b0383118484101761007f5780849260209460405283398101031261007a57516001600160a01b0381169081900361007a576080526040516110a890816100968239608051818181610172015281816101f40152610b590152f35b600080fd5b634e487b7160e01b600052604160045260246000fdfe608080604052600436101561001357600080fd5b60e090600035821c908163134e18f414610b46575080631b7cabd614610ad75780633d659a96146108535780634bf3158c146107db5780636e04cacd146106aa5780638d5d0c2d14610631578063aaf400c4146101a1578063bc4d861b1461015c5763ff2febfc1461008457600080fd5b346101575760209081600319360112610157576004803560009081528084526040902080546001600160a01b031691906100bf831515610d6e565b60018101549460ff6002830154166003830154906100f36005850154946100ec6040518098819301610db3565b0386610c36565b6040519788968752838701526040860152606085015260c060808501528251928360c086015260005b84811061014157505060008484018601525060a0830152601f01601f19168101030190f35b818101830151888201880152879550820161011c565b600080fd5b34610157576000366003190112610157576040517f00000000000000000000000000000000000000000000000000000000000000006001600160a01b03168152602090f35b34610157576080366003190112610157576101ba610be5565b6044356001600160401b038111610157576101d9903690600401610bb8565b6040516331a9108f60e11b81526024803560048301529293927f00000000000000000000000000000000000000000000000000000000000000006001600160a01b03169190602090829081855afa9081156105e3576000916105ef575b5060018060a01b03169033821491821561056c575b505015610527576001600160a01b038216156104e257606435156104a65760405160c081018181106001600160401b038211176104905760405260018060a01b0383168152602435602082015260006040820152600060608201526040518060208101106001600160401b036020830111176104905760208101604052600081526080820190815260a08201428152606435600052600060205260406000209160018060a01b038451166bffffffffffffffffffffffff60a01b8454161783556060602085015194600195868601556002850160ff60408301511660ff19825416179055015160038401556004830190518051906001600160401b038211610490576103618261035b8554610c57565b85610c91565b602090601f8311600114610427576005949392916000918361041c575b5050600019600383901b1c191690861b1790555b519101556024356000526020526103af6064356040600020610d13565b60018060a01b03821660005260026020526103d06064356040600020610d13565b7f530436c3634a98e1e626b0898be2f1e9980cc1bd2a78c07a0aba52d0a48a50596040516020815280610417606435966024359660018060a01b0316956020840191610d4d565b0390a4005b015190508a8061037e565b9392918691601f198216908460005260206000209160005b818110610478575096836005981061045f575b505050811b019055610392565b015160001960f88460031b161c191690558a8080610452565b8289015184558a95909301926020928301920161043f565b634e487b7160e01b600052604160045260246000fd5b60405162461bcd60e51b8152602060048201526014602482015273092dcecc2d8d2c840e4cae2eacae6e840d0c2e6d60631b6044820152606490fd5b60405162461bcd60e51b815260206004820152601960248201527f496e76616c69642076616c696461746f722061646472657373000000000000006044820152606490fd5b60405162461bcd60e51b815260206004820152601d60248201527f4e6f7420617574686f72697a656420666f722074686973206167656e740000006044820152606490fd5b602091925060446040518094819363e985e9c560e01b835260048301523360248301525afa9081156105e3576000916105a8575b50848061024b565b90506020813d6020116105db575b816105c360209383610c36565b810103126101575751801515810361015757846105a0565b3d91506105b6565b6040513d6000823e3d90fd5b90506020813d602011610629575b8161060a60209383610c36565b8101031261015757516001600160a01b03811681036101575785610236565b3d91506105fd565b3461015757602080600319360112610157576004356000526001808252604060002091604051918282855491828152019460005282600020926000905b8282106106955761069186610685818a0382610c36565b60405191829182610bfb565b0390f35b8454875295860195938301939083019061066e565b34610157576080366003190112610157576001600160a01b0360243581811603610157576001600160401b03906044358281160361015757606435828111610157576106fa903690600401610b88565b6004939193356000526001926020948486526040600020916000956000938054945b85811061072f5789898960405191168152f35b6107398183610ce5565b90549060031b1c60005260008a52604060002087610781575b6002015460ff1661076c575b61076790610e49565b61071c565b9761077961076791610e92565b98905061075e565b60008086835416905b878b8083106107a6575b50505050610752575061076790610e49565b6107b4836107b9928d610e6e565b610e7e565b1682146107ce576107c990610e49565b61078a565b505050838c80878b610794565b3461015757602080600319360112610157576001600160a01b036107fd610be5565b1660005260028152604060002090604051908181845491828152019360005281600020916000905b82821061083c576106918561068581890382610c36565b835486529485019460019384019390910190610825565b346101575760a03660031901126101575760243560ff8116809103610157576001600160401b039060443582811161015757610893903690600401610bb8565b91909260643591608435828111610157576108b2903690600401610bb8565b60049491943596876000526020946000865260406000209060018060a01b038254166108df811515610d6e565b3303610a925760648611610a5457600282018660ff198254161790558460038301558311610490576004810161091f846109198354610c57565b83610c91565b6000601f85116001146109b957926001859361099993610417977fafddf629e874ccc3963b6a888c477bd464a6c8525024fc88759ea3b2326349ae9b9a99976000916109ae575b50600019600388901b1c191686841b1790555b426005820155015499608060405198899889528801526080870191610d4d565b91604085015283820360608501523396610d4d565b90508c01358f610966565b8160005288886000209160005b601f1988168110610a3a575093610999937fafddf629e874ccc3963b6a888c477bd464a6c8525024fc88759ea3b2326349ae9a9998969360019389976104179a601f19811610610a20575b5050508286811b019055610979565b0135600019600389901b60f8161c191690558e8c81610a11565b91600182948c938493013581550193019101908a916109c6565b60405162461bcd60e51b81526004810188905260166024820152750526573706f6e7365206d75737420626520302d3130360541b6044820152606490fd5b60405162461bcd60e51b815260048101889052601a60248201527f4f6e6c792076616c696461746f722063616e20726573706f6e640000000000006044820152606490fd5b34610157576060366003190112610157576001600160401b0360243581811161015757610b08903690600401610b88565b91906044358281116101575760409360ff92610b2b610b36933690600401610bb8565b929091600435610eaa565b9092845193168352166020820152f35b34610157576000366003190112610157577f00000000000000000000000000000000000000000000000000000000000000006001600160a01b03168152602090f35b9181601f84011215610157578235916001600160401b038311610157576020808501948460051b01011161015757565b9181601f84011215610157578235916001600160401b038311610157576020838186019501011161015757565b600435906001600160a01b038216820361015757565b6020908160408183019282815285518094520193019160005b828110610c22575050505090565b835185529381019392810192600101610c14565b90601f801991011681019081106001600160401b0382111761049057604052565b90600182811c92168015610c87575b6020831014610c7157565b634e487b7160e01b600052602260045260246000fd5b91607f1691610c66565b90601f8111610c9f57505050565b600091825260208220906020601f850160051c83019410610cdb575b601f0160051c01915b828110610cd057505050565b818155600101610cc4565b9092508290610cbb565b8054821015610cfd5760005260206000200190600090565b634e487b7160e01b600052603260045260246000fd5b80546801000000000000000081101561049057610d3591600182018155610ce5565b819291549060031b91821b91600019901b1916179055565b908060209392818452848401376000828201840152601f01601f1916010190565b15610d7557565b60405162461bcd60e51b815260206004820152601660248201527514995c5d595cdd08191bd95cc81b9bdd08195e1a5cdd60521b6044820152606490fd5b9060009291805491610dc483610c57565b918282526001938481169081600014610e265750600114610de6575b50505050565b90919394506000526020928360002092846000945b838610610e12575050505001019038808080610de0565b805485870183015294019385908201610dfb565b9294505050602093945060ff191683830152151560051b01019038808080610de0565b6000198114610e585760010190565b634e487b7160e01b600052601160045260246000fd5b9190811015610cfd5760051b0190565b356001600160a01b03811681036101575790565b6001600160401b03809116908114610e585760010190565b600090815260016020818152604080842080549499988a988998899891935b888a10610efc57505050505050505050506001600160401b038116918215610ef45750920460ff1690565b935050508190565b909192939495969798999c610f118b83610ce5565b90549060031b1c8c528b8852868c2083611009575b85151580610f85575b610f7957600260ff910154168101809111610f6557610f51610f57919e610e92565b9a610e49565b989796959493929190610ec9565b634e487b7160e01b8c52601160045260248cfd5b509c99610f5790610e49565b508751600490610fa281610f9b81858701610db3565b0382610c36565b8a8151910120906001600160401b038811610ff657508851610fcd601f8901601f19168c0182610c36565b8781528a81019036898b0111610ff2578f898b84378c8a830101525190201415610f2f565b8f80fd5b634e487b7160e01b8f526041905260248efd5b80549b9d9c9b8c906001600160a01b0390811690825b87811061103e575b5050509d9b9c9d610f2657509c99610f5790610e49565b8161104d6107b4838b8d610e6e565b1683146110625761105d90610e49565b61101f565b508c92503891508190508061102756fea2646970667358221220d0a000d6a120a7838eb32125ecfb2ebd4eb9d1b48e2fa743bc4096ddfb47e8ef64736f6c63430008140033",
  "linkReferences": {},
  "deployedLinkReferences": {}
}