{
  "_format": "hh-sol-artifact-1",
  "contractName": "ValidationRegistry",
  "sourceName": "contracts/ValidationRegistry.sol",
  "abi": [
    {
      "inputs": [
        {
          "internalType": "address",
          "name": "identityRegistry_",
          "type": "address"
        }
      ],
      "stateMutability": "nonpayable",
      "type": "constructor"
    },
    {
      "anonymous": false,
      "inputs": [
        {
          "indexed": true,
          "internalType": "bytes32",
          "name": "requestHash",
          "type": "bytes32"
        },
        {
          "indexed": true,
          "internalType": "uint256",
          "name": "agentId",
          "type": "uint256"
        }
      ],
      "name": "ValidationExpired",
      "type": "event"
    },
    {
      "anonymous": false,
      "inputs": [
        {
          "indexed": true,
          "internalType": "address",
          "name": "validatorAddress",
          "type": "address"
        },
        {
          "indexed": true,
          "internalType": "uint256",
          "name": "agentId",
          "type": "uint256"
        },
        {
          "indexed": false,
          "internalType": "string",
          "name": "requestURI",
          "type": "string"
        },
        {
          "indexed": true,
          "internalType": "bytes32",
          "name": "requestHash",
          "type": "bytes32"
        }
      ],
      "name": "ValidationRequest",
      "type": "event"
    },
    {
      "anonymous": false,
      "inputs": [
        {
          "indexed": true,
          "internalType": "address",
          "name": "validatorAddress",
          "type": "address"
        },
        {
          "indexed": true,
          "internalType": "uint256",
          "name": "agentId",
          "type": "uint256"
        },
        {
          "indexed": true,
          "internalType": "bytes32",
          "name": "requestHash",
          "type": "bytes32"
        },
        {
          "indexed": false,
          "internalType": "uint8",
          "name": "response",
          "type": "uint8"
        },
        {
          "indexed": false,
          "internalType": "string",
          "name": "responseURI",
          "type": "string"
        },
        {
          "indexed": false,
          "internalType": "bytes32",
          "name": "responseHash",
          "type": "bytes32"
        },
        {
          "indexed": false,
          "internalType": "string",
          "name": "tag",
          "type": "string"
        }
      ],
      "name": "ValidationResponse",
      "type": "event"
    },
    {
      "inputs": [],
      "name": "MAX_ITERATION",
      "outputs": [
        {
          "internalType": "uint256",
          "name": "",
          "type": "uint256"
        }
      ],
      "stateMutability": "view",
      "type": "function"
    },
    {
      "inputs": [],
      "name": "MAX_VALIDATIONS_PER_AGENT",
      "outputs": [
        {
          "internalType": "uint256",
          "name": "",
          "type": "uint256"
        }
      ],
      "stateMutability": "view",
      "type": "function"
    },
    {
      "inputs": [],
      "name": "REQUEST_EXPIRY",
      "outputs": [
        {
          "internalType": "uint256",
          "name": "",
          "type": "uint256"
        }
      ],
      "stateMutability": "view",
      "type": "function"
    },
    {
      "inputs": [
        {
          "internalType": "uint256",
          "name": "agentId",
          "type": "uint256"
        }
      ],
      "name": "getAgentValidationCount",
      "outputs": [
        {
          "internalType": "uint256",
          "name": "",
          "type": "uint256"
        }
      ],
      "stateMutability": "view",
      "type": "function"
    },
    {
      "inputs": [
        {
          "internalType": "uint256",
          "name": "agentId",
          "type": "uint256"
        },
        {
          "internalType": "uint256",
          "name": "offset",
          "type": "uint256"
        },
        {
          "internalType": "uint256",
          "name": "limit",
          "type": "uint256"
        }
      ],
      "name": "getAgentValidations",
      "outputs": [
        {
          "internalType": "bytes32[]",
          "name": "",
          "type": "bytes32[]"
        }
      ],
      "stateMutability": "view",
      "type": "function"
    },
    {
      "inputs": [],
      "name": "getIdentityRegistry",
      "outputs": [
        {
          "internalType": "address",
          "name": "",
          "type": "address"
        }
      ],
      "stateMutability": "view",
      "type": "function"
    },
    {
      "inputs": [
        {
          "internalType": "uint256",
          "name": "agentId",
          "type": "uint256"
        },
        {
          "internalType": "address[]",
          "name": "validatorAddresses",
          "type": "address[]"
        },
        {
          "internalType": "string",
          "name": "tag",
          "type": "string"
        },
        {
          "internalType": "uint256",
          "name": "offset",
          "type": "uint256"
        },
        {
          "internalType": "uint256",
          "name": "limit",
          "type": "uint256"
        }
      ],
      "name": "getSummary",
      "outputs": [
        {
          "internalType": "uint64",
          "name": "count",
          "type": "uint64"
        },
        {
          "internalType": "uint8",
          "name": "averageResponse",
          "type": "uint8"
        },
        {
          "internalType": "uint256",
          "name": "totalChecked",
          "type": "uint256"
        }
      ],
      "stateMutability": "view",
      "type": "function"
    },
    {
      "inputs": [
        {
          "internalType": "bytes32",
          "name": "requestHash",
          "type": "bytes32"
        }
      ],
      "name": "getValidationStatus",
      "outputs": [
        {
          "internalType": "address",
          "name": "validatorAddress",
          "type": "address"
        },
        {
          "internalType": "uint256",
          "name": "agentId",
          "type": "uint256"
        },
        {
          "internalType": "uint8",
          "name": "response",
          "type": "uint8"
        },
        {
          "internalType": "bytes32",
          "name": "responseHash",
          "type": "bytes32"
        },
        {
          "internalType": "string",
          "name": "tag",
          "type": "string"
        },
        {
          "internalType": "uint256",
          "name": "createdAt",
          "type": "uint256"
        },
        {
          "internalType": "uint256",
          "name": "respondedAt",
          "type": "uint256"
        },
        {
          "internalType": "bool",
          "name": "isExpired",
          "type": "bool"
        }
      ],
      "stateMutability": "view",
      "type": "function"
    },
    {
      "inputs": [
        {
          "internalType": "address",
          "name": "validatorAddress",
          "type": "address"
        }
      ],
      "name": "getValidatorRequestCount",
      "outputs": [
        {
          "internalType": "uint256",
          "name": "",
          "type": "uint256"
        }
      ],
      "stateMutability": "view",
      "type": "function"
    },
    {
      "inputs": [
        {
          "internalType": "address",
          "name": "validatorAddress",
          "type": "address"
        },
        {
          "internalType": "uint256",
          "name": "offset",
          "type": "uint256"
        },
        {
          "internalType": "uint256",
          "name": "limit",
          "type": "uint256"
        }
      ],
      "name": "getValidatorRequests",
      "outputs": [
        {
          "internalType": "bytes32[]",
          "name": "",
          "type": "bytes32[]"
        }
      ],
      "stateMutability": "view",
      "type": "function"
    },
    {
      "inputs": [],
      "name": "identityRegistry",
      "outputs": [
        {
          "internalType": "contract IdentityRegistry",
          "name": "",
          "type": "address"
        }
      ],
      "stateMutability": "view",
      "type": "function"
    },
    {
      "inputs": [
        {
          "internalType": "address",
          "name": "validatorAddress",
          "type": "address"
        },
        {
          "internalType": "uint256",
          "name": "agentId",
          "type": "uint256"
        },
        {
          "internalType": "string",
          "name": "requestURI",
          "type": "string"
        },
        {
          "internalType": "bytes32",
          "name": "requestHash",
          "type": "bytes32"
        }
      ],
      "name": "validationRequest",
      "outputs": [],
      "stateMutability": "nonpayable",
      "type": "function"
    },
    {
      "inputs": [
        {
          "internalType": "bytes32",
          "name": "requestHash",
          "type": "bytes32"
        },
        {
          "internalType": "uint8",
          "name": "response",
          "type": "uint8"
        },
        {
          "internalType": "string",
          "name": "responseURI",
          "type": "string"
        },
        {
          "internalType": "bytes32",
          "name": "responseHash",
          "type": "bytes32"
        },
        {
          "internalType": "string",
          "name": "tag",
          "type": "string"
        }
      ],
      "name": "validationResponse",
      "outputs": [],
      "stateMutability": "nonpayable",
      "type": "function"
    }
  ],
  "bytecode": "0x60a0346100c557601f6114cc38819003918201601f19168301916001600160401b038311848410176100ca578084926020946040528339810103126100c557516001600160a01b038116908190036100c5578015610080576080526040516113eb90816100e182396080518181816101f2015281816102670152610cb60152f35b60405162461bcd60e51b815260206004820152601860248201527f496e76616c6964207265676973747279206164647265737300000000000000006044820152606490fd5b600080fd5b634e487b7160e01b600052604160045260246000fdfe608080604052600436101561001357600080fd5b60003560e01c908163134e18f414610ca35750806322f195b514610c85578063387f810114610c4b5780633d659a961461090757806351e592f7146108ea5780636faf25ed146108ce57806378dcd434146108a257806383cc5b6a1461080b578063a6166d2d146107e6578063aa8700b2146107aa578063aaf400c414610221578063bc4d861b146101dc5763ff2febfc146100ae57600080fd5b346101d7576020806003193601126101d7576004356000526000815260406000206100df60ff600783015416610ec8565b60068101548015806101a5575b60049060018060a01b038454169260018501549560ff60028701541660038701549061012e6005890154986101276040518099819301610f1a565b0387610d80565b60405198899788528388015260408701526060860152610100938460808701528051809587015260005b85811061018d5750505061012094600086858701015260a085015260c0840152151560e0830152601f80199101168101030190f35b81810183015189820161012001528896508201610158565b5060058201549062278d0082018092116101c1579042116100ec565b634e487b7160e01b600052601160045260246000fd5b600080fd5b346101d75760003660031901126101d7576040517f00000000000000000000000000000000000000000000000000000000000000006001600160a01b03168152602090f35b346101d75760803660031901126101d75761023a610ce5565b604490813567ffffffffffffffff81116101d75761025c903690600401610cfb565b909260018060a01b037f0000000000000000000000000000000000000000000000000000000000000000166040516331a9108f60e11b81526024356004820152602081602481855afa90811561075c57600091610768575b5060018060a01b0316903382149182156106e6575b5050156106a2576001600160a01b0383161561065e576064351561062357606435600052600060205260ff600760406000200154166105df5760243560005260026020526103e8604060002054101561059b5750604051610100810181811067ffffffffffffffff8211176105855760409081526001600160a01b03841682526024356020830152600082820181905260608301525161036881610d64565b6000815260808201524260a0820152600060c0820152600160e08201526064356000526000602052604060002060018060a01b038251166bffffffffffffffffffffffff60a01b825416178155602082015160018201556002810160ff60408401511660ff19825416179055606082015160038201556080820151805167ffffffffffffffff811161058557600483019161040d826104078554610da2565b85610ddc565b602090601f83116001146105175791806007949260e0969460009261050c575b50508160011b916000199060031b1c19161790555b60a0840151600582015560c0840151600682015501910151151560ff8019835416911617905560243560005260016020526104836064356040600020610e5e565b6024356000526002602052604060002061049d8154610e98565b905560018060a01b03821660005260036020526104c06064356040600020610e5e565b7f530436c3634a98e1e626b0898be2f1e9980cc1bd2a78c07a0aba52d0a48a50596040516020815280610507606435966024359660018060a01b0316956020840191610ea7565b0390a4005b015190508a8061042d565b90601f198316918460005260206000209260005b81811061056d575092600192859260e098966007989610610554575b505050811b019055610442565b015160001960f88460031b161c191690558a8080610547565b9293602060018192878601518155019501930161052b565b634e487b7160e01b600052604160045260246000fd5b6064907f4167656e742076616c69646174696f6e206c696d6974207265616368656400006040519162461bcd60e51b835260206004840152601e6024840152820152fd5b6064907f52657175657374206861736820616c72656164792065786973747300000000006040519162461bcd60e51b835260206004840152601b6024840152820152fd5b60649073092dcecc2d8d2c840e4cae2eacae6e840d0c2e6d60631b6040519162461bcd60e51b83526020600484015260146024840152820152fd5b6064907f496e76616c69642076616c696461746f722061646472657373000000000000006040519162461bcd60e51b83526020600484015260196024840152820152fd5b6064907f4e6f7420617574686f72697a656420666f722074686973206167656e740000006040519162461bcd60e51b835260206004840152601d6024840152820152fd5b6020919250836040518094819363e985e9c560e01b835260048301523360248301525afa90811561075c57600091610721575b5085806102c9565b90506020813d602011610754575b8161073c60209383610d80565b810103126101d7575180151581036101d75785610719565b3d915061072f565b6040513d6000823e3d90fd5b90506020813d6020116107a2575b8161078360209383610d80565b810103126101d757516001600160a01b03811681036101d757866102b4565b3d9150610776565b346101d75760603660031901126101d7576107e26107d66107c9610ce5565b6044359060243590611317565b60405191829182610d29565b0390f35b346101d75760603660031901126101d7576107e26107d660443560243560043561126d565b346101d75760a03660031901126101d75760243567ffffffffffffffff8082116101d757366023830112156101d7578160040135918183116101d7573660248460051b830101116101d7576044358281116101d75760609360ff9261087761088b933690600401610cfb565b906084359360246064359401600435610fbd565b929193604051941684521660208301526040820152f35b346101d75760203660031901126101d75760043560005260026020526020604060002054604051908152f35b346101d75760003660031901126101d757602060405160648152f35b346101d75760003660031901126101d75760206040516103e88152f35b346101d75760a03660031901126101d757600435602480359060ff82168092036101d75767ffffffffffffffff6044358181116101d75761094c903690600401610cfb565b9390926084358381116101d757610967903690600401610cfb565b9094876000526020946000865260406000209061098a60ff600784015416610ec8565b81546001600160a01b03163303610c075760648611610bca5760068201908154610b9257600583015462278d008101809111610b7d574211610b4357600283018760ff198254161790556064359586600385015560048401918611610b2f57506109fe856109f88354610da2565b83610ddc565b6000601f8611600114610a96578593610a76937fafddf629e874ccc3963b6a888c477bd464a6c8525024fc88759ea3b2326349ae9a9998969361050798600194600091610a8b575b50600019600389901b1c191687851b1790555b429055015499608060405198899889528801526080870191610ea7565b91604085015283820360608501523396610ea7565b90508d013538610a46565b89601f19871691836000528a6000209260005b818110610b16575093600193899793610a7697936105079b7fafddf629e874ccc3963b6a888c477bd464a6c8525024fc88759ea3b2326349ae9f9e9d9b9810610afc575b5050508387811b019055610a59565b013560001960038a901b60f8161c191690558f8d81610aed565b9282013584556001909301928c92918c01918c01610aa9565b634e487b7160e01b60009081526041600452fd5b60405162461bcd60e51b8152600481018990526013818801527214995c5d595cdd081a185cc8195e1c1a5c9959606a1b6044820152606490fd5b86634e487b7160e01b60005260116004526000fd5b60405162461bcd60e51b81526004810189905260118188015270105b1c9958591e481c995cdc1bdb991959607a1b6044820152606490fd5b60405162461bcd60e51b815260048101889052601681870152750526573706f6e7365206d75737420626520302d3130360541b6044820152606490fd5b60405162461bcd60e51b815260048101889052601a818701527f4f6e6c792076616c696461746f722063616e20726573706f6e640000000000006044820152606490fd5b346101d75760203660031901126101d7576001600160a01b03610c6c610ce5565b1660005260036020526020604060002054604051908152f35b346101d75760003660031901126101d757602060405162278d008152f35b346101d75760003660031901126101d7577f00000000000000000000000000000000000000000000000000000000000000006001600160a01b03168152602090f35b600435906001600160a01b03821682036101d757565b9181601f840112156101d75782359167ffffffffffffffff83116101d757602083818601950101116101d757565b6020908160408183019282815285518094520193019160005b828110610d50575050505090565b835185529381019392810192600101610d42565b6020810190811067ffffffffffffffff82111761058557604052565b90601f8019910116810190811067ffffffffffffffff82111761058557604052565b90600182811c92168015610dd2575b6020831014610dbc57565b634e487b7160e01b600052602260045260246000fd5b91607f1691610db1565b90601f8111610dea57505050565b600091825260208220906020601f850160051c83019410610e26575b601f0160051c01915b828110610e1b57505050565b818155600101610e0f565b9092508290610e06565b8054821015610e485760005260206000200190600090565b634e487b7160e01b600052603260045260246000fd5b80546801000000000000000081101561058557610e8091600182018155610e30565b819291549060031b91821b91600019901b1916179055565b60001981146101c15760010190565b908060209392818452848401376000828201840152601f01601f1916010190565b15610ecf57565b60405162461bcd60e51b815260206004820152601660248201527514995c5d595cdd08191bd95cc81b9bdd08195e1a5cdd60521b6044820152606490fd5b919082018092116101c157565b9060009291805491610f2b83610da2565b918282526001938481169081600014610f8d5750600114610f4d575b50505050565b90919394506000526020928360002092846000945b838610610f79575050505001019038808080610f47565b805485870183015294019385908201610f62565b9294505050602093945060ff191683830152151560051b01019038808080610f47565b919082039182116101c157565b939694929160009485526001906020828152604080882095889b610fe28a9c8a610f0d565b968854808911611207575b508697988a985b61103e575b50505050505050505067ffffffffffffffff851692831561102a575060ff929161102291610fb0565b939404169190565b955090915061103a929350610fb0565b8291565b90919293949596979c9d8d8b8b821091826111f1575b5050156111ea576110658e83610e30565b90549060031b1c8c528b8752858c206006810154156110e5578861117e575b841515806110f9575b6110e5579060ff60026110a39301541690610f0d565b9d67ffffffffffffffff8091169081146110d157906110cb898099989796959493019e610e98565b98610ff4565b634e487b7160e01b8c52601160045260248cfd5b509d9c906110cb8998979695949392610e98565b5086516004906111168161110f81858701610f1a565b0382610d80565b8981519101209067ffffffffffffffff871161116b57508751611142601f8801601f19168b0182610d80565b8681528981019036888a0111611167578f888a84378b8983010152519020141561108d565b8f80fd5b634e487b7160e01b8f526041905260248efd5b80548d906001600160a01b03908116825b8c81106111b2575b50505061108457509d9c906110cb8998979695949392610e98565b8060051b8801358381168091036111e45782146111d7576111d290610e98565b61118f565b5050505089388080611197565b50508f80fd5b9d9c610ff9565b60649250906111ff91610fb0565b108b8f611054565b975086610fed565b67ffffffffffffffff81116105855760051b60200190565b906112318261120f565b61123e6040519182610d80565b828152809261124f601f199161120f565b0190602036910137565b8051821015610e485760209160051b010190565b9190916000526001602052604060002091825491828210156112fb576112939082610f0d565b918083116112f3575b506112af6112aa8284610fb0565b611227565b92815b8381106112c0575050505090565b806112ce6112ee9284610e30565b90549060031b1c6112e86112e28684610fb0565b88611259565b52610e98565b6112b2565b91503861129c565b5050505060405161130b81610d64565b60008152600036813790565b91909160018060a01b031660005260039182602052604060002092835492838310156113a4576113479083610f0d565b9280841161139c575b5061135e6112aa8385610fb0565b93825b84811061137057505050505090565b8061137e6113979284610e30565b905490851b1c6112e86113918784610fb0565b89611259565b611361565b925038611350565b505050505060405161130b81610d6456fea2646970667358221220f00e009f6d76ad0dd249d1a499ac3d468f872bde9ee3b840e30ce049452c603464736f6c63430008140033",
  "linkReferences": {},
  "deployedLinkReferences": {}
}